:030000000202D722
:0C02D700787FE4F6D8FD75812402031E38
:100237002A2A2A2A2A2A2A2A2A2A2A2A2A2A2A2A17
:1002470000BBF9D3DAB5A5C6ACBBFAB5C4CEDECFD1
:10025700DF00BAECCDE2B7C0B5C1B1A8BEAFCFB52C
:10026700CDB300D0D5C3FBA3BA2020B6A12020C7A9
:10027700D9202000D1A7BAC5A3BA313630323131DF
:100287003230322000BEAFB8E6A3BAD2BBC7D0B077
:10029700B2C8AB212100C4A3CABDA3BA2020B2BCF7
:1002A7002020B7C0202000B2BC2020B7C0202000EB
:1002B700B3B72020B7C020202000D3D0C8CBBFBF02
:1002C700BDFC212100D2BBC7D0B0B2C8AB212100F1
:1005CC00041600000000C1085000000000000000EC
:0B05DC00000000000000000000000014
:0C0761007F2B7E067DCBDDFEDEFCDFFA88
:01076D002269
:10012800E4F508F509F50A75B208C2B312073F12DB
:1001380007611205311207611205311207611205B4
:10014800317BFF7A0279377F801206447BFF7A027F
:1001580079487F901206447BFF7A0279597F88128A
:1001680006447BFF7A0279377F98120644120761AA
:10017800120761D2B3120761C2B37BFF7A02796AB0
:100188007F801206447BFF7A02797B7F90120644B7
:100198007BFF7A02798C7F881206447BFF7A02798A
:1001A8009D7F981206441207861205F61206DD1284
:1001B80007A8E5195401FFE4FDFCEF60F5E51954C3
:1001C800FEF519E518F518E517F517E516F5169073
:1001D800001EE06434702490001DE06436701CA397
:1001E800F090001DF0B2087BFF2008067A0279AE75
:1001F80080047A0279B77F9C120644200811900087
:1002080012E0640170097F88120798B2B38002C2B5
:10021800B3900012E064017BFF70067A0279C18016
:0F022800047A0279CC7F8B120644120363808321
:0805E700011F00C109011E0003
:10073F00439850438920758BFD758DFDD28ED2AFB6
:01074F002287
:080798008F993099FDC29922EE
:1006F4001203D5FF600C120798740129F9E43AFA41
:0307040080EE2262
:080568008B1A8A1B891C8D1DF2
:10057000E4FDFCC3ED951D7480F86C98501CAB1A1B
:10058000051CE51CAA1B7002051B14F91203D5FFFC
:0A0590001207980DBD00010C80D980
:01059A00223E
:0305EF00012400E4
:1006DD00538E7F5389F0438901E4F58A758C4CC2A2
:0706ED008DD28C43A882228C
:03000B000204C02C
:0904C000C0E0C0D075D000C007F7
:1004C900758A00758C4CAF240524D3EF9409748088
:1004D90094804015752400E5194401F519E518F5CE
:0904E90018E517F517E516F516E4
:0704F200D007D0D0D0E032AA
:0500060034431010015D
:0305F200012200E3
:1003630005221204F97F0712076E8F20300614E46A
:10037300F5227B017A007910750F047F6112059BCA
:100383007523017F64120707AD207F271206B3E5AB
:100393002364017023900010E0FF1207989000116E
:1003A300E0FF120798900012E0FF120798900013E5
:1003B300E0FF120798E4F523AF22EF3395E0FED375
:1003C300EF9405EE648094804007E4F522900010DA
:0103D300F039
:0103D4002206
:09078600C293D290C294D29222D7
:10070700E4FEEEC39F500B7DFADDFE7DFADDFE0EA3
:0207170080F070
:0107190022BD
:10068C00D3EF9400EE940040147D6E7C00ED1D7051
:0D069C00011CED4C70F7EF1F70E61E80E3AF
:0106A900222E
:10066A00E4FEEEC39408748094805015EF3392919F
:10067A00EF25E0FFD294A295E4334207C2940E809C
:01068A00E18E
:01068B00224C
:0906AA007D017F211206B37F22BD
:1006B300C29012066AAC07AF0512066AD290AF0465
:0106C3002214
:0C076E00C29012066AE4FF12066AD290E4
:01077A00225C
:06059B008B0C8A0D890E95
:1005A100C29012066AAD07E4FCECC3950F5017E444
:1005B100FF12066AAB0CAA0DA90E8C82758300EF9F
:0A05C10012041B0C80E3D290AF057A
:0105CB00220D
:0B0486007BFF7A0079067512057F2AC3
:060491008B0F8A10891197
:10049700C29012066AAD07E4FCECC395125015AB87
:1004A7000FAA10A9118C827583001203EEFF1206A2
:0804B7006A0C80E5D290AF054C
:0104BF00221A
:1005F600C2931204861206AA7D287F251206B37DB1
:10060600047F311206B37D077F261206B37D0F7F66
:07061600201206B3D293226B
:10043D008B0B8A0C890DC2937BFF7A00790675129E
:10044D00057F30120491120486AB0BAA0CA90D7511
:10045D0012047FA01204911206AA7D0A7F241206AF
:10046D00B37D287F251206B37D077F261206B37D47
:09047D000E7F201206B3D2932277
:10061D002092FD7FFF12066A8F20300408300A05F4
:10062D007FE112066AAD207F271206B3D292300504
:07063D00037F00227FFF2272
:1004F9007F647E0012068C90001474AAF0A374BB6A
:10050900F0A374CCF0A374DDF07B017A00791412A6
:10051900043DD20A12061D1205F67FFA7E00120664
:080529008C7FFA7E0002068CB3
:0A077B0000007F367EC6DEFEDFFCC4
:010785002251
:0707A0000000007F18DFFEDE
:0107A700222F
:100750008F0E12072DD2A4C2A5D2A6850E80C2A6E6
:010760002276
:100644008B0B8A0C890D1206C4AB0BAA0CA90D12D4
:1006540003D5FF60101207507401250DF50DE43524
:060664000CF50C80E422FD
:0406C4007D017C0038
:1006C8008F0EED4C600312072DC2A4C2A5D2A685D9
:0506D8000E80C2A62205
:09078F007D017C007F010206C817
:10072D00C2A4D2A5C2A67580FFD2A6E58054807062
:02073D00EF22A9
:10053100D2A7E4FDFC7F301206C812077BE4FDFC64
:100541007F301206C812077B7F0C1206C412077B8C
:100551007F011206C412077B12077B7D017C007F9D
:07056100061206C802077B29
:0707A80043A88143880122F0
:0300030002000EEA
:0D000E00C0E0C0F0C083C082C0D075D0003B
:10001B00751500C2AFC2A87F0F12071A30B20302C8
:10002B00011920B2077F0112071A80F6751300C35E
:10003B00E513940474809480506E751400C3E5141A
:10004B00940874809480505C30B2077F0112071AB9
:10005B0080F620B2077F0112071A80F630B2157FA7
:10006B000112071A0515C3E515941E748094804080
:10007B00EB02011974182513F582E43400F583E0C3
:10008B00C313F0C3E515940874809480400F741863
:10009B002513F582E43400F583E04480F0751500F8
:1000AB00051480990513808790001BE0F4FF9000E6
:1000BB001AE0FE6F60028056EE540F90001DF09018
:1000CB00001AE0C4540F90001EF090001DE0D39472
:1000DB0009748094804006E02437F0800790001D5F
:1000EB00E02430F090001EE0D3940974809480409B
:1000FB0006E02437F0800790001EE02430F09000DB
:10010B001EE0FF12079890001DE0FF120798D2A87F
:02011B00D2AF61
:0B011D00D0D0D082D083D0F0D0E032F0
:10071A00AE071FEE600C00007E027D7DDDFEDEFC72
:02072A0080EE5F
:01072C0022AA
:1002E300020128E493A3F8E493A34003F68001F208
:1002F30008DFF48029E493A3F85407240CC8C3331C
:10030300C4540F4420C8834004F456800146F6DFEA
:10031300E4800B01020408102040809005CCE47EA9
:10032300019360BCA3FF543F30E509541FFEE493DF
:10033300A360010ECF54C025E060A840B8E493A3A6
:10034300FAE493A3F8E493A3C8C582C8CAC583CAD1
:10035300F0A3C8C582C8CAC583CADFE9DEE780BE89
:0105F5000005
:1003D500BB010689828A83E0225002E722BBFE0226
:0903E500E32289828A83E4932259
:1003EE00BB010CE58229F582E5833AF583E02250C4
:1003FE0006E92582F8E622BBFE06E92582F8E2220E
:0D040E00E58229F582E5833AF583E4932227
:10041B00F8BB010DE58229F582E5833AF583E8F017
:10042B00225006E92582C8F622BBFE05E92582C8C3
:02043B00F222AB
:00000001FF
