:10000000020FA48F993099FDC299220211B2020306
:1000100056E86480F8E933E83360110460F0ED33AA
:10002000EC337009E8FCE9FDEAFEEBFF220460DE38
:10003000D3EB9FEA9EE99DE8C2E78CF0C2F795F00A
:10004000400CE8CCF8E9CDF9EACEFAEBCFFB12038D
:100050002185D0F05804700320D5B3E80470075010
:1000600002B2D502036092D5EC0460F7E4CCC0E0A4
:10007000C398F8603B94186008400DD0E0FB020381
:1000800038E4FBFAC9FC8028E830E406E4C9FBE464
:10009000CAFCE830E305E4C9CACBFCE854076010A9
:1000A000F8C3E913F9EA13FAEB13FBEC13FCD8F1EC
:1000B00030F52FC3E49CFCEF9BFFEE9AFEED99FD1B
:1000C000D0E0FBEF4E4D4C701222DB0302035DECDF
:1000D0002CFCEF33FFEE33FEED33FDED30E7EB02AA
:1000E0000338EF2BFFEE3AFEED39FDD0E0FB501365
:1000F0000BBB0003020360ED13FDEE13FEEF13FFD5
:10010000EC13FC020338EC4D6011E8497017ED3335
:10011000EC3304600DE4FCFFFEFD22E933E8330418
:1001200070F802035612032158046009E4CC2481BC
:10013000500628500902036028400302035DC0E016
:10014000EB4A7044B98006D0E0FB02034CEF4E70DE
:100150001CBD8008EBFFEAFEE9FD80EBE98DF0A411
:10016000FEE5F00201EFE9CDF9EAFEEBFFEF89F0E1
:10017000A4FCE5F0CE89F0A42EFFE435F0CD89F0A3
:10018000A42DFEE435F08067EF4E7005BD80D7806A
:10019000C3EF8BF0A4ACF0EE8BF0A42CFCE435F0B4
:1001A000F8EF8AF0A42CE5F038FCE433CB8DF0A412
:1001B0002CFCE5F03BF8EE8AF0A42CFCE5F038F8D6
:1001C000E433CF89F0A42CFCE5F038CF3400CE899D
:1001D000F0A42FFFE5F03EFEE433C98DF0A42EFE1F
:1001E000E5F039CD8AF0A42FFFE5F03EFEE43DFDB9
:1001F00033D0E0FB50070BBB000F020360EC2CFC7C
:10020000EF33FFEE33FEED33FD020338020360EC03
:100210005D046005E8590470030203561203215877
:100220000460F6EC4860F2EC7004FDFEFF22C8604A
:10023000DB2481C85009C3986002500602035D9810
:1002400050CAF582E9294B4A7005AB8202034C750E
:10025000F0007C1A7880C3EF9BEE9AED99400DC3B5
:10026000EF9BFFEE9AFEED99FDE842F0DC23ACF047
:10027000D0E0FFD0E0FED0E0FDAB8220E7101BEB2A
:1002800060BAEC2CFCEF33FFEE33FEED33FD0203DE
:1002900038E803F830E705C0F075F000EF2FFFEE07
:1002A00033FEED33FD40B830E7C280AA75F0208000
:1002B0000E75F010800575F0087D007E007F00331C
:1002C00092D530D50312070FEC334010EF33FFEE19
:1002D00033FEED33FDEC33FCD5F0ED22E5F0247E6A
:1002E000A2D513CC92E7CDCEFF22EDD2E7CD33ECF1
:1002F0003392D524814006E4FFFEFDFC22FCE4CFCE
:10030000CECDCC24E0501174FF80EDC3CC13CCCD06
:1003100013CDCE13CECF13CF0470F030D5DE02074D
:100320000FE9D2E7C933E833F892D5EDD2E7CD3300
:10033000EC33FC5002B2D522EC30E7100FBF000CBA
:100340000EBE00080DBD00040BEB6014A2D5EB132C
:10035000FCED92E7FD2274FFFCFDFEFF22E480F835
:10036000A2D574FF13FC7D80E480EFF920E72824F8
:10037000F950037907E4F42402FB18DBFDE624FBC3
:100380005014E9600DE4F618E604F6B40A08E4F641
:10039000D9F57401F60A22C2D522ED33EC3392D599
:1003A000FA602AB4FF33EDC2E77BFF60067A037977
:1003B000BFE4227A0379C820D5047A0379C3224E98
:1003C000614E002B494E46002D494E4600E47A0806
:1003D000F608DAFC7B00740722E8C0E0ECC0E0ED30
:1003E000C0E0EEC0E0EFC0E0EA75F010A4CAABF0E8
:1003F00075F04DA42BFBE435F0FCEA2410FAEB3445
:10040000C5FBEC34D9FCEDC2E7FF75F056A4F4242B
:1004100011C5F0F434C58FF0A42AE5F03BE43CF6B6
:1004200020E71412051AD0E0FFD0E0FED0E0FDD0A6
:10043000E0FC12020F8014F40412051AD0E0FFD081
:10044000E0FED0E0FDD0E0FC120106D0E0F8E6FAD4
:10045000EDD2E7CD33EC332482FBE4C3CF33CFCEF0
:1004600033CECD33CD33DBF37B0775F00A846004E4
:10047000F6081B0AE5F0F6088FF0740AA4FFACF04A
:100480008EF0740AA42CFEACF050010C8DF0740AAE
:10049000A42CFDE435F0F608DBDE740722C0E0EFA3
:1004A000FBEEFAEDF9ECF8120106D0E0F5F0EFFB07
:1004B000EEFAEDF9ECF8120744A3A3A3A3E8C0E019
:1004C000E9C0E0EAC0E0EBC0E0C0F01201061207AC
:1004D00054A3A3A3A3120015D0F0D0E0FBD0E0FA00
:1004E000D0E0F9D0E0F8D5F0D4223F8000004120E0
:1004F000000042C80000447A0000461C400047C388
:100500005000497424004B1896804CBEBC205A0EF3
:100510001BCA6753C21C749DC5AEFB6006540760BE
:100520001C2323120548EB543860091205341205C8
:1005300043120106ECF8EDF9EEFAEFCB22EB1205CF
:100540004380F1543803241C9004EAFE93FC0EEE21
:1005500093FD0EEE930ECE93FF22E709F608DFFA25
:100560008046E709F208DFFA803E88828C83E7093B
:10057000F0A3DFFA8032E309F608DFFA8078E309B6
:10058000F208DFFA807088828C83E309F0A3DFFA37
:10059000806489828A83E0A3F608DFFA8058898222
:1005A0008A83E0A3F208DFFA804C80D280FA80C60A
:1005B00080D4806980F28033801080A680EA809A9F
:1005C00080A880DA80E280CA803389828A83ECFA4C
:1005D000E493A3C8C582C8CCC583CCF0A3C8C582A8
:1005E000C8CCC583CCDFE9DEE7800D89828A83E44D
:1005F00093A3F608DFF9ECFAA9F0EDFB2289828AD1
:1006000083ECFAE0A3C8C582C8CCC583CCF0A3C8EC
:10061000C582C8CCC583CCDFEADEE880DB89828A6C
:1006200083E493A3F208DFF980CC88F0EF60010E39
:100630004E60C388F0ED2402B4040050B9F582EB9B
:100640002402B4040050AF23234582239005AA73EB
:10065000BB010689828A83E0225002E722BBFE02A8
:10066000E32289828A83E49322BB010CE58229F587
:1006700082E5833AF583E0225006E92582F8E622F6
:10068000BBFE06E92582F8E222E58229F582E583B0
:100690003AF583E49322BB010689828A83F02250D3
:1006A00002F722BBFE01F322EF8DF0A4A8F0CF8C5D
:1006B000F0A428CE8DF0A42EFE22BC000BBE002993
:1006C000EF8DF084FFADF022E4CCF875F008EF2F49
:1006D000FFEE33FEEC33FCEE9DEC984005FCEE9D06
:1006E000FE0FD5F0E9E4CEFD22EDF8F5F0EE842022
:1006F000D21CFEADF075F008EF2FFFED33FD400783
:10070000985006D5F0F222C398FD0FD5F0EA22C327
:10071000E49FFFE49EFEE49DFDE49CFC22EB9FF53C
:10072000F0EA9E42F0E99D42F0EC6480C864809853
:1007300045F022EB9FF5F0EA9E42F0E99D42F0E899
:100740009C45F022E493FC740193FD740293FE74C3
:100750000393FF22E493F8740193F9740293FA74FB
:100760000393FB22FAE6FB0808E6F925F0F618E603
:10077000CA3AF622D083D082F8E4937012740193BF
:10078000700DA3A393F8740193F5828883E47374C6
:1007900002936860EFA3A3A380DFEC8EF0A4CCC526
:1007A000F0CCCDF8EFA4CEC5F02DFDE43CFCE8A4E0
:1007B0002EC8C5F03DFDE43CFCEFA4FFE5F028FEAB
:1007C000E43DFDE43CFC22E3F5F009E208B5F06B02
:1007D000DFF58067E3F5F009E608B5F05EDFF58048
:1007E0005A87F009E608B5F052DFF6804E87F00927
:1007F000E208B5F046DFF6804288828C8387F009F4
:10080000E0A3B5F036DFF6803288828C8387F0096A
:10081000E493A3B5F025DFF5802188828C83E3F58E
:10082000F009E0A3B5F014DFF5801088828C83E333
:10083000F5F009E493A3B5F002DFF40208F680872F
:1008400080E9809080D4803E8015806E807E809D7F
:1008500080B7808D80A380518074803C020902891A
:10086000828A83ECFAE493F5F0A3C8C582C8CCC5AC
:1008700083CCE493A3C8C582C8CCC583CCB5F0763D
:10088000DFE3DEE1807089828A83E493F5F0A3E2FE
:1008900008B5F062DFF4805E89828A83E0F5F0A318
:1008A000E608B5F051DFF5804D89828A83E0F5F0E6
:1008B000A3E208B5F040DFF5803C89828A83E493A7
:1008C000F5F0A3E608B5F02EDFF4802A8002805709
:1008D00089828A83ECFAE493F5F0A3C8C582C8CC78
:1008E000C583CCE0A3C8C582C8CCC583CCB5F0060F
:1008F000DFE4DEE280007FFFB5F0020F2240027FDE
:10090000012289828A83ECFAE0F5F0A3C8C582C887
:10091000CCC583CCE0A3C8C582C8CCC583CCB5F018
:10092000D5DFE5DEE380CF89828A83ECFAE0F5F05B
:10093000A3C8C582C8CCC583CCE493A3C8C582C86C
:10094000CCC583CCB5F0AFDFE4DEE280A988F0EF60
:1009500060010E4E60ABED2402B404005098F582A5
:10096000EB2402B40400508E232345822390083EDA
:1009700073E5442430F8E6054422782D30070278E8
:1009800030E475F0011207640206502000EB7F2E60
:10099000D2008018EF540F2490D43440D4FF300498
:1009A0000BEF24BFB41A0050032461FFE545600239
:1009B00015450548E5487002054730070D782DE4D8
:1009C00075F001120764EF0206960213487403D211
:1009D000078003E4C207F5448B2D8A2E892FE4F5A6
:1009E00045F547F548E54560077F201209AC80F5DD
:1009F0007546FFC201C200C202C203C205C206C2DE
:100A00000812097AFF700D3007057F001209BDAF8B
:100A100048AE4722B4255FC2D5C20412097AFF242A
:100A2000D0B40A00501A75F00A784530D50508B6DA
:100A3000FF0106C6A426F620D5047002D20380D991
:100A400024CFB41A00EF5004C2E5D204020CAAD29B
:100A50000180C6D20080C0D20280BCD2D580BAD27A
:100A60000580B47F201209AC2002077401B545004F
:100A700040F1120971FF1209AC0209E5D208D20651
:100A80008095120971FB120971FA120971F94A4B2A
:100A9000700679A17A0D7BFF20022EE545602A7E43
:100AA000008E8275830012066960060EEE65467040
:100AB000F0C2D5EBC0E0EAC0E0E9C0E0EE120D0AFA
:100AC000D0E0F9D0E0FAD0E0FB120650FF60AAEBCC
:100AD000C0E0EAC0E0E9C0E01209ACD0E02401F9CE
:100AE000D0E03400FAD0E0FBE5460460DCD546D91E
:100AF0008087D20280A2120CED60F7E546700104F7
:100B000012036BA946600DE546600914F546120D07
:100B100094EF60F3EA30E702F404C3995077EAF403
:100B200025460430E701E404F546800D120CED6023
:100B3000C1EA0546254612036BEA7843F630E70121
:100B4000E4254604D5460420050114120D0AE4C02C
:100B5000E0120D947843E6601320E70714F61209BB
:100B600094802204F6D0E014C0E07F00120994E5DE
:100B700046600712098B1546800B30050312098B5E
:100B8000D0E00209E5D0E00480C5120CED60A0E5DC
:100B9000460412036B7843EAF6E54620050260013D
:100BA000042404120D0A74FF04C0E0120D9412090B
:100BB00094E546200502600312098BD0E0B546E8B3
:100BC0007F4512099E7843E67F2B30E7047F2DF4A2
:100BD00004C0E01209ACD0E075F00A84C0F012093C
:100BE00095D0E01209950209E5791080027908C2D2
:100BF00006C2088008D2D5790A8004790AC2D5E5F0
:100C000046047002F546E4FAFDFEFF120971FC7B12
:100C100008200113120971FD7B1030000A120971BE
:100C2000FE120971FF7B20EC3382D592D55013C39D
:100C3000E43000069FFFE49EFEE42001039DFDE4F6
:100C40009CFCE4CBF8C201EC700CCFCECDCCE824F8
:100C5000F8F870F38017C3EF33FFEE33FEED33FD8A
:100C6000EC33FCEB33FB994002FB0FD8E9EB30018E
:100C700005F8D0E0C448B201C0E00AEC4D4E4F7810
:100C8000207B0070C2EAB5460040BCC0E0120D0CEB
:100C9000D0F0D0E0200104C4C0E0C4B201C0F01222
:100CA0000995D0F0D5F0EB0209E51207740A8253DA
:100CB0000BE9580A534C0A4F420BED4F0BF5440B0E
:100CC000F5490A68430BFB550B2C460B8A450AF67F
:100CD000470DC1500A572D0A5B2E0A7E2B0A5F234F
:100CE0000A7C200DAA2A0A174800000A76E546B4B5
:100CF000FF03754606120971FC120971FD12097194
:100D0000FE120971FF783C02039A790AA2D52003EA
:100D100014300509B910020404B9080104A2D52051
:100D200006025001042002689202B545005034C00A
:100D3000E07F203003197F30A20272067205500F47
:100D4000120D63C202C206C205C2087F30800F3096
:100D50000503E9C0E01209AC300503D0E0F9D0E0AA
:100D6000B545CC3005177F30B9100C1209AC7F584F
:100D70003004077F788003B908031209AC300205FC
:100D80007F2D0209AC7F202008F87F2B2006F3225C
:100D9000920280CF7F00B407005005243CF8E6FFA4
:100DA00022286E756C6C2900D2011209713001F88D
:100DB000C201784530D50108F6020A172D50434983
:100DC000581209712403B405004001E4900DBC934E
:100DD00012099D743A12099DD203754504020BE96C
:100DE0008F24300A56AE5AAF5B7C8C7DA012079AD6
:100DF0008F2C8E2B8D2A8C29E41202AC7B007A2456
:100E000079F4784912020F8F288E278D268C25754C
:100E100030FF7531197532508F368E358D348C33E5
:100E20007B007A00794A1209CDE52425E0FF7B009A
:100E30007A00794A7D201210B48061AC5AAD5BE42F
:100E40001202B1E4FBFA79A0784112020F8F288ECA
:100E5000278D268C25E4FBFA799078411201068FC4
:100E6000288E278D268C257530FF75311975325DDA
:100E70008F368E358D348C337B007A00794A120997
:100E8000CDE52425E0FF7B007A00794A7D20121011
:100E9000B47FE87E037D007C001212C27FCD7ECC41
:100EA0007D4C7C3DAB28AA27A926A825120015E475
:100EB000FBFA792078411201061202EAE52425E0C6
:100EC000245FF8A60608A6077FAA7E551211EDE456
:100ED000F52CF52BF52AF529E47F04FEFDFCAB2C5F
:100EE000AA2BA92AA829C31207335026E52C25E0EE
:100EF000245FF8E6FE08E6FF1211EDE52C2401F56B
:100F00002CE4352BF52BE4352AF52AE43529F5298F
:100F100080C6228F3B8D3C8B3DC3E53C9440748062
:100F200094805066D2B2C2B31212F5E53C2440FF61
:100F30001212FAE53C253DFFE433FEC3EF9440EE88
:100F4000648094805011E4F541E541C3953D5053D0
:100F5000121224054180F2E4F541C37440953CFF30
:100F6000E541C39F5007121224054180ED1212F192
:100F70007F401212FAC37440953CF541E541C39598
:100F80003D5020121224054180F21212F1AF3C12A2
:100F900012FAE4F541E541C3953D500712122405CC
:100FA0004180F222787FE4F6D8FD758166020FEB6E
:100FB000021030E493A3F8E493A34003F68001F217
:100FC00008DFF48029E493A3F85407240CC8C33342
:100FD000C4540F4420C8834004F456800146F6DF11
:100FE000E4800B01020408102040809013B1E47EDD
:100FF000019360BCA3FF543F30E509541FFEE49306
:10100000A360010ECF54C025E060A840B8E493A3CC
:10101000FAE493A3F8E493A3C8C582C8CAC583CAF7
:10102000F0A3C8C582C8CAC583CADFE9DEE780BEAF
:101030007522C3752350AE22AF237C037DE81206D0
:10104000BA8E228F237C007D141206A88E228F2355
:101050001213CE1213EB12128F12132012136FD22F
:10106000AF1213FE3009FDAF5E120DE0300A17AE6D
:101070005AAF5BE4FCFD7B507AC3F9F8C312071D3D
:101080005004C20A8022200A0FC3E55B9523E55A6B
:1010900095225004D20A8010055ED3E55E94037455
:1010A0008094804003E4F55E121320C209E4F58DBC
:1010B000F58B80B08F2D8D2E8B2F8A308931E94AA8
:1010C0004B6065EF2402FFE433FED3EF9408EE6437
:1010D0008094805053AB2FAA30A931120650FB6088
:1010E00047E52E2408FFE433FED3EF9480EE6480BE
:1010F0009480401AE4F52E052D052DE52D2402FFE0
:10110000E433FED3EF9408EE64809480501AAD2E41
:10111000AF2D1211297408252EF52E74012531F5F5
:1011200031E43530F53080AD228F328D338B34E4AD
:10113000F535C3E535944474809480503075F011D2
:10114000E535A4241EF582E5F03414F583E493B567
:101150003417E53575F011A4240EF9741435F0FA3E
:101160007BFFAD33AF3202125A053580C5220549E7
:10117000055DE55D7002055CE5496405700AF549A9
:101180000509E50970020508200926300A0CE55D0D
:10119000B48807E55CB41302800B200A14E55D6493
:1011A00064455C700CAF8DEFAD8BF55AEDF55BD2FD
:1011B0000922C0E0C0F0C083C082C0D075D000C09A
:1011C00000C001C002C003C004C005C006C00712B1
:1011D000116ED007D006D005D004D003D002D001C4
:1011E000D000D0D0D082D083D0F0D0E0328E2D8FFE
:1011F0002E782F7C007D007BFF7A1979697E007F35
:101200000212062AE52DF52FE52EF530E4FDFC74DB
:101210002F2DF8E6FF1200030DBD00010CED640256
:101220004C70EC22AB3EAA3FA940854182758300F9
:10123000120669FFAE07E4FDFC121392500E0DBDBD
:1012400000010CD3ED94FFEC940040ED7580FFC2DB
:10125000A5D2A68E80D2A7C2A7228F368D378B3813
:101260008A39893AE94A4B60258B3E8A3F89407B1F
:1012700008120F13E53604FFE53A2408F9E435397E
:1012800085383EF53F89407B08AD37120F13227B2E
:10129000FF7A19793CE4FDFF1210B47BFF7A1979CB
:1012A00041E4FD7F021210B47BFF7A197946E4FD18
:1012B0007F041210B47BFF7A19794BE4FD7F06029C
:1012C00010B48F308E2F8D2E8C2DAF09AE08AC2F21
:1012D000AD30C3ED94FFEC94FF50050DBD00010C43
:1012E000C3E5099FFBE5089EFAC3EB9DEA9C40F02D
:1012F00022C2B2D2B3E53B24B8FFAE07E4FDFC1234
:101300001392500E0DBD00010CD3ED94FFEC940030
:1013100040ED7580FFC2A5C2A68E80D2A7C2A722CB
:10132000E4F55CF55DE55E14600F14601114601364
:1013300024037013C2A0C2A122D2A0C2A122C2A0C3
:10134000D2A122D2A0D2A122EFB40A07740D1213A7
:1013500053740A309811A899B8130CC2983098FDAC
:10136000A899C298B811F63099FDC299F5992275DD
:101370009840E4F587C29C75C90175C83075CBFFEC
:1013800075CADC75CDFF75CCDCC29FD29ED2CAC2B5
:1013900099227580FFD2A5C2A6D2A7C2A7D2A7AFB5
:1013A00080C2A7EFC4131313540124FF9200A200BC
:1013B00022C18A025C0000C109015E00085F0000D2
:1013C0000000000000000149000208000000D2B245
:1013D000D2B37F381212FA7F0F1212FA7F01121263
:1013E000FA7F061212FA7FC00212FA5389F043897B
:1013F00002758A48758C48C28DD28CD2A922538935
:101400000F438950E4F58BF58DC28FD28E220000F8
:10141000C038E0000000203C2302022738204100B1
:10142000008080808000000019242222223F206159
:1014300008F8888888700000203F202020110E00C6
:101440004208F8008080000000003F112020110EAB
:101450000062C03008080808380007182020201053
:101460000800430000008080800000000E11202052
:101470002011006308F808080810E000203F202031
:1014800020100F0044000000808088F800000E113A
:101490002020103F206408F88888E8081000203FCA
:1014A000202023201800450000808080800000005C
:1014B0001F2222222213006508F88888E8081000FD
:1014C000203F20000300000046008080F0888888CC
:1014D000180020203F2020000066C030080808388F
:1014E000000007182020221E020047000080808094
:1014F000808000006B9494949360006708F8080063
:101500000008F808203F210101213F204808F80089
:101510008080800000203F210000203F20680008DC
:1015200008F8080800000020203F202000004900A3
:10153000809898000000000020203F2020000069D3
:1015400000000808F8080800C08080807F000000C4
:101550004A000000809898000000C08080807F00D2
:10156000006A08F888C028180800203F20012638A3
:1015700020004B08F8000080808000203F24022DCE
:101580003020006B08F8080000000000203F2020F9
:10159000202030004C000808F80000000000202047
:1015A0003F202000006C08F8F800F8F80800203F01
:1015B000003F003F20004D808080808080800020A0
:1015C0003F20003F20003F6D08F830C00008F808B9
:1015D000203F200007183F004E8080008080800060
:1015E00000203F210000203F206EE0100808081076
:1015F000E0000F10202020100F004F00008080809E
:10160000800000001F202020201F006F08F808081D
:101610000808F000203F21010101000050808000F7
:10162000808000000080FFA12020110E0070E010DB
:1016300008080810E0000F18242438504F0051000B
:1016400000008080808000000E112020A0FF8071AB
:1016500008F8888888887000203F2000030C30201C
:1016600052808080008080800020203F2120000167
:1016700000720070880808083800003820212122F4
:101680001C005300008080808080000033242424CC
:1016900024190073180808F8080818000000203FF3
:1016A0002000000054008080E080800000000000E6
:1016B0001F202000007408F808000008F808001F28
:1016C000202020201F005580800000008080000026
:1016D0001F202020103F20750878880000C8380897
:1016E000000007380E0100005680808000008080D6
:1016F0008000010E300806010076F80800F80008A6
:10170000F800033C0700073C03005780800080007E
:101710008080800F300C030C300F00770818688031
:101720008068180820302C03032C3020580080805B
:1017300000808080000020312E0E31200078083893
:10174000C800C83808000000203F20000000598071
:101750008080000080808080818E70180601007972
:1017600010080808C8380800203826212020180052
:101770005A00808080808080000021302C2221301F
:10178000007A00E010080810E000000F1020201080
:101790000F0030001010F8000000000020203F2053
:1017A00020000031007008080888700000302824EC
:1017B000222130003200300888884830000018208C
:1017C0002020110E00330000C02010F80000000798
:1017D0000424243F24003400F80888880808000006
:1017E00019212020110E003500E010888818000013
:1017F000000F112020110E003600380808C83808E4
:10180000000000003F0000000037007088080888D2
:101810007000001C222121221C003800E010080862
:1018200010E0000000312222110F0039000000F802
:101830000000000000000033300000002100000024
:10184000000000000000303000000000002E00000A
:1018500000000000000000010101010101012D0054
:101860000000C0C000000000000030300000003A5E
:101870000000000000000000000000000000000068
:101880002000000000C038040000601807000000BD
:10189000002F0000F8494A4C48F8484C4A49F800E3
:1018A000000010101312121212FF12121212131053
:1018B0001000B5A5000000FE20202020203F2020A1
:1018C000202000000080601F020202020202FE00CF
:1018D00000000000C6AC1010D0FF901000FE020205
:1018E00002FE00000000040300FF0083601F0000F0
:1018F000003F40407800BBFA1060028C0000FE926E
:1019000092929292FE00000004047E01407E4242C8
:101910007E427E42427E4000CEC20000FC2424244F
:10192000FC252624FC242424040040308F80844C91
:1019300055252525554C80808000B6C84368303A2F
:10194000004368313A004368323A004368333A0052
:10195000252E31664B6D2F682020202000252E314A
:0B196000664B6D2F6820202000000067
:00000001FF
