:100FFD0071696E67636169006461626169636169EA
:10100D000078696775616E007869616E676A6961FC
:10101D006F007869686F6E67736869006E69756EC9
:10102D00616E006A696E6A75007169657A6900683A
:10103D0075617368656E67006E69756E616900CD67
:10104D00A8B5C0BAC53A25642CD6D8C1BF3A25304B
:10105D00352E33666B672CB2CBC6B7B1E0BAC53A45
:10106D0025642CD7DCBCDB3A2530362E32663B00AE
:10107D0057453A2530352E33662050523A253034B7
:10108D002E3166004D4F4E45593A2530362E32667B
:10109D004E6F3A2564002020202020202020202083
:1010AD0020202020202000206E616D653A257300E0
:1010BD0070726963653A25322E316620202020201A
:1010CD002000456C656374726F6E69632073636194
:1010DD006C65005553455F4D4F44453A204E4F3A90
:1010ED00256420200020206E616D653A5065656C89
:1010FD00656420200076616C3A25322E33662020FF
:10110D00202020200020202057656C636F6D652006
:10111D007573652020002020636C6173733A206223
:10112D00313620202000206E616D653A2057205801
:03113D002044004B
:10125500604D0032FF0FFD400CCCCDFF1005403333
:101265003333FF100E409CCCCDFF1015428E999A5A
:10127500FF101F42B06666FF102942C60000FF102E
:101285003041980000FF102941B00000FF103642A0
:10129500040000FF103C425C0000FF104542B00016
:1012A5000012510000000000000000400CCCCD00F1
:1012B5000000000000603200000000000000000097
:1012C5000000000000000000000000000000000019
:1012D5000000000000000000000000000000000009
:0B12E5000000000000000000000000FE
:0D16C700007F027E677D93DDFEDEFCDFFA12
:0116D40022F3
:100A6700E4F531F532F5331211401217378F311291
:100A77001702AB58AA57A956A8551200118F548EC2
:100A8700538D528C517537FF75381075394CAF62DD
:100A9700EF3395E0FEEF2401F53BE43EF53A85544C
:100AA7003F85533E8D3D8C3CAF61EF3395E0F5407C
:100AB7008F41856045855F44855E43855D427B0147
:100AC7007A0079001206547B017A00790012169396
:100AD700C3E5329404748094804003020BD67537C3
:100AE700FF75381075397D85543D85533C85523BDC
:100AF70085513A855C41855B40855A3F85593E7BE8
:100B0700017A0079001206547B017A0079007F8010
:100B170012160CAF5CAE5BAD5AAC59AB54AA53A9D5
:100B270052A8511201068F608E5F8D5E8C5D7537FE
:100B3700FF7538107539918F3D8E3C8D3B8C3AAFE0
:100B470061EF3395E0F53E8F3F7B017A0079001224
:100B570006547B017A0079007FC012160CE5312418
:100B6700D024F6503A24FD600D24FA600E24F0706C
:100B77005E7532018024753202801F75320374104E
:100B87002532F5327BFF7A1079A37F8012160C7B12
:100B9700FF7A1079A37FC012160C1217338030E545
:100BA700326401701E74102532F5327BFF7A10799A
:100BB700A37F8012160C7BFF7A1079A37FC01216D1
:100BC7000C800CE5326402700674102532F532E5AC
:100BD7003220E403020D42F5335333EFE531B453CA
:100BE70006E4F532121733E53324FE7003020CA234
:100BF700147003020CF424026003020D42E5316411
:100C0700537003020D42E531F47003020D4275F093
:100C170007E531A424E5F582E5F034FEF583E0FC31
:100C2700A3E0FDA3E0FEA3E0F55C8E5B8D5A8C5933
:100C3700E53124D0F5617537FF7538107539B4750E
:100C4700F007E531A424E2F582E5F034FEF583E010
:100C5700FBA3E0FAA3E08B3A8A3BF53C7B017A00E1
:100C670079001206547B017A0079007F8012160CF6
:100C77007537FF7538107539BD855C3D855B3C85DB
:100C87005A3B85593A7B017A0079001206547B0159
:100C97007A0079007FC012160C804DE531C394307D
:100CA7005003020D42E531D394394003020D427BD4
:100CB700FF7A1079CF7F8012160C7537FF753810C1
:100CC7007539E0E53124D0F53BE434FFF53A7B0193
:100CD7007A0079001206547B017A0079007FC012EE
:100CE700160CE53124D0F562121733804EE53164D6
:100CF7005360481217028F588E578D568C557B01BB
:100D07007A0079001216937BFF7A1079F27F8012AE
:100D1700160C7537FF75381175390285583D85579B
:100D27003C85563B85553A7B017A0079001206547B
:100D37007B017A0079007FC012160C1216C7020ACF
:010D4700713A
:1015AB0012164D7BFF7A1179127F8012160C7BFF7E
:1015BB007A1079CF7FC012160C1216C71216C77B82
:1015CB00FF7A1179237F8012160C7BFF7A11793306
:0B15DB007FC012160C1216C70216C7C4
:101140001215AB12167F1216A67537FF753810757B
:10115000394C753A00753B0185543F85533E8552A5
:101160003D85513CAF61EF3395E0F5408F4185609F
:1011700045855F44855E43855D427B017A00790049
:101180001206547B017A0079001216937537FF75A9
:10119000381075394C753A00753B0285543F8553BC
:1011A0003E85523D85513CAF61EF3395E0F5408F70
:1011B00041856045855F44855E43855D427B017A5C
:1011C0000079001206547B017A007900121693759B
:1011D00037FF75381075394C753A00753B038554E7
:1011E0003F85533E85523D85513CAF61EF3395E0DD
:1011F000F5408F41856045855F44855E43855D424E
:101200007B017A0079001206547B017A0079001282
:1012100016937537FF75381075394C753A00753B64
:101220000485543F85533E85523D85513CAF61EF67
:101230003395E0F5408F41856045855F44855E4389
:10124000855D427B017A0079001206547B017A00A9
:05125000790002169375
:1016B70037343153383532303936333D2E524C4377
:0312F000011FFFDC
:0816F9007F097EF4DEFEDFFC38
:0117010022C5
:101464007D0179017CFF43900F1DEDC394047480CA
:1014740094805048E9540FF452901216F9E590C440
:10148400540FF4540F24FE601024FE601024FC60FA
:10149400102407700EE4FC800A7C0180067C028024
:1014A400027C03E9540F4290E925E0F9ECF4600969
:1014B400ED25E025E02CFC80030D80AEE51F6C607B
:1014C40024ECF46020EC5403FFED25E025E024B780
:1014D400F582E43416F583E5822FF582E43583F54D
:0714E40083E493F51FAF0440
:0114EB0022DE
:03173700AF1F22BF
:04173300751FFF22FD
:10166B00E4FEEEC39F500C007D027CC7DCFEDDFC6C
:03167B000E80EFEF
:01167E002249
:10162E00C2A18E80121647D2A2121647C2A2EEC4D3
:09163E0054F0F580121647D2A207
:05164700007F64DFFEDE
:01164C00227B
:0C16D500AE07C2A2C2A012162EC2A222B2
:0C16E100AE07C2A2D2A012162EC2A22296
:10164D007F321216D57F281216D57F0C1216D57F34
:0E165D00061216D57F011216D57F800216D513
:10160C00AD07C2A912054F6016AF051216D50D1203
:10161C00054FFF1216E1740129F9E43AFA80E5D27C
:02162C00A922F1
:0412F3000263000092
:0B16ED00E4FEEEC39F5004000E80F7E7
:0116F80022CF
:02155200AD07E3
:10155400E4F522F523C2B2C2B5EDC454F0FDE4FBB8
:10156400FA30B403432301ED3392B3D2B27F0312B2
:1015740016EDC2B21216EDED25E0FDE52325E0F5EA
:1015840023E52233F5220BBB00010AEB640C4A70FD
:10159400D0D2B5E522C313F522E52313F523852222
:0615A40063F564AE22FFB6
:0115AA00221E
:05172E00AE63AF642270
:080003008F50121726AF5022A6
:1016A600439850438920758BFD758DFDD28ED2AF40
:0116B6002211
:081726008F993099FDC2992250
:1016930012054FFF600C121726740129F9E43AFA78
:0316A30080EE22B4
:0215E6008D6511
:1015E800E4FDFCC3ED95657480F86C985015120500
:1015F8004FFF121726740129F9E43AFA0DBD0001CC
:031608000C80E073
:01160B0022BC
:10167F005389F0438901E4F58A758C4CC28DD28C65
:04168F0043A88222C8
:03000B000214ECF0
:1014EC00C0E0C0F0C083C082C0D075D000C000C0C6
:1014FC0001C002C003C004C005C006C007758A0045
:10150C00758C4C121464E4FF121552AC06AD07E452
:10151C0012032A7B007AC0794C784412020F8F2672
:10152C008E258D248C23AF62120D48D007D006D0A7
:10153C0005D004D003D002D001D000D0D0D082D0BE
:06154C0083D0F0D0E03274
:1012F7000C133F800000408F5C29423400005800E7
:101307007F3F80000040A000003DCCCCCD3F800057
:1013170000000000003DCCCCCD080B000000000011
:0C132700000000010801010900010A019A
:09170200AF0EAE0DAD0CAC0B22D4
:09170B00AF12AE11AD10AC0F22BB
:091714008F0E8E0D8D0C8C0B2242
:09171D008F128E118D108C0F2229
:100D4800E4FEEF650960058F09750801E50824FED2
:100D58006056147003020E11147003020E161470FC
:100D680003020FF724046003020FFAE50914601266
:100D780014601714601C1460212404701D53A0C74C
:100D8800801E53A0CF43A008801653A0D743A010BD
:100D9800800E53A0DF43A018800653A0E743A0208D
:100DA80053B03F0508020FFAAF26AE25AD24AC2399
:100DB800850A2B121334AE07E50A6E60278E0AE502
:100DC8000A24FE600D1460132402701553B03F020C
:100DD8000FF253B07F43B040020FF253B0BF43B09D
:100DE80080020FF2E50A25E025E0240FF81205B588
:100DF800AF26AE25AD24AC2312020F12171D05082D
:100E080053A0E743A020020FFA0508020FFAE50AEB
:100E180024FE7003020F05147003020F52240260AF
:100E280003020FBB12170BC004C005C006C007E5BC
:100E38000A25E025E0240FF81205B5AF26AE25AD4A
:100E480024AC2312020FA804A905AA06AB07D007F1
:100E5800D006D005D0041200117BF27A19799F7858
:100E6800401202AC6002504B12170BC004C005C000
:100E780006C007E50A25E025E0240FF81205B5AFFE
:100E880026AE25AD24AC2312020FA804A905AA0694
:100E9800AB07D007D006D005D0041200117BB37A77
:100EA8000A790378411201067B0D7A15790F78C209
:100EB800020F4D12170BC004C005C006C007E50A93
:100EC80025E025E0240FF81205B5AF26AE25AD24A0
:100ED800AC2312020FA804A905AA06AB07D007D0B5
:100EE80006D005D0041200117B497ADA797D783F63
:100EF8001201067B4D7AAF799E783C804812170B19
:100F0800C004C005C006C007E50A25E025E0240F97
:100F1800F81205B5AF26AE25AD24AC2312020FA8F2
:100F280004A905AA06AB07D007D006D005D004123D
:100F380000117B797AAF7982783F1201067B5E7A5D
:100F4800387906783C120015806612170BC004C069
:100F580005C006C007E50A25E025E0240FF81205BC
:100F6800B5AF26AE25AD24AC2312020FA804A905FF
:100F7800AA06AB07D007D006D005D0041200117B13
:100F8800EB7AA87982783F1201067B597A48790171
:100F9800783A1200151217141217027B6F7A127919
:100FA80083783A1202AC400B7F007E007D007C0003
:100FB800121714E50914601214601714601C1460E9
:100FC800212404701F53A0C7802053A0CF43A0083A
:100FD800801853A0D743A010801053A0DF43A01857
:100FE8008008800053A0E743A0207508058003759A
:040FF80008027F006C
:010FFC0022D2
:081334008F2A8E298D288C27D9
:10133C00E4F52CE52B25E025E0240FF81205B51279
:10134C00020F8F308E2F8D2E8C2D90007FE0FCA302
:10135C00E0FDA3E0FEA3E0FFAB30AA2FA92EA82D41
:10136C001202AC60074005752C01805D90008BE08B
:10137C00FCA3E0FDA3E0FEA3E0FFAB30AA2FA92E57
:10138C00A82D1202AC60025022900087E0FCA3E072
:10139C00FDA3E0FEA3E0FFAB30AA2FA92EA82D12CF
:1013AC0002AC60074005752C02801E90008FE0FC9B
:1013BC00A3E0FDA3E0FEA3E0FFAB30AA2FA92EA86B
:0B13CC002D1202AC4003752C03AF2C67
:0113D70022F3
:030000000213D810
:0C13D800787FE4F6D8FD75816502141FD3
:10000E00020398E86480F8E933E83360110460F085
:10001E00ED33EC337009E8FCE9FDEAFEEBFF220458
:10002E0060DED3EB9FEA9EE99DE8C2E78CF0C2F753
:10003E0095F0400CE8CCF8E9CDF9EACEFAEBCFFB1F
:10004E0012036385D0F05804700320D5B3E8047012
:10005E00075002B2D50203A292D5EC0460F7E4CCAD
:10006E00C0E0C398F8603B94186008400DD0E0FBE8
:10007E0002037AE4FBFAC9FC8028E830E406E4C9FE
:10008E00FBE4CAFCE830E305E4C9CACBFCE854073C
:10009E006010F8C3E913F9EA13FAEB13FBEC13FC47
:1000AE00D8F130F52FC3E49CFCEF9BFFEE9AFEEDEA
:1000BE0099FDD0E0FBEF4E4D4C701222DB03020394
:1000CE009FEC2CFCEF33FFEE33FEED33FDED30E70E
:1000DE00EB02037AEF2BFFEE3AFEED39FDD0E0FB9B
:1000EE0050130BBB00030203A2ED13FDEE13FEEF44
:0800FE0013FFEC13FC02037A6E
:10010600EC4D6011E8497017ED33EC3304600DE4F3
:10011600FCFFFEFD22E933E8330470F8020398126F
:10012600036358046009E4CC248150062850090270
:1001360003A228400302039FC0E0EB4A7044B98043
:1001460006D0E0FB02038EEF4E701CBD8008EBFF6D
:10015600EAFEE9FD80EBE98DF0A4FEE5F00201EF91
:10016600E9CDF9EAFEEBFFEF89F0A4FCE5F0CE89D4
:10017600F0A42EFFE435F0CD89F0A42DFEE435F091
:100186008067EF4E7005BD80D780C3EF8BF0A4ACBF
:10019600F0EE8BF0A42CFCE435F0F8EF8AF0A42CFA
:1001A600E5F038FCE433CB8DF0A42CFCE5F03BF80D
:1001B600EE8AF0A42CFCE5F038F8E433CF89F0A4FD
:1001C6002CFCE5F038CF3400CE89F0A42FFFE5F003
:1001D6003EFEE433C98DF0A42EFEE5F039CD8AF05B
:1001E600A42FFFE5F03EFEE43DFD33D0E0FB5007D3
:1001F6000BBB000F0203A2EC2CFCEF33FFEE33FE29
:06020600ED33FD02037A56
:10020C000203A2EC5D046005E85904700302039834
:10021C00120363580460F6EC4860F2EC7004FDFEC7
:10022C00FF22C860DB2481C85009C39860025006C5
:10023C0002039F9850CAF582E9294B4A7005AB829C
:10024C0002038E75F0007C1A7880C3EF9BEE9AED5A
:10025C0099400DC3EF9BFFEE9AFEED99FDE842F03D
:10026C00DC23ACF0D0E0FFD0E0FED0E0FDAB822090
:10027C00E7101BEB60BAEC2CFCEF33FFEE33FEED1A
:10028C0033FD02037AE803F830E705C0F075F0009F
:10029C00EF2FFFEE33FEED33FD40B830E7C280AAFE
:1002AC0074F8CC6480CCC86480C8F58204604FC3F9
:1002BC00EB9FF5F0EA9E42F0E99D42F0E89C45F098
:1002CC00603C501DE5825FFFE582D313CB5BCBF422
:1002DC002B5582FB50280ABA002409B9002008804B
:1002EC001DE5825BFBE582D313CF5FCFF4C3132FE5
:1002FC005582FF50090EBE00050DBD00010CC3EB6D
:10030C009FF5F0EA9E42F0E99D42F0E89C45F060D2
:09031C0007CC4820E701B3EC22F4
:1003250075F020800E75F010800575F0087D007E53
:10033500007F003392D530D5031205A7EC3340106A
:10034500EF33FFEE33FEED33FDEC33FCD5F0ED225C
:0E035500E5F0247EA2D513CC92E7CDCEFF2298
:1005F800E54B2437F8E6054B227834300702783784
:10060800E475F0011205C202054F2000EB7F2ED2DF
:10061800008018EF540F2490D43440D4FF30040BDA
:10062800EF24BFB41A0050032461FFE54C600215A3
:100638004C054FE54F7002054E30070D7834E475D0
:10064800F0011205C2EF0205950200037403D207F8
:100658008003E4C207F54B8B348A358936E4F54CC0
:10066800F54EF54FE54C60077F2012063380F5758F
:100678004DFFC201C200C202C203C205C206C208BF
:10068800120601FF700D3007057F00120644AF4FB8
:10069800AE4E22B4255FC2D5C204120601FF24D093
:1006A800B40A00501A75F00A784C30D50508B6FF20
:1006B8000106C6A426F620D5047002D20380D924E8
:1006C800CFB41A00EF5004C2E5D204020931D201B6
:1006D80080C6D20080C0D20280BCD2D580BAD205F2
:1006E80080B47F201206332002077401B54C004005
:1006F800F11205F8FF12063302066CD208D2068002
:10070800951205F8FB1205F8FA1205F8F94A4B702C
:100718000679287A0A7BFF20022EE54C602A7E00A3
:100728008E8275830012056860060EEE654D70F0C6
:10073800C2D5EBC0E0EAC0E0E9C0E0EE120991D012
:10074800E0F9D0E0FAD0E0FB12054FFF60AAEBC059
:10075800E0EAC0E0E9C0E0120633D0E02401F9D0B5
:10076800E03400FAD0E0FBE54D0460DCD54DD980DB
:1007780087D20280A212097460F7E54D7001041255
:1007880003ADA94D600DE54D600914F54D120A1B26
:10079800EF60F3EA30E702F404C3995077EAF425EE
:1007A8004D0430E701E404F54D800D12097460C171
:1007B800EA054D254D1203ADEA784AF630E701E423
:1007C800254D04D54D0420050114120991E4C0E01B
:1007D800120A1B784AE6601320E70714F612061B74
:1007E800802204F6D0E014C0E07F0012061BE54D1D
:1007F8006007120612154D800B300503120612D041
:10080800E002066CD0E00480C512097460A0E54DD2
:10081800041203AD784AEAF6E54D200502600104AA
:050828002404120991F7
:10082D0074FF04C0E0120A1B12061BE54D200502E1
:10083D006003120612D0E0B54DE87F45120625780B
:10084D004AE67F2B30E7047F2DF404C0E012063317
:10085D00D0E075F00A84C0F012061CD0E012061C20
:10086D0002066C791080027908C206C2088008D28F
:10087D00D5790A8004790AC2D5E54D047002F54D8B
:10088D00E4FAFDFEFF1205F8FC7B082001131205AA
:10089D00F8FD7B1030000A1205F8FE1205F8FF7BFB
:1008AD0020EC3382D592D55013C3E43000069FFF60
:1008BD00E49EFEE42001039DFDE49CFCE4CBF8C224
:1008CD0001EC700CCFCECDCCE824F8F870F3801786
:1008DD00C3EF33FFEE33FEED33FDEC33FCEB33FBB7
:1008ED00994002FB0FD8E9EB300105F8D0E0C44880
:1008FD00B201C0E00AEC4D4E4F78207B0070C2EA89
:10090D00B54D0040BCC0E0120993D0F0D0E02001FD
:10091D0004C4C0E0C4B201C0F012061CD0F0D5F082
:10092D00EB02066C1205D207095308705806DA4C13
:10093D0006D64208744F087C44087C4906EF4308EC
:10094D00825507B346081145077D470A485006DE14
:10095D002D06E22E07052B06E6230703200A312A72
:10096D00069E48000006FDE54DB4FF03754D0612C9
:10097D0005F8FC1205F8FD1205F8FE1205F8FF78D2
:10098D00430203DC790AA2D5200314300509B910FE
:10099D00020404B9080104A2D52006025001042066
:1009AD0002689202B54C005034C0E07F203003192C
:1009BD007F30A20272067205500F1209EAC202C2FE
:1009CD0006C205C2087F30800F300503E9C0E01272
:1009DD000633300503D0E0F9D0E0B54CCC30051727
:1009ED007F30B9100C1206337F583004077F7880A2
:1009FD0003B908031206333002057F2D0206337F3B
:100A0D00202008F87F2B2006F322920280CF7F0052
:100A1D00B4070050052443F8E6FF22286E756C6C70
:100A2D002900D2011205F83001F8C201784C30D5F9
:100A3D000108F602069E2D504349581205F824036D
:100A4D00B405004001E4900A4393120624743A124F
:0A0A5D000624D203754C0402087051
:10036300E9D2E7C933E833F892D5EDD2E7CD33ECE0
:0703730033FC5002B2D52259
:10037A00EC30E7100FBF000C0EBE00080DBD0004E4
:10038A000BEB6014A2D5EB13FCED92E7FD2274FF90
:10039A00FCFDFEFF22E480F8A2D574FF13FC7D80E9
:0303AA00E480EFFD
:1003AD00F920E72824F950037907E4F42402FB1817
:1003BD00DBFDE624FB5014E9600DE4F618E604F6C7
:0F03CD00B40A08E4F6D9F57401F60A22C2D52263
:1003DC00ED33EC3392D5FA602AB4FF33EDC2E77BF0
:1003EC00FF60067A047901E4227A04790A20D504A4
:1003FC007A047905224E614E002B494E46002D4958
:10040C004E4600E47A08F608DAFC7B00740722E812
:10041C00C0E0ECC0E0EDC0E0EEC0E0EFC0E0EA759B
:10042C00F010A4CAABF075F04DA42BFBE435F0FC36
:10043C00EA2410FAEB34C5FBEC34D9FCEDC2E7FF2F
:10044C0075F056A4F42411C5F0F434C58FF0A42A29
:10045C00E5F03BE43CF620E71412050FD0E0FFD0AA
:10046C00E0FED0E0FDD0E0FC12020F8014F4041288
:10047C00050FD0E0FFD0E0FED0E0FDD0E0FC120193
:10048C0006D0E0F8E6FAEDD2E7CD33EC332482FB6C
:10049C00E4C3CF33CFCE33CECD33CD33DBF37B07B9
:1004AC0075F00A846004F6081B0AE5F0F6088FF074
:1004BC00740AA4FFACF08EF0740AA42CFEACF050BD
:1004CC00010C8DF0740AA42CFDE435F0F608DBDE8B
:0304DC0074072280
:1004DF003F8000004120000042C80000447A000025
:1004EF00461C400047C35000497424004B189680A7
:1004FF004CBEBC205A0E1BCA6753C21C749DC5AE9E
:10050F00FB60065407601C232312053DEB54386033
:10051F0009120529120538120106ECF8EDF9EEFA69
:10052F00EFCB22EB12053880F1543803241C9004D2
:10053F00DFFE93FC0EEE93FD0EEE930ECE93FF2295
:1013E400020A67E493A3F8E493A34003F68001F2AE
:1013F40008DFF48029E493A3F85407240CC8C3330A
:10140400C4540F4420C8834004F456800146F6DFD8
:10141400E4800B0102040810204080901255E47E01
:10142400019360BCA3FF543F30E509541FFEE493CD
:10143400A360010ECF54C025E060A840B8E493A394
:10144400FAE493A3F8E493A3C8C582C8CAC583CABF
:10145400F0A3C8C582C8CAC583CADFE9DEE780BE77
:0113330000B9
:10054F00BB010689828A83E0225002E722BBFE02AA
:09055F00E32289828A83E49322DD
:10056800BB010CE58229F582E5833AF583E0225048
:1005780006E92582F8E622BBFE06E92582F8E22292
:0D058800E58229F582E5833AF583E49322AC
:10059500BB010689828A83F0225002F722BBFE0145
:0205A500F3223F
:0E05A700C3E49FFFE49EFEE49DFDE49CFC2265
:0D05B500E6FB08E6F908E6FA08E6CBF822B6
:1005C200FAE6FB0808E6F925F0F618E6CA3AF6223A
:1005D200D083D082F8E4937012740193700DA3A3B8
:1005E20093F8740193F5828883E4737402936860CC
:0605F200EFA3A3A380DFCC
:00000001FF
