:1010190071696E67636169006461626169636169CD
:101029000078696775616E007869616E676A6961E0
:101039006F007869686F6E67736869006E69756EAD
:10104900616E006A696E6A75007169657A6900681E
:1010590075617368656E67006E69756E61690025F3
:10106900660A0057453A2530312E33662050523AE8
:101079002530342E3166004D4F4E45593A253036CC
:101089002E32664E6F3A2564002020202020202031
:1010990020202020202020202000B2CBC3FB3A258D
:1010A900732C20B5A5BCDB3A25322E31660A002007
:1010B9006E616D653A25730070726963653A253210
:1010C9002E316620202020202000456C6563747233
:1010D9006F6E6963207363616C65005553455F4D9D
:1010E9004F44453A204E4F3A25642020005065650B
:1010F9006C65643A256630312E330020206E616DAF
:10110900653A5065656C656420200076616C3A2506
:10111900322E3366202020202020002020205765F1
:101129006C636F6D65207573652020002020636CEA
:101139006173733A20623136202020002020206E0E
:0D114900616D653A20585858202020200084
:10115600604D0019FF1019400CCCCDFF1021403313
:101166003333FF102A409CCCCDFF1031428E999A22
:10117600FF103B42B06666FF104542C60000FF10F6
:101186004C41980000FF104541B00000FF1052424C
:10119600040000FF1058425C0000FF106142B000DE
:1011A6000012510000000000000000400CCCCD00F1
:1011B60000000000005900000000000000000000D0
:1011C6000000000000000000000000000000000019
:0111D6000018
:0D15AA00007F027E677D93DDFEDEFCDFFA30
:0115B7002211
:100A6700E4F531F532F53312149212156212158935
:100A770012161A8F311215E5AB58AA57A956A85561
:100A87001200118F548E538D528C517537FF753864
:100A9700107539688F3D8E3C8D3B8C3A7B017A000F
:100AA70079001206547B017A007900121576C3E5A6
:100AB700329404748094804003020BB47537FF7539
:100AC700381075396C85543D85533C85523B8551AB
:100AD7003A855C41855B40855A3F85593E7B017A63
:100AE7000079001206547B017A0079007F80121585
:100AF70030AF5CAE5BAD5AAC59AB54AA53A952A800
:100B0700511201068F608E5F8D5E8C5D7537FF75A4
:100B170038107539808F3D8E3C8D3B8C3AAF61EF35
:100B27003395E0F53E8F3F7B017A0079001206543A
:100B37007B017A0079007FC0121530E53124D0247B
:100B4700F6503A24FD600D24FA600E24F0705E75AD
:100B570032018024753202801F75320374102532EA
:100B6700F5327BFF7A1079927F801215307BFF7AFE
:100B77001079927FC01215301216168030E5326454
:100B870001701E74102532F5327BFF7A1079927F3F
:100B9700801215307BFF7A1079927FC01215308052
:100BA7000CE5326402700674102532F532E5322006
:100BB700E403020D7BF5335333EFE531B45306E419
:100BC700F532121616E53324FE7003020CC11470B9
:100BD70003020D1324026003020D7BE53164537099
:100BE70003020D7BE531F47003020D7B75F007E519
:100BF70031A424CCF582E5F034FEF583E0FCA3E0D4
:100C0700FDA3E0FEA3E0F55C8E5B8D5A8C59E531C0
:100C170024D0F5617537FF7538107539A375F0075E
:100C2700E531A424C9F582E5F034FEF583E0FBA3A2
:100C3700E0FAA3E08B3A8A3BF53C855C408E3F8D1A
:100C47003E8C3D7B017A0079001206547B017A00C5
:100C570079001215767537FF7538107539B875F044
:100C670007E531A424C9F582E5F034FEF583E0FBFE
:100C7700A3E0FAA3E08B3A8A3BF53C7B017A007943
:100C8700001206547B017A0079007F8012153075B7
:100C970037FF7538107539C1855C3D855B3C855AD2
:100CA7003B85593A7B017A0079001206547B017A19
:100CB7000079007FC0121530804DE531C394305064
:100CC70003020D7BE531D394394003020D7B7BFF93
:100CD7007A1079D37F801215307537FF7538107504
:100CE70039E4E53124D0F53BE434FFF53A7B017A6A
:100CF7000079001206547B017A0079007FC0121533
:100D070030E53124D0F5621216168068E531645358
:100D170060621215E58F588E578D568C557537FFC3
:100D27007538107539F68F3D8E3C8D3B8C3A7B01BB
:100D37007A0079001206547B017A00790012157641
:100D47007BFF7A1179047F801215307537FF75386C
:100D57001175391485583D85573C85563B85553A5D
:100D67007B017A0079001206547B017A0079007FB3
:0A0D7700C01215301215AA020A7707
:101492001215127BFF7A1179247F801215307BFF9F
:1014A2007A1079D37FC01215301215AA1215AA7BB1
:1014B200FF7A1179357F801215307BFF7A117945D9
:0B14C2007FC01215301215AA0215AAF7
:10159A0037343153383532303936333D2E524C4395
:0311D700011FFFF6
:0815DC007F097EF4DEFEDFFC56
:0115E40022E4
:10134B007D0179017CFF43900F1DEDC394047480E4
:10135B0094805048E9540FF452901215DCE590C478
:10136B00540FF4540F24FE601024FE601024FC6014
:10137B00102407700EE4FC800A7C0180067C02803E
:10138B00027C03E9540F4290E925E0F9ECF4600983
:10139B00ED25E025E02CFC80030D80AEE51F6C6095
:1013AB0024ECF46020EC5403FFED25E025E0249AB7
:1013BB00F582E43415F583E5822FF582E43583F568
:0713CB0083E493F51FAF045A
:0113D20022F8
:03161A00AF1F22DD
:04161600751FFF221B
:10154E00E4FEEEC39F500C007D027CC7DCFEDDFC8A
:03155E000E80EF0D
:011561002267
:1014F300C2A18E8012150CD2A212150CC2A2EEC488
:0915030054F0F58012150CD2A27F
:05150C00007F64DFFE1A
:0115110022B7
:0C15B800AE07C2A2C2A01214F3C2A2220D
:0C15C400AE07C2A2D2A01214F3C2A222F1
:101512007F321215B87F281215B87F0C1215B87FCA
:0E152200061215B87F011215B87F800215B8A9
:10153000AD0712054F6016AF051215B80D12054F15
:0E154000FF1215C4740129F9E43AFA80E5227D
:0411DA0002630000AC
:0B15D000E4FEEEC39F5004000E80F705
:0115DB0022ED
:02143900AD07FD
:10143B00E4F522F523C2B2C2B5EDC454F0FDE4FBD2
:10144B00FA30B403432301ED3392B3D2B27F0312CC
:10145B0015D0C2B21215D0ED25E0FDE52325E0F540
:10146B0023E52233F5220BBB00010AEB640C4A7017
:10147B00D0D2B5E522C313F522E52313F52385223C
:06148B0063F564AE22FFD0
:011491002238
:05161100AE63AF64228E
:080003008F50121609AF5022C4
:10158900439850438920758BFD758DFDD28ED2AF5E
:01159900222F
:081609008F993099FDC299226E
:1015760012054FFF600C121609740129F9E43AFAB4
:0315860080EE22D2
:0214CD008D652B
:1014CF00E4FDFCC3ED95657480F86C98501512051A
:1014DF004FFF121609740129F9E43AFA0DBD000104
:0314EF000C80E08E
:0114F20022D7
:101562005389F0438901E4F58A758C4CC28DD28C83
:0415720043A88222E6
:03000B000213D30A
:1013D300C0E0C0F0C083C082C0D075D000C000C0E0
:1013E30001C002C003C004C005C006C007758A005F
:1013F300758C4C12134BE4FF121439AC06AD07E4A1
:1014030012032A7B007AC0794C784412020F8F268C
:101413008E258D248C23AF62120D81D007D006D088
:1014230005D004D003D002D001D000D0D0D082D0D8
:0614330083D0F0D0E0328E
:1011DE000C133F800000408F5C2942340000580001
:1011EE00663F80000040A000003DCCCCCD3F80008B
:1011FE0000000000003DCCCCCD080B00000000002C
:0C120E00000000010801010900010A01B4
:0915E500AF0EAE0DAD0CAC0B22F3
:0915EE00AF12AE11AD10AC0F22DA
:0915F7008F0E8E0D8D0C8C0B2261
:091600008F128E118D108C0F2247
:100D8100E4FEEF650960058F09750801E50824FE99
:100D91006056147003020E4A147003020E4F147051
:100DA1000302101324046003021016E509146012F3
:100DB10014601714601C1460212404701D53A0C713
:100DC100801E53A0CF43A008801653A0D743A01084
:100DD100800E53A0DF43A018800653A0E743A02054
:100DE10053B03F0508021016AF26AE25AD24AC2343
:100DF100850A2B12121BAE07E50A6E60278E0AE5E3
:100E01000A24FE600D1460132402701553B03F02D2
:100E1100100E53B07F43B04002100E53B0BF43B029
:100E21008002100EE50A25E025E0240FF81205B531
:100E3100AF26AE25AD24AC2312020F121600050811
:100E410053A0E743A0200210160508021016E50A78
:100E510024FE7003020F3F147003020F8924026005
:100E610003020FD71215EEC004C005C006C007E586
:100E71000A25E025E0240FF81205B5AF26AE25AD11
:100E810024AC2312020FA804A905AA06AB07D007B8
:100E9100D006D005D0041200117BF27A19799F781F
:100EA100401202AC6002504B1215EEC004C005C0E6
:100EB10006C007E50A25E025E0240FF81205B5AFC5
:100EC10026AE25AD24AC2312020FA804A905AA065B
:100ED100AB07D007D006D005D0041200117BB37A3E
:100EE1000A790378411201067B0D7A15790F78C2D0
:100EF100020FD11215EEC004C005C006C007E50AF5
:100F010025E025E0240FF81205B5AF26AE25AD2466
:100F1100AC2312020FA804A905AA06AB07D007D07B
:100F210006D005D0041200117B497ADA797D783F29
:100F31001201067B4D7AAF799E783C020FD11215D2
:100F4100EEC004C005C006C007E50A25E025E0247F
:100F51000FF81205B5AF26AE25AD24AC2312020F52
:100F6100A804A905AA06AB07D007D006D005D0046E
:100F71001200117B797AAF7982783F1201067B5E8C
:100F81007A387906783C80481215EEC004C005C055
:100F910006C007E50A25E025E0240FF81205B5AFE4
:100FA10026AE25AD24AC2312020FA804A905AA067A
:100FB100AB07D007D006D005D0041200117BEB7A25
:100FC100A87982783F1201067B597A487901783AEB
:100FD1001200151215F7E509146012146017146058
:100FE1001C1460212404701F53A0C7802053A0CF7C
:100FF10043A008801853A0D743A010801053A0DF4E
:1010010043A0188008800053A0E743A0207508057D
:0710110080037508027F0057
:0110180022B5
:08121B008F2A8E298D288C27F3
:10122300E4F52CE52B25E025E0240FF81205B51293
:10123300020F8F308E2F8D2E8C2D900066E0FCA335
:10124300E0FDA3E0FEA3E0FFAB30AA2FA92EA82D5B
:101253001202AC60074005752C01805D900072E0BE
:10126300FCA3E0FDA3E0FEA3E0FFAB30AA2FA92E71
:10127300A82D1202AC6002502290006EE0FCA3E0A5
:10128300FDA3E0FEA3E0FFAB30AA2FA92EA82D12E9
:1012930002AC60074005752C02801E900076E0FCCE
:1012A300A3E0FDA3E0FEA3E0FFAB30AA2FA92EA885
:0B12B3002D1202AC4003752C03AF2C81
:0112BE00220D
:030000000212BF2A
:0C12BF00787FE4F6D8FD75816502130607
:10000E00020398E86480F8E933E83360110460F085
:10001E00ED33EC337009E8FCE9FDEAFEEBFF220458
:10002E0060DED3EB9FEA9EE99DE8C2E78CF0C2F753
:10003E0095F0400CE8CCF8E9CDF9EACEFAEBCFFB1F
:10004E0012036385D0F05804700320D5B3E8047012
:10005E00075002B2D50203A292D5EC0460F7E4CCAD
:10006E00C0E0C398F8603B94186008400DD0E0FBE8
:10007E0002037AE4FBFAC9FC8028E830E406E4C9FE
:10008E00FBE4CAFCE830E305E4C9CACBFCE854073C
:10009E006010F8C3E913F9EA13FAEB13FBEC13FC47
:1000AE00D8F130F52FC3E49CFCEF9BFFEE9AFEEDEA
:1000BE0099FDD0E0FBEF4E4D4C701222DB03020394
:1000CE009FEC2CFCEF33FFEE33FEED33FDED30E70E
:1000DE00EB02037AEF2BFFEE3AFEED39FDD0E0FB9B
:1000EE0050130BBB00030203A2ED13FDEE13FEEF44
:0800FE0013FFEC13FC02037A6E
:10010600EC4D6011E8497017ED33EC3304600DE4F3
:10011600FCFFFEFD22E933E8330470F8020398126F
:10012600036358046009E4CC248150062850090270
:1001360003A228400302039FC0E0EB4A7044B98043
:1001460006D0E0FB02038EEF4E701CBD8008EBFF6D
:10015600EAFEE9FD80EBE98DF0A4FEE5F00201EF91
:10016600E9CDF9EAFEEBFFEF89F0A4FCE5F0CE89D4
:10017600F0A42EFFE435F0CD89F0A42DFEE435F091
:100186008067EF4E7005BD80D780C3EF8BF0A4ACBF
:10019600F0EE8BF0A42CFCE435F0F8EF8AF0A42CFA
:1001A600E5F038FCE433CB8DF0A42CFCE5F03BF80D
:1001B600EE8AF0A42CFCE5F038F8E433CF89F0A4FD
:1001C6002CFCE5F038CF3400CE89F0A42FFFE5F003
:1001D6003EFEE433C98DF0A42EFEE5F039CD8AF05B
:1001E600A42FFFE5F03EFEE43DFD33D0E0FB5007D3
:1001F6000BBB000F0203A2EC2CFCEF33FFEE33FE29
:06020600ED33FD02037A56
:10020C000203A2EC5D046005E85904700302039834
:10021C00120363580460F6EC4860F2EC7004FDFEC7
:10022C00FF22C860DB2481C85009C39860025006C5
:10023C0002039F9850CAF582E9294B4A7005AB829C
:10024C0002038E75F0007C1A7880C3EF9BEE9AED5A
:10025C0099400DC3EF9BFFEE9AFEED99FDE842F03D
:10026C00DC23ACF0D0E0FFD0E0FED0E0FDAB822090
:10027C00E7101BEB60BAEC2CFCEF33FFEE33FEED1A
:10028C0033FD02037AE803F830E705C0F075F0009F
:10029C00EF2FFFEE33FEED33FD40B830E7C280AAFE
:1002AC0074F8CC6480CCC86480C8F58204604FC3F9
:1002BC00EB9FF5F0EA9E42F0E99D42F0E89C45F098
:1002CC00603C501DE5825FFFE582D313CB5BCBF422
:1002DC002B5582FB50280ABA002409B9002008804B
:1002EC001DE5825BFBE582D313CF5FCFF4C3132FE5
:1002FC005582FF50090EBE00050DBD00010CC3EB6D
:10030C009FF5F0EA9E42F0E99D42F0E89C45F060D2
:09031C0007CC4820E701B3EC22F4
:1003250075F020800E75F010800575F0087D007E53
:10033500007F003392D530D5031205A7EC3340106A
:10034500EF33FFEE33FEED33FDEC33FCD5F0ED225C
:0E035500E5F0247EA2D513CC92E7CDCEFF2298
:1005F800E54B2437F8E6054B227834300702783784
:10060800E475F0011205C202054F2000EB7F2ED2DF
:10061800008018EF540F2490D43440D4FF30040BDA
:10062800EF24BFB41A0050032461FFE54C600215A3
:100638004C054FE54F7002054E30070D7834E475D0
:10064800F0011205C2EF0205950200037403D207F8
:100658008003E4C207F54B8B348A358936E4F54CC0
:10066800F54EF54FE54C60077F2012063380F5758F
:100678004DFFC201C200C202C203C205C206C208BF
:10068800120601FF700D3007057F00120644AF4FB8
:10069800AE4E22B4255FC2D5C204120601FF24D093
:1006A800B40A00501A75F00A784C30D50508B6FF20
:1006B8000106C6A426F620D5047002D20380D924E8
:1006C800CFB41A00EF5004C2E5D204020931D201B6
:1006D80080C6D20080C0D20280BCD2D580BAD205F2
:1006E80080B47F201206332002077401B54C004005
:1006F800F11205F8FF12063302066CD208D2068002
:10070800951205F8FB1205F8FA1205F8F94A4B702C
:100718000679287A0A7BFF20022EE54C602A7E00A3
:100728008E8275830012056860060EEE654D70F0C6
:10073800C2D5EBC0E0EAC0E0E9C0E0EE120991D012
:10074800E0F9D0E0FAD0E0FB12054FFF60AAEBC059
:10075800E0EAC0E0E9C0E0120633D0E02401F9D0B5
:10076800E03400FAD0E0FBE54D0460DCD54DD980DB
:1007780087D20280A212097460F7E54D7001041255
:1007880003ADA94D600DE54D600914F54D120A1B26
:10079800EF60F3EA30E702F404C3995077EAF425EE
:1007A8004D0430E701E404F54D800D12097460C171
:1007B800EA054D254D1203ADEA784AF630E701E423
:1007C800254D04D54D0420050114120991E4C0E01B
:1007D800120A1B784AE6601320E70714F612061B74
:1007E800802204F6D0E014C0E07F0012061BE54D1D
:1007F8006007120612154D800B300503120612D041
:10080800E002066CD0E00480C512097460A0E54DD2
:10081800041203AD784AEAF6E54D200502600104AA
:050828002404120991F7
:10082D0074FF04C0E0120A1B12061BE54D200502E1
:10083D006003120612D0E0B54DE87F45120625780B
:10084D004AE67F2B30E7047F2DF404C0E012063317
:10085D00D0E075F00A84C0F012061CD0E012061C20
:10086D0002066C791080027908C206C2088008D28F
:10087D00D5790A8004790AC2D5E54D047002F54D8B
:10088D00E4FAFDFEFF1205F8FC7B082001131205AA
:10089D00F8FD7B1030000A1205F8FE1205F8FF7BFB
:1008AD0020EC3382D592D55013C3E43000069FFF60
:1008BD00E49EFEE42001039DFDE49CFCE4CBF8C224
:1008CD0001EC700CCFCECDCCE824F8F870F3801786
:1008DD00C3EF33FFEE33FEED33FDEC33FCEB33FBB7
:1008ED00994002FB0FD8E9EB300105F8D0E0C44880
:1008FD00B201C0E00AEC4D4E4F78207B0070C2EA89
:10090D00B54D0040BCC0E0120993D0F0D0E02001FD
:10091D0004C4C0E0C4B201C0F012061CD0F0D5F082
:10092D00EB02066C1205D207095308705806DA4C13
:10093D0006D64208744F087C44087C4906EF4308EC
:10094D00825507B346081145077D470A485006DE14
:10095D002D06E22E07052B06E6230703200A312A72
:10096D00069E48000006FDE54DB4FF03754D0612C9
:10097D0005F8FC1205F8FD1205F8FE1205F8FF78D2
:10098D00430203DC790AA2D5200314300509B910FE
:10099D00020404B9080104A2D52006025001042066
:1009AD0002689202B54C005034C0E07F203003192C
:1009BD007F30A20272067205500F1209EAC202C2FE
:1009CD0006C205C2087F30800F300503E9C0E01272
:1009DD000633300503D0E0F9D0E0B54CCC30051727
:1009ED007F30B9100C1206337F583004077F7880A2
:1009FD0003B908031206333002057F2D0206337F3B
:100A0D00202008F87F2B2006F322920280CF7F0052
:100A1D00B4070050052443F8E6FF22286E756C6C70
:100A2D002900D2011205F83001F8C201784C30D5F9
:100A3D000108F602069E2D504349581205F824036D
:100A4D00B405004001E4900A4393120624743A124F
:0A0A5D000624D203754C0402087051
:10036300E9D2E7C933E833F892D5EDD2E7CD33ECE0
:0703730033FC5002B2D52259
:10037A00EC30E7100FBF000C0EBE00080DBD0004E4
:10038A000BEB6014A2D5EB13FCED92E7FD2274FF90
:10039A00FCFDFEFF22E480F8A2D574FF13FC7D80E9
:0303AA00E480EFFD
:1003AD00F920E72824F950037907E4F42402FB1817
:1003BD00DBFDE624FB5014E9600DE4F618E604F6C7
:0F03CD00B40A08E4F6D9F57401F60A22C2D52263
:1003DC00ED33EC3392D5FA602AB4FF33EDC2E77BF0
:1003EC00FF60067A047901E4227A04790A20D504A4
:1003FC007A047905224E614E002B494E46002D4958
:10040C004E4600E47A08F608DAFC7B00740722E812
:10041C00C0E0ECC0E0EDC0E0EEC0E0EFC0E0EA759B
:10042C00F010A4CAABF075F04DA42BFBE435F0FC36
:10043C00EA2410FAEB34C5FBEC34D9FCEDC2E7FF2F
:10044C0075F056A4F42411C5F0F434C58FF0A42A29
:10045C00E5F03BE43CF620E71412050FD0E0FFD0AA
:10046C00E0FED0E0FDD0E0FC12020F8014F4041288
:10047C00050FD0E0FFD0E0FED0E0FDD0E0FC120193
:10048C0006D0E0F8E6FAEDD2E7CD33EC332482FB6C
:10049C00E4C3CF33CFCE33CECD33CD33DBF37B07B9
:1004AC0075F00A846004F6081B0AE5F0F6088FF074
:1004BC00740AA4FFACF08EF0740AA42CFEACF050BD
:1004CC00010C8DF0740AA42CFDE435F0F608DBDE8B
:0304DC0074072280
:1004DF003F8000004120000042C80000447A000025
:1004EF00461C400047C35000497424004B189680A7
:1004FF004CBEBC205A0E1BCA6753C21C749DC5AE9E
:10050F00FB60065407601C232312053DEB54386033
:10051F0009120529120538120106ECF8EDF9EEFA69
:10052F00EFCB22EB12053880F1543803241C9004D2
:10053F00DFFE93FC0EEE93FD0EEE930ECE93FF2295
:1012CB00020A67E493A3F8E493A34003F68001F2C8
:1012DB0008DFF48029E493A3F85407240CC8C33324
:1012EB00C4540F4420C8834004F456800146F6DFF3
:1012FB00E4800B0102040810204080901156E47E1C
:10130B00019360BCA3FF543F30E509541FFEE493E7
:10131B00A360010ECF54C025E060A840B8E493A3AE
:10132B00FAE493A3F8E493A3C8C582C8CAC583CAD9
:10133B00F0A3C8C582C8CAC583CADFE9DEE780BE91
:01121A0000D3
:10054F00BB010689828A83E0225002E722BBFE02AA
:09055F00E32289828A83E49322DD
:10056800BB010CE58229F582E5833AF583E0225048
:1005780006E92582F8E622BBFE06E92582F8E22292
:0D058800E58229F582E5833AF583E49322AC
:10059500BB010689828A83F0225002F722BBFE0145
:0205A500F3223F
:0E05A700C3E49FFFE49EFEE49DFDE49CFC2265
:0D05B500E6FB08E6F908E6FA08E6CBF822B6
:1005C200FAE6FB0808E6F925F0F618E6CA3AF6223A
:1005D200D083D082F8E4937012740193700DA3A3B8
:1005E20093F8740193F5828883E4737402936860CC
:0605F200EFA3A3A380DFCC
:00000001FF
