:10101C0071696E67636169006461626169636169CA
:10102C000078696775616E007869616E676A6961DD
:10103C006F007869686F6E67736869006E69756EAA
:10104C00616E006A696E6A75007169657A6900681B
:10105C0075617368656E67006E69756E616900CD48
:10106C00A8B5C0BAC53A25642CD6D8C1BF3A25302C
:10107C00352E33666B672CB2CBC6B7B1E0BAC53A26
:10108C0025642CD7DCBCDB3A002530362E32663B8F
:10109C000057453A2530352E33662050523A2530CC
:1010AC00342E3166004D4F4E45593A2530362E328E
:1010BC00664E6F3A2564002020202020202020201E
:1010CC002020202020202000206E616D653A2573A1
:1010DC000070726963653A25322E3166202020201B
:1010EC00202000456C656374726F6E6963207363B6
:1010FC00616C65005553455F4D4F44453A204E4F4A
:10110C003A256420200020206E616D653A5065659B
:10111C006C656420200076616C3A25322E33662093
:10112C0020202020200020202057656C636F6D65E7
:10113C00207573652020002020636C6173733A2046
:10114C0062313620202000206E616D653A205720D8
:10115C0058204400CDA8B5C0BAC53A25642CD6D8C1
:10116C00C1BF3A2530352E33666B672CB2CBC6B770
:10117C00B1E0BAC53A25642CD7DCBCDB3A25303655
:05118C002E32663B005D
:1012A600604D0032FF101C400CCCCDFF10244033A3
:1012B6003333FF102D409CCCCDFF1034428E999ACB
:1012C600FF103E42B06666FF104842C60000FF109F
:1012D6004F41980000FF104841B00000FF105542F2
:1012E600040000FF105B425C0000FF106442B00087
:1012F6000012510000000000000000400CCCCD00A0
:101306000000000000603200000000000000000045
:1013160000000000000000000000000000000000C7
:1013260000000000000000000000000000000000B7
:0B1336000000000000000000000000AC
:0D172D00007F027E677D93DDFEDEFCDFFAAB
:01173A00228C
:100A6700E4F531F532F53312119112179D8F3112DA
:100A77001768AB58AA57A956A8551200118F548E5C
:100A8700538D528C517537FF75381075396BAF62BE
:100A9700EF3395E0FEEF2401F53BE43EF53A85544C
:100AA7003F85533E8D3D8C3CAF61EF3395E0F5407C
:100AB7008F417B017A0079001206547B017A007915
:100AC700001216BC74002FF974003EFA7B017537CB
:100AD700FF75381075399585603D855F3C855E3BB0
:100AE700855D3A1206547B017A0079001216F9C324
:100AF700E5329404748094804003020BF57537FF48
:100B070075381075399D85543D85533C85523B8515
:100B1700513A855C41855B40855A3F85593E7B014B
:100B27007A0079001206547B017A0079007F8012DF
:100B3700165DAF5CAE5BAD5AAC59AB54AA53A95224
:100B4700A8511201068F608E5F8D5E8C5D7537FF31
:100B57007538107539B18F3D8E3C8D3B8C3AAF613E
:100B6700EF3395E0F53E8F3F7B017A00790012065F
:100B7700547B017A0079007FC012165DE53124D0DD
:100B870024F6503A24FD600D24FA600E24F0705EBE
:100B97007532018024753202801F75320374102567
:100BA70032F5327BFF7A1079C37F8012165D7BFFA7
:100BB7007A1079C37FC012165D1217998030E5321B
:100BC7006401701E74102532F5327BFF7A1079C3E9
:100BD7007F8012165D7BFF7A1079C37FC012165D86
:100BE700800CE5326402700674102532F532E53266
:100BF70020E403020D61F5335333EFE531B45306B7
:100C0700E4F532121799E53324FE7003020CC11480
:100C17007003020D1324026003020D61E531645372
:100C27007003020D61E531F47003020D6175F00781
:100C3700E531A424E5F582E5F034FEF583E0FCA375
:100C4700E0FDA3E0FEA3E0F55C8E5B8D5A8C59E5D1
:100C57003124D0F5617537FF7538107539D475F0C3
:100C670007E531A424E2F582E5F034FEF583E0FBE5
:100C7700A3E0FAA3E08B3A8A3BF53C7B017A007943
:100C8700001206547B017A0079007F8012165D7589
:100C970037FF7538107539DD855C3D855B3C855AB6
:100CA7003B85593A7B017A0079001206547B017A19
:100CB7000079007FC012165D804DE531C394305036
:100CC70003020D61E531D394394003020D617BFFC7
:100CD7007A1079EF7F8012165D7537FF75381175B9
:100CE7003900E53124D0F53BE434FFF53A7B017A4E
:100CF7000079001206547B017A0079007FC0121632
:100D07005DE53124D0F562121799804EE5316453C1
:100D170060481217688F588E578D568C557B017A0D
:100D27000079001216F97BFF7A1179127F8012166B
:100D37005D7537FF75381175392285583D85573CE4
:100D470085563B85553A7B017A0079001206547B1C
:100D5700017A0079007FC012165D12172D020A7101
:1015FC0012169E7BFF7A1179327F8012165D7BFF6B
:10160C007A1079EF7FC012165D12172D12172D7BF1
:10161C00FF7A1179437F8012165D7BFF7A11795323
:0B162C007FC012165D12172D02172D53
:101191001215FC1216E512170C7537FF753811750B
:1011A1003960753A00753B0185543F85533E855240
:1011B1003D85513CAF61EF3395E0F5408F4185604E
:1011C10045855F44855E43855D427B017A007900F8
:1011D1001206547B017A0079001216F97537FF75F2
:1011E1003811753960753A00753B0285543F855356
:1011F1003E85523D85513CAF61EF3395E0F5408F1F
:1012010041856045855F44855E43855D427B017A0A
:101211000079001206547B017A0079001216F975E3
:1012210037FF753811753960753A00753B03855480
:101231003F85533E85523D85513CAF61EF3395E08B
:10124100F5408F41856045855F44855E43855D42FC
:101251007B017A0079001206547B017A0079001231
:1012610016F97537FF753811753960753A00753B98
:101271000485543F85533E85523D85513CAF61EF16
:101281003395E0F5408F41856045855F44855E4338
:10129100855D427B017A0079001206547B017A0058
:0512A10079000216F9BE
:10171D0037343153383532303936333D2E524C4310
:03134100011FFF8A
:08175F007F097EF4DEFEDFFCD1
:01176700225F
:1014B5007D0179017CFF43900F1DEDC39404748079
:1014C50094805048E9540FF4529012175FE590C488
:1014D500540FF4540F24FE601024FE601024FC60A9
:1014E500102407700EE4FC800A7C0180067C0280D3
:1014F500027C03E9540F4290E925E0F9ECF4600918
:10150500ED25E025E02CFC80030D80AEE51F6C6029
:1015150024ECF46020EC5403FFED25E025E0241DC8
:10152500F582E43417F583E5822FF582E43583F5FA
:0715350083E493F51FAF04EE
:01153C00228C
:03179D00AF1F2259
:04179900751FFF2297
:1016D100E4FEEEC39F500C007D027CC7DCFEDDFC06
:0316E1000E80EF89
:0116E40022E3
:10167F00C2A18E80121698D2A2121698C2A2EEC4E0
:09168F0054F0F580121698D2A265
:05169800007F64DFFE8D
:01169D00222A
:0C173B00AE07C2A2C2A012167FC2A222FA
:0C174700AE07C2A2D2A012167FC2A222DE
:10169E007F3212173B7F2812173B7F0C12173B7FAE
:0E16AE000612173B7F0112173B7F8002173B8D
:10165D00AD07C2A912054F6016AF0512173B0D124B
:10166D00054FFF121747740129F9E43AFA80E5D2C4
:02167D00A922A0
:041344000263000040
:0B175300E4FEEEC39F5004000E80F780
:01175E002268
:0215A300AD0792
:1015A500E4F522F523C2B2C2B5EDC454F0FDE4FB67
:1015B500FA30B403432301ED3392B3D2B27F031261
:1015C5001753C2B2121753ED25E0FDE52325E0F5CB
:1015D50023E52233F5220BBB00010AEB640C4A70AC
:1015E500D0D2B5E522C313F522E52313F5238522D1
:0615F50063F564AE22FF65
:0115FB0022CD
:05179400AE63AF64220A
:080003008F5012178CAF502240
:10170C00439850438920758BFD758DFDD28ED2AFD9
:01171C0022AA
:08178C008F993099FDC29922EA
:1016F90012054FFF600C12178C740129F9E43AFAAC
:0317090080EE224D
:021637008D65BF
:10163900E4FDFCC3ED95657480F86C9850151205AE
:101649004FFF12178C740129F9E43AFA0DBD000114
:031659000C80E022
:01165C00226B
:1016E5005389F0438901E4F58A758C4CC28DD28CFF
:0416F50043A8822262
:03000B0002153D9E
:10153D00C0E0C0F0C083C082C0D075D000C000C074
:10154D0001C002C003C004C005C006C007758A00F3
:10155D00758C4C1214B5E4FF1215A3AC06AD07E45F
:10156D0012032A7B007AC0794C784412020F8F2621
:10157D008E258D248C23AF62120D67D007D006D037
:10158D0005D004D003D002D001D000D0D0D082D06D
:06159D0083D0F0D0E03223
:101348000C133F800000408F5C2942340000580095
:101358007F3F80000040A000003DCCCCCD3F800006
:1013680000000000003DCCCCCD080B0000000000C0
:0C137800000000010801010900010A0149
:09176800AF0EAE0DAD0CAC0B226E
:09177100AF12AE11AD10AC0F2255
:09177A008F0E8E0D8D0C8C0B22DC
:091783008F128E118D108C0F22C3
:100D6700E4FEEF650960058F09750801E50824FEB3
:100D77006056147003020E30147003020E3514709F
:100D87000302101624046003021019E50914601207
:100D970014601714601C1460212404701D53A0C72D
:100DA700801E53A0CF43A008801653A0D743A0109E
:100DB700800E53A0DF43A018800653A0E743A0206E
:100DC70053B03F0508021019AF26AE25AD24AC235A
:100DD700850A2B121385AE07E50A6E60278E0AE592
:100DE7000A24FE600D1460132402701553B03F02ED
:100DF700101153B07F43B04002101153B0BF43B03E
:100E070080021011E50A25E025E0240FF81205B548
:100E1700AF26AE25AD24AC2312020F1217830508A7
:100E270053A0E743A0200210190508021019E50A8C
:100E370024FE7003020F24147003020F7124026052
:100E470003020FDA121771C004C005C006C007E518
:100E57000A25E025E0240FF81205B5AF26AE25AD2B
:100E670024AC2312020FA804A905AA06AB07D007D2
:100E7700D006D005D0041200117BF27A19799F7839
:100E8700401202AC6002504B121771C004C005C07B
:100E970006C007E50A25E025E0240FF81205B5AFDF
:100EA70026AE25AD24AC2312020FA804A905AA0675
:100EB700AB07D007D006D005D0041200117BB37A58
:100EC7000A790378411201067B0D7A15790F78C2EA
:100ED700020F6C121771C004C005C006C007E50AEF
:100EE70025E025E0240FF81205B5AF26AE25AD2481
:100EF700AC2312020FA804A905AA06AB07D007D096
:100F070006D005D0041200117B497ADA797D783F43
:100F17001201067B4D7AAF799E783C804812177193
:100F2700C004C005C006C007E50A25E025E0240F78
:100F3700F81205B5AF26AE25AD24AC2312020FA8D3
:100F470004A905AA06AB07D007D006D005D004121E
:100F570000117B797AAF7982783F1201067B5E7A3E
:100F6700387906783C1200158066121771C004C0E4
:100F770005C006C007E50A25E025E0240FF812059D
:100F8700B5AF26AE25AD24AC2312020FA804A905E0
:100F9700AA06AB07D007D006D005D0041200117BF4
:100FA700EB7AA87982783F1201067B597A48790152
:100FB700783A12001512177A1217687B6F7A12792E
:100FC70083783A1202AC400B7F007E007D007C00E4
:100FD70012177AE50914601214601714601C146064
:100FE700212404701F53A0C7802053A0CF43A0081B
:100FF700801853A0D743A010801053A0DF43A01838
:101007008008800053A0E743A0207508058003757A
:0410170008027F004C
:01101B0022B2
:081385008F2A8E298D288C2788
:10138D00E4F52CE52B25E025E0240FF81205B51228
:10139D00020F8F308E2F8D2E8C2D90007FE0FCA3B1
:1013AD00E0FDA3E0FEA3E0FFAB30AA2FA92EA82DF0
:1013BD001202AC60074005752C01805D90008BE03A
:1013CD00FCA3E0FDA3E0FEA3E0FFAB30AA2FA92E06
:1013DD00A82D1202AC60025022900087E0FCA3E021
:1013ED00FDA3E0FEA3E0FFAB30AA2FA92EA82D127E
:1013FD0002AC60074005752C02801E90008FE0FC4A
:10140D00A3E0FDA3E0FEA3E0FFAB30AA2FA92EA819
:0B141D002D1202AC4003752C03AF2C15
:0114280022A1
:03000000021429BE
:0C142900787FE4F6D8FD75816502147030
:10000E00020398E86480F8E933E83360110460F085
:10001E00ED33EC337009E8FCE9FDEAFEEBFF220458
:10002E0060DED3EB9FEA9EE99DE8C2E78CF0C2F753
:10003E0095F0400CE8CCF8E9CDF9EACEFAEBCFFB1F
:10004E0012036385D0F05804700320D5B3E8047012
:10005E00075002B2D50203A292D5EC0460F7E4CCAD
:10006E00C0E0C398F8603B94186008400DD0E0FBE8
:10007E0002037AE4FBFAC9FC8028E830E406E4C9FE
:10008E00FBE4CAFCE830E305E4C9CACBFCE854073C
:10009E006010F8C3E913F9EA13FAEB13FBEC13FC47
:1000AE00D8F130F52FC3E49CFCEF9BFFEE9AFEEDEA
:1000BE0099FDD0E0FBEF4E4D4C701222DB03020394
:1000CE009FEC2CFCEF33FFEE33FEED33FDED30E70E
:1000DE00EB02037AEF2BFFEE3AFEED39FDD0E0FB9B
:1000EE0050130BBB00030203A2ED13FDEE13FEEF44
:0800FE0013FFEC13FC02037A6E
:10010600EC4D6011E8497017ED33EC3304600DE4F3
:10011600FCFFFEFD22E933E8330470F8020398126F
:10012600036358046009E4CC248150062850090270
:1001360003A228400302039FC0E0EB4A7044B98043
:1001460006D0E0FB02038EEF4E701CBD8008EBFF6D
:10015600EAFEE9FD80EBE98DF0A4FEE5F00201EF91
:10016600E9CDF9EAFEEBFFEF89F0A4FCE5F0CE89D4
:10017600F0A42EFFE435F0CD89F0A42DFEE435F091
:100186008067EF4E7005BD80D780C3EF8BF0A4ACBF
:10019600F0EE8BF0A42CFCE435F0F8EF8AF0A42CFA
:1001A600E5F038FCE433CB8DF0A42CFCE5F03BF80D
:1001B600EE8AF0A42CFCE5F038F8E433CF89F0A4FD
:1001C6002CFCE5F038CF3400CE89F0A42FFFE5F003
:1001D6003EFEE433C98DF0A42EFEE5F039CD8AF05B
:1001E600A42FFFE5F03EFEE43DFD33D0E0FB5007D3
:1001F6000BBB000F0203A2EC2CFCEF33FFEE33FE29
:06020600ED33FD02037A56
:10020C000203A2EC5D046005E85904700302039834
:10021C00120363580460F6EC4860F2EC7004FDFEC7
:10022C00FF22C860DB2481C85009C39860025006C5
:10023C0002039F9850CAF582E9294B4A7005AB829C
:10024C0002038E75F0007C1A7880C3EF9BEE9AED5A
:10025C0099400DC3EF9BFFEE9AFEED99FDE842F03D
:10026C00DC23ACF0D0E0FFD0E0FED0E0FDAB822090
:10027C00E7101BEB60BAEC2CFCEF33FFEE33FEED1A
:10028C0033FD02037AE803F830E705C0F075F0009F
:10029C00EF2FFFEE33FEED33FD40B830E7C280AAFE
:1002AC0074F8CC6480CCC86480C8F58204604FC3F9
:1002BC00EB9FF5F0EA9E42F0E99D42F0E89C45F098
:1002CC00603C501DE5825FFFE582D313CB5BCBF422
:1002DC002B5582FB50280ABA002409B9002008804B
:1002EC001DE5825BFBE582D313CF5FCFF4C3132FE5
:1002FC005582FF50090EBE00050DBD00010CC3EB6D
:10030C009FF5F0EA9E42F0E99D42F0E89C45F060D2
:09031C0007CC4820E701B3EC22F4
:1003250075F020800E75F010800575F0087D007E53
:10033500007F003392D530D5031205A7EC3340106A
:10034500EF33FFEE33FEED33FDEC33FCD5F0ED225C
:0E035500E5F0247EA2D513CC92E7CDCEFF2298
:1005F800E54B2437F8E6054B227834300702783784
:10060800E475F0011205C202054F2000EB7F2ED2DF
:10061800008018EF540F2490D43440D4FF30040BDA
:10062800EF24BFB41A0050032461FFE54C600215A3
:100638004C054FE54F7002054E30070D7834E475D0
:10064800F0011205C2EF0205950200037403D207F8
:100658008003E4C207F54B8B348A358936E4F54CC0
:10066800F54EF54FE54C60077F2012063380F5758F
:100678004DFFC201C200C202C203C205C206C208BF
:10068800120601FF700D3007057F00120644AF4FB8
:10069800AE4E22B4255FC2D5C204120601FF24D093
:1006A800B40A00501A75F00A784C30D50508B6FF20
:1006B8000106C6A426F620D5047002D20380D924E8
:1006C800CFB41A00EF5004C2E5D204020931D201B6
:1006D80080C6D20080C0D20280BCD2D580BAD205F2
:1006E80080B47F201206332002077401B54C004005
:1006F800F11205F8FF12063302066CD208D2068002
:10070800951205F8FB1205F8FA1205F8F94A4B702C
:100718000679287A0A7BFF20022EE54C602A7E00A3
:100728008E8275830012056860060EEE654D70F0C6
:10073800C2D5EBC0E0EAC0E0E9C0E0EE120991D012
:10074800E0F9D0E0FAD0E0FB12054FFF60AAEBC059
:10075800E0EAC0E0E9C0E0120633D0E02401F9D0B5
:10076800E03400FAD0E0FBE54D0460DCD54DD980DB
:1007780087D20280A212097460F7E54D7001041255
:1007880003ADA94D600DE54D600914F54D120A1B26
:10079800EF60F3EA30E702F404C3995077EAF425EE
:1007A8004D0430E701E404F54D800D12097460C171
:1007B800EA054D254D1203ADEA784AF630E701E423
:1007C800254D04D54D0420050114120991E4C0E01B
:1007D800120A1B784AE6601320E70714F612061B74
:1007E800802204F6D0E014C0E07F0012061BE54D1D
:1007F8006007120612154D800B300503120612D041
:10080800E002066CD0E00480C512097460A0E54DD2
:10081800041203AD784AEAF6E54D200502600104AA
:050828002404120991F7
:10082D0074FF04C0E0120A1B12061BE54D200502E1
:10083D006003120612D0E0B54DE87F45120625780B
:10084D004AE67F2B30E7047F2DF404C0E012063317
:10085D00D0E075F00A84C0F012061CD0E012061C20
:10086D0002066C791080027908C206C2088008D28F
:10087D00D5790A8004790AC2D5E54D047002F54D8B
:10088D00E4FAFDFEFF1205F8FC7B082001131205AA
:10089D00F8FD7B1030000A1205F8FE1205F8FF7BFB
:1008AD0020EC3382D592D55013C3E43000069FFF60
:1008BD00E49EFEE42001039DFDE49CFCE4CBF8C224
:1008CD0001EC700CCFCECDCCE824F8F870F3801786
:1008DD00C3EF33FFEE33FEED33FDEC33FCEB33FBB7
:1008ED00994002FB0FD8E9EB300105F8D0E0C44880
:1008FD00B201C0E00AEC4D4E4F78207B0070C2EA89
:10090D00B54D0040BCC0E0120993D0F0D0E02001FD
:10091D0004C4C0E0C4B201C0F012061CD0F0D5F082
:10092D00EB02066C1205D207095308705806DA4C13
:10093D0006D64208744F087C44087C4906EF4308EC
:10094D00825507B346081145077D470A485006DE14
:10095D002D06E22E07052B06E6230703200A312A72
:10096D00069E48000006FDE54DB4FF03754D0612C9
:10097D0005F8FC1205F8FD1205F8FE1205F8FF78D2
:10098D00430203DC790AA2D5200314300509B910FE
:10099D00020404B9080104A2D52006025001042066
:1009AD0002689202B54C005034C0E07F203003192C
:1009BD007F30A20272067205500F1209EAC202C2FE
:1009CD0006C205C2087F30800F300503E9C0E01272
:1009DD000633300503D0E0F9D0E0B54CCC30051727
:1009ED007F30B9100C1206337F583004077F7880A2
:1009FD0003B908031206333002057F2D0206337F3B
:100A0D00202008F87F2B2006F322920280CF7F0052
:100A1D00B4070050052443F8E6FF22286E756C6C70
:100A2D002900D2011205F83001F8C201784C30D5F9
:100A3D000108F602069E2D504349581205F824036D
:100A4D00B405004001E4900A4393120624743A124F
:0A0A5D000624D203754C0402087051
:10036300E9D2E7C933E833F892D5EDD2E7CD33ECE0
:0703730033FC5002B2D52259
:10037A00EC30E7100FBF000C0EBE00080DBD0004E4
:10038A000BEB6014A2D5EB13FCED92E7FD2274FF90
:10039A00FCFDFEFF22E480F8A2D574FF13FC7D80E9
:0303AA00E480EFFD
:1003AD00F920E72824F950037907E4F42402FB1817
:1003BD00DBFDE624FB5014E9600DE4F618E604F6C7
:0F03CD00B40A08E4F6D9F57401F60A22C2D52263
:1003DC00ED33EC3392D5FA602AB4FF33EDC2E77BF0
:1003EC00FF60067A047901E4227A04790A20D504A4
:1003FC007A047905224E614E002B494E46002D4958
:10040C004E4600E47A08F608DAFC7B00740722E812
:10041C00C0E0ECC0E0EDC0E0EEC0E0EFC0E0EA759B
:10042C00F010A4CAABF075F04DA42BFBE435F0FC36
:10043C00EA2410FAEB34C5FBEC34D9FCEDC2E7FF2F
:10044C0075F056A4F42411C5F0F434C58FF0A42A29
:10045C00E5F03BE43CF620E71412050FD0E0FFD0AA
:10046C00E0FED0E0FDD0E0FC12020F8014F4041288
:10047C00050FD0E0FFD0E0FED0E0FDD0E0FC120193
:10048C0006D0E0F8E6FAEDD2E7CD33EC332482FB6C
:10049C00E4C3CF33CFCE33CECD33CD33DBF37B07B9
:1004AC0075F00A846004F6081B0AE5F0F6088FF074
:1004BC00740AA4FFACF08EF0740AA42CFEACF050BD
:1004CC00010C8DF0740AA42CFDE435F0F608DBDE8B
:0304DC0074072280
:1004DF003F8000004120000042C80000447A000025
:1004EF00461C400047C35000497424004B189680A7
:1004FF004CBEBC205A0E1BCA6753C21C749DC5AE9E
:10050F00FB60065407601C232312053DEB54386033
:10051F0009120529120538120106ECF8EDF9EEFA69
:10052F00EFCB22EB12053880F1543803241C9004D2
:10053F00DFFE93FC0EEE93FD0EEE930ECE93FF2295
:10143500020A67E493A3F8E493A34003F68001F25C
:1014450008DFF48029E493A3F85407240CC8C333B8
:10145500C4540F4420C8834004F456800146F6DF87
:10146500E4800B01020408102040809012A6E47E5F
:10147500019360BCA3FF543F30E509541FFEE4937C
:10148500A360010ECF54C025E060A840B8E493A343
:10149500FAE493A3F8E493A3C8C582C8CAC583CA6E
:1014A500F0A3C8C582C8CAC583CADFE9DEE780BE26
:011384000068
:10054F00BB010689828A83E0225002E722BBFE02AA
:09055F00E32289828A83E49322DD
:10056800BB010CE58229F582E5833AF583E0225048
:1005780006E92582F8E622BBFE06E92582F8E22292
:0D058800E58229F582E5833AF583E49322AC
:10059500BB010689828A83F0225002F722BBFE0145
:0205A500F3223F
:0E05A700C3E49FFFE49EFEE49DFDE49CFC2265
:0D05B500E6FB08E6F908E6FA08E6CBF822B6
:1005C200FAE6FB0808E6F925F0F618E6CA3AF6223A
:1005D200D083D082F8E4937012740193700DA3A3B8
:1005E20093F8740193F5828883E4737402936860CC
:0605F200EFA3A3A380DFCC
:1016BC00E4FFFE12054F600C0FEF70010E09E9708C
:0516CC00F20A80EF228C
:00000001FF
