:1012040020202020202055202020202020202020A5
:1012140000204C2020202044202020205220202068
:101224002000202020416C61726D205365742020C1
:101234002020002020616C61726D3D202020636DB0
:101244002020200074656D703A2530342E31660AF2
:1012540000001E00320064009600C800FA012C034E
:1012640020001B002D005A008800B500E201100286
:0C127400D655AA00000000000000000099
:0C17DC00046C0000000004660000000027
:0413D4008E358F368D
:1013D800C3E535648094805019E5361536700215DA
:1013E800356336FF6335FFC3E49536FDE49535FC78
:1013F8008005AC35AD36EC12031FE4FBFA79807832
:101408003D1200FB8F3A8E398D388C37AF3AAE39A2
:04141800AD38AC3708
:01141C0022AD
:1014A5001214651213D48F698E688D678C667B0064
:1014B5007A8079887843120204E4FBFA7980783FD0
:1014C50012000A1210D27B007A8079A578431200A7
:0A14D500FB8F6F8E6E8D6D8C6C2204
:0817E900E4F5E7F5E3F5E42265
:1016EB00AD07AC06E4F5E275E78375E5018CE3ED38
:0F16FB00F5E475E64675E6B9001217E9AFE2228D
:10174700AB07AA0675E78375E5028AE3EBF5E48D37
:0B175700E275E64675E6B9000217E9EE
:10176200AD07AC0675E78375E5038CE3EDF5E4752B
:09177200E64675E6B9000217E92C
:041683007F0A7E005C
:10168700E4FDFCC3ED9FEC9E5015E4FBFA0BBB0099
:0F169700010AEB64704A70F50DBD00010C80E490
:0116A6002221
:10177B00C291C292C2938F807F027E00121687D2D3
:07178B0093121687C293229E
:071729001206FDEF2430FF62
:10173000D291C292C2938F807F027E00121687D20E
:0717400093121687C29322E9
:0416CB007D087F0116
:1016CF008F35A905EF7007E92480FF12177BE535E9
:0C16DF0064017007E924C0FF12177B2291
:101639008B358A368937AB35AA36A93712067160D8
:10164900130537E5377002053614F9120671FF12D2
:05165900173080E222C1
:10141D00AC06AD07E412031F8F268E258D248C2379
:03142D001203584F
:101430008E358F367C007D64121729AE35AF367C31
:10144000007D641206FD7E007F0ACFCDCFCECCCECC
:10145000121729AE35AF367C007D0A1206FDED2449
:0514600030FF0217300F
:101792007F3812177B7F0C12177B7F0612177B7F15
:0417A2000102177BAE
:10170A00E4FDFF1216CF7BFF7A127904121639E430
:0F171A00FD7F011216CF7BFF7A12791502163967
:10128000E4F58CF58AD2A57F01FE121687C2A5303F
:10129000A6FDD28C20A6FDC28C1214A5C004C005E8
:1012A000C006C007AF8CEFFEAD8A7C00E42DFDECDC
:1012B0003EFCE412031FD003D002D001D000120084
:1012C000FB7B007A40791C7846120204E4FBFAF9B1
:0512D000784002020459
:1012D500E4F58CF58AD2B57F01FE121687C2B530CA
:1012E500B6FDD28C20B6FDC28C1214A5C004C00573
:1012F500C006C007AF8CEFFEAD8A7C00E42DFDEC87
:101305003EFCE412031FD003D002D001D00012002E
:10131500FB7B007A40791C7846120204E4FBFAF95B
:05132500784002020403
:10132A00E4F58CF58AD2B27F01FE121687C2B2307A
:10133A00B3FDD28C20B3FDC28C1214A5C004C00523
:10134A00C006C007AF8CEFFEAD8A7C00E42DFDEC31
:10135A003EFCE412031FD003D002D001D0001200D9
:10136A00FB7B007A40791C7846120204E4FBFAF906
:05137A007840020204AE
:10137F00E4F58CF58AD2947F01FE121687C2943061
:10138F0095FDD28C2095FDC28C1214A5C004C0050A
:10139F00C006C007AF8CEFFEAD8A7C00E42DFDECDC
:1013AF003EFCE412031FD003D002D001D000120084
:1013BF00FB7B007A40791C7846120204E4FBFAF9B1
:0513CF00784002020459
:10100B0030A2030210CDE4FDFF1216CF7BFF7A1244
:10101B007926121639E4FD7F011216CF7BFF7A1267
:10102B0079371216391216CBAF6BAE6A1214301217
:10103B00168330A2FD12168320A124D3E56B9402F4
:10104B00E56A94004008E56B156B7002156A121681
:10105B00CBAF6BAE6A1214307F2C7E011216872039
:10106B00A024C3E56B9490E56A94015008056BE5E9
:10107B006B7002056A1216CBAF6BAE6A1214307F1F
:10108B002C7E0112168720A2AF12170A121683307C
:10109B00A2FD1216837F007E20121762AE6AAF6B21
:1010AB007C007D641206FDAD077F007E2012174782
:1010BB00AE6AAF6B7C007D641206FD7F017E201251
:0310CB00174722A2
:101517008F388E378D368C35AC6AAD6BE412031F6E
:10152700AB38AA37A936A8351202A15004C2A48045
:1015370002D2A430A40930B406309603209003C227
:05154700A322D2A32243
:10154C008F388E378D368C35AC6AAD6BE412031F39
:10155C00AB38AA37A936A8351202A15004C2B48000
:10156C0002D2B430A40930B406309603209003C2E2
:05157C00A322D2A3220E
:101581008F388E378D368C35AC6AAD6BE412031F04
:10159100AB38AA37A936A8351202A15004C29680E9
:1015A10002D29630A40930B406309603209003C2CB
:0515B100A322D2A322D9
:1015B6008F388E378D368C35AC6AAD6BE412031FCF
:1015C600AB38AA37A936A8351202A15004C29080BA
:1015D60002D29030A40930B406309603209003C29C
:0515E600A322D2A322A4
:1014DF007F017E201216EBEF75F00AA4FBAAF07FB6
:1014EF00001216EBEF75F064A4AEF02BF56BEE3A2D
:1014FF00F56A456B600BD3E56B9490E56A940140F8
:08150F0006756A00756B1922D4
:0D0E4C00E4FBFA792078411200FB120358F4
:040E59008E358F360D
:100E5D007537FFD39012657401939536E4939535EC
:100E6D0050149012677401939536E49395354006AE
:100E7D00E4F537020F50D39012677401939536E461
:100E8D0093953550149012697401939536E49395AA
:100E9D00354006753701020F50D3901269740193D6
:100EAD009536E4939535501490126B7401939536E5
:100EBD00E49395354006753702020F50D390126BAF
:100ECD007401939536E4939535501390126D74011A
:100EDD00939536E493953540057537038065D3902A
:100EED00126D7401939536E4939535501390126FEE
:100EFD007401939536E49395354005753704804319
:100F0D00D390126F7401939536E4939535501390E9
:100F1D0012717401939536E4939535400575370537
:100F2D008021D39012717401939536E493953550C9
:100F3D0012C39012737401939536E4939535400363
:100F4D00753706E537FB3395E0FAEB25E0FFEA331D
:100F5D00FE74652FF58274123EF583E493FC7401E3
:100F6D0093FD74672FF58274123EF583C37401935C
:100F7D009DFDE4939CFCEB25E0FFEA33FE74552FB9
:100F8D00F58274123EF583E493FA740193FB745762
:100F9D002FF58274123EF583C37401939BFFE49386
:100FAD009AFE120752AA06AB07AF37EF3395E0FE54
:100FBD00EF25E0FFEE33FE74652FF58274123EF5DA
:100FCD0083E493FE740193FFC3E5369FFDE5359EE3
:100FDD00FCAF03AE021206EBAC06AD07AF37EF3335
:100FED0095E0FEEF25E0FFEE33FE74552FF582748C
:0D0FFD00123EF5837401932DFFE4933CFE3A
:01100A0022C3
:100C680078277C007D007BFF7A1279757E007F0BE8
:100C780012064B753200753300753427121792121D
:100C8800170A1214DF4389011217CBC2A5C2B5C2D5
:100C9800B2C2947538FF753912753A4885693E8530
:100CA800683D85673C85663B7B007A00795212086F
:100CB800557B007A0079521217A67D06E4FF1216BA
:100CC800CF121280120E4C12141DAF26AE25AD2481
:100CD800AC23121517AF26AE25AD24AC231203584A
:100CE800AB32AA33A934900002EE8FF0120788E4E1
:100CF800F522C3E522940F74809480500A12100BD9
:100D0800121683052280EB7D0D7F011216CF121279
:100D1800D5120E4C12141DAF26AE25AD24AC2312ED
:100D2800154CAF26AE25AD24AC23120358AB32AA1E
:100D380033A934900004EE8FF0120788E4F522C33B
:100D4800E522940F74809480500A12100B121683B7
:100D5800052280EB12132A120E4CAC06AD07E412E2
:100D6800031F8F268E258D248C237D077F01121665
:100D7800CFAF26AE25AD24AC23120358121430AFE2
:100D880026AE25AD24AC23121581AF26AE25AD24A1
:100D9800AC23120358AB32AA33A934900006EE8F65
:100DA800F0120788E4F522C3E522940F748094803A
:100DB800500A12100B121683052280EB12137F12B1
:100DC8000E4CAC06AD07E412031F8F268E258D242A
:100DD8008C237D017F011216CFAF26AE25AD24AC42
:100DE80023120358121430AF26AE25AD24AC2312BB
:100DF80015B6AF26AE25AD24AC23120358AB32AAE4
:100E080033A934900008EE8FF0120788AF69AE68F6
:100E1800AD67AC66120358AB32AA33A93490000A06
:100E2800EF1206C97D0B121613E4F522C3E52294CE
:100E38000F748094804003020CC212100B121683A8
:040E4800052280E817
:0717B90012165E7F507E0056
:0B17C000EF1FAC0670011E4C70F622FB
:1016A700E4FDD2A77F08FE1217C0C2A71217BCD24B
:1016B700A77F0E7E001217C0A2A7E433FD7F147E1A
:0416C700000217C046
:1015EB00E4FB7D08EDD39400748094804017C2A770
:1015FB00EB13FBD2A730A7034303807F047E0012BB
:07160B0017C01D80DFAF03D3
:0116120022B5
:02165E00AD07D6
:101660007B08EBD39400748094804016C2A7ED13DE
:1016700092A77F057E001217C0D2A7EDC313FD1BF2
:0216800080E008
:011682002245
:10146500E4F535F5361216A71217BC1216A77FCC70
:1014750012165E7F441217B91216A77FCC12165E9C
:101485007FBE1217B91215EB7535008F361215EBA5
:0F149500EFFEE42536F536EE3535F535FEAF368C
:0114A4002225
:0817F1008F511217F9AF5122CC
:1017CB00439850438920758BFD758DFDD28ED2AF1A
:0117DB0022EB
:0817F9008F993099FDC299227D
:1017A600120671FF600C1217F9740129F9E43AFA6E
:0317B60080EE22A0
:021613008D3513
:10161500E4FDFCC3ED95357480F86C985015120601
:1016250071FF1217F9740129F9E43AFA0DBD0001A9
:031635000C80E046
:01163800228F
:100003000203C4E86480F8E933E83360110460F064
:10001300ED33EC337009E8FCE9FDEAFEEBFF220463
:1000230060DED3EB9FEA9EE99DE8C2E78CF0C2F75E
:1000330095F0400CE8CCF8E9CDF9EACEFAEBCFFB2A
:1000430012038F85D0F05804700320D5B3E80470F1
:10005300075002B2D50203CE92D5EC0460F7E4CC8C
:10006300C0E0C398F8603B94186008400DD0E0FBF3
:100073000203A6E4FBFAC9FC8028E830E406E4C9DD
:10008300FBE4CAFCE830E305E4C9CACBFCE8540747
:100093006010F8C3E913F9EA13FAEB13FBEC13FC52
:1000A300D8F130F52FC3E49CFCEF9BFFEE9AFEEDF5
:1000B30099FDD0E0FBEF4E4D4C701222DB0302039F
:1000C300CBEC2CFCEF33FFEE33FEED33FDED30E7ED
:1000D300EB0203A6EF2BFFEE3AFEED39FDD0E0FB7A
:1000E30050130BBB00030203CEED13FDEE13FEEF23
:0800F30013FFEC13FC0203A64D
:1000FB00EC4D6011E8497017ED33EC3304600DE4FF
:10010B00FCFFFEFD22E933E8330470F80203C4124E
:10011B00038F58046009E4CC24815006285009024F
:10012B0003CE2840030203CBC0E0EB4A7044B980F6
:10013B0006D0E0FB0203BAEF4E701CBD8008EBFF4C
:10014B00EAFEE9FD80EBE98DF0A4FEE5F00201E4A7
:10015B00E9CDF9EAFEEBFFEF89F0A4FCE5F0CE89DF
:10016B00F0A42EFFE435F0CD89F0A42DFEE435F09C
:10017B008067EF4E7005BD80D780C3EF8BF0A4ACCA
:10018B00F0EE8BF0A42CFCE435F0F8EF8AF0A42C05
:10019B00E5F038FCE433CB8DF0A42CFCE5F03BF818
:1001AB00EE8AF0A42CFCE5F038F8E433CF89F0A408
:1001BB002CFCE5F038CF3400CE89F0A42FFFE5F00E
:1001CB003EFEE433C98DF0A42EFEE5F039CD8AF066
:1001DB00A42FFFE5F03EFEE43DFD33D0E0FB5007DE
:1001EB000BBB000F0203CEEC2CFCEF33FFEE33FE08
:0601FB00ED33FD0203A636
:100201000203CEEC5D046005E8590470030203C4E7
:1002110012038F580460F6EC4860F2EC7004FDFEA6
:10022100FF22C860DB2481C85009C39860025006D0
:100231000203CB9850CAF582E9294B4A7005AB827B
:100241000203BA75F0007C1A7880C3EF9BEE9AED39
:1002510099400DC3EF9BFFEE9AFEED99FDE842F048
:10026100DC23ACF0D0E0FFD0E0FED0E0FDAB82209B
:10027100E7101BEB60BAEC2CFCEF33FFEE33FEED25
:1002810033FD0203A6E803F830E705C0F075F0007E
:10029100EF2FFFEE33FEED33FD40B830E7C280AA09
:1002A10074F8CC6480CCC86480C8F58204604FC304
:1002B100EB9FF5F0EA9E42F0E99D42F0E89C45F0A3
:1002C100603C501DE5825FFFE582D313CB5BCBF42D
:1002D1002B5582FB50280ABA002409B90020088056
:1002E1001DE5825BFBE582D313CF5FCFF4C3132FF0
:1002F1005582FF50090EBE00050DBD00010CC3EB78
:100301009FF5F0EA9E42F0E99D42F0E89C45F060DD
:0903110007CC4820E701B3EC22FF
:10031A0075F020800E75F010800575F0087D007E5E
:10032A00007F003392D530D5031207B5EC33401065
:10033A00EF33FFEE33FEED33FDEC33FCD5F0ED2267
:0E034A00E5F0247EA2D513CC92E7CDCEFF22A3
:10035800EDD2E7CD33EC3392D524814006E4FFFE9D
:10036800FDFC22FCE4CFCECDCC24E0501174FF80FC
:10037800EDC3CC13CCCD13CDCE13CECF13CF047099
:07038800F030D5DE0207B5DD
:1007F900E54C2438F8E6054C22783530070278387C
:10080900E475F0011207C30206712000EB7F2ED2B6
:10081900008018EF540F2490D43440D4FF30040BD7
:10082900EF24BFB41A0050032461FFE54D6002159F
:100839004D0550E5507002054F30070D7835E475C8
:10084900F0011207C3EF0206B70217F17403D207CA
:100859008003E4C207F54C8B358A368937E4F54DB8
:10086900F54FF550E54D60077F2012083480F57586
:100879004EFFC201C200C202C203C205C206C208BB
:10088900120802FF700D3007057F00120845AF50AE
:10089900AE4F22B4255FC2D5C204120802FF24D08C
:1008A900B40A00501A75F00A784D30D50508B6FF1C
:1008B9000106C6A426F620D5047002D20380D924E5
:1008C900CFB41A00EF5004C2E5D204020B32D201B0
:1008D90080C6D20080C0D20280BCD2D580BAD205EF
:1008E90080B47F201208342002077401B54D0040FE
:1008F900F11207F9FF12083402086DD208D20680F6
:10090900951207F9FB1207F9FA1207F9F94A4B7020
:100919000679297A0C7BFF20022EE54D602A7E009C
:100929008E8275830012068A60060EEE654E70F09F
:10093900C2D5EBC0E0EAC0E0E9C0E0EE120B92D00C
:10094900E0F9D0E0FAD0E0FB120671FF60AAEBC033
:10095900E0EAC0E0E9C0E0120834D0E02401F9D0AF
:10096900E03400FAD0E0FBE54E0460DCD54ED980D6
:1009790087D20280A2120B7560F7E54E700104124E
:1009890003D9A94E600DE54E600914F54E120C1CF1
:10099900EF60F3EA30E702F404C3995077EAF425EB
:1009A9004E0430E701E404F54E800D120B7560C169
:1009B900EA054E254E1203D9EA784BF630E701E4F1
:1009C900254E04D54E0420050114120B92E4C0E013
:1009D900120C1C784BE6601320E70714F612081C6A
:1009E900802204F6D0E014C0E07F0012081CE54E16
:1009F9006007120813154E800B300503120813D037
:100A0900E002086DD0E00480C5120B7560A0E54EC8
:100A1900041203D9784BEAF6E54E20050260010479
:050A29002404120B92F1
:100A2E0074FF04C0E0120C1C12081CE54E200502D7
:100A3E006003120813D0E0B54EE87F451208267801
:100A4E004BE67F2B30E7047F2DF404C0E012083410
:100A5E00D0E075F00A84C0F012081DD0E012081D17
:100A6E0002086D791080027908C206C2088008D289
:100A7E00D5790A8004790AC2D5E54E047002F54E86
:100A8E00E4FAFDFEFF1207F9FC7B082001131207A2
:100A9E00F9FD7B1030000A1207F9FE1207F9FF7BF1
:100AAE0020EC3382D592D55013C3E43000069FFF5D
:100ABE00E49EFEE42001039DFDE49CFCE4CBF8C221
:100ACE0001EC700CCFCECDCCE824F8F870F3801783
:100ADE00C3EF33FFEE33FEED33FDEC33FCEB33FBB4
:100AEE00994002FB0FD8E9EB300105F8D0E0C4487D
:100AFE00B201C0E00AEC4D4E4F78207B0070C2EA86
:100B0E00B54E0040BCC0E0120B94D0F0D0E02001F6
:100B1E0004C4C0E0C4B201C0F012081DD0F0D5F07C
:100B2E00EB02086D1207D3090A530A715808DB4C01
:100B3E0008D7420A754F0A7D440A7D4908F0430AD8
:100B4E00835509B4460A1245097E470C495008DF01
:100B5E002D08E32E09062B08E7230904200C322A60
:100B6E00089F48000008FEE54EB4FF03754E0612BE
:100B7E0007F9FC1207F9FD1207F9FE1207F9FF78C3
:100B8E0044020408790AA2D5200314300509B910CD
:100B9E00020404B9080104A2D52006025001042063
:100BAE0002689202B54D005034C0E07F2030031928
:100BBE007F30A20272067205500F120BEBC202C2F8
:100BCE0006C205C2087F30800F300503E9C0E0126F
:100BDE000834300503D0E0F9D0E0B54DCC30051720
:100BEE007F30B9100C1208347F583004077F78809C
:100BFE0003B908031208343002057F2D0208347F32
:100C0E00202008F87F2B2006F322920280CF7F004F
:100C1E00B4070050052444F8E6FF22286E756C6C6C
:100C2E002900D2011207F93001F8C201784D30D5F2
:100C3E000108F602089F2D504349581207F9240364
:100C4E00B405004001E4900C4493120825743A1246
:0A0C5E000825D203754D04020A7147
:1010CE000203C422EDA2E7D2E7F9EC3340F260F35B
:1010DE00B4FF08ED547F70E80203CEF82481C2E01D
:1010EE00C0E0F40428FAC313FCED92E7FD8C358DB5
:1010FE00368E378F38EEA2E7E9BA7F02C31334007B
:10110E009400FA75F091A4E5F013F494FE8AF0A41D
:10111E0033E5F033248CD313FDE492E7FE7F007C9D
:10112E003F758302ECC0E0F8EDC0E0F9EEC0E0FAE6
:10113E00EFC0E0FBAC35AD36AE37AF38120204D09F
:10114E00E0FBD0E0FAD0E0F9D0E0F812000AED644E
:10115E0080FD30E7011CD583CBED33CC33F8D0E0E6
:0A116E00A2E71328C313CC13FD22DF
:10038F00E9D2E7C933E833F892D5EDD2E7CD33ECB4
:07039F0033FC5002B2D5222D
:1003A600EC30E7100FBF000C0EBE00080DBD0004B8
:1003B6000BEB6014A2D5EB13FCED92E7FD2274FF64
:1003C600FCFDFEFF22E480F8A2D574FF13FC7D80BD
:0303D600E480EFD1
:1003D900F920E72824F950037907E4F42402FB18EB
:1003E900DBFDE624FB5014E9600DE4F618E604F69B
:0F03F900B40A08E4F6D9F57401F60A22C2D52237
:10040800ED33EC3392D5FA602AB4FF33EDC2E77BC3
:10041800FF60067A04792DE4227A04793620D5041F
:100428007A047931224E614E002B494E46002D49FF
:100438004E4600E47A08F608DAFC7B00740722E8E6
:10044800C0E0ECC0E0EDC0E0EEC0E0EFC0E0EA756F
:10045800F010A4CAABF075F04DA42BFBE435F0FC0A
:10046800EA2410FAEB34C5FBEC34D9FCEDC2E7FF03
:1004780075F056A4F42411C5F0F434C58FF0A42AFD
:10048800E5F03BE43CF620E71412053BD0E0FFD052
:10049800E0FED0E0FDD0E0FC1202048014F4041267
:1004A800053BD0E0FFD0E0FED0E0FDD0E0FC12003C
:1004B800FBD0E0F8E6FAEDD2E7CD33EC332482FB4B
:1004C800E4C3CF33CFCE33CECD33CD33DBF37B078D
:1004D80075F00A846004F6081B0AE5F0F6088FF048
:1004E800740AA4FFACF08EF0740AA42CFEACF05091
:1004F800010C8DF0740AA42CFDE435F0F608DBDE5F
:0305080074072253
:10050B003F8000004120000042C80000447A0000F8
:10051B00461C400047C35000497424004B1896807A
:10052B004CBEBC205A0E1BCA6753C21C749DC5AE71
:10053B00FB60065407601C2323120569EB543860DB
:10054B00091205551205641200FBECF8EDF9EEFAF1
:10055B00EFCB22EB12056480F1543803241C900579
:10056B000BFE93FC0EEE93FD0EEE930ECE93FF223D
:0300000002117872
:0C117800787FE4F6D8FD75816F0211BF8E
:10057B00E709F608DFFA8046E709F208DFFA803E62
:10058B0088828C83E709F0A3DFFA8032E309F6084F
:10059B00DFFA8078E309F208DFFA807088828C83B7
:1005AB00E309F0A3DFFA806489828A83E0A3F6086B
:1005BB00DFFA805889828A83E0A3F208DFFA804C45
:1005CB0080D280FA80C680D4806980F2803380101C
:1005DB0080A680EA809A80A880DA80E280CA803385
:1005EB0089828A83ECFAE493A3C8C582C8CCC583FD
:1005FB00CCF0A3C8C582C8CCC583CCDFE9DEE780CD
:10060B000D89828A83E493A3F608DFF9ECFAA9F04B
:10061B00EDFB2289828A83ECFAE0A3C8C582C8CCA1
:10062B00C583CCF0A3C8C582C8CCC583CCDFEADEBA
:10063B00E880DB89828A83E493A3F208DFF980CC1C
:10064B0088F0EF60010E4E60C388F0ED2402B40415
:10065B000050B9F582EB2402B4040050AF232345BC
:06066B0082239005CB7311
:10067100BB010689828A83E0225002E722BBFE0287
:09068100E32289828A83E49322BA
:10068A00BB010CE58229F582E5833AF583E0225025
:10069A0006E92582F8E622BBFE06E92582F8E2226F
:0D06AA00E58229F582E5833AF583E4932289
:1006B700BB010689828A83F0225002F722BBFE0122
:0206C700F3221C
:1006C900F8BB010DE58229F582E5833AF583E8F067
:1006D900225006E92582C8F622BBFE05E92582C813
:0206E900F222FB
:1006EB00EF8DF0A4A8F0CF8CF0A428CE8DF0A42E23
:0206FB00FE22DD
:1006FD00BC000BBE0029EF8DF084FFADF022E4CCE1
:10070D00F875F008EF2FFFEE33FEEC33FCEE9DECA9
:10071D00984005FCEE9DFE0FD5F0E9E4CEFD22EDEF
:10072D00F8F5F0EE8420D21CFEADF075F008EF2F39
:10073D00FFED33FD4007985006D5F0F222C398FD2A
:05074D000FD5F0EA22C7
:10075200C2D5EC30E709B2D5E4C39DFDE49CFCEEC2
:1007620030E715B2D5E4C39FFFE49EFE1206FDC337
:10077200E49DFDE49CFC80031206FD30D507C3E432
:060782009FFFE49EFE2231
:10078800F8BB0111E58229F582E5833AF583E8F0A3
:10079800E5F0A3F0225009E92582C8F608A6F02260
:0D07A800BBFE09E92582C8F2E5F008F22247
:0E07B500C3E49FFFE49EFEE49DFDE49CFC2255
:1007C300FAE6FB0808E6F925F0F618E6CA3AF62237
:1007D300D083D082F8E4937012740193700DA3A3B5
:1007E30093F8740193F5828883E4737402936860C9
:0607F300EFA3A3A380DFC9
:10118400020C68E493A3F8E493A34003F68001F20D
:1011940008DFF48029E493A3F85407240CC8C3336C
:1011A400C4540F4420C8834004F456800146F6DF3B
:1011B400E4800B01020408102040809017DCE47ED8
:1011C400019360BCA3FF543F30E509541FFEE49330
:1011D400A360010ECF54C025E060A840B8E493A3F7
:1011E400FAE493A3F8E493A3C8C582C8CAC583CA22
:1011F400F0A3C8C582C8CAC583CADFE9DEE780BEDA
:0117E8000000
:00000001FF
