:101054002020202020205520202020202020202057
:1010640000204C202020204420202020522020201A
:101074002000202020416C61726D20536574202073
:101084002020002020616C61726D3D202020636D62
:101094002020200074656D703A2530342E31660AA4
:1010A40000766F6963653A2530342E33660A000092
:1010B4001E00320064009600C800FA012C032000D0
:0F10C4001B002D005A008800B500E2011002D673
:0C162F00045E00000000045800000000F1
:041227008E278F2857
:10122B00C3E527648094805019E5281528700215B2
:10123B00276328FF6327FFC3E49528FDE49527FC6C
:10124B008005AC27AD28EC12031FE4FBFA798078FC
:10125B003D1200FB8F2C8E2B8D2A8C29AF2CAE2BA5
:04126B00AD2AAC29D3
:01126F00225C
:1012F8001212B81212278F5B8E5A8D598C587B00A8
:101308007A8079887843120204E4FBFA7980783F7E
:1013180012000A120F227B007A8079A57843120006
:0A132800FB8F618E608D5F8C5E22EA
:08163C00E4F5E7F5E3F5E42213
:10153E00AD07AC06E4F5E275E78375E5018CE3EDE6
:0F154E00F5E475E64675E6B90012163CAFE222E9
:10159A00AB07AA0675E78375E5028AE3EBF5E48DE6
:0B15AA00E275E64675E6B90002163C4B
:1015B500AD07AC0675E78375E5038CE3EDF5E475DA
:0915C500E64675E6B90002163C89
:0414D6007F0A7E000B
:1014DA00E4FDFCC3ED9FEC9E5015E4FBFA0BBB0048
:0F14EA00010AEB64704A70F50DBD00010C80E43F
:0114F90022D0
:1015CE00C291C292C2938F807F027E001214DAD231
:0715DE00931214DAC29322FC
:07157C001205E5EF2430FF2A
:10158300D291C292C2938F807F027E001214DAD26C
:07159300931214DAC2932247
:04151E007D087F01C4
:101522008F27A905EF7007E92480FF1215CEE52762
:0C15320064017007E924C0FF1215CE22EE
:10148C008B278A288929AB27AA28A92912057B60D2
:10149C00130529E5297002052814F912057BFF12A2
:0514AC00158380E2221F
:10127000AC06AD07E412031F8F268E258D248C2328
:03128000120358FE
:101283008E278F287C007D6412157CAE27AF287CC7
:10129300007D641205E57E007F0ACFCDCFCECCCE94
:1012A30012157CAE27AF287C007D0A1205E5ED24DC
:0512B30030FF0215836D
:1015E5007F381215CE7F0C1215CE7F061215CE7FD1
:0415F500010215CE0C
:10155D00E4FDFF1215227BFF7A10795412148CE4EE
:0F156D00FD7F011215227BFF7A10796502148C25
:1010D300E4F58CF58AD2A57F01FE1214DAC2A5309D
:1010E300A6FDD28C20A6FDC28C1212F8C004C00546
:1010F300C006C007AF8CEFFEAD8A7C00E42DFDEC8B
:101103003EFCE412031FD003D002D001D000120032
:10111300FB7B007A40791C7846120204E4FBFAF95F
:05112300784002020407
:10112800E4F58CF58AD2B57F01FE1214DAC2B53027
:10113800B6FDD28C20B6FDC28C1212F8C004C005D0
:10114800C006C007AF8CEFFEAD8A7C00E42DFDEC35
:101158003EFCE412031FD003D002D001D0001200DD
:10116800FB7B007A40791C7846120204E4FBFAF90A
:051178007840020204B2
:10117D00E4F58CF58AD2B27F01FE1214DAC2B230D8
:10118D00B3FDD28C20B3FDC28C1212F8C004C00581
:10119D00C006C007AF8CEFFEAD8A7C00E42DFDECE0
:1011AD003EFCE412031FD003D002D001D000120088
:1011BD00FB7B007A40791C7846120204E4FBFAF9B5
:0511CD0078400202045D
:1011D200E4F58CF58AD2947F01FE1214DAC29430BF
:1011E20095FDD28C2095FDC28C1212F8C004C00568
:1011F200C006C007AF8CEFFEAD8A7C00E42DFDEC8B
:101202003EFCE412031FD003D002D001D000120032
:10121200FB7B007A40791C7846120204E4FBFAF95F
:05122200784002020407
:100E5B0030A203020F1DE4FDFF1215227BFF7A1057
:100E6B00797612148CE4FD7F011215227BFF7A1028
:100E7B00798712148C12151EAF5DAE5C12128312A1
:100E8B0014D630A2FD1214D620A124D3E55D940212
:100E9B00E55C94004008E55D155D7002155C12156C
:100EAB001EAF5DAE5C1212837F2C7E011214DA2012
:100EBB00A024C3E55D9490E55C94015008055DE5C5
:100ECB005D7002055C12151EAF5DAE5C1212837F66
:100EDB002C7E011214DA20A2AF12155D1214D6303B
:100EEB00A2FD1214D67F007E201215B5AE5CAF5D4D
:100EFB007C007D641205E5AD077F007E2012159AFC
:100F0B00AE5CAF5D7C007D641205E57F017E201237
:030F1B00159A2202
:10136A008F2A8E298D288C27AC5CAD5DE412031F71
:10137A00AB2AAA29A928A8271202A15004C2A4802C
:10138A0002D2A430A40930B406309603209003C2D6
:05139A00A322D2A322F2
:10139F008F2A8E298D288C27AC5CAD5DE412031F3C
:1013AF00AB2AAA29A928A8271202A15004C2B480E7
:1013BF0002D2B430A40930B406309603209003C291
:0513CF00A322D2A322BD
:1013D4008F2A8E298D288C27AC5CAD5DE412031F07
:1013E400AB2AAA29A928A8271202A15004C29680D0
:1013F40002D29630A40930B406309603209003C27A
:05140400A322D2A32287
:101409008F2A8E298D288C27AC5CAD5DE412031FD1
:10141900AB2AAA29A928A8271202A15004C29080A0
:1014290002D29030A40930B406309603209003C24A
:05143900A322D2A32252
:101332007F017E2012153EEF75F00AA4FBAAF07F12
:101342000012153EEF75F064A4AEF02BF55DEE3A97
:10135200F55C455D600BD3E55D9490E55C940140DE
:0813620006755C00755D19229F
:0D0B2300E4FBFA792078411200FB12035820
:040B30008E278F2855
:100B34007529FFD39010C37401939528E4939527E6
:100B440050149010C57401939528E493952740069A
:100B5400E4F529020C27D39010C57401939528E479
:100B640093952750149010C77401939528E4939596
:100B7400274006752901020C27D39010C7740193EE
:100B84009528E493952750149010C97401939528DF
:100B9400E49395274006752902020C27D39010C9C7
:100BA4007401939528E493952750139010CB740106
:100BB400939528E493952740057529038065D39080
:100BC40010CB7401939528E493952750139010CD7E
:100BD4007401939528E4939527400575290480436F
:100BE400D39010CD7401939528E4939527501390D6
:100BF40010CF7401939528E4939527400575290532
:100C04008021D39010CF7401939528E493952750B5
:100C140012C39010D17401939528E493952740034F
:100C2400752906E529FB3395E0FAEB25E0FFEA3365
:100C3400FE74C32FF58274103EF583E493FC7401B3
:100C440093FD74C52FF58274103EF583C37401932C
:100C54009DFDE4939CFCEB25E0FFEA33FE74B32F87
:100C6400F58274103EF583E493FA740193FB74B532
:100C74002FF58274103EF583C37401939BFFE493B4
:100C84009AFE12063AAA06AB07AF29EF3395E0FEA7
:100C9400EF25E0FFEE33FE74C32FF58274103EF5AA
:100CA40083E493FE740193FFC3E5289FFDE5279E2B
:100CB400FCAF03AE021205D3AC06AD07AF29EF3388
:100CC40095E0FEEF25E0FFEE33FE74B32FF582745A
:0D0CD400103EF5837401932DFFE4933CFE68
:010CE10022F0
:100CE2001215E512155D12133243890112161EC246
:100CF200A5C2B5C2B2C294752AFF752B10752C9885
:100D0200855B30855A2F85592E85582D7B007A00B8
:100D120079441207107B007A0079441215F9752A7A
:100D2200FF752B10752CA57B007A40791C7846AF95
:100D320061AE60AD5FAC5E1202048F308E2F8D2EDD
:100D42008C2D7B007A0079441207107B007A00799F
:100D5200441215F97D06E4FF1215221210D3120B6C
:100D620023121270AF26AE25AD24AC2312136AE40F
:100D7200F522C3E522940F74809480500A120E5B10
:100D82001214D6052280EB7D0D7F0112152212115D
:100D920028120B23121270AF26AE25AD24AC2312FB
:100DA200139FE4F522C3E522940F74809480500AC5
:100DB200120E5B1214D6052280EB12117D120B2348
:100DC200AC06AD07E412031F8F268E258D248C23DB
:100DD2007D077F01121522AF26AE25AD24AC23126A
:100DE2000358121283AF26AE25AD24AC231213D4BE
:100DF200E4F522C3E522940F74809480500A120E07
:100E02005B1214D6052280EB1211D2120B23AC0610
:100E1200AD07E412031F8F268E258D248C237D01BE
:100E22007F01121522AF26AE25AD24AC2312035842
:100E3200121283AF26AE25AD24AC23121409E4F5B9
:100E420022C3E522940F748094804003020CF912AD
:090E52000E5B1214D6052280E8A3
:07160C001214B17F507E00B3
:0B161300EF1FAC0670011E4C70F622A9
:1014FA00E4FDD2A77F08FE121613C2A712160FD256
:10150A00A77F0E7E00121613A2A7E433FD7F147E76
:04151A0000021613A2
:10143E00E4FB7D08EDD39400748094804017C2A71E
:10144E00EB13FBD2A730A7034303807F047E001269
:07145E0016131D80DFAF0330
:011465002264
:0214B100AD0785
:1014B3007B08EBD39400748094804016C2A7ED138D
:1014C30092A77F057E00121613D2A7EDC313FD1B4F
:0214D30080E0B7
:0114D50022F4
:1012B800E4F527F5281214FA12160F1214FA7FCC47
:1012C8001214B17F4412160C1214FA7FCC1214B106
:1012D8007FBE12160C12143E7527008F2812143E7A
:0F12E800EFFEE42528F528EE3527F527FEAF2881
:0112F70022D4
:081644008F4312164CAF432244
:10161E00439850438920758BFD758DFDD28ED2AFC8
:01162E002299
:08164C008F993099FDC299222B
:1015F90012057BFF600C12164C740129F9E43AFAC2
:0316090080EE224E
:021466008D08EF
:10146800E4FDFCC3ED95087480F86C9850151205DE
:101478007BFF12164C740129F9E43AFA0DBD0001FC
:031488000C80E0F5
:01148B00223E
:100003000203C4E86480F8E933E83360110460F064
:10001300ED33EC337009E8FCE9FDEAFEEBFF220463
:1000230060DED3EB9FEA9EE99DE8C2E78CF0C2F75E
:1000330095F0400CE8CCF8E9CDF9EACEFAEBCFFB2A
:1000430012038F85D0F05804700320D5B3E80470F1
:10005300075002B2D50203CE92D5EC0460F7E4CC8C
:10006300C0E0C398F8603B94186008400DD0E0FBF3
:100073000203A6E4FBFAC9FC8028E830E406E4C9DD
:10008300FBE4CAFCE830E305E4C9CACBFCE8540747
:100093006010F8C3E913F9EA13FAEB13FBEC13FC52
:1000A300D8F130F52FC3E49CFCEF9BFFEE9AFEEDF5
:1000B30099FDD0E0FBEF4E4D4C701222DB0302039F
:1000C300CBEC2CFCEF33FFEE33FEED33FDED30E7ED
:1000D300EB0203A6EF2BFFEE3AFEED39FDD0E0FB7A
:1000E30050130BBB00030203CEED13FDEE13FEEF23
:0800F30013FFEC13FC0203A64D
:1000FB00EC4D6011E8497017ED33EC3304600DE4FF
:10010B00FCFFFEFD22E933E8330470F80203C4124E
:10011B00038F58046009E4CC24815006285009024F
:10012B0003CE2840030203CBC0E0EB4A7044B980F6
:10013B0006D0E0FB0203BAEF4E701CBD8008EBFF4C
:10014B00EAFEE9FD80EBE98DF0A4FEE5F00201E4A7
:10015B00E9CDF9EAFEEBFFEF89F0A4FCE5F0CE89DF
:10016B00F0A42EFFE435F0CD89F0A42DFEE435F09C
:10017B008067EF4E7005BD80D780C3EF8BF0A4ACCA
:10018B00F0EE8BF0A42CFCE435F0F8EF8AF0A42C05
:10019B00E5F038FCE433CB8DF0A42CFCE5F03BF818
:1001AB00EE8AF0A42CFCE5F038F8E433CF89F0A408
:1001BB002CFCE5F038CF3400CE89F0A42FFFE5F00E
:1001CB003EFEE433C98DF0A42EFEE5F039CD8AF066
:1001DB00A42FFFE5F03EFEE43DFD33D0E0FB5007DE
:1001EB000BBB000F0203CEEC2CFCEF33FFEE33FE08
:0601FB00ED33FD0203A636
:100201000203CEEC5D046005E8590470030203C4E7
:1002110012038F580460F6EC4860F2EC7004FDFEA6
:10022100FF22C860DB2481C85009C39860025006D0
:100231000203CB9850CAF582E9294B4A7005AB827B
:100241000203BA75F0007C1A7880C3EF9BEE9AED39
:1002510099400DC3EF9BFFEE9AFEED99FDE842F048
:10026100DC23ACF0D0E0FFD0E0FED0E0FDAB82209B
:10027100E7101BEB60BAEC2CFCEF33FFEE33FEED25
:1002810033FD0203A6E803F830E705C0F075F0007E
:10029100EF2FFFEE33FEED33FD40B830E7C280AA09
:1002A10074F8CC6480CCC86480C8F58204604FC304
:1002B100EB9FF5F0EA9E42F0E99D42F0E89C45F0A3
:1002C100603C501DE5825FFFE582D313CB5BCBF42D
:1002D1002B5582FB50280ABA002409B90020088056
:1002E1001DE5825BFBE582D313CF5FCFF4C3132FF0
:1002F1005582FF50090EBE00050DBD00010CC3EB78
:100301009FF5F0EA9E42F0E99D42F0E89C45F060DD
:0903110007CC4820E701B3EC22FF
:10031A0075F020800E75F010800575F0087D007E5E
:10032A00007F003392D530D503120670EC334010AB
:10033A00EF33FFEE33FEED33FDEC33FCD5F0ED2267
:0E034A00E5F0247EA2D513CC92E7CDCEFF22A3
:10035800EDD2E7CD33EC3392D524814006E4FFFE9D
:10036800FDFC22FCE4CFCECDCC24E0501174FF80FC
:10037800EDC3CC13CCCD13CDCE13CECF13CF047099
:07038800F030D5DE02067023
:1006B400E53E242AF8E6053E227827300702782A08
:1006C400E475F00112067E02057B2000EB7F2ED23A
:1006D400008018EF540F2490D43440D4FF30040B1E
:1006E400EF24BFB41A0050032461FFE53F600215F4
:1006F4003F0542E5427002054130070D7827E47555
:10070400F00112067EEF0205C10216447403D207FB
:100714008003E4C207F53E8B278A288929E4F53F44
:10072400F541F542E53F60077F201206EF80F5753D
:1007340040FFC201C200C202C203C205C206C2080F
:100744001206BDFF700D3007057F00120700AF428F
:10075400AE4122B4255FC2D5C2041206BDFF24D027
:10076400B40A00501A75F00A783F30D50508B6FF70
:100774000106C6A426F620D5047002D20380D9242B
:10078400CFB41A00EF5004C2E5D2040209EDD2013D
:1007940080C6D20080C0D20280BCD2D580BAD20535
:1007A40080B47F201206EF2002077401B53F004099
:1007B400F11206B4FF1206EF020728D208D206800F
:1007C400951206B4FB1206B4FA1206B4F94A4B7039
:1007D4000679E47A0A7BFF20022EE53F602A7E0038
:1007E4008E8275830012059460060EEE654070F0EB
:1007F400C2D5EBC0E0EAC0E0E9C0E0EE120A4DD099
:10080400E0F9D0E0FAD0E0FB12057BFF60AAEBC070
:10081400E0EAC0E0E9C0E01206EFD0E02401F9D03C
:10082400E03400FAD0E0FBE5400460DCD540D98038
:1008340087D20280A2120A3060F7E54070010412E8
:1008440003D9A940600DE540600914F540120AD7A8
:10085400EF60F3EA30E702F404C3995077EAF42531
:10086400400430E701E404F540800D120A3060C111
:10087400EA054025401203D9EA783DF630E701E461
:10088400254004D5400420050114120A4DE4C0E0BB
:10089400120AD7783DE6601320E70714F61206D74C
:1008A400802204F6D0E014C0E07F001206D7E540B1
:1008B40060071206CE1540800B3005031206CED019
:1008C400E0020728D0E00480C5120A3060A0E540A9
:1008D400041203D9783DEAF6E540200502600104DC
:0508E4002404120A4D7E
:1008E90074FF04C0E0120AD71206D7E540200502BA
:1008F90060031206CED0E0B540E87F451206E178E4
:100909003DE67F2B30E7047F2DF404C0E01206EFAB
:10091900D0E075F00A84C0F01206D8D0E01206D8EB
:10092900020728791080027908C206C2088008D215
:10093900D5790A8004790AC2D5E540047002F540E8
:10094900E4FAFDFEFF1206B4FC7B0820011312062F
:10095900B4FD7B1030000A1206B4FE1206B4FF7B08
:1009690020EC3382D592D55013C3E43000069FFFA3
:10097900E49EFEE42001039DFDE49CFCE4CBF8C267
:1009890001EC700CCFCECDCCE824F8F870F38017C9
:10099900C3EF33FFEE33FEED33FDEC33FCEB33FBFA
:1009A900994002FB0FD8E9EB300105F8D0E0C448C3
:1009B900B201C0E00AEC4D4E4F78207B0070C2EACC
:1009C900B5400040BCC0E0120A4FD0F0D0E0200191
:1009D90004C4C0E0C4B201C0F01206D8D0F0D5F00A
:1009E900EB02072812068E07C553092C5807964CA7
:1009F90007924209304F09384409384907AB43097E
:100A09003E55086F4608CD450839470B0450079AEB
:100A19002D079E2E07C12B07A22307BF200AED2A07
:100A2900075A48000007B9E540B4FF0375400612AC
:100A390006B4FC1206B4FD1206B4FE1206B4FF7821
:100A490036020408790AA2D5200314300509B91021
:100A5900020404B9080104A2D520060250010420A9
:100A690002689202B53F005034C0E07F203003197C
:100A79007F30A20272067205500F120AA6C202C284
:100A890006C205C2087F30800F300503E9C0E012B5
:100A990006EF300503D0E0F9D0E0B53FCC300517BB
:100AA9007F30B9100C1206EF7F583004077F788029
:100AB90003B908031206EF3002057F2D0206EF7F06
:100AC900202008F87F2B2006F322920280CF7F0096
:100AD900B4070050052436F8E6FF22286E756C6CC1
:100AE9002900D2011206B43001F8C201783F30D58D
:100AF9000108F602075A2D504349581206B4240337
:100B0900B405004001E4900AFF931206E0743A121A
:0A0B190006E0D203753F0402092C28
:100F1E000203C422EDA2E7D2E7F9EC3340F260F30C
:100F2E00B4FF08ED547F70E80203CEF82481C2E0CE
:100F3E00C0E0F40428FAC313FCED92E7FD8C278D74
:100F4E00288E298F2AEEA2E7E9BA7F02C313340056
:100F5E009400FA75F091A4E5F013F494FE8AF0A4CF
:100F6E0033E5F033248CD313FDE492E7FE7F007C4F
:100F7E003F758302ECC0E0F8EDC0E0F9EEC0E0FA98
:100F8E00EFC0E0FBAC27AD28AE29AF2A120204D089
:100F9E00E0FBD0E0FAD0E0F9D0E0F812000AED6400
:100FAE0080FD30E7011CD583CBED33CC33F8D0E098
:0A0FBE00A2E71328C313CC13FD2291
:10038F00E9D2E7C933E833F892D5EDD2E7CD33ECB4
:07039F0033FC5002B2D5222D
:1003A600EC30E7100FBF000C0EBE00080DBD0004B8
:1003B6000BEB6014A2D5EB13FCED92E7FD2274FF64
:1003C600FCFDFEFF22E480F8A2D574FF13FC7D80BD
:0303D600E480EFD1
:1003D900F920E72824F950037907E4F42402FB18EB
:1003E900DBFDE624FB5014E9600DE4F618E604F69B
:0F03F900B40A08E4F6D9F57401F60A22C2D52237
:10040800ED33EC3392D5FA602AB4FF33EDC2E77BC3
:10041800FF60067A04792DE4227A04793620D5041F
:100428007A047931224E614E002B494E46002D49FF
:100438004E4600E47A08F608DAFC7B00740722E8E6
:10044800C0E0ECC0E0EDC0E0EEC0E0EFC0E0EA756F
:10045800F010A4CAABF075F04DA42BFBE435F0FC0A
:10046800EA2410FAEB34C5FBEC34D9FCEDC2E7FF03
:1004780075F056A4F42411C5F0F434C58FF0A42AFD
:10048800E5F03BE43CF620E71412053BD0E0FFD052
:10049800E0FED0E0FDD0E0FC1202048014F4041267
:1004A800053BD0E0FFD0E0FED0E0FDD0E0FC12003C
:1004B800FBD0E0F8E6FAEDD2E7CD33EC332482FB4B
:1004C800E4C3CF33CFCE33CECD33CD33DBF37B078D
:1004D80075F00A846004F6081B0AE5F0F6088FF048
:1004E800740AA4FFACF08EF0740AA42CFEACF05091
:1004F800010C8DF0740AA42CFDE435F0F608DBDE5F
:0305080074072253
:10050B003F8000004120000042C80000447A0000F8
:10051B00461C400047C35000497424004B1896807A
:10052B004CBEBC205A0E1BCA6753C21C749DC5AE71
:10053B00FB60065407601C2323120569EB543860DB
:10054B00091205551205641200FBECF8EDF9EEFAF1
:10055B00EFCB22EB12056480F1543803241C900579
:10056B000BFE93FC0EEE93FD0EEE930ECE93FF223D
:03000000020FC824
:0C0FC800787FE4F6D8FD75816102100FFF
:10057B00BB010689828A83E0225002E722BBFE027E
:09058B00E32289828A83E49322B1
:10059400BB010CE58229F582E5833AF583E022501C
:1005A40006E92582F8E622BBFE06E92582F8E22266
:0D05B400E58229F582E5833AF583E4932280
:1005C100BB010689828A83F0225002F722BBFE0119
:0205D100F32213
:1005D300EF8DF0A4A8F0CF8CF0A428CE8DF0A42E3C
:0205E300FE22F6
:1005E500BC000BBE0029EF8DF084FFADF022E4CCFA
:1005F500F875F008EF2FFFEE33FEEC33FCEE9DECC3
:10060500984005FCEE9DFE0FD5F0E9E4CEFD22ED08
:10061500F8F5F0EE8420D21CFEADF075F008EF2F52
:10062500FFED33FD4007985006D5F0F222C398FD43
:050635000FD5F0EA22E0
:10063A00C2D5EC30E709B2D5E4C39DFDE49CFCEEDB
:10064A0030E715B2D5E4C39FFFE49EFE1205E5C369
:10065A00E49DFDE49CFC80031205E530D507C3E464
:06066A009FFFE49EFE224A
:0E067000C3E49FFFE49EFEE49DFDE49CFC229B
:10067E00FAE6FB0808E6F925F0F618E6CA3AF6227D
:10068E00D083D082F8E4937012740193700DA3A3FB
:10069E0093F8740193F5828883E47374029368600F
:0606AE00EFA3A3A380DF0F
:100FD400020CE2E493A3F8E493A34003F68001F245
:100FE40008DFF48029E493A3F85407240CC8C3331E
:100FF400C4540F4420C8834004F456800146F6DFED
:10100400E4800B010204081020408090162FE47E37
:10101400019360BCA3FF543F30E509541FFEE493E1
:10102400A360010ECF54C025E060A840B8E493A3A8
:10103400FAE493A3F8E493A3C8C582C8CAC583CAD3
:10104400F0A3C8C582C8CAC583CADFE9DEE780BE8B
:01163B0000AE
:00000001FF
