:1010600076313A25352E336676323A25352E33667B
:101070000A0076333A25352E336676343A25352EF6
:1010800033660A0020202057656C636F6D652075FC
:101090007365202000456C656374726F6E69632010
:1010A0007363616C65002020636C6173733A206226
:1010B0003136202020002020206E616D653A2058B6
:0710C00058582020202000F9
:100FF2005100180000000000000000000000000086
:0410020000000000EA
:0D124400007F027E677D93DDFEDEFCDFFA99
:01125100227A
:100D8C0075320075330075340012112012120C12DA
:100D9C001233C2A91212968B328A3389347538FFFA
:100DAC00753910753A601205B58F3E8E3D8D3C8CB1
:100DBC003B9000041205D58F428E418D408C3F7BB9
:100DCC00017A0079181206E47B017A007918121264
:100DDC00207B017A0079187539107F801211CE753D
:100DEC0038FF753910753A72AB32AA33A9349000BA
:100DFC00081205D58F3E8E3D8D3C8C3B90000C121D
:100E0C0005D58F428E418D408C3F7B017A0079183D
:100E1C001206E47B017A0079181212207B017A0009
:100E2C0079187539107FC01211CED2A91212440252
:020E3C000D9E09
:1011200012119A7BFF7A1079847F801211F87BFF6D
:101130007A1079957FC01211F81212441212447B72
:10114000FF7A1079A67F801211F87BFF7A1079B6AA
:051150007FC00211F850
:1011E400E4FEEEC39F500C007D027CC7DCFEDDFCF8
:0311F4000E80EF7B
:0111F70022D5
:10117B00C2A18E80121194D2A2121194C2A2EEC4FB
:09118B0054F0F580121194D2A277
:05119400007F64DFFE96
:011199002233
:0C125200AE07C2A2C2A012117BC2A222F1
:0A11B800AF051212520D12054FFF91
:0C11C200AE07C2A2D2A012117BC2A22272
:10119A007F321212527F281212527F0C1212527F81
:0E11AA00061212527F011212527F8002125260
:1011F800AD0712054F600C1211B8740129F9E43AD1
:04120800FA80EF2257
:1011CE00AD07AF391539EF600C1211B8740129F95A
:0611DE00E43AFA80ED2264
:04100600020B0000D9
:0B125E00E4FEEEC39F5004000E80F77A
:011269002262
:0210C700AD0773
:1010C900E4F522F523C2B2C2B5EDC454F0FDE4FB48
:1010D900FA30B403432301ED3392B3D2B27F031242
:1010E900125EC2B212125EED25E0FDE52325E0F5A0
:1010F90023E52233F5220BBB00010AEB640C4A708D
:10110900D0D2B5E522C313F522E52313F5238522B1
:061119000BF50CAE22FFF5
:01111F0022AD
:05129D00AE0BAF0C22B6
:080003008F5112128EAF512241
:10123300439850438920758BFD758DFDD28ED2AFB7
:011243002288
:08128E008F993099FDC29922ED
:1012200012054FFF600C12128E740129F9E43AFA8C
:0312300080EE222B
:021155008D0DFE
:10115700E4FDFCC3ED950D7480F86C9850151205ED
:101167004FFF12128E740129F9E43AFA0DBD0001FE
:031177000C80E009
:01117A002252
:07100A00010A0002080000CA
:10120C005389F0438901E4F58A758C4CC28DD28CDC
:04121C0043A882223F
:03000B00020F6E73
:100F6E00C0E0C0F0C083C082C0D075D000C000C049
:0D0F7E0001C002C003C004C005C006C007CA
:100F8B00758A00758C4CAF0A050AEF6401703DF54C
:100F9B000AFF1210C7AC06AD07E412032A7B007AD6
:100FAB00C0794C784412020F8F268E258D248C230A
:100FBB00AF09120AF7EF60080509E5097002050889
:0C0FCB00E509640445087004F508F50908
:100FD700D007D006D005D004D003D002D001D0006E
:0B0FE700D0D0D082D083D0F0D0E03218
:101011000C5D3F800000408F5C2942340000580085
:10102100003F80000040A000003DCCCCCD3F8000BF
:1010310000000000003DCCCCCD08550000000000B0
:101041000000001069000000000000000000000026
:0E105100000000000001520101530001540193
:071296007B007A0079692258
:09126A00AF58AE57AD56AC552249
:09127300AF5CAE5BAD5AAC592230
:09127C008F588E578D568C5522B7
:091285008F5C8E5B8D5A8C59229E
:020AF7008F224C
:100AF900E4F527FFE5226553600985225375520104
:100B0900755401E55224FE6056147003020BC81493
:100B19007003020BCD147003020D862404600302D6
:100B29000D89E55314601214601714601C146021B8
:100B39002404701D53A0C7801E53A0CF43A0088072
:100B49001653A0D743A010800E53A0DF43A01880EE
:100B59000653A0E743A02053B03F0552020D89AFC9
:100B690026AE25AD24AC2385542C120E3EE5546FD8
:100B790060288F54E55424FE600C1460112402701F
:100B89001353B03F800E53B07F43B040800653B03B
:100B9900BF43B080755205020D89E55425E025E073
:100BA9002459F8120605AF26AE25AD24AC2312024E
:100BB9000F121285055253A0E743A020020D8905A3
:100BC90052020D89E55424FE7003020CBC14700313
:100BD900020D0924026003020D72121273C004C0CF
:100BE90005C006C007E55425E025E02459F812069A
:100BF90005AF26AE25AD24AC2312020FA804A90522
:100C0900AA06AB07D007D006D005D0041200117B85
:100C1900F27A19799F78401202AC6002504B121295
:100C290073C004C005C006C007E55425E025E024CB
:100C390059F8120605AF26AE25AD24AC2312020FD2
:100C4900A804A905AA06AB07D007D006D005D00489
:100C59001200117BB37A0A790378411201067B0DE0
:100C69007A15790F78C2020D04121273C004C005F7
:100C7900C006C007E55425E025E02459F812060509
:100C8900AF26AE25AD24AC2312020FA804A905AAEC
:100C990006AB07D007D006D005D0041200117B4956
:100CA9007ADA797D783F1201067B4D7AAF799E78A1
:100CB9003C8048121273C004C005C006C007E55441
:100CC90025E025E02459F8120605AF26AE25AD2406
:100CD900AC2312020FA804A905AA06AB07D007D0B6
:100CE90006D005D0041200117B797AAF7982783F5A
:100CF9001201067B5E7A387906783C120015806607
:100D0900121273C004C005C006C007E55425E025CA
:100D1900E02459F8120605AF26AE25AD24AC2312FE
:100D2900020FA804A905AA06AB07D007D006D0056B
:100D3900D0041200117BEB7AA87982783F12010660
:100D49007B597A487901783A12001512127C1212ED
:100D59006A7B6F7A127983783A1202AC400B7F0072
:100D69007E007D007C0012127C12126AE52225E0C9
:100D790025E02469F81206127527018003755202CD
:020D8900AF2792
:010D8B002245
:080E3E008F2B8E2A8D298C28D0
:100E4600E4F52DE52C25E025E02459F812060512D7
:100E5600020F8F318E308D2F8C2E900000E0FCA378
:100E6600E0FDA3E0FEA3E0FFAB31AA30A92FA82E38
:100E76001202AC60074005752D01805D90000CE004
:100E8600FCA3E0FDA3E0FEA3E0FFAB31AA30A92F4F
:100E9600A82E1202AC60025022900008E0FCA3E0EB
:100EA600FDA3E0FEA3E0FFAB31AA30A92FA82E12C6
:100EB60002AC60074005752D02801E900010E0FC14
:100EC600A3E0FDA3E0FEA3E0FFAB31AA30A92FA863
:0B0ED6002E1202AC4003752D03AF2D5F
:010EE10022EE
:03000000020EE20B
:0C0EE200787FE4F6D8FD758178020F29B6
:10000E00020398E86480F8E933E83360110460F085
:10001E00ED33EC337009E8FCE9FDEAFEEBFF220458
:10002E0060DED3EB9FEA9EE99DE8C2E78CF0C2F753
:10003E0095F0400CE8CCF8E9CDF9EACEFAEBCFFB1F
:10004E0012036385D0F05804700320D5B3E8047012
:10005E00075002B2D50203A292D5EC0460F7E4CCAD
:10006E00C0E0C398F8603B94186008400DD0E0FBE8
:10007E0002037AE4FBFAC9FC8028E830E406E4C9FE
:10008E00FBE4CAFCE830E305E4C9CACBFCE854073C
:10009E006010F8C3E913F9EA13FAEB13FBEC13FC47
:1000AE00D8F130F52FC3E49CFCEF9BFFEE9AFEEDEA
:1000BE0099FDD0E0FBEF4E4D4C701222DB03020394
:1000CE009FEC2CFCEF33FFEE33FEED33FDED30E70E
:1000DE00EB02037AEF2BFFEE3AFEED39FDD0E0FB9B
:1000EE0050130BBB00030203A2ED13FDEE13FEEF44
:0800FE0013FFEC13FC02037A6E
:10010600EC4D6011E8497017ED33EC3304600DE4F3
:10011600FCFFFEFD22E933E8330470F8020398126F
:10012600036358046009E4CC248150062850090270
:1001360003A228400302039FC0E0EB4A7044B98043
:1001460006D0E0FB02038EEF4E701CBD8008EBFF6D
:10015600EAFEE9FD80EBE98DF0A4FEE5F00201EF91
:10016600E9CDF9EAFEEBFFEF89F0A4FCE5F0CE89D4
:10017600F0A42EFFE435F0CD89F0A42DFEE435F091
:100186008067EF4E7005BD80D780C3EF8BF0A4ACBF
:10019600F0EE8BF0A42CFCE435F0F8EF8AF0A42CFA
:1001A600E5F038FCE433CB8DF0A42CFCE5F03BF80D
:1001B600EE8AF0A42CFCE5F038F8E433CF89F0A4FD
:1001C6002CFCE5F038CF3400CE89F0A42FFFE5F003
:1001D6003EFEE433C98DF0A42EFEE5F039CD8AF05B
:1001E600A42FFFE5F03EFEE43DFD33D0E0FB5007D3
:1001F6000BBB000F0203A2EC2CFCEF33FFEE33FE29
:06020600ED33FD02037A56
:10020C000203A2EC5D046005E85904700302039834
:10021C00120363580460F6EC4860F2EC7004FDFEC7
:10022C00FF22C860DB2481C85009C39860025006C5
:10023C0002039F9850CAF582E9294B4A7005AB829C
:10024C0002038E75F0007C1A7880C3EF9BEE9AED5A
:10025C0099400DC3EF9BFFEE9AFEED99FDE842F03D
:10026C00DC23ACF0D0E0FFD0E0FED0E0FDAB822090
:10027C00E7101BEB60BAEC2CFCEF33FFEE33FEED1A
:10028C0033FD02037AE803F830E705C0F075F0009F
:10029C00EF2FFFEE33FEED33FD40B830E7C280AAFE
:1002AC0074F8CC6480CCC86480C8F58204604FC3F9
:1002BC00EB9FF5F0EA9E42F0E99D42F0E89C45F098
:1002CC00603C501DE5825FFFE582D313CB5BCBF422
:1002DC002B5582FB50280ABA002409B9002008804B
:1002EC001DE5825BFBE582D313CF5FCFF4C3132FE5
:1002FC005582FF50090EBE00050DBD00010CC3EB6D
:10030C009FF5F0EA9E42F0E99D42F0E89C45F060D2
:09031C0007CC4820E701B3EC22F4
:1003250075F020800E75F010800575F0087D007E53
:10033500007F003392D530D5031205A7EC3340106A
:10034500EF33FFEE33FEED33FDEC33FCD5F0ED225C
:0E035500E5F0247EA2D513CC92E7CDCEFF2298
:10068800E54C2438F8E6054C2278353007027838EE
:10069800E475F00112061E02054F2000EB7F2ED2F2
:1006A800008018EF540F2490D43440D4FF30040B4A
:1006B800EF24BFB41A0050032461FFE54D60021512
:1006C8004D0550E5507002054F30070D7835E4753B
:1006D800F00112061EEF0205950200037403D2070B
:1006E8008003E4C207F54C8B358A368937E4F54D2B
:1006F800F54FF550E54D60077F201206C380F5756C
:100708004EFFC201C200C202C203C205C206C2082D
:10071800120691FF700D3007057F001206D4AF5006
:10072800AE4F22B4255FC2D5C204120691FF24D071
:10073800B40A00501A75F00A784D30D50508B6FF8E
:100748000106C6A426F620D5047002D20380D92457
:10075800CFB41A00EF5004C2E5D2040209C1D20195
:1007680080C6D20080C0D20280BCD2D580BAD20561
:1007780080B47F201206C32002077401B54D0040E3
:10078800F1120688FF1206C30206FCD208D20680C0
:1007980095120688FB120688FA120688F94A4B70E9
:1007A8000679B87A0A7BFF20022EE54D602A7E0082
:1007B8008E8275830012056860060EEE654E70F035
:1007C800C2D5EBC0E0EAC0E0E9C0E0EE120A21D0F1
:1007D800E0F9D0E0FAD0E0FB12054FFF60AAEBC0C9
:1007E800E0EAC0E0E9C0E01206C3D0E02401F9D095
:1007F800E03400FAD0E0FBE54E0460DCD54ED98049
:1008080087D20280A2120A0460F7E54E7001041232
:1008180003ADA94E600DE54E600914F54E120AAB02
:10082800EF60F3EA30E702F404C3995077EAF4255D
:100838004E0430E701E404F54E800D120A0460C14D
:10084800EA054E254E1203ADEA784BF630E701E48F
:10085800254E04D54E0420050114120A21E4C0E0F7
:10086800120AAB784BE6601320E70714F61206ABC2
:10087800802204F6D0E014C0E07F001206ABE54EFB
:1008880060071206A2154E800B3005031206A2D08F
:10089800E00206FCD0E00480C5120A0460A0E54E20
:1008A800041203AD784BEAF6E54E20050260010418
:0508B8002404120A21D6
:1008BD0074FF04C0E0120AAB1206ABE54E20050230
:1008CD0060031206A2D0E0B54EE87F451206B5785A
:1008DD004BE67F2B30E7047F2DF404C0E01206C3F6
:1008ED00D0E075F00A84C0F01206ACD0E01206AC70
:1008FD000206FC791080027908C206C2088008D26F
:10090D00D5790A8004790AC2D5E54E047002F54EF8
:10091D00E4FAFDFEFF120688FC7B08200113120687
:10092D0088FD7B1030000A120688FE120688FF7BB8
:10093D0020EC3382D592D55013C3E43000069FFFCF
:10094D00E49EFEE42001039DFDE49CFCE4CBF8C293
:10095D0001EC700CCFCECDCCE824F8F870F38017F5
:10096D00C3EF33FFEE33FEED33FDEC33FCEB33FB26
:10097D00994002FB0FD8E9EB300105F8D0E0C448EF
:10098D00B201C0E00AEC4D4E4F78207B0070C2EAF8
:10099D00B54E0040BCC0E0120A23D0F0D0E02001DB
:1009AD0004C4C0E0C4B201C0F01206ACD0F0D5F062
:1009BD00EB0206FC12062E079953090058076A4CE4
:1009CD0007664209044F090C44090C49077F430986
:1009DD00125508434608A145080D470AD850076E21
:1009ED002D07722E07952B0776230793200AC12A10
:1009FD00072E480000078DE54EB4FF03754E061215
:100A0D000688FC120688FD120688FE120688FF78FD
:100A1D00440203DC790AA2D5200314300509B9106C
:100A2D00020404B9080104A2D520060250010420D5
:100A3D0002689202B54D005034C0E07F203003199A
:100A4D007F30A20272067205500F120A7AC202C2DC
:100A5D0006C205C2087F30800F300503E9C0E012E1
:100A6D0006C3300503D0E0F9D0E0B54DCC30051705
:100A7D007F30B9100C1206C37F583004077F788081
:100A8D0003B908031206C33002057F2D0206C37F8A
:100A9D00202008F87F2B2006F322920280CF7F00C2
:100AAD00B4070050052444F8E6FF22286E756C6CDF
:100ABD002900D2011206883001F8C201784D30D5D7
:100ACD000108F602072E2D504349581206882403BB
:100ADD00B405004001E4900AD3931206B4743A129F
:0A0AED0006B4D203754D040209009F
:10036300E9D2E7C933E833F892D5EDD2E7CD33ECE0
:0703730033FC5002B2D52259
:10037A00EC30E7100FBF000C0EBE00080DBD0004E4
:10038A000BEB6014A2D5EB13FCED92E7FD2274FF90
:10039A00FCFDFEFF22E480F8A2D574FF13FC7D80E9
:0303AA00E480EFFD
:1003AD00F920E72824F950037907E4F42402FB1817
:1003BD00DBFDE624FB5014E9600DE4F618E604F6C7
:0F03CD00B40A08E4F6D9F57401F60A22C2D52263
:1003DC00ED33EC3392D5FA602AB4FF33EDC2E77BF0
:1003EC00FF60067A047901E4227A04790A20D504A4
:1003FC007A047905224E614E002B494E46002D4958
:10040C004E4600E47A08F608DAFC7B00740722E812
:10041C00C0E0ECC0E0EDC0E0EEC0E0EFC0E0EA759B
:10042C00F010A4CAABF075F04DA42BFBE435F0FC36
:10043C00EA2410FAEB34C5FBEC34D9FCEDC2E7FF2F
:10044C0075F056A4F42411C5F0F434C58FF0A42A29
:10045C00E5F03BE43CF620E71412050FD0E0FFD0AA
:10046C00E0FED0E0FDD0E0FC12020F8014F4041288
:10047C00050FD0E0FFD0E0FED0E0FDD0E0FC120193
:10048C0006D0E0F8E6FAEDD2E7CD33EC332482FB6C
:10049C00E4C3CF33CFCE33CECD33CD33DBF37B07B9
:1004AC0075F00A846004F6081B0AE5F0F6088FF074
:1004BC00740AA4FFACF08EF0740AA42CFEACF050BD
:1004CC00010C8DF0740AA42CFDE435F0F608DBDE8B
:0304DC0074072280
:1004DF003F8000004120000042C80000447A000025
:1004EF00461C400047C35000497424004B189680A7
:1004FF004CBEBC205A0E1BCA6753C21C749DC5AE9E
:10050F00FB60065407601C232312053DEB54386033
:10051F0009120529120538120106ECF8EDF9EEFA69
:10052F00EFCB22EB12053880F1543803241C9004D2
:10053F00DFFE93FC0EEE93FD0EEE930ECE93FF2295
:100EEE00020D8CE493A3F8E493A34003F68001F281
:100EFE0008DFF48029E493A3F85407240CC8C33305
:100F0E00C4540F4420C8834004F456800146F6DFD3
:100F1E00E4800B0102040810204080900FF2E47E62
:100F2E00019360BCA3FF543F30E509541FFEE493C8
:100F3E00A360010ECF54C025E060A840B8E493A38F
:100F4E00FAE493A3F8E493A3C8C582C8CAC583CABA
:100F5E00F0A3C8C582C8CAC583CADFE9DEE780BE72
:01105F000090
:10054F00BB010689828A83E0225002E722BBFE02AA
:09055F00E32289828A83E49322DD
:10056800BB010CE58229F582E5833AF583E0225048
:1005780006E92582F8E622BBFE06E92582F8E22292
:0D058800E58229F582E5833AF583E49322AC
:10059500BB010689828A83F0225002F722BBFE0145
:0205A500F3223F
:0E05A700C3E49FFFE49EFEE49DFDE49CFC2265
:1005B500BB010789828A830206605005E9F80206B5
:1005C50054BBFE05E9F802066C89828A8302067827
:1005D500BB010DE58229F582E5833AF583020660C4
:1005E5005007E92582F8020654BBFE07E92582F883
:1005F50002066CE58229F582E5833AF583020678E1
:0D060500E6FB08E6F908E6FA08E6CBF82265
:0C061200ECF608EDF608EEF608EFF62214
:10061E00FAE6FB0808E6F925F0F618E6CA3AF622DD
:10062E00D083D082F8E4937012740193700DA3A35B
:10063E0093F8740193F5828883E47374029368606F
:06064E00EFA3A3A380DF6F
:0C065400E6FC08E6FD08E6FE08E6FF22D2
:0C066000E0FCA3E0FDA3E0FEA3E0FF220D
:0C066C00E2FC08E2FD08E2FE08E2FF22CA
:10067800E493FC740193FD740293FE740393FF22C8
:00000001FF
