:0300000002096290
:0C096200787FE4F6D8FD7581340209A905
:1003C1002710270E2709270226F726E926D926C551
:1003D10026AE2694267826582635260F25E625BBF7
:1003E100258C255B252624EF24B42477243723F597
:1003F10023AF2367231B22CE227D222A21D4217BF6
:10040100212020C220621FFF1F9A1F321EC81E5BBF
:100411001DEC1D7B1D071C911C191B9F1B221AA380
:100421001A2319A0191B1895180C178216F51667AF
:1004310015D7154614B3141E138812F0125611BBAA
:10044100111F10820FE30F430EA20DFF0D5C0CB7BD
:100451000C120B6B0AC40A1C097308C9081F077424
:1004610006C8061C056F04C20415036702B9020B16
:10047100015C00AE0000FF52FEA4FDF5FD47FC99B2
:10048100FBEBFB3EFA91F9E4F938F88CF7E1F73729
:10049100F68DF5E4F53CF495F3EEF349F2A4F2019F
:1004A100F15EF0BDF01DEF7EEEE1EE45EDAAED103F
:1004B100EC79EBE2EB4DEABAEA29E999E90BE87E3E
:1004C100E7F4E76BE6E5E660E5DDE55DE4DEE461E2
:1004D100E3E7E36FE2F9E285E214E1A5E138E0CE7A
:1004E100E066E001DF9EDF3EDEE0DE85DE2CDDD66C
:1004F100DD83DD32DCE5DC99DC51DC0BDBC9DB893A
:10050100DB4CDB11DADADAA5DA74DA45DA1AD9F179
:10051100D9CBD9A8D988D96CD952D93BD927D917E0
:10052100D909D8FED8F7D8F2D8F0D8F2D8F7D8FE42
:10053100D909D917D927D93BD952D96CD988D9A882
:10054100D9CBD9F1DA1ADA45DA74DAA5DADADB11BC
:10055100DB4CDB89DBC9DC0BDC51DC99DCE5DD3212
:10056100DD83DDD6DE2CDE85DEE0DF3EDF9EE001D1
:10057100E066E0CEE138E1A5E214E285E2F9E36F5D
:10058100E3E7E461E4DEE55DE5DDE660E6E5E76B32
:10059100E7F4E87EE90BE999EA29EABAEB4DEBE2E7
:1005A100EC78ED10EDAAEE45EEE1EF7EF01DF0BD29
:1005B100F15EF201F2A4F349F3EEF495F53CF5E4B2
:1005C100F68DF737F7E1F88CF938F9E4FA91FB3E4B
:1005D100FBEBFC99FD47FDF5FEA4FF52000000AEC8
:1005E100015C020B02B90367041504C2056F061C06
:1005F10006C80774081F08C909730A1C0AC40B6BD3
:100601000C120CB70D5C0DFF0EA20F430FE310820D
:10061100111F11BB125612F01387141E14B3154685
:1006210015D7166716F51782180C1895191B19A0FE
:100631001A231AA31B221B9F1C191C911D071D7B2A
:100641001DEC1E5B1EC81F321F9A1FFF206220C2B5
:100651002120217B21D4222A227D22CE231B236724
:1006610023AF23F52437247724B424EF2526255BF3
:10067100258C25BB25E6260F263526582678269477
:1006810026AE26C526D926E926F727022709270EF1
:100691002710000000000000000000000000000022
:060AC600012F00013400C5
:0B0A25008FA07F057E00120A30D282F5
:100A30007D6E7C00AB07AA06D3EB9400EA940040DD
:100A400007EB1B70F31A80F0ED1D70011CED4C706C
:010A5000E3C2
:010A51002282
:080AB600C280120A25C282224F
:0F0A9200120AA1E52E2430FF120AA1E92430FF39
:080AA100D280120A25C2822254
:100A7500C282C2817F38120AB67F0C120AB67F067F
:0D0A8500120AB67F01120AB67F80020AB67F
:060847008F238C248D2597
:10084D00E4F52A7C277D10AF03AE0212035E8F2BD9
:10085D007C037DE8AF03AE0212035E7C007D0A12BD
:10086D00035E8D2C7C007D64AF03AE0212035E7CB3
:10087D00007D0A12035E8D2D7C007D0AAF03AE0252
:10088D0012035E7C007D0A12035E8D2EAE02AF0355
:10089D007C007D0A12035EA905E5252480FF120A5E
:1008AD00B6E5232430FF120AA17F3A120AA1E52BE7
:1008BD0070047F208005E52B2430FF120AA1E52C62
:1008CD0070047F0180027F00E52B70047E018002A1
:1008DD007E00EE5F60047F208005E52C2430FF1242
:1008ED000AA1E52D2430FF120AA17F2E120A92AE25
:1008FD0028AF297C037DE812035E8F2CAE28AF292B
:10090D007C007D6412035E7C007D0A12035E8D2DDA
:10091D00AE28AF297C007D0A12035E7C007D0A1291
:10092D00035E8D2EAE28AF297C007D0A12035EA9D1
:10093D00057FC2120AB67F30120AA17F2E120AA1BC
:10094D00E52C2430FF120AA1E52D2430FF120A9266
:05095D007F02020AB652
:0D0AA900758910E4F58DF58BC28ED2AF2259
:100A5200759840E4F587D29C75C90175C83075CB8D
:100A6200FF75CAD975CDFF75CCD9C29FD29ED2CAA5
:030A7200C2992204
:080ABE008F993099FDC29922C5
:0409EE008E238F24A1
:1009F20078257C007D007BFF7A0679937E007F025A
:100A0200120338E523F525E524F526E4FDFC7425DB
:100A12002DF8E6FF120ABE0DBD00010CED64024C7A
:020A220070EC76
:010A240022AF
:1006A100E4F508F509F50DF50CF50BF50AF511F56D
:1006B10010F50FF50E78127C00FD7BFF7A06799517
:1006C100FE7F0C120338E4F51EF51FF520F521F528
:1006D10022C293C292120A75120AA9120A5220B2B8
:1006E100FD30B2FDD28E20B3FD30B3FDC28EAF8D91
:1006F100EFFEAD8B7C00E42DF531EC3EF530D28E72
:1007010020B2FD30B2FDC28EAF8DEFFEAD8B7C000D
:10071100E42DFFEC3ECF240FF533E43FF532E4F551
:100721008DF58BAC32AD331201AEC004C005C006ED
:10073100C007AC30AD31E41201AED003D002D0011C
:10074100D00012010C8F0D8E0C8D0B8C0AE4FFFE74
:100751007DB47C43AB0DAA0CA90BA80A1200038F30
:10076100118E108D0F8C0EE4FFFE7DC87C42AB1103
:10077100AA10A90FA80E1200031201E78E1F8F20E5
:10078100AF11AE10AD0FAC0E1201E78E218F22AF6B
:1007910009C007E52225E0FFE52133FE74C12FF5ED
:1007A1008274033EF583E493F528740193F529D00F
:1007B10007AB20AA1FE4FDFC120847AD09ED25E0B7
:1007C10025E02412F8A61F08A620E52225E0FFE572
:1007D1002133FE74C12FF58274033EF583E493FE49
:1007E100740193FFED25E025E02414F8A60608A680
:1007F100077FAA7E551209EEE4F51EAF1EEF339571
:10080100E0FEC3EF9406EE648094805012EF25E081
:100811002412F8E6FE08E6FF1209EE051E80DC054B
:1008210009E50970020508640345087004F508F537
:1008310009E509139292E509A2E192937F327E00C4
:06084100120A300206DF7E
:10000300EC4D6011E8497017ED33EC3304600DE4F7
:10001300FCFFFEFD22E933E8330470F802025312B9
:10002300021E58046009E4CC2481500628500902BA
:10003300025D28400302025AC0E0EB4A7044B980D3
:1000430006D0E0FB020249EF4E701CBD8008EBFFB7
:10005300EAFEE9FD80EBE98DF0A4FEE5F00200EC99
:10006300E9CDF9EAFEEBFFEF89F0A4FCE5F0CE89D8
:10007300F0A42EFFE435F0CD89F0A42DFEE435F095
:100083008067EF4E7005BD80D780C3EF8BF0A4ACC3
:10009300F0EE8BF0A42CFCE435F0F8EF8AF0A42CFE
:1000A300E5F038FCE433CB8DF0A42CFCE5F03BF811
:1000B300EE8AF0A42CFCE5F038F8E433CF89F0A401
:1000C3002CFCE5F038CF3400CE89F0A42FFFE5F007
:1000D3003EFEE433C98DF0A42EFEE5F039CD8AF05F
:1000E300A42FFFE5F03EFEE43DFD33D0E0FB5007D7
:1000F3000BBB000F02025DEC2CFCEF33FFEE33FE73
:06010300ED33FD020235A0
:1001090002025DEC5D046005E859047003020253C4
:1001190012021E580460F6EC4860F2EC7004FDFE11
:10012900FF22C860DB2481C85009C39860025006C9
:1001390002025A9850CAF582E9294B4A7005AB82E6
:1001490002024975F0007C1A7880C3EF9BEE9AEDA4
:1001590099400DC3EF9BFFEE9AFEED99FDE842F041
:10016900DC23ACF0D0E0FFD0E0FED0E0FDAB822094
:10017900E7101BEB60BAEC2CFCEF33FFEE33FEED1E
:1001890033FD020235E803F830E705C0F075F000E9
:10019900EF2FFFEE33FEED33FD40B830E7C280AA02
:1001A90075F020800E75F010800575F0087D007ED1
:1001B900007F003392D530D5031203B3EC334010DE
:1001C900EF33FFEE33FEED33FDEC33FCD5F0ED22DA
:0E01D900E5F0247EA2D513CC92E7CDCEFF2216
:1001E700EDD2E7CD33EC3392D524814006E4FFFE10
:1001F700FDFC22FCE4CFCECDCC24E0501174FF806F
:10020700EDC3CC13CCCD13CDCE13CECF13CF04700B
:07021700F030D5DE0203B355
:10021E00E9D2E7C933E833F892D5EDD2E7CD33EC26
:07022E0033FC5002B2D5229F
:10023500EC30E7100FBF000C0EBE00080DBD00042A
:100245000BEB6014A2D5EB13FCED92E7FD2274FFD6
:10025500FCFDFEFF22E480F8A2D574FF13FC7D802F
:03026500E480EF43
:10096E000206A1E493A3F8E493A34003F68001F2F8
:10097E0008DFF48029E493A3F85407240CC8C3338A
:10098E00C4540F4420C8834004F456800146F6DF59
:10099E00E4800B0102040810204080900AC6E47E19
:1009AE00019360BCA3FF543F30E509541FFEE4934E
:1009BE00A360010ECF54C025E060A840B8E493A315
:1009CE00FAE493A3F8E493A3C8C582C8CAC583CA40
:1009DE00F0A3C8C582C8CAC583CADFE9DEE780BEF8
:010ACC000029
:10026800E709F608DFFA8046E709F208DFFA803E78
:1002780088828C83E709F0A3DFFA8032E309F60865
:10028800DFFA8078E309F208DFFA807088828C83CD
:10029800E309F0A3DFFA806489828A83E0A3F60881
:1002A800DFFA805889828A83E0A3F208DFFA804C5B
:1002B80080D280FA80C680D4806980F28033801032
:1002C80080A680EA809A80A880DA80E280CA80339B
:1002D80089828A83ECFAE493A3C8C582C8CCC58313
:1002E800CCF0A3C8C582C8CCC583CCDFE9DEE780E3
:1002F8000D89828A83E493A3F608DFF9ECFAA9F062
:10030800EDFB2289828A83ECFAE0A3C8C582C8CCB7
:10031800C583CCF0A3C8C582C8CCC583CCDFEADED0
:10032800E880DB89828A83E493A3F208DFF980CC32
:1003380088F0EF60010E4E60C388F0ED2402B4042B
:100348000050B9F582EB2402B4040050AF232345D2
:0603580082239002B8733D
:10035E00BC000BBE0029EF8DF084FFADF022E4CC83
:10036E00F875F008EF2FFFEE33FEEC33FCEE9DEC4C
:10037E00984005FCEE9DFE0FD5F0E9E4CEFD22ED92
:10038E00F8F5F0EE8420D21CFEADF075F008EF2FDC
:10039E00FFED33FD4007985006D5F0F222C398FDCD
:0503AE000FD5F0EA226A
:0E03B300C3E49FFFE49EFEE49DFDE49CFC225B
:00000001FF
