:02000E00C10B24
:10102A00D2B4000000000000000000000000000030
:0A103A0000000000000000C2B42214
:100E5E00AF8CEFFEAD8A7C00E42DFFEC3EFEE4F598
:100E6E008CF58AAD07AC061201C97B9A7A9979D9AD
:100E7E00783F12001EE4FBFA79C87842120127125D
:100E8E000202C3EF94F4EE94015003300B06C20B32
:040E9E007E037F78D8
:010EA200222D
:1010D70012102A30B3FDD28C20B3FDC28C020E5EF3
:1010E7005389F0438901E4F58CF58AD2A9D2AF225E
:030006000210E7FE
:03000B000211548B
:03115400D20B3289
:100F9D00D3EF9400EE940040147D6E7C00ED1D7037
:0D0FAD00011CED4C70F7EF1F70E61E80E395
:010FBA002214
:1010B300C2B5C2B68F90D2B77F027E00120F9DC217
:0210C300B72252
:1010C500D2B5C2B68F90D2B77F027E00120F9DC2F5
:0210D500B72240
:080E11008D4E8B4F8A50895170
:100E1900E4F553EF64017006E54E24808004E54E45
:100E290024C0FF1210B3AB4FAA50A95112108B8FD7
:100E390053E4F552E552C395535019AB4F0551E5AB
:100E490051AA507002055014F9120613FF1210C569
:040E5900055280E0DE
:010E5D002272
:0A0EA3008F378D388B398A3A893B6E
:100EAD00754B00754C00754D3C8B4E8A4F895085A6
:100EBD004B51854C52854D537B007A00790B120FA7
:100ECD0048754B00754C00754D007B007A00790B11
:070EDD00AD38AF37020E1122
:10100F007F381210B37F0C1210B37F061210B37F0C
:0B101F00011210B37F027E00020F9D43
:100FF300446973203D2025342E326600563D30303F
:0C100300636D2F734C3D3030302E306D8B
:06001000010800010900D7
:0C10F700C2AF53E71843E70143E7802233
:09110E0053E77FE4F5E6D2AF22BD
:0B1103001210F775E64675E6B90022F1
:100FBB00AD07AC06C2AF8CE3EDF5E453E5F843E5C2
:0C0FCB000112110312110ED2AFAFE2228E
:10107600EE54FEFEF5E3E4F5E453E5F843E503122A
:05108600110302110E30
:100FD700AB07AA06C2AF8AE3EBF5E453E5F843E5AE
:0C0FE700028DE212110312110ED2AF2293
:09111700D2A0C2A1C2A2D2A322FF
:09112000C2A0C2A1C2A2D2A32206
:09112900C2A0D2A1C2A2D2A322ED
:09113200C2A0C2A1C2A2C2A32204
:09113B00D2A0C2A1C2A2C2A322EB
:09114400D2A0C2A1D2A2C2A322D2
:020F17008F3712
:100F190080282082250538C3E538940A7480948096
:100F290040F0E5376403700512114480031211295A
:0F0F39007F327E00120F9D021117E4F53880D32E
:101044001211177F787E00120F9D1211297FB47E32
:0910540000120F9D7F03020F172B
:10105D001211177F787E00120F9D1211447FB47EFE
:09106D0000120F9D7F04020F1711
:100C980030840F30830C20820930810630800312A3
:100CA800111720840F20830C2082092081062080C0
:100CB8000312113230840C3083092082062081030C
:100CC80020802D30840C3083093082062081032057
:100CD800801E30840C3083093082062081033080E6
:100CE8000F30840F30830C30820930810620800356
:100CF80012113B30840C20830920820630810320A6
:100D0800802D30840C2083093082063081032080B6
:100D18001E20840C20830930820630810320800F36
:100D280020840F30830C3082093081063080031212
:100D3800112030842220821F20811C20801912114A
:100D4800177F017E00120F9D30840C2082092081BC
:100D58000620800312105D20842220831F20821C1D
:100D68003080191211177F017E00120F9D20840C0C
:0D0D780020830920820630800312104422DF
:07114D00D288D2A8D2AF2224
:100B730078227C007D007BFF7A0F79FF7E007F1057
:100B83001205ED753400753532E4F5361210A012F6
:100B9300100F12000612114D120C98300AFAC20AF5
:100BA300AC08E41201CE7B337A3379237840120008
:100BB3001E1202028F09E4F508EF2533F533E435FD
:100BC30032F532120C981210D78E348F35AC34AD07
:100BD30035EC1201C9E4FBFA79C878421201278F78
:100BE3003F8E3E8D3D8C3C7BFF7A0F79F37D037FF7
:100BF30002120EA3120C98C3E5359418E5346480F1
:100C03009480500A1211447FF47E01120F9D120C3E
:100C130098E50975F00A842430F524E50975F00A8E
:100C230084E5F02430F525120C98AE32AF337C27DF
:100C33007D1012066BEF2430F52CAE32AF337C03FC
:100C43007DE812066B7C007D0A12066BED2430F5FD
:100C53002DAE32AF337C007D6412066B7C007D0ABF
:100C630012066BED2430F52EAE32AF337C007D0AD5
:100C730012066B7C007D0A12066BED2430F53012F0
:100C83000C987B007A007922E4FD7F01120EA312F7
:050C93000C98020B9B10
:0300030002115790
:0311570005083256
:04001600C109C10A51
:1010A00053890F438910758D4CE4F58BD2ABD28EEA
:0310B000D2AF229A
:03001B00020EE4EE
:0B0EE400C0E0C0D075D000C006C00701
:100EEF00758D4C758B00050AAF0AEF3395E0FEC385
:0F0EFF00EF9414EE648094804005750A00D20AC7
:090F0E00D007D006D0D0D0E032AB
:10001E00EC4D6011E8497017ED33EC3304600DE4DC
:10002E00FCFFFEFD22E933E8330470F802026E1283
:10003E00023958046009E4CC248150062850090284
:10004E000278284003020275C0E0EB4A7044B98082
:10005E0006D0E0FB020264EF4E701CBD8008EBFF81
:10006E00EAFEE9FD80EBE98DF0A4FEE5F002010762
:10007E00E9CDF9EAFEEBFFEF89F0A4FCE5F0CE89BD
:10008E00F0A42EFFE435F0CD89F0A42DFEE435F07A
:10009E008067EF4E7005BD80D780C3EF8BF0A4ACA8
:1000AE00F0EE8BF0A42CFCE435F0F8EF8AF0A42CE3
:1000BE00E5F038FCE433CB8DF0A42CFCE5F03BF8F6
:1000CE00EE8AF0A42CFCE5F038F8E433CF89F0A4E6
:1000DE002CFCE5F038CF3400CE89F0A42FFFE5F0EC
:1000EE003EFEE433C98DF0A42EFEE5F039CD8AF044
:1000FE00A42FFFE5F03EFEE43DFD33D0E0FB5007BC
:10010E000BBB000F020278EC2CFCEF33FFEE33FE3C
:06011E00ED33FD0202506A
:10012400020278EC5D046005E85904700302026E73
:10013400120239580460F6EC4860F2EC7004FDFEDB
:10014400FF22C860DB2481C85009C39860025006AE
:100154000202759850CAF582E9294B4A7005AB82B0
:1001640002026475F0007C1A7880C3EF9BEE9AED6E
:1001740099400DC3EF9BFFEE9AFEED99FDE842F026
:10018400DC23ACF0D0E0FFD0E0FED0E0FDAB822079
:10019400E7101BEB60BAEC2CFCEF33FFEE33FEED03
:1001A40033FD020250E803F830E705C0F075F000B3
:1001B400EF2FFFEE33FEED33FD40B830E7C280AAE7
:1001C40075F020800E75F010800575F0087D007EB6
:1001D400007F003392D530D5031206C0EC334010B3
:1001E400EF33FFEE33FEED33FDEC33FCD5F0ED22BF
:0E01F400E5F0247EA2D513CC92E7CDCEFF22FB
:10020200EDD2E7CD33EC3392D524814006E4FFFEF4
:10021200FDFC22FCE4CFCECDCC24E0501174FF8053
:10022200EDC3CC13CCCD13CDCE13CECF13CF0470F0
:07023200F030D5DE0206C02A
:100F4800854E57854F58855059EBC551FBEAC55218
:100F5800FAE9C553F97F09785A120613F60809E920
:0E0F680070010ADFF4AB51AA52A953020760D0
:10023900E9D2E7C933E833F892D5EDD2E7CD33EC0B
:0702490033FC5002B2D52284
:10025000EC30E7100FBF000C0EBE00080DBD00040F
:100260000BEB6014A2D5EB13FCED92E7FD2274FFBB
:10027000FCFDFEFF22E480F8A2D574FF13FC7D8014
:03028000E480EF28
:10070400E56B2457F8E6056B2278543007027857D6
:10071400E475F0011206CE0206132000EB7F2ED200
:10072400008018EF540F2490D43440D4FF30040BCD
:10073400EF24BFB41A0050032461FFE56C60021576
:100744006C056FE56F7002056E30070D7854E47523
:10075400F0011206CEEF020659020F767403D20797
:100764008003E4C207F56B8B548A558956E4F56C13
:10077400F56EF56FE56C60077F2012073F80F57515
:100784006DFFC201C200C202C203C205C206C20892
:1007940012070DFF700D3007057F00120750AF6F71
:1007A400AE6E22B4255FC2D5C20412070DFF24D059
:1007B400B40A00501A75F00A786C30D50508B6FFF3
:1007C4000106C6A426F620D5047002D20380D924DB
:1007D400CFB41A00EF5004C2E5D204020A3DD2019C
:1007E40080C6D20080C0D20280BCD2D580BAD205E5
:1007F40080B47F2012073F2002077401B56C0040CB
:10080400F1120704FF12073F020778D208D20680CC
:1008140095120704FB120704FA120704F94A4B70F5
:100824000679347A0B7BFF20022EE56C602A7E0069
:100834008E8275830012062C60060EEE656D70F0D4
:10084400C2D5EBC0E0EAC0E0E9C0E0EE120A9DD0F8
:10085400E0F9D0E0FAD0E0FB120613FF60AAEBC087
:10086400E0EAC0E0E9C0E012073FD0E02401F9D09B
:10087400E03400FAD0E0FBE56D0460DCD56DD9808E
:1008840087D20280A2120A8060F7E56D700104121B
:100894000283A96D600DE56D600914F56D120B27D7
:1008A400EF60F3EA30E702F404C3995077EAF425E1
:1008B4006D0430E701E404F56D800D120A8060C117
:1008C400EA056D256D120283EA786AF630E701E4E1
:1008D400256D04D56D0420050114120A9DE4C0E0C1
:1008E400120B27786AE6601320E70714F61207272D
:1008F400802204F6D0E014C0E07F00120727E56DE3
:10090400600712071E156D800B30050312071ED0F9
:10091400E0020778D0E00480C5120A8060A0E56D8B
:1009240004120283786AEAF6E56D20050260010488
:050934002404120A9DDD
:1009390074FF04C0E0120B27120727E56D2005029A
:10094900600312071ED0E0B56DE87F4512073178C4
:100959006AE67F2B30E7047F2DF404C0E012073FDD
:10096900D0E075F00A84C0F0120728D0E0120728F9
:10097900020778791080027908C206C2088008D275
:10098900D5790A8004790AC2D5E56D047002F56D3E
:10099900E4FAFDFEFF120704FC7B0820011312078D
:1009A90004FD7B1030000A120704FE120704FF7BC6
:1009B90020EC3382D592D55013C3E43000069FFF53
:1009C900E49EFEE42001039DFDE49CFCE4CBF8C217
:1009D90001EC700CCFCECDCCE824F8F870F3801779
:1009E900C3EF33FFEE33FEED33FDEC33FCEB33FBAA
:1009F900994002FB0FD8E9EB300105F8D0E0C44873
:100A0900B201C0E00AEC4D4E4F78207B0070C2EA7B
:100A1900B56D0040BCC0E0120A9FD0F0D0E02001C3
:100A290004C4C0E0C4B201C0F0120728D0F0D5F068
:100A3900EB0207781206DE081553097C5807E64CC5
:100A490007E24209804F09884409884907FB43099D
:100A59008E5508BF46091D450889470B545007EABA
:100A69002D07EE2E08112B07F223080F200B3D2A24
:100A790007AA4800000809E56DB4FF03756D061261
:100A89000704FC120704FD120704FE120704FF788D
:100A9900630202B2790AA2D5200314300509B910FC
:100AA900020404B9080104A2D52006025001042059
:100AB90002689202B56C005034C0E07F20300319FF
:100AC9007F30A20272067205500F120AF6C202C2E4
:100AD90006C205C2087F30800F300503E9C0E01265
:100AE900073F300503D0E0F9D0E0B56CCC300517ED
:100AF9007F30B9100C12073F7F583004077F788088
:100B090003B9080312073F3002057F2D02073F7F13
:100B1900202008F87F2B2006F322920280CF7F0045
:100B2900B4070050052463F8E6FF22286E756C6C43
:100B39002900D2011207043001F8C201786C30D5BE
:100B49000108F60207AA2D50434958120704240345
:100B5900B405004001E4900B4F93120730743A1228
:0A0B69000730D203756C0402097C0A
:10028300F920E72824F950037907E4F42402FB1842
:10029300DBFDE624FB5014E9600DE4F618E604F6F2
:0F02A300B40A08E4F6D9F57401F60A22C2D5228E
:1002B200ED33EC3392D5FA602AB4FF33EDC2E77B1B
:1002C200FF60067A0279D7E4227A0279E020D50427
:1002D2007A0279DB224E614E002B494E46002D49AF
:1002E2004E4600E47A08F608DAFC7B00740722E83E
:1002F200C0E0ECC0E0EDC0E0EEC0E0EFC0E0EA75C7
:10030200F010A4CAABF075F04DA42BFBE435F0FC61
:10031200EA2410FAEB34C5FBEC34D9FCEDC2E7FF5A
:1003220075F056A4F42411C5F0F434C58FF0A42A54
:10033200E5F03BE43CF620E7141204DDD0E0FFD008
:10034200E0FED0E0FDD0E0FC1201278014F404129C
:1003520004DDD0E0FFD0E0FED0E0FDD0E0FC1200F2
:100362001ED0E0F8E6FAEDD2E7CD33EC332482FB7F
:10037200E4C3CF33CFCE33CECD33CD33DBF37B07E4
:1003820075F00A846004F6081B0AE5F0F6088FF09F
:10039200740AA4FFACF08EF0740AA42CFEACF050E8
:1003A200010C8DF0740AA42CFDE435F0F608DBDEB6
:0303B200740722AB
:1003B50002026EE86480F8E933E83360110460F006
:1003C500ED33EC337009E8FCE9FDEAFEEBFF2204AE
:1003D50060DED3EB9FEA9EE99DE8C2E78CF0C2F7A9
:1003E50095F0400CE8CCF8E9CDF9EACEFAEBCFFB75
:1003F50012023985D0F05804700320D5B3E8047093
:10040500075002B2D502027892D5EC0460F7E4CC2D
:10041500C0E0C398F8603B94186008400DD0E0FB3D
:10042500020250E4FBFAC9FC8028E830E406E4C97E
:10043500FBE4CAFCE830E305E4C9CACBFCE8540791
:100445006010F8C3E913F9EA13FAEB13FBEC13FC9C
:10045500D8F130F52FC3E49CFCEF9BFFEE9AFEED3F
:1004650099FDD0E0FBEF4E4D4C701222DB030202EA
:1004750075EC2CFCEF33FFEE33FEED33FDED30E78D
:10048500EB020250EF2BFFEE3AFEED39FDD0E0FB1B
:1004950050130BBB0003020278ED13FDEE13FEEFC4
:0804A50013FFEC13FC020250EE
:1004AD003F8000004120000042C80000447A000057
:1004BD00461C400047C35000497424004B189680D9
:1004CD004CBEBC205A0E1BCA6753C21C749DC5AED0
:1004DD00FB60065407601C232312050BEB54386098
:1004ED00091204F712050612001EECF8EDF9EEFAEA
:1004FD00EFCB22EB12050680F1543803241C900437
:10050D00ADFE93FC0EEE93FD0EEE930ECE93FF22F9
:03000000020D8569
:0C0D8500787FE4F6D8FD75816F020DCC7C
:10051D00E709F608DFFA8046E709F208DFFA803EC0
:10052D0088828C83E709F0A3DFFA8032E309F608AD
:10053D00DFFA8078E309F208DFFA807088828C8315
:10054D00E309F0A3DFFA806489828A83E0A3F608C9
:10055D00DFFA805889828A83E0A3F208DFFA804CA3
:10056D0080D280FA80C680D4806980F2803380107A
:10057D0080A680EA809A80A880DA80E280CA8033E3
:10058D0089828A83ECFAE493A3C8C582C8CCC5835B
:10059D00CCF0A3C8C582C8CCC583CCDFE9DEE7802B
:1005AD000D89828A83E493A3F608DFF9ECFAA9F0AA
:1005BD00EDFB2289828A83ECFAE0A3C8C582C8CC00
:1005CD00C583CCF0A3C8C582C8CCC583CCDFEADE19
:1005DD00E880DB89828A83E493A3F208DFF980CC7B
:1005ED0088F0EF60010E4E60C388F0ED2402B40474
:1005FD000050B9F582EB2402B4040050AF2323451B
:06060D00822390056D73CD
:10061300BB010689828A83E0225002E722BBFE02E5
:09062300E32289828A83E4932218
:10062C00BB010CE58229F582E5833AF583E0225083
:10063C0006E92582F8E622BBFE06E92582F8E222CD
:0D064C00E58229F582E5833AF583E49322E7
:10065900BB010689828A83F0225002F722BBFE0180
:02066900F3227A
:10066B00BC000BBE0029EF8DF084FFADF022E4CC73
:10067B00F875F008EF2FFFEE33FEEC33FCEE9DEC3C
:10068B00984005FCEE9DFE0FD5F0E9E4CEFD22ED82
:10069B00F8F5F0EE8420D21CFEADF075F008EF2FCC
:1006AB00FFED33FD4007985006D5F0F222C398FDBD
:0506BB000FD5F0EA225A
:0E06C000C3E49FFFE49EFEE49DFDE49CFC224B
:1006CE00FAE6FB0808E6F925F0F618E6CA3AF6222D
:1006DE00D083D082F8E4937012740193700DA3A3AB
:1006EE0093F8740193F5828883E4737402936860BF
:0606FE00EFA3A3A380DFBF
:100F7600EFB40A07740D120F81740A309811A899FC
:100F8600B8130CC2983098FDA899C298B811F630DB
:070F960099FDC299F59922B3
:10108B00E4FFFE120613600C0FEF70010E09E970FE
:05109B00F20A80EF22C3
:100D9100020B73E493A3F8E493A34003F68001F2FA
:100DA10008DFF48029E493A3F85407240CC8C33363
:100DB100C4540F4420C8834004F456800146F6DF32
:100DC100E4800B010204081020408090000EE47EB4
:100DD100019360BCA3FF543F30E509541FFEE49327
:100DE100A360010ECF54C025E060A840B8E493A3EE
:100DF100FAE493A3F8E493A3C8C582C8CAC583CA19
:100E0100F0A3C8C582C8CAC583CADFE9DEE780BED0
:01001A0000E5
:00000001FF
