:100D840071696E6763616900646162616963616965
:100D94000078696775616E007869616E676A696178
:100DA4006F007869686F6E67736869006E69756E45
:100DB400616E006A696E6A75007169657A690068B6
:100DC40075617368656E67006E69756E616900B5FB
:100DD400E7D1B9D6B53A25662C206B65793A2563F7
:100DE4000A0057453A2530312E33662050523A25B1
:100DF40030342E3166004D4F4E45593A2530362E4B
:100E040032664E6F3A2564002020202020202020C6
:100E1400202020202020202000B2CBC3FB3A2573C1
:100E24002C20B5A5BCDB3A25322E31660A00206E93
:100E3400616D653A25730070726963653A25322ED7
:100E4400316620202020202000456C656374726F79
:100E54006E6963207363616C65005553455F4D4F44
:100E640044453A204E4F3A25642020005065656C75
:100E740065643A256630312E330020206E616D653D
:100E84003A5065656C656420200076616C3A2532C1
:100E94002E33662020202020200020202057656C3F
:100EA400636F6D65207573652020002020636C617D
:100EB40073733A20623136202020002020206E6196
:0C0EC4006D653A2058585820202020006E
:10101600604D0019FF0D84400CCCCDFF0D8C403384
:101026003333FF0D95409CCCCDFF0D9C428E999A93
:10103600FF0DA642B06666FF0DB042C60000FF0D6A
:10104600B741980000FF0DB041B00000FF0DBD4252
:10105600040000FF0DC3425C0000FF0DCC42B0004F
:101066000012510000000000000000400CCCCD0032
:101076000000000000590000000000000000000011
:10108600000000000000000000000000000000005A
:011096000059
:0D148A00007F027E677D93DDFEDEFCDFFA51
:011497002232
:100A6700E4F531F532F53312137212144212146998
:100A77001214FA8F311214C5AB58AA57A956A855A4
:100A87001200118F548E538D528C517537FF753864
:100A97000D7539D38F3D8E3C8D3B8C3A85313E7B2E
:100AA700017A0079001206547B017A00790012144A
:100AB70056C3E5329404748094804003020BB775E3
:100AC70037FF75380D7539E685543D85533C85529A
:100AD7003B85513A855C41855B40855A3F85593E48
:100AE7007B017A0079001206547B017A0079007F36
:100AF70080121410AF5CAE5BAD5AAC59AB54AA531D
:100B0700A952A8511201068F608E5F8D5E8C5D75AC
:100B170037FF75380D7539FA8F3D8E3C8D3B8C3A12
:100B2700AF61EF3395E0F53E8F3F7B017A007900A7
:100B37001206547B017A0079007FC0121410E53148
:100B470024D024F6503A24FD600D24FA600E24F0D8
:100B5700705E7532018024753202801F753203740E
:100B6700102532F5327BFF7A0E790C7F8012141034
:100B77007BFF7A0E790C7FC01214101214F68030A6
:100B8700E5326401701E74102532F5327BFF7A0E50
:100B9700790C7F801214107BFF7A0E790C7FC012BC
:100BA7001410800CE5326402700674102532F53299
:100BB700E53220E403020D7EF5335333EFE531B41C
:100BC7005306E4F5321214F6E53324FE7003020CE3
:100BD700C4147003020D1624026003020D7EE53172
:100BE70064537003020D7EE531F47003020D7E75C8
:100BF700F007E531A424CCF582E5F034FEF583E077
:100C0700FCA3E0FDA3E0FEA3E0F55C8E5B8D5A8CB0
:100C170059E53124D0F5617537FF75380E75391DE3
:100C270075F007E531A424C9F582E5F034FEF583B4
:100C3700E0FBA3E0FAA3E08B3A8A3BF53C855C40F6
:100C47008E3F8D3E8C3D7B017A0079001206547BE6
:100C5700017A0079001214567537FF75380E753909
:100C67003275F007E531A424C9F582E5F034FEF5C5
:100C770083E0FBA3E0FAA3E08B3A8A3BF53C7B01D8
:100C87007A0079001206547B017A0079007F80127E
:100C970014107537FF75380E75393B855C3D855BDC
:100CA7003C855A3B85593A7B017A007900120654F4
:100CB7007B017A0079007FC0121410804DE531C3A3
:100CC70094305003020D7EE531D394394003020D71
:100CD7007E7BFF7A0E794D7F801214107537FF7572
:100CE700380E75395EE53124D0F53BE434FFF53A2B
:100CF7007B017A0079001206547B017A0079007F24
:100D0700C0121410E53124D0F5621214F68068E59C
:100D170031645360621214C58F588E578D568C55A7
:100D27007537FF75380E7539708F3D8E3C8D3B8C4E
:100D37003A7B017A0079001206547B017A00790028
:100D47001214567BFF7A0E797E7F80121410753746
:100D5700FF75380E75398E85583D85573C85563B4E
:100D670085553A7B017A0079001206547B017A0097
:0D0D770079007FC012141012148A020A774E
:101372001213F27BFF7A0E799E7F801214107BFF8C
:101382007A0E794D7FC012141012148A12148A7BBD
:10139200FF7A0E79AF7F801214107BFF7A0E79BF2D
:0B13A2007FC012141012148A02148A7B
:10147A0037343153383532303936333D2E524C43B6
:03109700011FFF37
:0814BC007F097EF4DEFEDFFC77
:0114C4002205
:10122B007D0179017CFF43900F1DEDC39404748005
:10123B0094805048E9540FF452901214BCE590C4BA
:10124B00540FF4540F24FE601024FE601024FC6035
:10125B00102407700EE4FC800A7C0180067C02805F
:10126B00027C03E9540F4290E925E0F9ECF46009A4
:10127B00ED25E025E02CFC80030D80AEE51F6C60B6
:10128B0024ECF46020EC5403FFED25E025E0247AF8
:10129B00F582E43414F583E5822FF582E43583F58A
:0712AB0083E493F51FAF047B
:0112B2002219
:0314FA00AF1F22FF
:0414F600751FFF223D
:10142E00E4FEEEC39F500C007D027CC7DCFEDDFCAB
:03143E000E80EF2E
:011441002288
:1013D300C2A18E801213ECD2A21213ECC2A2EEC4ED
:0913E30054F0F5801213ECD2A2C3
:0513EC00007F14DFFE8C
:0113F10022D9
:0C149800AE07C2A2C2A01213D3C2A2224F
:0C14A400AE07C2A2D2A01213D3C2A22233
:1013F2007F321214987F281214987F0C1214987F4F
:0E140200061214987F011214987F800214982D
:10141000AD0712054F6016AF051214980D12054F57
:0E142000FF1214A4740129F9E43AFA80E522BF
:04109A0002630000ED
:0B14B000E4FEEEC39F5004000E80F726
:0114BB00220E
:02131900AD071E
:10131B00E4F522F523C2B2C2B5EDC454F0FDE4FBF3
:10132B00FA30B403432301ED3392B3D2B27F0312ED
:10133B0014B0C2B21214B0ED25E0FDE52325E0F5A3
:10134B0023E52233F5220BBB00010AEB640C4A7038
:10135B00D0D2B5E522C313F522E52313F52385225D
:06136B0063F564AE22FFF1
:011371002259
:0514F100AE63AF6422B0
:080003008F501214E9AF5022E6
:10146900439850438920758BFD758DFDD28ED2AF7F
:011479002250
:0814E9008F993099FDC2992290
:1014560012054FFF600C1214E9740129F9E43AFAF7
:0314660080EE22F3
:0213AD008D654C
:1013AF00E4FDFCC3ED95657480F86C98501512053B
:1013BF004FFF1214E9740129F9E43AFA0DBD000147
:0313CF000C80E0AF
:0113D20022F8
:03109E00016600E8
:101442005389F0438901E4F58A758C4CC28DD28CA4
:0414520043A8822207
:03000B000212B32B
:1012B300C0E0C0F0C083C082C0D075D000C000C001
:0D12C30001C002C003C004C005C006C00782
:1012D000758A00758C4C12122BE4FF121319AC06A0
:1012E000AD07E412032A7B007AC0794C78441202DD
:0E12F0000F8F268E258D248C23AF62120ED018
:1012FE00D007D006D005D004D003D002D001D00044
:0B130E00D0D0D082D083D0F0D0E032ED
:1010A1000C133F8147AE40900000423400005800CD
:1010B100663F80000040A000003DCCCCCD3F8000C9
:1010C10000000000003DCCCCCD080B00000000006A
:0C10D100000000010801010900010A01F3
:0914C500AF12AE11AD10AC0F2204
:0914CE00AF12AE11AD10AC0F22FB
:0914D7008F0E8E0D8D0C8C0B2282
:0914E0008F128E118D108C0F2269
:100ED000E4FEEF650960058F09750801E50824FE49
:100EE0006056147003020F98147003020F9C147064
:100EF0000302101024046003021013E509146012A9
:100F000014601714601C1460212404701D53A0C7C2
:100F1000801E53A0CF43A008801653A0D743A01033
:100F2000800E53A0DF43A018800653A0E743A02003
:100F300053B03F0508021013AF26AE25AD24AC23F5
:100F4000850A2B1210DEAE07E50A6E60278E0AE5D1
:100F50000A24FE600D1460132402701553B03F0282
:100F6000100B53B07F43B04002100B53B0BF43B0DF
:100F70008002100BE50A25E025E0240FF81205B5E4
:100F8000AF26AE25AD24AC2312020F1214E00508E3
:100F900053A0E743A020807B050880771214CEC0C1
:100FA00004C005C006C007E50A25E025E0240FF8C7
:100FB0001205B5AF26AE25AD24AC2312020FA8044E
:100FC000A905AA06AB07D007D006D005D0041200A9
:100FD000111214D7E50914601214601714601C1460
:100FE00060212404701F53A0C7802053A0CF43A0CA
:100FF00008801853A0D743A010801053A0DF43A04F
:10100000188008800053A0E743A0207508058003DE
:051010007508027F00DD
:0110150022B8
:0810DE008F2A8E298D288C2732
:1010E600E4F52CE52B25E025E0240FF81205B512D2
:1010F600020F8F308E2F8D2E8C2D900066E0FCA374
:10110600E0FDA3E0FEA3E0FFAB30AA2FA92EA82D99
:101116001202AC60074005752C01807A900072E0DF
:10112600FCA3E0FDA3E0FEA3E0FFAB30AA2FA92EAF
:10113600A82D1202AC6002502290006EE0FCA3E0E3
:10114600FDA3E0FEA3E0FFAB30AA2FA92EA82D1227
:1011560002AC60074005752C02803B90007AE0FCEB
:10116600A3E0FDA3E0FEA3E0FFAB30AA2FA92EA8C3
:101176002D1202AC6002501E900076E0FCA3E0FD4A
:10118600A3E0FEA3E0FFAB30AA2FA92EA82D1202E2
:08119600AC4003752C03AF2CE3
:01119E00222E
:0300000002119F4B
:0C119F00787FE4F6D8FD7581660211E649
:10000E00020398E86480F8E933E83360110460F085
:10001E00ED33EC337009E8FCE9FDEAFEEBFF220458
:10002E0060DED3EB9FEA9EE99DE8C2E78CF0C2F753
:10003E0095F0400CE8CCF8E9CDF9EACEFAEBCFFB1F
:10004E0012036385D0F05804700320D5B3E8047012
:10005E00075002B2D50203A292D5EC0460F7E4CCAD
:10006E00C0E0C398F8603B94186008400DD0E0FBE8
:10007E0002037AE4FBFAC9FC8028E830E406E4C9FE
:10008E00FBE4CAFCE830E305E4C9CACBFCE854073C
:10009E006010F8C3E913F9EA13FAEB13FBEC13FC47
:1000AE00D8F130F52FC3E49CFCEF9BFFEE9AFEEDEA
:1000BE0099FDD0E0FBEF4E4D4C701222DB03020394
:1000CE009FEC2CFCEF33FFEE33FEED33FDED30E70E
:1000DE00EB02037AEF2BFFEE3AFEED39FDD0E0FB9B
:1000EE0050130BBB00030203A2ED13FDEE13FEEF44
:0800FE0013FFEC13FC02037A6E
:10010600EC4D6011E8497017ED33EC3304600DE4F3
:10011600FCFFFEFD22E933E8330470F8020398126F
:10012600036358046009E4CC248150062850090270
:1001360003A228400302039FC0E0EB4A7044B98043
:1001460006D0E0FB02038EEF4E701CBD8008EBFF6D
:10015600EAFEE9FD80EBE98DF0A4FEE5F00201EF91
:10016600E9CDF9EAFEEBFFEF89F0A4FCE5F0CE89D4
:10017600F0A42EFFE435F0CD89F0A42DFEE435F091
:100186008067EF4E7005BD80D780C3EF8BF0A4ACBF
:10019600F0EE8BF0A42CFCE435F0F8EF8AF0A42CFA
:1001A600E5F038FCE433CB8DF0A42CFCE5F03BF80D
:1001B600EE8AF0A42CFCE5F038F8E433CF89F0A4FD
:1001C6002CFCE5F038CF3400CE89F0A42FFFE5F003
:1001D6003EFEE433C98DF0A42EFEE5F039CD8AF05B
:1001E600A42FFFE5F03EFEE43DFD33D0E0FB5007D3
:1001F6000BBB000F0203A2EC2CFCEF33FFEE33FE29
:06020600ED33FD02037A56
:10020C000203A2EC5D046005E85904700302039834
:10021C00120363580460F6EC4860F2EC7004FDFEC7
:10022C00FF22C860DB2481C85009C39860025006C5
:10023C0002039F9850CAF582E9294B4A7005AB829C
:10024C0002038E75F0007C1A7880C3EF9BEE9AED5A
:10025C0099400DC3EF9BFFEE9AFEED99FDE842F03D
:10026C00DC23ACF0D0E0FFD0E0FED0E0FDAB822090
:10027C00E7101BEB60BAEC2CFCEF33FFEE33FEED1A
:10028C0033FD02037AE803F830E705C0F075F0009F
:10029C00EF2FFFEE33FEED33FD40B830E7C280AAFE
:1002AC0074F8CC6480CCC86480C8F58204604FC3F9
:1002BC00EB9FF5F0EA9E42F0E99D42F0E89C45F098
:1002CC00603C501DE5825FFFE582D313CB5BCBF422
:1002DC002B5582FB50280ABA002409B9002008804B
:1002EC001DE5825BFBE582D313CF5FCFF4C3132FE5
:1002FC005582FF50090EBE00050DBD00010CC3EB6D
:10030C009FF5F0EA9E42F0E99D42F0E89C45F060D2
:09031C0007CC4820E701B3EC22F4
:1003250075F020800E75F010800575F0087D007E53
:10033500007F003392D530D5031205A7EC3340106A
:10034500EF33FFEE33FEED33FDEC33FCD5F0ED225C
:0E035500E5F0247EA2D513CC92E7CDCEFF2298
:1005F800E54B2437F8E6054B227834300702783784
:10060800E475F0011205C202054F2000EB7F2ED2DF
:10061800008018EF540F2490D43440D4FF30040BDA
:10062800EF24BFB41A0050032461FFE54C600215A3
:100638004C054FE54F7002054E30070D7834E475D0
:10064800F0011205C2EF0205950200037403D207F8
:100658008003E4C207F54B8B348A358936E4F54CC0
:10066800F54EF54FE54C60077F2012063380F5758F
:100678004DFFC201C200C202C203C205C206C208BF
:10068800120601FF700D3007057F00120644AF4FB8
:10069800AE4E22B4255FC2D5C204120601FF24D093
:1006A800B40A00501A75F00A784C30D50508B6FF20
:1006B8000106C6A426F620D5047002D20380D924E8
:1006C800CFB41A00EF5004C2E5D204020931D201B6
:1006D80080C6D20080C0D20280BCD2D580BAD205F2
:1006E80080B47F201206332002077401B54C004005
:1006F800F11205F8FF12063302066CD208D2068002
:10070800951205F8FB1205F8FA1205F8F94A4B702C
:100718000679287A0A7BFF20022EE54C602A7E00A3
:100728008E8275830012056860060EEE654D70F0C6
:10073800C2D5EBC0E0EAC0E0E9C0E0EE120991D012
:10074800E0F9D0E0FAD0E0FB12054FFF60AAEBC059
:10075800E0EAC0E0E9C0E0120633D0E02401F9D0B5
:10076800E03400FAD0E0FBE54D0460DCD54DD980DB
:1007780087D20280A212097460F7E54D7001041255
:1007880003ADA94D600DE54D600914F54D120A1B26
:10079800EF60F3EA30E702F404C3995077EAF425EE
:1007A8004D0430E701E404F54D800D12097460C171
:1007B800EA054D254D1203ADEA784AF630E701E423
:1007C800254D04D54D0420050114120991E4C0E01B
:1007D800120A1B784AE6601320E70714F612061B74
:1007E800802204F6D0E014C0E07F0012061BE54D1D
:1007F8006007120612154D800B300503120612D041
:10080800E002066CD0E00480C512097460A0E54DD2
:10081800041203AD784AEAF6E54D200502600104AA
:050828002404120991F7
:10082D0074FF04C0E0120A1B12061BE54D200502E1
:10083D006003120612D0E0B54DE87F45120625780B
:10084D004AE67F2B30E7047F2DF404C0E012063317
:10085D00D0E075F00A84C0F012061CD0E012061C20
:10086D0002066C791080027908C206C2088008D28F
:10087D00D5790A8004790AC2D5E54D047002F54D8B
:10088D00E4FAFDFEFF1205F8FC7B082001131205AA
:10089D00F8FD7B1030000A1205F8FE1205F8FF7BFB
:1008AD0020EC3382D592D55013C3E43000069FFF60
:1008BD00E49EFEE42001039DFDE49CFCE4CBF8C224
:1008CD0001EC700CCFCECDCCE824F8F870F3801786
:1008DD00C3EF33FFEE33FEED33FDEC33FCEB33FBB7
:1008ED00994002FB0FD8E9EB300105F8D0E0C44880
:1008FD00B201C0E00AEC4D4E4F78207B0070C2EA89
:10090D00B54D0040BCC0E0120993D0F0D0E02001FD
:10091D0004C4C0E0C4B201C0F012061CD0F0D5F082
:10092D00EB02066C1205D207095308705806DA4C13
:10093D0006D64208744F087C44087C4906EF4308EC
:10094D00825507B346081145077D470A485006DE14
:10095D002D06E22E07052B06E6230703200A312A72
:10096D00069E48000006FDE54DB4FF03754D0612C9
:10097D0005F8FC1205F8FD1205F8FE1205F8FF78D2
:10098D00430203DC790AA2D5200314300509B910FE
:10099D00020404B9080104A2D52006025001042066
:1009AD0002689202B54C005034C0E07F203003192C
:1009BD007F30A20272067205500F1209EAC202C2FE
:1009CD0006C205C2087F30800F300503E9C0E01272
:1009DD000633300503D0E0F9D0E0B54CCC30051727
:1009ED007F30B9100C1206337F583004077F7880A2
:1009FD0003B908031206333002057F2D0206337F3B
:100A0D00202008F87F2B2006F322920280CF7F0052
:100A1D00B4070050052443F8E6FF22286E756C6C70
:100A2D002900D2011205F83001F8C201784C30D5F9
:100A3D000108F602069E2D504349581205F824036D
:100A4D00B405004001E4900A4393120624743A124F
:0A0A5D000624D203754C0402087051
:10036300E9D2E7C933E833F892D5EDD2E7CD33ECE0
:0703730033FC5002B2D52259
:10037A00EC30E7100FBF000C0EBE00080DBD0004E4
:10038A000BEB6014A2D5EB13FCED92E7FD2274FF90
:10039A00FCFDFEFF22E480F8A2D574FF13FC7D80E9
:0303AA00E480EFFD
:1003AD00F920E72824F950037907E4F42402FB1817
:1003BD00DBFDE624FB5014E9600DE4F618E604F6C7
:0F03CD00B40A08E4F6D9F57401F60A22C2D52263
:1003DC00ED33EC3392D5FA602AB4FF33EDC2E77BF0
:1003EC00FF60067A047901E4227A04790A20D504A4
:1003FC007A047905224E614E002B494E46002D4958
:10040C004E4600E47A08F608DAFC7B00740722E812
:10041C00C0E0ECC0E0EDC0E0EEC0E0EFC0E0EA759B
:10042C00F010A4CAABF075F04DA42BFBE435F0FC36
:10043C00EA2410FAEB34C5FBEC34D9FCEDC2E7FF2F
:10044C0075F056A4F42411C5F0F434C58FF0A42A29
:10045C00E5F03BE43CF620E71412050FD0E0FFD0AA
:10046C00E0FED0E0FDD0E0FC12020F8014F4041288
:10047C00050FD0E0FFD0E0FED0E0FDD0E0FC120193
:10048C0006D0E0F8E6FAEDD2E7CD33EC332482FB6C
:10049C00E4C3CF33CFCE33CECD33CD33DBF37B07B9
:1004AC0075F00A846004F6081B0AE5F0F6088FF074
:1004BC00740AA4FFACF08EF0740AA42CFEACF050BD
:1004CC00010C8DF0740AA42CFDE435F0F608DBDE8B
:0304DC0074072280
:1004DF003F8000004120000042C80000447A000025
:1004EF00461C400047C35000497424004B189680A7
:1004FF004CBEBC205A0E1BCA6753C21C749DC5AE9E
:10050F00FB60065407601C232312053DEB54386033
:10051F0009120529120538120106ECF8EDF9EEFA69
:10052F00EFCB22EB12053880F1543803241C9004D2
:10053F00DFFE93FC0EEE93FD0EEE930ECE93FF2295
:1011AB00020A67E493A3F8E493A34003F68001F2E9
:1011BB0008DFF48029E493A3F85407240CC8C33345
:1011CB00C4540F4420C8834004F456800146F6DF14
:1011DB00E4800B0102040810204080901016E47E7E
:1011EB00019360BCA3FF543F30E509541FFEE49309
:1011FB00A360010ECF54C025E060A840B8E493A3D0
:10120B00FAE493A3F8E493A3C8C582C8CAC583CAFA
:10121B00F0A3C8C582C8CAC583CADFE9DEE780BEB2
:0110DD000012
:10054F00BB010689828A83E0225002E722BBFE02AA
:09055F00E32289828A83E49322DD
:10056800BB010CE58229F582E5833AF583E0225048
:1005780006E92582F8E622BBFE06E92582F8E22292
:0D058800E58229F582E5833AF583E49322AC
:10059500BB010689828A83F0225002F722BBFE0145
:0205A500F3223F
:0E05A700C3E49FFFE49EFEE49DFDE49CFC2265
:0D05B500E6FB08E6F908E6FA08E6CBF822B6
:1005C200FAE6FB0808E6F925F0F618E6CA3AF6223A
:1005D200D083D082F8E4937012740193700DA3A3B8
:1005E20093F8740193F5828883E4737402936860CC
:0605F200EFA3A3A380DFCC
:00000001FF
