:100D770071696E6763616900646162616963616972
:100D87000078696775616E007869616E676A696185
:100D97006F007869686F6E67736869006E69756E52
:100DA700616E006A696E6A75007169657A690068C3
:100DB70075617368656E67006E69756E616900B508
:100DC700E7D1B9D6B53A25662C206B65793A256304
:100DD7000A0057453A2530312E33662050523A25BE
:100DE70030342E3166004D4F4E45593A2530362E58
:100DF70032664E6F3A2564002020202020202020D4
:100E0700202020202020202000B2CBC3FB3A2573CE
:100E17002C20B5A5BCDB3A25322E31660A00206EA0
:100E2700616D653A25730070726963653A25322EE4
:100E3700316620202020202000456C656374726F86
:100E47006E6963207363616C65005553455F4D4F51
:100E570044453A204E4F3A25642020005065656C82
:100E670065643A256630312E330020206E616D654A
:100E77003A5065656C656420200076616C3A2532CE
:100E87002E33662020202020200020202057656C4C
:100E9700636F6D65207573652020002020636C618A
:100EA70073733A20623136202020002020206E61A3
:0C0EB7006D653A2058585820202020007B
:10106000604D0019FF0D77400CCCCDFF0D7F403354
:101070003333FF0D88409CCCCDFF0D8F428E999A63
:10108000FF0D9942B06666FF0DA342C60000FF0D3A
:10109000AA41980000FF0DA341B00000FF0DB0422F
:1010A000040000FF0DB6425C0000FF0DBF42B0001F
:1010B0000012080000000000000000400CCCCD0031
:1010C00000000000005900000000000000000000C7
:1010D0000000000000000000000000000000000010
:0110E000000F
:0D13FD00007F027E677D93DDFEDEFCDFFADF
:01140A0022BF
:100A5A00E4F52EF52FF5301212E51213B51213DC58
:100A6A001214528F2E121438AB0FAA0EA90DA80C0D
:100A7A001200118F0B8E0A8D098C087534FF75359B
:100A8A000D7536C68F3A8E398D388C37852E3B7B5D
:100A9A00017A0079001206477B017A007900121365
:100AAA00C9C3E52F9404748094804003020BAA758D
:100ABA0034FF75350D7536D9850B3A850A3985099E
:100ACA003885083785133E85123D85113C85103BD4
:100ADA007B017A0079001206477B017A0079007F50
:100AEA0080121383AF13AE12AD11AC10AB0BAA0A6E
:100AFA00A909A8081201068F178E168D158C147570
:100B0A0034FF75350D7536ED8F3A8E398D388C3741
:100B1A00AF18EF3395E0F53B8F3C7B017A00790003
:100B2A001206477B017A0079007FC0121383E52EF3
:100B3A0024D024F6503A24FD600D24FA600E24F0E5
:100B4A00705E752F018024752F02801F752F037424
:100B5A0010252FF52F7BFF7A0D79FF7F80121383E3
:100B6A007BFF7A0D79FF7FC012138312144E8030F7
:100B7A00E52F6401701E7410252FF52F7BFF7A0D67
:100B8A0079FF7F801213837BFF7A0D79FF7FC01272
:100B9A001383800CE52F640270067410252FF52F3D
:100BAA00E52F20E403020D71F5305330EFE52EB442
:100BBA005306E4F52F12144EE53024FE7003020C9E
:100BCA00B7147003020D0924026003020D71E52EA9
:100BDA0064537003020D71E52EF47003020D7175F2
:100BEA00F007E52EA424CCF582E5F034FEF583E087
:100BFA00FCA3E0FDA3E0FEA3E0F5138E128D118C99
:100C0A0010E52E24D0F5187534FF75350E7536109B
:100C1A0075F007E52EA424C9F582E5F034FEF583C4
:100C2A00E0FBA3E0FAA3E08B378A38F53985133D58
:100C3A008E3C8D3B8C3A7B017A0079001206477B09
:100C4A00017A0079001213C97534FF75350E7536AD
:100C5A002575F007E52EA424C9F582E5F034FEF5E2
:100C6A0083E0FBA3E0FAA3E08B378A38F5397B01EE
:100C7A007A0079001206477B017A0079007F801298
:100C8A0013837534FF75350E75362E85133A851222
:100C9A00398511388510377B017A007900120647A9
:100CAA007B017A0079007FC0121383804DE52EC341
:100CBA0094305003020D71E52ED394394003020D8E
:100CCA00717BFF7A0E79407F801213837534FF752A
:100CDA00350E753651E52E24D0F538E434FFF53754
:100CEA007B017A0079001206477B017A0079007F3E
:100CFA00C0121383E52E24D0F51912144E8068E52C
:100D0A002E645360621214388F0F8E0E8D0D8C0C68
:100D1A007534FF75350E7536638F3A8E398D388C7A
:100D2A00377B017A0079001206477B017A00790045
:100D3A001213C97BFF7A0E79717F8012138375347F
:100D4A00FF75350E753681850F3A850E39850D3852
:100D5A00850C377B017A0079001206477B017A00FD
:0D0D6A0079007FC01213831213FD020A6A84
:1012E5001213657BFF7A0E79917F801213837BFF42
:1012F5007A0E79407FC01213831213FD1213FD7B02
:10130500FF7A0E79A27F801213837BFF7A0E79B262
:0B1315007FC01213831213FD0213FDB2
:1013ED0037343153383532303936333D2E524C4344
:0310E1000150FFBC
:08142F007F097EF4DEFEDFFC04
:011437002292
:101191007D0179017CFF43900F1DEDC394047480A0
:1011A10094805048E9540FF4529012142FE590C4E2
:1011B100540FF4540F24FE601024FE601024FC60D0
:1011C100102407700EE4FC800A7C0180067C0280FA
:1011D100027C03E9540F4290E925E0F9ECF460093F
:1011E100ED25E025E02CFC80030D80AEE5506C6020
:1011F10024ECF46020EC5403FFED25E025E024ED20
:10120100F582E43413F583E5822FF582E43583F525
:0712110083E493F550AF04E4
:0112180022B3
:03145200AF502276
:04144E007550FF22B4
:1013A100E4FEEEC39F500C007D027CC7DCFEDDFC39
:0313B1000E80EFBC
:0113B4002216
:10134600C2A18E8012135FD2A212135FC2A2EEC494
:0913560054F0F58012135FD2A2DD
:05135F00007F14DFFE19
:011364002266
:0C140B00AE07C2A2C2A0121346C2A22269
:0C141700AE07C2A2D2A0121346C2A2224D
:101365007F3212140B7F2812140B7F0C12140B7F83
:0E1375000612140B7F0112140B7F8002140B62
:10138300AD0712054F6016AF0512140B0D12054F72
:0E139300FF121417740129F9E43AFA80E522DA
:0410E400024E0000B8
:0B142300E4FEEEC39F5004000E80F7B3
:01142E00229B
:02128C00AD07AC
:10128E00E4F522F523C2B2C2B5EDC454F0FDE4FB81
:10129E00FA30B403432301ED3392B3D2B27F03127B
:1012AE001423C2B2121423ED25E0FDE52325E0F54B
:1012BE0023E52233F5220BBB00010AEB640C4A70C6
:1012CE00D0D2B5E522C313F522E52313F5238522EB
:0612DE004EF54FAE22FFA9
:0112E40022E7
:05144900AE4EAF4F2282
:080003008F4D121441AF4D2294
:1013DC00439850438920758BFD758DFDD28ED2AF0D
:0113EC0022DE
:081441008F993099FDC2992238
:1013C90012054FFF600C121441740129F9E43AFA2D
:0313D90080EE2281
:021320008D51ED
:10132200E4FDFCC3ED95517480F86C9850151205DC
:101332004FFF121441740129F9E43AFA0DBD00017C
:031342000C80E03C
:011345002285
:0310E800015200B2
:1013B5005389F0438901E4F58A758C4CC28DD28C32
:0413C50043A8822295
:03000B00021219C5
:10121900C0E0C0F0C083C082C0D075D000C000C09B
:0D12290001C002C003C004C005C006C0071C
:10123600758A00758C4CAF520552EF640A702CF516
:1012460052121191E4FF12128CAC06AD07E41203A0
:101256002A7B007AC0794C784412020F8F268E259D
:0B1266008D248C23E51904FF120EC339
:10127100D007D006D005D004D003D002D001D000D1
:0B128100D0D0D082D083D0F0D0E0327B
:1010EB00041B00000000011F014A00660000000005
:0910FB00000000000000011A01D0
:09143800AF1EAE1DAD1CAC1B2261
:100EC300E4F527E51A24FE604824FE607914607A6D
:100ED30024046003020FB3EF24FE6012146017149E
:100EE300601C1460212404701D53A0C7801E53A0EE
:100EF300CF43A008801653A0D743A010800E53A061
:100F0300DF43A018800653A0E743A020051A020F71
:100F1300B3AF26AE25AD24AC23752C01120FB68FCB
:100F23001FE51F24FE600C1460112402701353B0DC
:100F33003F800E53B07F43B040800653B0BF43B0F1
:100F430080751A04806A051A8066751A01E51F24E4
:100F5300FE60181460262402703EAF26AE25AD2431
:100F6300AC23E4FBFA7980783F8020AF26AE25AD31
:100F730024AC23E4FBFA79907840800FAF26AE25AA
:100F8300AD24AC23E4FBFA79C8784112020F8F2613
:100F93008E258D248C238009E4F526F525F524F58B
:100FA3002385261E85251D85241C85231B53B03FC1
:020FB3007F00BD
:010FB5002219
:080FB6008F2B8E2A8D298C2857
:100FBE00E4F52DE52C24FE606414607C24026003AD
:100FCE0002105DE4FFFE7D807C3FAB2BAA2AA9298F
:100FDE00A8281202AC4005752D018073E4FFFE7D3A
:100FEE00807C3FAB2BAA2AA929A8281202AC501745
:100FFE007FCD7ECC7D4C7C3EAB2BAA2AA929A8287E
:10100E001202AC4002802AE4FFFEFDFCAB2BAA2AA2
:10101E00A929A8281202AC60364034802FE4FFFEC6
:10102E007D807C3FAB2BAA2AA929A8281202AC40AE
:10103E0005752D0280198014E4FFFE7DA07C40AB67
:10104E002BAA2AA929A8281202AC5003752D03AF8A
:01105E002D64
:01105F00226E
:03000000021105E5
:0C110500787FE4F6D8FD75815202114C91
:10000E00020398E86480F8E933E83360110460F085
:10001E00ED33EC337009E8FCE9FDEAFEEBFF220458
:10002E0060DED3EB9FEA9EE99DE8C2E78CF0C2F753
:10003E0095F0400CE8CCF8E9CDF9EACEFAEBCFFB1F
:10004E0012036385D0F05804700320D5B3E8047012
:10005E00075002B2D50203A292D5EC0460F7E4CCAD
:10006E00C0E0C398F8603B94186008400DD0E0FBE8
:10007E0002037AE4FBFAC9FC8028E830E406E4C9FE
:10008E00FBE4CAFCE830E305E4C9CACBFCE854073C
:10009E006010F8C3E913F9EA13FAEB13FBEC13FC47
:1000AE00D8F130F52FC3E49CFCEF9BFFEE9AFEEDEA
:1000BE0099FDD0E0FBEF4E4D4C701222DB03020394
:1000CE009FEC2CFCEF33FFEE33FEED33FDED30E70E
:1000DE00EB02037AEF2BFFEE3AFEED39FDD0E0FB9B
:1000EE0050130BBB00030203A2ED13FDEE13FEEF44
:0800FE0013FFEC13FC02037A6E
:10010600EC4D6011E8497017ED33EC3304600DE4F3
:10011600FCFFFEFD22E933E8330470F8020398126F
:10012600036358046009E4CC248150062850090270
:1001360003A228400302039FC0E0EB4A7044B98043
:1001460006D0E0FB02038EEF4E701CBD8008EBFF6D
:10015600EAFEE9FD80EBE98DF0A4FEE5F00201EF91
:10016600E9CDF9EAFEEBFFEF89F0A4FCE5F0CE89D4
:10017600F0A42EFFE435F0CD89F0A42DFEE435F091
:100186008067EF4E7005BD80D780C3EF8BF0A4ACBF
:10019600F0EE8BF0A42CFCE435F0F8EF8AF0A42CFA
:1001A600E5F038FCE433CB8DF0A42CFCE5F03BF80D
:1001B600EE8AF0A42CFCE5F038F8E433CF89F0A4FD
:1001C6002CFCE5F038CF3400CE89F0A42FFFE5F003
:1001D6003EFEE433C98DF0A42EFEE5F039CD8AF05B
:1001E600A42FFFE5F03EFEE43DFD33D0E0FB5007D3
:1001F6000BBB000F0203A2EC2CFCEF33FFEE33FE29
:06020600ED33FD02037A56
:10020C000203A2EC5D046005E85904700302039834
:10021C00120363580460F6EC4860F2EC7004FDFEC7
:10022C00FF22C860DB2481C85009C39860025006C5
:10023C0002039F9850CAF582E9294B4A7005AB829C
:10024C0002038E75F0007C1A7880C3EF9BEE9AED5A
:10025C0099400DC3EF9BFFEE9AFEED99FDE842F03D
:10026C00DC23ACF0D0E0FFD0E0FED0E0FDAB822090
:10027C00E7101BEB60BAEC2CFCEF33FFEE33FEED1A
:10028C0033FD02037AE803F830E705C0F075F0009F
:10029C00EF2FFFEE33FEED33FD40B830E7C280AAFE
:1002AC0074F8CC6480CCC86480C8F58204604FC3F9
:1002BC00EB9FF5F0EA9E42F0E99D42F0E89C45F098
:1002CC00603C501DE5825FFFE582D313CB5BCBF422
:1002DC002B5582FB50280ABA002409B9002008804B
:1002EC001DE5825BFBE582D313CF5FCFF4C3132FE5
:1002FC005582FF50090EBE00050DBD00010CC3EB6D
:10030C009FF5F0EA9E42F0E99D42F0E89C45F060D2
:09031C0007CC4820E701B3EC22F4
:1003250075F020800E75F010800575F0087D007E53
:10033500007F003392D530D5031205A7EC3340106A
:10034500EF33FFEE33FEED33FDEC33FCD5F0ED225C
:0E035500E5F0247EA2D513CC92E7CDCEFF2298
:1005EB00E5482434F8E605482278313007027834A0
:1005FB00E475F0011205B502054F2000EB7F2ED2FA
:10060B00008018EF540F2490D43440D4FF30040BE7
:10061B00EF24BFB41A0050032461FFE549600215B3
:10062B0049054CE54C7002054B30070D7831E475EC
:10063B00F0011205B5EF0205950200037403D20712
:10064B008003E4C207F5488B318A328933E4F549DC
:10065B00F54BF54CE54960077F2012062680F575B2
:10066B004AFFC201C200C202C203C205C206C208CF
:10067B001205F4FF700D3007057F00120637AF4CE3
:10068B00AE4B22B4255FC2D5C2041205F4FF24D0B1
:10069B00B40A00501A75F00A784930D50508B6FF30
:1006AB000106C6A426F620D5047002D20380D924F5
:1006BB00CFB41A00EF5004C2E5D204020924D201D0
:1006CB0080C6D20080C0D20280BCD2D580BAD205FF
:1006DB0080B47F201206262002077401B549004022
:1006EB00F11205EBFF12062602065FD208D2068036
:1006FB00951205EBFB1205EBFA1205EBF94A4B7061
:10070B0006791B7A0A7BFF20022EE549602A7E00C0
:10071B008E8275830012056860060EEE654A70F0D6
:10072B00C2D5EBC0E0EAC0E0E9C0E0EE120984D02C
:10073B00E0F9D0E0FAD0E0FB12054FFF60AAEBC066
:10074B00E0EAC0E0E9C0E0120626D0E02401F9D0CF
:10075B00E03400FAD0E0FBE54A0460DCD54AD980EE
:10076B0087D20280A212096760F7E54A7001041272
:10077B0003ADA94A600DE54A600914F54A120A0E49
:10078B00EF60F3EA30E702F404C3995077EAF425FB
:10079B004A0430E701E404F54A800D12096760C191
:1007AB00EA054A254A1203ADEA7847F630E701E439
:1007BB00254A04D54A0420050114120984E4C0E03B
:1007CB00120A0E7847E6601320E70714F612060E9E
:1007DB00802204F6D0E014C0E07F0012060EE54A3A
:1007EB006007120605154A800B300503120605D06B
:1007FB00E002065FD0E00480C512096760A0E54AFD
:10080B00041203AD7847EAF6E54A200502600104BD
:05081B00240412098411
:1008200074FF04C0E0120A0E12060EE54A2005020B
:100830006003120605D0E0B54AE87F451206187835
:1008400047E67F2B30E7047F2DF404C0E012062634
:10085000D0E075F00A84C0F012060FD0E012060F47
:1008600002065F791080027908C206C2088008D2A9
:10087000D5790A8004790AC2D5E54A047002F54A9E
:10088000E4FAFDFEFF1205EBFC7B082001131205C4
:10089000EBFD7B1030000A1205EBFE1205EBFF7B2F
:1008A00020EC3382D592D55013C3E43000069FFF6D
:1008B000E49EFEE42001039DFDE49CFCE4CBF8C231
:1008C00001EC700CCFCECDCCE824F8F870F3801793
:1008D000C3EF33FFEE33FEED33FDEC33FCEB33FBC4
:1008E000994002FB0FD8E9EB300105F8D0E0C4488D
:1008F000B201C0E00AEC4D4E4F78207B0070C2EA96
:10090000B54A0040BCC0E0120986D0F0D0E020011A
:1009100004C4C0E0C4B201C0F012060FD0F0D5F09C
:10092000EB02065F1205C506FC5308635806CD4C62
:1009300006C94208674F086F44086F4906E243083A
:10094000755507A6460804450770470A3B5006D16F
:100950002D06D52E06F82B06D92306F6200A242AC2
:10096000069148000006F0E54AB4FF03754A0612F6
:1009700005EBFC1205EBFD1205EBFE1205EBFF7813
:10098000400203DC790AA2D5200314300509B9100E
:10099000020404B9080104A2D52006025001042073
:1009A00002689202B549005034C0E07F203003193C
:1009B0007F30A20272067205500F1209DDC202C218
:1009C00006C205C2087F30800F300503E9C0E0127F
:1009D0000626300503D0E0F9D0E0B549CC30051744
:1009E0007F30B9100C1206267F583004077F7880BC
:1009F00003B908031206263002057F2D0206267F62
:100A0000202008F87F2B2006F322920280CF7F005F
:100A1000B4070050052440F8E6FF22286E756C6C80
:100A20002900D2011205EB3001F8C201784930D516
:100A30000108F60206912D504349581205EB240394
:100A4000B405004001E4900A3693120617743A1276
:0A0A50000617D2037549040208637B
:10036300E9D2E7C933E833F892D5EDD2E7CD33ECE0
:0703730033FC5002B2D52259
:10037A00EC30E7100FBF000C0EBE00080DBD0004E4
:10038A000BEB6014A2D5EB13FCED92E7FD2274FF90
:10039A00FCFDFEFF22E480F8A2D574FF13FC7D80E9
:0303AA00E480EFFD
:1003AD00F920E72824F950037907E4F42402FB1817
:1003BD00DBFDE624FB5014E9600DE4F618E604F6C7
:0F03CD00B40A08E4F6D9F57401F60A22C2D52263
:1003DC00ED33EC3392D5FA602AB4FF33EDC2E77BF0
:1003EC00FF60067A047901E4227A04790A20D504A4
:1003FC007A047905224E614E002B494E46002D4958
:10040C004E4600E47A08F608DAFC7B00740722E812
:10041C00C0E0ECC0E0EDC0E0EEC0E0EFC0E0EA759B
:10042C00F010A4CAABF075F04DA42BFBE435F0FC36
:10043C00EA2410FAEB34C5FBEC34D9FCEDC2E7FF2F
:10044C0075F056A4F42411C5F0F434C58FF0A42A29
:10045C00E5F03BE43CF620E71412050FD0E0FFD0AA
:10046C00E0FED0E0FDD0E0FC12020F8014F4041288
:10047C00050FD0E0FFD0E0FED0E0FDD0E0FC120193
:10048C0006D0E0F8E6FAEDD2E7CD33EC332482FB6C
:10049C00E4C3CF33CFCE33CECD33CD33DBF37B07B9
:1004AC0075F00A846004F6081B0AE5F0F6088FF074
:1004BC00740AA4FFACF08EF0740AA42CFEACF050BD
:1004CC00010C8DF0740AA42CFDE435F0F608DBDE8B
:0304DC0074072280
:1004DF003F8000004120000042C80000447A000025
:1004EF00461C400047C35000497424004B189680A7
:1004FF004CBEBC205A0E1BCA6753C21C749DC5AE9E
:10050F00FB60065407601C232312053DEB54386033
:10051F0009120529120538120106ECF8EDF9EEFA69
:10052F00EFCB22EB12053880F1543803241C9004D2
:10053F00DFFE93FC0EEE93FD0EEE930ECE93FF2295
:10111100020A5AE493A3F8E493A34003F68001F290
:1011210008DFF48029E493A3F85407240CC8C333DF
:10113100C4540F4420C8834004F456800146F6DFAE
:10114100E4800B0102040810204080901060E47ECE
:10115100019360BCA3FF543F30E509541FFEE493A3
:10116100A360010ECF54C025E060A840B8E493A36A
:10117100FAE493A3F8E493A3C8C582C8CAC583CA95
:10118100F0A3C8C582C8CAC583CADFE9DEE780BE4D
:0111040000EA
:10054F00BB010689828A83E0225002E722BBFE02AA
:09055F00E32289828A83E49322DD
:10056800BB010CE58229F582E5833AF583E0225048
:1005780006E92582F8E622BBFE06E92582F8E22292
:0D058800E58229F582E5833AF583E49322AC
:10059500BB010689828A83F0225002F722BBFE0145
:0205A500F3223F
:0E05A700C3E49FFFE49EFEE49DFDE49CFC2265
:1005B500FAE6FB0808E6F925F0F618E6CA3AF62247
:1005C500D083D082F8E4937012740193700DA3A3C5
:1005D50093F8740193F5828883E4737402936860D9
:0605E500EFA3A3A380DFD9
:00000001FF
