:100CE50071696E6763616900646162616963616905
:100CF5000078696775616E007869616E676A696118
:100D05006F007869686F6E67736869006E69756EE4
:100D1500616E006A696E6A75007169657A69006855
:100D250075617368656E67006E69756E616900B59A
:100D3500E7D1B9D6B53A25662C206B65793A256396
:100D45000A0057453A2530312E33662050523A2550
:100D550030322E3166004D4F4E45593A2530362EEC
:100D650032664E6F3A256400202020202020202066
:100D7500202020202020202000B2CBC3FB3A257361
:100D85002C20B5A5BCDB3A25322E31660A00206E33
:100D9500616D653A25730070726963653A25322E77
:100DA5003166202020202020005065656C65643A5E
:100DB500256630312E330020206E616D653A506511
:100DC500656C656420200076616C3A25322E3366A9
:100DD5002020202020200020202057656C636F6D87
:100DE5006520757365202000456C656374726F6EB0
:100DF5006963207363616C65002020636C617373A4
:100E05003A20623136202020002020206E616D6559
:100E15003A20585858202020200057453A302E3087
:100E250030302050523A30302E30004D4F4E45591B
:0C0E35003A3030302E30204E6F3A300042
:100FDE00604D0000FF0CE5400CCCCDFF0CED403316
:100FEE003333FF0CF6409CCCCDFF0CFD428E999A0C
:100FFE00FF0D0742B06666FF0D1142C60000FF0DE1
:10100E001841980000FF0D1141B00000FF0D1E4267
:10101E00040000FF0D24425C0000FF0D2D42B000C5
:10102E000011080000000000000000400CCCCD00B4
:10103E000000000059004D000000000000000000FC
:10104E000000000000000000000000000000000092
:031394001213979A
:0D139700007F027E677D93DDFEDEFCDFFA45
:0113A4002226
:100A6600E4F52EF52F12126012136D1213A512144F
:100A7600058F2E1213F3AB0FAA0EA90DA80C1200A8
:100A8600118F0B8E0A8D098C087533FF75340D7521
:100A960035348F398E388D378C36852E3A7B017AF0
:100AA60000794D1206537B017A00794D121381E5C8
:100AB6002EB44312E52F700E1213F38F0F8E0E8D88
:100AC6000D8C0C121401E52F64027003020B8D7558
:100AD60033FF75340D753547850B39850A38850919
:100AE6003785083685133D85123C85113B85103ABE
:100AF6007B017A00794D1206537B017A00794D7F8E
:100B06008012133BAF13AE12AD11AC10AB0BAA0A99
:100B1600A909A8081201068F178E168D158C147553
:100B260033FF75340D75355B8F398E388D378C36BE
:100B3600AF18EF3395E0F53A8F3B7B017A00794D9C
:100B46001206537B017A00794D7FC012133BE52EC6
:100B560024D024F6501224F7600E24F07029052FB5
:100B6600532F01121401801FE52F64017019752F90
:100B7600027BFF7A0D796D7F8012133B7BFF7A0D26
:100B8600796D7FC012133BE52F64026003020CDF10
:100B9600E52EB45309E4F52F121401020CDFE52EFD
:100BA60064437003020C84AF2EEF3395E0FE90FE93
:100BB600B375F007EF1205B5EE75F007A42583F5BA
:100BC60083E0FCA3E0FDA3E0FEA3E0F5138E128D07
:100BD600118C10E52E24D0F5187533FF75340D757C
:100BE600357EEF3395E0FE90FEB075F007EF120507
:100BF600B5EE75F007A42583F583E0FBA3E0FAA321
:100C0600E08B368A37F53885133C85123B8D3A8C56
:100C1600397B017A00794D1206537B017A00794DB2
:100C26001213817533FF75340D753593AF2EEF337F
:100C360095E0FE90FEB075F007EF1205B5EE75F083
:100C460007A42583F583E0FBA3E0FAA3E08B368AAD
:100C560037F5387B017A00794D1206537B017A000D
:100C6600794D7F8012133B7533FF75340D75359CB6
:100C760085133985123885113785103680477533C7
:100C8600FF75340D7535AE850F39850E38850D37F0
:100C9600850C367B017A00794D1206537B017A006A
:100CA600794D1213817BFF7A0D79BC7F8012133B3D
:100CB6007533FF75340D7535CC850F39850E38853E
:100CC6000D37850C367B017A00794D1206537B0170
:0F0CD6007A00794D7FC012133B121397020A74F4
:1012600012131D7BFF7A0D79DC7F8012133B7BFF0D
:101270007A0D79ED7FC012133B1213947BFF7A0D28
:1012800079FE7F8012133B7BFF7A0E790E7FC012AE
:10129000133B1213941213971213977BFF7A0E7954
:1012A0001F7F8012133B7BFF7A0E79307FC00213C1
:0112B0003B02
:1013B60037343153383532303936333D2E524C437B
:03105E00011FFF70
:0813EA007F097EF4DEFEDFFC4A
:0113F20022D8
:10110E007D0179017CFF43900F1DEDC39404748023
:10111E0094805048E9540FF452901213EAE590C4AB
:10112E00540FF4540F24FE601024FE601024FC6053
:10113E00102407700EE4FC800A7C0180067C02807D
:10114E00027C03E9540F4290E925E0F9ECF46009C2
:10115E00ED25E025E02CFC80030D80AEE51F6C60D4
:10116E0024ECF46020EC5403FFED25E025E024B6DA
:10117E00F582E43413F583E5822FF582E43583F5A9
:07118E0083E493F51FAF0499
:011195002237
:03140500AF1F22F4
:04140100751FFF2232
:10135900E4FEEEC39F500C007D027CC7DCFEDDFC81
:031369000E80EF04
:01136C00225E
:1012FE00C2A18E80121317D2A2121317C2A2EEC46D
:09130E0054F0F580121317D2A26D
:05131700007F14DFFE61
:01131C0022AE
:0C13C600AE07C2A2C2A01212FEC2A222F8
:0C13D200AE07C2A2D2A01212FEC2A222DC
:10131D007F321213C67F281213C67F0C1213C67F9D
:0E132D00061213C67F011213C67F800213C67C
:10133B00AD0712054F6016AF051213C60D12054F00
:0E134B00FF1213D2740129F9E43AFA80E52268
:04106100024C00003D
:0B13DE00E4FEEEC39F5004000E80F7F9
:0113E90022E1
:02120700AD0731
:10120900E4F522F523C2B2C2B5EDC454F0FDE4FB06
:10121900FA30B403432301ED3392B3D2B27F031200
:1012290013DEC2B21213DEED25E0FDE52325E0F55C
:1012390023E52233F5220BBB00010AEB640C4A704B
:10124900D0D2B5E522C313F522E52313F523852270
:061259004CF54DAE22FF32
:01125F00226C
:0513FC00AE4CAF4D22D4
:1013A500439850438920758BFD758DFDD28ED2AF44
:0113B5002215
:080003008F993099FDC299228A
:1013810012054FFF600C120003740129F9E43AFAC7
:0313910080EE22C9
:0212D8008D4E39
:1012DA00E4FDFCC3ED954E7480F86C985015120528
:1012EA004FFF120003740129F9E43AFA0DBD000117
:0312FA000C80E085
:0112FD0022CE
:03106500014F0038
:10136D005389F0438901E4F58A758C4CC28DD28C7A
:04137D0043A88222DD
:03000B0002119649
:10119600C0E0C0F0C083C082C0D075D000C000C01F
:0D11A60001C002C003C004C005C006C007A0
:1011B300758A00758C4CAF4F054FEF640A702AF5A2
:1011C3004F12110EE4FF121207AC06AD07E412032F
:1011D3002A7B007AC0794C784412020F8F268E2521
:0911E3008D248C237F01120E41C2
:1011EC00D007D006D005D004D003D002D001D00057
:0B11FC00D0D0D082D083D0F0D0E03201
:10106800041A00000000011E014A0066000000008A
:0910780000000000000001190154
:0913F300AF1DAE1CAD1BAC1A22AB
:100E4100E4F527E51924FE604824FE607914607AF0
:100E510024046003020F31EF24FE601214601714A2
:100E6100601C1460212404701D53A0C7801E53A070
:100E7100CF43A008801653A0D743A010800E53A0E3
:100E8100DF43A018800653A0E743A0200519020FF5
:100E910031AF26AE25AD24AC23752C01120F348F52
:100EA1001EE51E24FE600C1460112402701353B061
:100EB1003F800E53B07F43B040800653B0BF43B074
:100EC10080751904806A05198066751901E51E246B
:100ED100FE60181460262402703EAF26AE25AD24B4
:100EE100AC23E4FBFA7980783F8020AF26AE25ADB4
:100EF10024AC23E4FBFA79907840800FAF26AE252D
:100F0100AD24AC23E4FBFA79C8784112020F8F2695
:100F11008E258D248C238009E4F526F525F524F50D
:100F21002385261D85251C85241B85231A53B03F47
:020F31007F003F
:010F3300229B
:080F34008F2B8E2A8D298C28D9
:100F3C00E4F52DE52C24FE606414607C240260032F
:100F4C00020FDBE4FFFE7D807C3FAB2BAA2AA92994
:100F5C00A8281202AC4005752D018073E4FFFE7DBC
:100F6C00807C3FAB2BAA2AA929A8281202AC5017C7
:100F7C007FCD7ECC7D4C7C3EAB2BAA2AA929A82800
:100F8C001202AC4002802AE4FFFEFDFCAB2BAA2A25
:100F9C00A929A8281202AC60364034802FE4FFFE49
:100FAC007D807C3FAB2BAA2AA929A8281202AC4031
:100FBC0005752D0280198014E4FFFE7DA07C40ABEA
:100FCC002BAA2AA929A8281202AC5003752D03AF0D
:010FDC002DE7
:010FDD0022F1
:0300000002108269
:0C108200787FE4F6D8FD75814F0210C99C
:10000E00020398E86480F8E933E83360110460F085
:10001E00ED33EC337009E8FCE9FDEAFEEBFF220458
:10002E0060DED3EB9FEA9EE99DE8C2E78CF0C2F753
:10003E0095F0400CE8CCF8E9CDF9EACEFAEBCFFB1F
:10004E0012036385D0F05804700320D5B3E8047012
:10005E00075002B2D50203A292D5EC0460F7E4CCAD
:10006E00C0E0C398F8603B94186008400DD0E0FBE8
:10007E0002037AE4FBFAC9FC8028E830E406E4C9FE
:10008E00FBE4CAFCE830E305E4C9CACBFCE854073C
:10009E006010F8C3E913F9EA13FAEB13FBEC13FC47
:1000AE00D8F130F52FC3E49CFCEF9BFFEE9AFEEDEA
:1000BE0099FDD0E0FBEF4E4D4C701222DB03020394
:1000CE009FEC2CFCEF33FFEE33FEED33FDED30E70E
:1000DE00EB02037AEF2BFFEE3AFEED39FDD0E0FB9B
:1000EE0050130BBB00030203A2ED13FDEE13FEEF44
:0800FE0013FFEC13FC02037A6E
:10010600EC4D6011E8497017ED33EC3304600DE4F3
:10011600FCFFFEFD22E933E8330470F8020398126F
:10012600036358046009E4CC248150062850090270
:1001360003A228400302039FC0E0EB4A7044B98043
:1001460006D0E0FB02038EEF4E701CBD8008EBFF6D
:10015600EAFEE9FD80EBE98DF0A4FEE5F00201EF91
:10016600E9CDF9EAFEEBFFEF89F0A4FCE5F0CE89D4
:10017600F0A42EFFE435F0CD89F0A42DFEE435F091
:100186008067EF4E7005BD80D780C3EF8BF0A4ACBF
:10019600F0EE8BF0A42CFCE435F0F8EF8AF0A42CFA
:1001A600E5F038FCE433CB8DF0A42CFCE5F03BF80D
:1001B600EE8AF0A42CFCE5F038F8E433CF89F0A4FD
:1001C6002CFCE5F038CF3400CE89F0A42FFFE5F003
:1001D6003EFEE433C98DF0A42EFEE5F039CD8AF05B
:1001E600A42FFFE5F03EFEE43DFD33D0E0FB5007D3
:1001F6000BBB000F0203A2EC2CFCEF33FFEE33FE29
:06020600ED33FD02037A56
:10020C000203A2EC5D046005E85904700302039834
:10021C00120363580460F6EC4860F2EC7004FDFEC7
:10022C00FF22C860DB2481C85009C39860025006C5
:10023C0002039F9850CAF582E9294B4A7005AB829C
:10024C0002038E75F0007C1A7880C3EF9BEE9AED5A
:10025C0099400DC3EF9BFFEE9AFEED99FDE842F03D
:10026C00DC23ACF0D0E0FFD0E0FED0E0FDAB822090
:10027C00E7101BEB60BAEC2CFCEF33FFEE33FEED1A
:10028C0033FD02037AE803F830E705C0F075F0009F
:10029C00EF2FFFEE33FEED33FD40B830E7C280AAFE
:1002AC0074F8CC6480CCC86480C8F58204604FC3F9
:1002BC00EB9FF5F0EA9E42F0E99D42F0E89C45F098
:1002CC00603C501DE5825FFFE582D313CB5BCBF422
:1002DC002B5582FB50280ABA002409B9002008804B
:1002EC001DE5825BFBE582D313CF5FCFF4C3132FE5
:1002FC005582FF50090EBE00050DBD00010CC3EB6D
:10030C009FF5F0EA9E42F0E99D42F0E89C45F060D2
:09031C0007CC4820E701B3EC22F4
:1003250075F020800E75F010800575F0087D007E53
:10033500007F003392D530D5031205A7EC3340106A
:10034500EF33FFEE33FEED33FDEC33FCD5F0ED225C
:0E035500E5F0247EA2D513CC92E7CDCEFF2298
:1005F700E5472433F8E60547227830300702783399
:10060700E475F0011205C102054F2000EB7F2ED2E1
:10061700008018EF540F2490D43440D4FF30040BDB
:10062700EF24BFB41A0050032461FFE548600215A8
:1006370048054BE54B7002054A30070D7830E475E5
:10064700F0011205C1EF0205950212B17403D2073A
:100657008003E4C207F5478B308A318932E4F548D5
:10066700F54AF54BE54860077F2012063280F5759D
:1006770049FFC201C200C202C203C205C206C208C4
:10068700120600FF700D3007057F00120643AF4BBF
:10069700AE4A22B4255FC2D5C204120600FF24D099
:1006A700B40A00501A75F00A784830D50508B6FF25
:1006B7000106C6A426F620D5047002D20380D924E9
:1006C700CFB41A00EF5004C2E5D204020930D201B8
:1006D70080C6D20080C0D20280BCD2D580BAD205F3
:1006E70080B47F201206322002077401B54800400B
:1006F700F11205F7FF12063202066BD208D2068006
:10070700951205F7FB1205F7FA1205F7F94A4B7030
:100717000679277A0A7BFF20022EE548602A7E00A9
:100727008E8275830012056860060EEE654970F0CB
:10073700C2D5EBC0E0EAC0E0E9C0E0EE120990D014
:10074700E0F9D0E0FAD0E0FB12054FFF60AAEBC05A
:10075700E0EAC0E0E9C0E0120632D0E02401F9D0B7
:10076700E03400FAD0E0FBE5490460DCD549D980E4
:1007770087D20280A212097360F7E549700104125B
:1007870003ADA949600DE549600914F549120A1A34
:10079700EF60F3EA30E702F404C3995077EAF425EF
:1007A700490430E701E404F549800D12097360C17B
:1007B700EA054925491203ADEA7846F630E701E430
:1007C700254904D5490420050114120990E4C0E025
:1007D700120A1A7846E6601320E70714F612061A7B
:1007E700802204F6D0E014C0E07F0012061AE54923
:1007F70060071206111549800B300503120611D048
:10080700E002066BD0E00480C512097360A0E549D9
:10081700041203AD7846EAF6E549200502600104B3
:050827002404120990F9
:10082C0074FF04C0E0120A1A12061AE549200502E8
:10083C006003120611D0E0B549E87F451206247812
:10084C0046E67F2B30E7047F2DF404C0E01206321D
:10085C00D0E075F00A84C0F012061BD0E012061B23
:10086C0002066B791080027908C206C2088008D291
:10087C00D5790A8004790AC2D5E549047002F54994
:10088C00E4FAFDFEFF1205F7FC7B082001131205AC
:10089C00F7FD7B1030000A1205F7FE1205F7FF7BFF
:1008AC0020EC3382D592D55013C3E43000069FFF61
:1008BC00E49EFEE42001039DFDE49CFCE4CBF8C225
:1008CC0001EC700CCFCECDCCE824F8F870F3801787
:1008DC00C3EF33FFEE33FEED33FDEC33FCEB33FBB8
:1008EC00994002FB0FD8E9EB300105F8D0E0C44881
:1008FC00B201C0E00AEC4D4E4F78207B0070C2EA8A
:10090C00B5490040BCC0E0120992D0F0D0E0200103
:10091C0004C4C0E0C4B201C0F012061BD0F0D5F084
:10092C00EB02066B1205D1070853086F5806D94C19
:10093C0006D54208734F087B44087B4906EE4308F2
:10094C00815507B246081045077C470A475006DD1B
:10095C002D06E12E07042B06E5230702200A302A78
:10096C00069D48000006FCE549B4FF0375490612D4
:10097C0005F7FC1205F7FD1205F7FE1205F7FF78D7
:10098C003F0203DC790AA2D5200314300509B91003
:10099C00020404B9080104A2D52006025001042067
:1009AC0002689202B548005034C0E07F2030031931
:1009BC007F30A20272067205500F1209E9C202C200
:1009CC0006C205C2087F30800F300503E9C0E01273
:1009DC000632300503D0E0F9D0E0B548CC3005172D
:1009EC007F30B9100C1206327F583004077F7880A4
:1009FC0003B908031206323002057F2D0206327F3E
:100A0C00202008F87F2B2006F322920280CF7F0053
:100A1C00B407005005243FF8E6FF22286E756C6C75
:100A2C002900D2011205F73001F8C201784830D5FF
:100A3C000108F602069D2D504349581205F7240370
:100A4C00B405004001E4900A4293120623743A1252
:0A0A5C000623D20375480402086F58
:10036300E9D2E7C933E833F892D5EDD2E7CD33ECE0
:0703730033FC5002B2D52259
:10037A00EC30E7100FBF000C0EBE00080DBD0004E4
:10038A000BEB6014A2D5EB13FCED92E7FD2274FF90
:10039A00FCFDFEFF22E480F8A2D574FF13FC7D80E9
:0303AA00E480EFFD
:1003AD00F920E72824F950037907E4F42402FB1817
:1003BD00DBFDE624FB5014E9600DE4F618E604F6C7
:0F03CD00B40A08E4F6D9F57401F60A22C2D52263
:1003DC00ED33EC3392D5FA602AB4FF33EDC2E77BF0
:1003EC00FF60067A047901E4227A04790A20D504A4
:1003FC007A047905224E614E002B494E46002D4958
:10040C004E4600E47A08F608DAFC7B00740722E812
:10041C00C0E0ECC0E0EDC0E0EEC0E0EFC0E0EA759B
:10042C00F010A4CAABF075F04DA42BFBE435F0FC36
:10043C00EA2410FAEB34C5FBEC34D9FCEDC2E7FF2F
:10044C0075F056A4F42411C5F0F434C58FF0A42A29
:10045C00E5F03BE43CF620E71412050FD0E0FFD0AA
:10046C00E0FED0E0FDD0E0FC12020F8014F4041288
:10047C00050FD0E0FFD0E0FED0E0FDD0E0FC120193
:10048C0006D0E0F8E6FAEDD2E7CD33EC332482FB6C
:10049C00E4C3CF33CFCE33CECD33CD33DBF37B07B9
:1004AC0075F00A846004F6081B0AE5F0F6088FF074
:1004BC00740AA4FFACF08EF0740AA42CFEACF050BD
:1004CC00010C8DF0740AA42CFDE435F0F608DBDE8B
:0304DC0074072280
:1004DF003F8000004120000042C80000447A000025
:1004EF00461C400047C35000497424004B189680A7
:1004FF004CBEBC205A0E1BCA6753C21C749DC5AE9E
:10050F00FB60065407601C232312053DEB54386033
:10051F0009120529120538120106ECF8EDF9EEFA69
:10052F00EFCB22EB12053880F1543803241C9004D2
:10053F00DFFE93FC0EEE93FD0EEE930ECE93FF2295
:10108E00020A66E493A3F8E493A34003F68001F208
:10109E0008DFF48029E493A3F85407240CC8C33363
:1010AE00C4540F4420C8834004F456800146F6DF32
:1010BE00E4800B0102040810204080900FDEE47ED5
:1010CE00019360BCA3FF543F30E509541FFEE49327
:1010DE00A360010ECF54C025E060A840B8E493A3EE
:1010EE00FAE493A3F8E493A3C8C582C8CAC583CA19
:1010FE00F0A3C8C582C8CAC583CADFE9DEE780BED1
:01108100006E
:10054F00BB010689828A83E0225002E722BBFE02AA
:09055F00E32289828A83E49322DD
:10056800BB010CE58229F582E5833AF583E0225048
:1005780006E92582F8E622BBFE06E92582F8E22292
:0D058800E58229F582E5833AF583E49322AC
:10059500BB010689828A83F0225002F722BBFE0145
:0205A500F3223F
:0E05A700C3E49FFFE49EFEE49DFDE49CFC2265
:0C05B500A42582F582E5F03583F5832251
:1005C100FAE6FB0808E6F925F0F618E6CA3AF6223B
:1005D100D083D082F8E4937012740193700DA3A3B9
:1005E10093F8740193F5828883E4737402936860CD
:0605F100EFA3A3A380DFCD
:1012B100EFB40A07740D1212BC740A309811A89980
:1012C100B8130CC2983098FDA899C298B811F6309D
:0712D10099FDC299F5992275
:00000001FF
