:1012DD002A2A2A2A2A2A2A2A2A2A2A2A2A2A2A2A61
:0B12ED00003136303231313230320037
:07124C000149000247000008
:0D135700007F087E017DF3DDFEDEFCDFFA85
:011364002266
:100D3D00E4F516F517D2B7D2B61212967BFF7A12DA
:100D4D0079DDE4FDFF1211BF7BFF7A007937751D48
:100D5D0008E4FD7F021210CB7BFF7A017937751DF8
:100D6D0008E4FD7F041210CB7BFF7A1279DDE4FDE0
:100D7D007F061211BF1213571213571212BA7BFFAF
:100D8D007A027937751D05E4FDFF1210CB7BFF7AD2
:100D9D000279D7751D03E4FD7F021210CB7BFF7A1C
:100DAD001279EE7D067F021211BF7BFF7A03793730
:100DBD00751D08E4FD7F041210CB7BFF7A05793792
:100DCD00751D05E4FD7F061210CB12133812131199
:100DDD00E549640170FAC2ACF549F516F51774478B
:100DED002517F8E6F5993099FDC2990517E51770A5
:100DFD000205166402451670E5E547B44F0DE5484A
:100E0D00B44B087BFF7A04793780067BFF7A037930
:100E1D0037751D08E4FD7F041210CBE547B44F1163
:100E2D00E548B44B0CE53564017006C2B7C2B68017
:100E3D000EE547B44E09E548B44F04D2B7D2B6D249
:030E4D00AC808DE9
:10125300032F0000000332000000013501012E00BE
:10133800438901E4F58A758CDCD2A9D2AFD28C221C
:03000B00020EDC06
:100EDC00C0E0C0F0C083C082C0D075D000C000C0DC
:0D0EEC0001C002C003C004C005C006C0075D
:100EF900E4FFF508F509F58A758CDC052E12122038
:100F0900E52E64327021EF6535601C8F35E5357B40
:100F1900FF60067A05799780047A0579D7751D02ED
:0F0F29007D037F061210CBE52E64327002F52E89
:100F3800D007D006D005D004D003D002D001D0000D
:0B0F4800D0D0D082D083D0F0D0E032B7
:03126300014A003D
:10131100438920758DFD758BFDD28EC29FD29ED2E1
:061321009CD2AFD2AC2209
:0300230002108741
:0B108700C0E0C0D075D000C000C00762
:10109200AF99E54A146018047021EF644F6003BFF2
:1010A2004E0B7447254AF8A607054A8011800C7436
:1010B20047254AF8A6077549018000754A00C2987B
:0910C200D007D000D0D0D0E032FC
:0B1266000142010243000102450001AB
:081380007F097EF4DEFEDFFCB4
:011388002242
:1012200020A714E5444543700EE54645456008E4B3
:10123000F545F54663420130A70675450075460140
:0B124000A2A7E433754300F544AF4261
:01124B002280
:1000260020202020202020202020202020202020CA
:10003600000000101010F85050505050FC141818C2
:1000460010004444645C5F4D7F4D4D4D5F746426E3
:100056002480809090909090F09090909898C08096
:1000660000000000002020607F000000000000006B
:1000760000000000F0A4A8B8A0E0B0ACA0F000001A
:10008600000008080F0A0A0A0A7F0A0A0A0F080C63
:1000960008000000F88880808080FC8080C0800096
:1000A600000040201F02020202027F000000000042
:1000B60000002020A0F8A0302000F01010F800006A
:1000C60000000806037F004320300F00007F4078C1
:1000D600000000E0605848E0000000E0784840E09A
:1000E6000000003F1212123F000003062420603F6A
:1000F6000000808090909090F0F09090909098D032
:10010600800000404020100C0701007F40404078EE
:10011600600000C0B098C860A040F8485040A000F9
:10012600000020241615144A2222131D3925477073
:10013600400080C0B018C84040202020E020303069
:100146002000202C2E251414202020203F20203093
:1001560020000080703C2020F02000FC8080800081
:1001660000404221211608070100007F000003031A
:10017600000000F8109078102020E4382020B020ED
:100186000000007F0008194E2018070161613F0139
:10019600000040C8D8209048309CF0F0907038108D
:1001A600004040437F44447E45457C44457F42624F
:1001B6004000404040FC4040F88888A8A8F88000ED
:1001C60000000444447F02017F20231C18372020AE
:1001D600000090F0FCD0F850F850203CD0D0B01879
:1001E600100102037F5F5F5F5F5F5F5F5E7E0303F9
:1001F60000000010109090D0B8B898C84848080081
:100206000000402024141E46457D040C12163400BE
:10021600000080E0B888605020A0E478A0A03030CC
:10022600000024341714544A331E02027E414378D8
:1002360040004040F878C0C000C07050F8404060B0
:100246004000404629180F10232222223F22233243
:1002560020000000804020589C109050301810005C
:100266000000100908087C222323222222227E0273
:100276000000000080800000000000000000000078
:10028600000000001119000000000000000000003E
:100296000000020202020202FE0202020202020042
:1002A60000000000000040807F0000000000000009
:1002B60000829292FE92928200829292FE929282A4
:1002C6000008080814141216995232140408080873
:1002D600004030119690909196909098141350305B
:1002E60000040404040444847E060504040404048F
:1002F60000808080BEA2A2A2A2A2A2A2BE8080800E
:100306000000000006050404044484443C00000088
:1003160000000000000000000000000000000000D7
:10032600000000363600000000000000000000005B
:100336000012EAAFAAEA0FFA02888C5724548C847A
:10034600000202EAAAAAABAAABAAAAAAAAEA0202CF
:100356000080A0908E888888FF888888888880801A
:1003660000000000FC44444444444444FC000000B3
:100376000000000000000000000000000000000077
:1003860000000036360000000000000000000000FB
:1003960000808080808080808080808080808080D7
:1003A6000000000000000000000000000000000047
:1003B60000404040FF2020200404FC040404FC000C
:1003C600000000001F0884422018074080403F00BC
:1003D6000080908C848484F58684848484948C80C4
:1003E600000080808446492810102C23408000009D
:1003F6000080804020504844C344485020408080BC
:1004060000004040444444447F4444444440400047
:1004160000000000FE0000000000000000000000D8
:100426000000000033000000000000000000000093
:100436000012EAAFAAEA0FFA02888C5724548C8479
:10044600000202EAAAAAABAAABAAAAAAAAEA0202CE
:100456000080A0908E888888FF8888888888808019
:1004660000000000FC44444444444444FC000000B2
:100476000000000000000000000000000000000076
:1004860000000036360000000000000000000000FA
:100496000004040484E43C2724242424E4040404FF
:1004A6000004020100FF0909090949897F000000CB
:1004B60000000000000000C03FC000000000000077
:1004C60000804020100C03000000030C1020408028
:1004D6000008080CEBAAAAAAAFAAAAAAEA08080862
:1004E6000000222A2A2AFF000000FF2A2A2A2200C8
:1004F60000404042CC000000FC242424E2232220B9
:10050600000040201F20504C434040405F40404088
:1005160000000000FE0000000000000000000000D7
:100526000000000033000000000000000000000092
:1005360000004040FC404010D07C50507C50F058A9
:1005460010100C037F0102884F4D3D1D1D2D6F4C71
:1005560008000040404040C04040FC4448586060AD
:1005660040006121213F11110100030C1020607031
:100576004000000080800000000000000000000035
:10058600000000001119000000000000000000003B
:100596000000202020A0E0F0BCE0A0A0A0E0B0B0C9
:1005A60000000402011F0000007F0008101F1F004A
:1005B600000000F8109078102020E4382020B020A9
:1005C6000000007F0008194E2018070161613F01F5
:1005D60000004040FC40E0A4E8A8E0A0607CC8E041
:1005E600400004447F00007F2A4A7F231C3867406E
:1005F600400000F8109078102020E4382020B02029
:100606000000007F0008194E2018070161613F01B4
:1006160000000000000000000000000000000000D4
:1006260000000000F8000000000000003300000099
:100636000000100C02100C02000000000000000078
:10064600000040C07840C0780000043F04043F0426
:100656000000708888FC08300000182020FF211E4A
:1006660000F008F0806018000000310C031E211E07
:100676000000F00888700000001E21232C19272195
:100686001000120E00000000000000000000000034
:1006960000000000E01804020000000007182040D7
:1006A6000000020418E000000000402018070000C7
:1006B60000404080F0804040000202010F0102022B
:1006C6000000000000E0000000000101010F010130
:1006D6000100000000000000000090700000000013
:1006E60000000000000000000000010101010101FE
:1006F6000000000000000000000030300000000094
:100706000000000000C03804000060180700000068
:100716000000E010080810E000000F102020100F65
:100726000000001010F8000000000020203F2020EC
:1007360000007008080808F0000030282422213044
:100746000000300808088870000018202121221CAB
:10075600000000804030F8000000060524243F24F5
:100766002400F88888880808000019202020110E27
:100776000000E0108888900000000F112020201F44
:100786000000180808886818000000003E010000F4
:10079600000070880808887000001C222121221C95
:1007A6000000F008080810E0000001122222110FD4
:1007B60000000000C0C00000000000003030000053
:1007C600000000008000000000000000E0000000C3
:1007D60000000080402010080000010204081020DC
:1007E6000000404040404040000002020202020277
:1007F60000000810204080000000201008040201BC
:1008060000007048080888700000000030370000BB
:1008160000C030C828E810E000071827282F28173E
:10082600000000C038E0000000203C230202273808
:100836002008F8888888700000203F202020110EAC
:1008460000C03008080808380007182020201008C3
:100856000008F808080810E000203F202020100FAC
:100866000008F88888E8081000203F202023201878
:100876000008F88888E8081000203F2000030000E0
:1008860000C03008080838000007182020221E0281
:100896000008F808000008F808203F210101213F60
:1008A60020000808F8080800000020203F2020004B
:1008B6000000000808F8080800C08080807F00005B
:1008C6000008F888C028180800203F200126382094
:1008D6000008F8080000000000203F2020202030FB
:1008E6000008F8F800F8F80800203F013E013F2014
:1008F6000008F830C00008F808203F200007183F1D
:1009060000E01008080810E0000F10202020100F4B
:100916000008F808080808F000203F21010101003E
:1009260000E01008080810E0000F10282830504F8B
:100936000008F8888888887000203F2000030C3063
:100946002000708808080838000038202121221C61
:1009560000180808F8080818000000203F200000CA
:100966000008F808000008F808001F202020201FB3
:10097600000878880000C83808000007380E010013
:100986000008F800F800F8080000033E013E0300E6
:1009960000081868808068180820302C03032C3063
:1009A600200838C800C83808000000203F20000092
:1009B6000010080808C8380800203826212020180A
:1009C60000000000FE020202000000007F404040DE
:1009D60000000438C000000000000000010638C016
:1009E6000000020202FE000000004040407F0000BE
:1009F60000000004020204000000000000000000E5
:100A06000000000000000000008080808080808060
:100A16008000020204000000000000000000000048
:100A260000000080808000000000192424123F206E
:100A36000010F0008080000000003F112020110E01
:100A4600000000008080800000000E112020201190
:100A560000000080808090F000001F202020103FC2
:100A6600200000808080800000001F24242424179A
:100A760000008080E0909020000020203F20200091
:100A8600000000808080808000006B9494949360C6
:100A96000010F0008080800000203F210000203FF1
:100AA6002000809898000000000020203F202000B1
:100AB60000000000809898000000C08080807F00C1
:100AC6000010F0000080808000203F24062930209E
:100AD60000001010F8000000000020203F20200039
:100AE600008080808080808000203F20003F2000A2
:100AF6003F8080008080800000203F210000203F52
:100B0600200000808080800000001F202020201F01
:100B160000808000808000000080FF912020110E60
:100B2600000000008080008000000E11202091FF50
:100B360080808080008080800020203F212000016E
:100B46000000008080808080000033242424241943
:100B560000008080E0808000000000001F20201040
:100B6600008080000000808000001F202020103FB1
:100B760020808080008080800000030C300C030001
:100B8600008080008080008080010E300C073806CF
:100B96000100808080008080000020310E2E3120F0
:100BA60000808080000080808000818678180601A1
:100BB6000000808080808080000021302C2221303F
:100BC600000000000000FC020200000000013E40A0
:100BD6004000000000FF00000000000000FF0000D1
:100BE600000202FC000000000040403E0100000040
:100BF60000000201020204020000000000000000E2
:010C060000ED
:0D137300D2A6C2A4D2A57580FF3087FD224E
:06132700C2B27F027E004D
:0B132D00EF1FAC0670011E4C70F62292
:06000E0014F9120C07FFBB
:0E001400121373D2A6D2A4C2A58F80C2A62258
:0E136500121373D2A6C2A5C2A48F80C2A62204
:10127200EF14600E14601424027018121327D2B3F4
:10128200800ED2B2121329C2B38005121327C2B341
:0412920012132922E8
:1011EC00121272E4F518C3E51894087480948050B8
:1011FC0022AF18121389E4FF121392E4FEEEC3948B
:10120C0040748094805008E4FF1200140E80EE05A8
:03121C001880D364
:01121F0022AC
:091389005307074307B80213657E
:0913920053073F430740021365B5
:09139B0053073F4307C00213652C
:0F134800EF640170047F3F80027F3E1213652225
:1012BA007BFF7A007926E4FDFF1211BF7F0212112B
:1012CA00B77F041211B77BFF7A007926E4FD7F0607
:0312DA000211BF3F
:1012F800C2A3121329D2A3121329C2D3121329C2CB
:09130800D41213297F01021348DD
:101296001212F87F30121365E4FF1213487F021210
:1012A60011ECE4FF121389FF121392FF12139B7FB6
:0412B60001021348D6
:0A0F53008F1F8D208B218A22892335
:100F5D00C3E5209440748094805004E4FF80027FA8
:100F6D0001121272AF1F121389AF20121392E4FEF9
:100F7D00EEC39410748094805012AB210523E523A9
:100F8D00AA227002052212000E0E80E4E51F04FF56
:100F9D00121389AF20121392E4FEEEC394107480E5
:100FAD0094805012AB210523E523AA22700205225D
:060FBD0012000E0E80E49C
:010FC300220B
:0A102C008F1F8B208A218922AE0558
:10103600121389AF06121392E4FDEDC3940874806F
:1010460094805012AB200522E522AA2170020521C8
:1010560012000E0D80E4E51F04FF121389AF06127D
:101066001392E4FDEDC39408748094805012AB2073
:101076000522E522AA217002052112000E0D80E448
:011086002247
:0A10CB008F188D198B1A8A1B891CDF
:1010D500E4F51EE519C454F0F519AF1E051EE51D0E
:1010E500D39F4020AB1AAA1BA91CAD19AF18120F2C
:1010F500537420251CF51CE4351BF51B74102519AC
:04110500F51980D682
:0111090022C3
:10110A008F1D8D1EE51E75F008A4C39440E5F0649A
:10111A008094805004E4FF80027F0112127274E00E
:10112A002B75F010A42417F9740635F0FA7BFFE545
:0B113A001E75F008A4FDAF1D02102C74
:041145008F368D371D
:10114900E4753B01F53AF539F538AF371537EF60F6
:101159001BAB3BAA3AA939A838AF36E4FCFDFE120D
:101169000C208F3B8E3A8D398C3880DEAF3BAE3AFE
:04117900AD39AC38A8
:01117D00224F
:040FC4008F248D25C4
:100FC800E4F52DF52BE52BC3952A5057C3E52A9553
:100FD8002B14FD7F0A121145A804A905AA06AB0720
:100FE800AF29AE28AD27AC26120CABE47B0AFAF980
:100FF800F8120CABAF038F2CE52D7015E52A14FF02
:10100800E52BC39F500BE52C70047B208008752DC1
:1010180001E52C2430FBAD25AF2412110A05250566
:031028002B80A278
:01102B0022A2
:0811B7007BFF7A007926E4FDBC
:1011BF008F188D198B1A8A1B891CAB1AAA1BA91C95
:1011CF00120C07FB6016AD19AF1812110A0519742E
:0D11DF0001251CF51CE4351BF51B80DE22EC
:10117E008F3C8D3D8B3E8A3F8940AF411541D3EF69
:10118E009400748094804020AB3EAA3FA940120C7C
:10119E0007FBAD3DAF3C12110A053D74012540F52C
:0911AE0040E4353FF53F80D222F8
:03000000020E509D
:0C0E5000787FE4F6D8FD75814A020E9709
:100E5C00020D3DE493A3F8E493A34003F68001F262
:100E6C0008DFF48029E493A3F85407240CC8C33397
:100E7C00C4540F4420C8834004F456800146F6DF66
:100E8C00E4800B010204081020408090124CE47E98
:100E9C00019360BCA3FF543F30E509541FFEE4935B
:100EAC00A360010ECF54C025E060A840B8E493A322
:100EBC00FAE493A3F8E493A3C8C582C8CAC583CA4D
:100ECC00F0A3C8C582C8CAC583CADFE9DEE780BE05
:01127100007C
:100C0700BB010689828A83E0225002E722BBFE02EB
:090C1700E32289828A83E493221E
:100C2000E88FF0A4CC8BF0A42CFCE98EF0A42CFC73
:100C30008AF0EDA42CFCEA8EF0A4CDA8F08BF0A4F1
:100C40002DCC3825F0FDE98FF0A42CCD35F0FCEB50
:100C50008EF0A4FEA9F0EB8FF0A4CFC5F02ECD3915
:0F0C6000FEE43CFCEAA42DCE35F0FDE43CFC2282
:100C6F0075F008758200EF2FFFEE33FECD33CDCC3C
:100C7F0033CCC58233C5829BED9AEC99E5829840BF
:100C8F000CF582EE9BFEED9AFDEC99FC0FD5F0D69C
:100C9F00E4CEFBE4CDFAE4CCF9A88222B800C1B9C6
:100CAF000059BA002DEC8BF084CFCECDFCE5F0CB04
:100CBF00F97818EF2FFFEE33FEED33FDEC33FCEB3D
:100CCF0033FB10D703994004EB99FB0FD8E5E4F9F8
:100CDF00FA227818EF2FFFEE33FEED33FDEC33FCE5
:100CEF00C933C910D7059BE99A4007EC9BFCE99AD9
:100CFF00F90FD8E0E4C9FAE4CCFB2275F010EF2F1E
:100D0F00FFEE33FEED33FDCC33CCC833C810D7071D
:100D1F009BEC9AE899400AED9BFDEC9AFCE899F858
:0E0D2F000FD5F0DAE4CDFBE4CCFAE4C8F922EB
:00000001FF
