:020000040800F2
:10000000680F002011020008590F00083508000889
:10001000550F000847080008731900080000000089
:10002000000000000000000000000000491400086B
:1000300031090008000000000714000861150008DD
:100040002B0200082B0200082B0200082B020008DC
:100050002B0200082B0200082B0200082B020008CC
:100060002B0200082B0200082B0200082B020008BC
:100070002B0200082B0200082B0200082B020008AC
:100080002B0200082B0200082B0200082B0200089C
:100090002B0200082B0200082B0200082B0200088C
:1000A0002B0200082B0200082B0200082B0200087C
:1000B0002B020008CD150008FD1600082B020008D1
:1000C0002B0200082B0200082B0200082B0200085C
:1000D0002B0200088D1800082B0200082B020008D4
:1000E0002B0200082B0200082B0200082B0200083C
:1000F0002B0200082B0200082B0200082B0200082C
:100100002B0200082B0200082B0200082B0200081B
:100110002B0200082B0200082B0200082B0200080B
:100120002B0200082B0200082B0200082B020008FB
:100130002B0200082B0200082B0200082B020008EB
:100140002B0200082B0200082B0200082B020008DB
:100150002B0200082B0200082B0200082B020008CB
:100160002B0200082B0200082B0200082B020008BB
:100170002B0200082B0200082B0200082B020008AB
:100180002B0200082B020008DFF80CD000F0E4FA84
:10019000004800479D270008680F00200246D2E86B
:1001A0004F0F411CC2E8431F03B1F8E770470246F6
:1001B00052E8000F411C42E8001303B1F8E7704712
:1001C000024652E8000F42E8001303B1F9E7704716
:1001D000024652E8000F830103D3BFF32F8F0020A4
:1001E000704700F00040084342E8000303B1F0E725
:1001F0007047024652E8000F800103D2BFF32F8FF1
:100200000020704742E8001303B1F3E70120704774
:100210000648804706480047FEE7FEE7FEE7FEE7A0
:10022000FEE7FEE7FEE7FEE7FEE7FEE765150008EE
:100230008901000840EA01039B0703D009E008C9CF
:10024000121F08C0042AFAD203E011F8013B00F89B
:10025000013B521EF9D27047D2B201E000F8012BE7
:10026000491EFBD270470022F6E710B513460A4636
:1002700004461946FFF7F0FF204610BD2DE9F04D6A
:1002800081EA030404F0004B21F0004514464FF0CE
:10029000000A23F0004150EA050220D054EA01028E
:1002A0001DD0C5F30A570246C5F31303C1F313006B
:1002B000C1F30A5640F4801543F48013A7EB0608F7
:1002C000101BD64608F2FD3873EB050002D308F187
:1002D000010801E092185B41B8F1000F03DA002039
:1002E0000146BDE8F08D00204FF48011064684469B
:1002F0000EE0171B73EB050705D3121B63EB050319
:1003000006434CEA010C49084FEA300092185B4161
:1003100050EA0107EDD152EA030012D082EA04004C
:1003200083EA0501084305D0101BAB4106D2012228
:10033000002306E000224FF0004302E06FF00102CC
:1003400053101AEB06004CEB085110EB0A0041EB7E
:100350000B01BDE8F04D00F058B80EB5C10F80EAB2
:10036000E0700844CA07002140F233438DE80E00D4
:100370000A460B4600F058F803B000BD30B50B46F6
:10038000014600202022012409E021FA02F59D42C5
:1003900005D303FA02F5491B04FA02F52844151E99
:1003A000A2F10102F1DC30BD2DE9F05F054600202D
:1003B00092469B4688460646814640241BE02846D6
:1003C00041464746224600F0E8F953465A46C01ACD
:1003D000914110D311461846224600F0CFF92D1A4C
:1003E00067EB01084F4622460120002100F0C6F9C4
:1003F00017EB00094E41201EA4F10104DFDC484642
:1004000031462A464346BDE8F09F10B5141E73F1ED
:10041000000408DA401C41F1000192185B411A43C4
:1004200001D120F0010010BD2DE9F04D92469B4610
:1004300011B1B1FA81F202E0B0FA80F220329046B6
:1004400000F09CF904460F4640EA0A0041EA0B011D
:1004500053465A46084313D0114653EA010019D0B7
:10046000C8F14002504600F098F905460E46504645
:100470005946424600F082F9084305D0012004E0C5
:1004800020463946BDE8F08D0020054346EAE07677
:100490002C4337430A986305E40AA0EB08000022C6
:1004A000FD0A44EA47540A3002D500200146E9E734
:1004B000010510196941DDE9084500196941BDE8E8
:1004C000F04DA2E72DE9FE4F804681EA0300C00F00
:1004D0000C46009021F0004123F00045B8EB0200EB
:1004E000A94105D24046214690461C460B4602468D
:1004F00023F00040104347D0270DC7F30A00C3F391
:100500000A510290401A019040286BDAC3F313009D
:1005100040F4801B0098924620B10023D2EB030ADE
:1005200063EB0B0B01985946C0F14002504600F0B6
:1005300025F906460D4650465946019A00F03DF908
:1005400010EB08006141002487EA115284EAE77346
:100550001A4340D0009A62B3019A012A4FEA075227
:1005600015DC001B61EB02014FF0004202EA07526A
:10057000CDE90042001C41F5801132462B46FFF7C1
:1005800053FF03B0BDE8F08F40462146F9E7001B5A
:1005900061EB0201001C41F5801300185B4120183B
:1005A000A2F5001747EB030140EAD570B6196D417B
:1005B00011E06D084FEA360645EAC0754FEA07526A
:1005C000001B61EB0201001C41F5801149084FEA54
:1005D00030000019514132462B4603B0BDE8F04FC0
:1005E000FFF713BF0098012240000023D0EB020266
:1005F00063EBE073009821464FEAE074B8EB00002B
:1006000061EB0401E9E783F000435BE781F000411F
:1006100058E72DE9FE4F81EA030404F0004421F07D
:10062000004100944FF0000B23F0004350EA010416
:100630005ED052EA03045BD0C3F30A54C1F30A55F7
:100640002C44A4F2F3340194A0FB0254C1F313012F
:1006500041F48011C3F3130343F4801301FB0244FC
:1006600000FB034E840A970A44EA815447EA835701
:10067000A4FB076802958D0A05FB07854FEA932CBA
:1006800004FB0C542705029D4FEA065847EA16372B
:10069000B5EB08056EEB070C870E920E47EA811743
:1006A00042EA8312A7FB0201B6EB0B0164EB0004E4
:1006B0002B0D43EA0C335E1844EB1C50DA465146CE
:1006C000E7FB0201C5F313044FEA0B3343EA14536B
:1006D0004FEA0432019C43EA0603A4F10C0402949D
:1006E000009CCDE900B4FFF79FFE03B0BDE8F08F9A
:1006F00000200146F9E7C1F30A52C1F3130140F2A9
:10070000FF3341F480119A4202DA0020014670471B
:1007100040F233439A42A2F2334202DC524200F0EA
:100720003CB800F02BB8000030B5041E71F1000495
:1007300004DB4FF00044404264EB0101141E73F1EE
:10074000000405DB1C464FF00043524263EB0403F8
:10075000994208BF904230BD064C074D06E0E06864
:1007600040F0010394E8070098471034AC42F6D3F8
:10077000FFF70EFDC45A0008E45A0008202A04DBE3
:10078000203A00FA02F1002070479140C2F12003A4
:1007900020FA03F3194390407047202A04DB203AE3
:1007A00021FA02F00021704721FA02F3D040C2F191
:1007B00020029140084319467047202A06DBCB17D8
:1007C000203A41FA02F043EAE07306E041FA02F30C
:1007D000D040C2F12002914008431946704770B5DD
:1007E0008C1810F8015B15F0070301D110F8013BDC
:1007F0002A1106D110F8012B03E010F8016B01F863
:10080000016B5B1EF9D12B0705D40023521E0DD4BA
:1008100001F8013BFAE710F8013BCB1A921C03E008
:1008200013F8015B01F8015B521EF9D5A142D8D340
:10083000002070BD1EF0040F0CBFEFF30880EFF333
:10084000098000F00FBB00BFFEE710B5044603F0BF
:1008500051FA02F073F92046641C02F093F9204625
:10086000641C02F08FF92046641C02F08BF92046CC
:10087000641C02F087F9204602F084F910BD0000E4
:1008800070B52DED028B0446002501262548FFF7A3
:10089000DCFF2448007823494978084421498978B5
:1008A00008442049C9780844C5B21E480079A842C6
:1008B00035D11C4949781B4A127801EB0220FFF719
:1008C0004CFD41EC180B9FED180B53EC102BFFF770
:1008D000D5FCC4E900011348807800F0800030B1F5
:1008E0001048807820F080000E498870B61E0D49AF
:1008F000C9780C4A927801EB022101FB06F0FFF760
:100900002CFD41EC180B9FED080B53EC102BFFF75F
:10091000B5FCC4E902010020BDEC028B70BDFF20D4
:10092000FAE700001800002000000000000024404A
:10093000704700000146074A12780AB9002008E013
:10094000054AC1F3C623D25CC1F30223DA4002F0A8
:1009500001007047400B0020C00A002070B500BFA6
:100960000C48866900F00CFA054600BF2946094884
:100970001830FFF725FC044600BFB442F0D1A54271
:1009800006D200BF03481030FFF711FC00BF00BFC4
:10099000284670BD400B00202DE9F04104460D466D
:1009A00016462046FFF7C6FF10B90120BDE8F081CA
:1009B000FFF7D4FF0746A4B200BFEFF3058010B1E4
:1009C0004FF4002000E00020044344F04070334620
:1009D0002A46394600F08EF880464046E6E72DE983
:1009E000FC47044688461546B8F1000F01D0802D1B
:1009F00002D90020BDE8FC872046FFF79BFF08B91D
:100A00000120F7E7FFF7AAFF8246A4B200BFEFF389
:100A1000058010B14FF4002000E00020044346465A
:100A200045B900231A465146204600F063F80746B0
:100A30003846DFE7082D16D80020009001902A469E
:100A400031466846FFF7F6FB4FF4E02000EA054028
:100A5000044344F040705146DDE9002300F04AF8B9
:100A600007463846C6E700F0F5F94FF4E02101EA01
:100A7000004930680090706801900836083D44EAEB
:100A8000090444F080705146DDE9002300F032F89B
:100A900007460FB90020ADE74FF6017049EA0004A0
:100AA00010E030680090706801900836083D5146AB
:100AB0002046DDE9002300F01DF80746641C0FB94D
:100AC000002097E7082DECD80020009001902A46DE
:100AD00031466846FFF7AEFB24F47F4444EA052420
:100AE00044F000705146DDE9002300F003F80746AA
:100AF00038467FE72DE9FF4F81B0884691469A46F8
:100B00004FF0070B51E000BF2E48FFF750FB0646A1
:100B100006F03F002C4901EB0014B0094FF47001BE
:100B200001EA00510091DDE9001008434FF08051C7
:100B300001EAD80108434FF0005101EA9901084346
:100B40004FF0804101EA5A01084340F040652946D0
:100B500004F10C00FFF73CFB054605F0806010B384
:100B600085F0806585F0004505F0004728F00040DD
:100B70003843206029F00040384360602AF000408C
:100B80003843A060294604F10C00FFF732FB48B15E
:100B900000BF0C48001DFFF70AFB00BF012005B095
:100BA000BDE8F08F04E0ABF1010BBBF1000FAAD15F
:100BB00000BF00BF03480830FFF7F9FA00BF00206C
:100BC000EDE70000440B0020C0060020F0B506460B
:100BD0000C461546FF2C01D2FF2D01D30020F0BD9D
:100BE000002200231AE0012098403040A0B12146A5
:100BF00010E002EBD1000B4F385C01F0070C01272D
:100C000007FA0CF7384302EBD107DFF818C00CF8ED
:100C10000700491CA942ECD920325B1C042BE2D30B
:100C20000120DCE7C00A00202DE9F05F82468946FA
:100C300000204149087080214048FFF714FB18212B
:100C40003F4801F0F3FC80463B48006A3D4988423A
:100C500008D00846384908620846A0F802800120FA
:100C6000C8610FE034484088404506D03248A0F8BB
:100C7000028001203049C86104E02F48C069401C4F
:100C80002D49C8612C48C06901280BD100202A4990
:100C9000487048608860C8604FF480612A48FFF758
:100CA000E2FA0FE000270BE0274800EB0715E868A1
:100CB00000F0806018B1E86820F04060E8607F1CB8
:100CC000402FF1D31C48C06901280FD100F064F80F
:100CD00004461CB100F05AF8064600E0002616480B
:100CE0004661002014498861086102E000F054F870
:100CF0000446ECB1FE2200215046FFF767FFEF22C9
:100D000011460F20FFF762FFFE2211460420FFF775
:100D10005DFFFFF723FE8346074800235946C2695B
:100D20000A48FFF7E7FEB9F1000F01D000F010F814
:100D30002046BDE8F09F0000400B0020C00A0020C4
:100D4000185A00086B27A5E1C006002000FF000329
:100D500010B50948007808B1012010BD01200649EE
:100D60000870FFF7FBFD044600231A46214603489E
:100D7000FFF7C0FE0120F0E7400B002001FF000359
:100D80000148406870470000001000E0014800681A
:100D900070470000040000200648006840F08070A2
:100DA000044908600448006840F0010002490860F6
:100DB00001207047FCED00E0001000E0F0B50A46AD
:100DC00000210023002400BF3DE0012505FA01F3C6
:100DD000156805EA03049C4234D105684F000326D8
:100DE000BE40B543056015794E00B54006683543F1
:100DF00005601579012D02D01579022D16D185686F
:100E00004F000326BE40B543856055794E00B5407E
:100E1000866835438560456801268E40B543456048
:100E2000456896798E40B6B235434560C5684F0037
:100E30000326BE40B543C560D5794E00B540C668AF
:100E40003543C560491C1029BFD3F0BD41837047AD
:100E50000183704710B50248FFF7A0F910BD0000EC
:100E6000410B00202949096801F0004149B1274997
:100E7000096841F00041254A11608169891C81613E
:100E80007047224908390968214A11621F49091F20
:100E9000097882F824101D49C91E097891621B49FE
:100EA0000C310968D1621949891E098811861749D0
:100EB000096851631549091D096891631349103187
:100EC0000968D1630021134A116000BF1149096804
:100ED0000029FBD00E4A01681160416851608168A9
:100EE0009160C168D1600169116141695161816995
:100EF0009161C169D1610021064A116000BF0549B5
:100F000009680029FBD000BFBAE700002CED00E023
:100F10006C060020440000201CB50121084600F0AA
:100F200073FA0420009001208DF8040000208DF851
:100F300006008DF8070003208DF805006946044877
:100F4000FFF73CFF04210248FFF782FF1CBD0000B1
:100F50000000024000BFFEE77047000070B50021AE
:100F600000230F22C4781CB3174C246804F4E064F7
:100F7000C4F5E064C4F30721C1F10404E3B20A41FB
:100F800044789C40E1B28478144021430C07210E40
:100F90000E4C05786155047804F01F050124AC401F
:100FA00005786D11AD0005F1E025C5F8004109E0B7
:100FB000047804F01F050124AC40054D0678761135
:100FC00045F8264070BD00000CED00E000E400E0B4
:100FD00080E100E070B500240CE0002506E0002070
:100FE000074901EBC5010855681CC5B2802DF6DB29
:100FF000601CC4B2082CF0DB00F0D8F870BD000013
:10100000A401002010B580210B48FFF721FF4FF409
:1010100080710948FFF71CFF012001F063FB4FF4CA
:1010200080710548FFF712FF012001F05BFB802172
:101030000148FFF70BFF10BD0000024010B58021F2
:101040000848FFF705FF4FF480710648FFF7FEFEE2
:10105000012001F047FB4FF480710248FFF7F8FED2
:1010600010BD00000000024010B580210548FFF7C8
:10107000EFFE012001F036FB80210248FFF7E6FE7B
:1010800010BD0000000002401CB50121084600F020
:10109000BBF94FF4C070009001208DF804008DF86A
:1010A000060003208DF8050001208DF80700694631
:1010B0003D48FFF783FE4FF4C0713B48FFF7C8FE81
:1010C0004FF47A7001F0F2FA0021AE2000F08FF9AF
:1010D0000021084600F08BF90021102000F087F96C
:1010E0000021402000F083F90021B02000F07FF9BA
:1010F0000021812000F07BF90021FF2000F077F92A
:101100000021A12000F073F90021A62000F06FF962
:101110000021A82000F06BF900213F2000F067F9C2
:101120000021C82000F063F90021D32000F05FF90E
:101130000021084600F05BF90021D52000F057F9A6
:101140000021802000F053F90021D82000F04FF951
:101150000021052000F04BF90021D92000F047F9CB
:101160000021F12000F043F90021DA2000F03FF9DE
:101170000021122000F03BF90021DB2000F037F9BC
:101180000021302000F033F900218D2000F02FF9EC
:101190000021142000F02BF90021AF2000F027F9E6
:1011A000FFF718FF1CBD00000000024070B50024CE
:1011B0001BE004F1B000002100F019F900210846FD
:1011C00000F015F90021102000F011F9002508E0C9
:1011D000074901EBC501085D012100F008F9681C11
:1011E000C5B2802DF4DB601CC4B2082CE1DB70BDFD
:1011F000A401002070B504460D4605F1B0000021A1
:1012000000F0F5F8102141EA1410002100F0EFF889
:1012100004F00F00002100F0EAF870BD2DE9F84F4E
:1012200080460E4691461C464FF0000A00250020DD
:10123000009000278346A9F1200000F0FF0AB8F1D2
:101240007F0F02DDA846B01CC6B2042C02D1DFF825
:10125000D4B015E0082C02D1DFF8CCB010E00C2C93
:1012600002D1DFF8C8B00BE0102C02D1DFF8C0B01B
:1012700006E0182C02D1DFF8BCB001E0BDE8F88F21
:10128000082C05DC31464046FFF7B4FF27461EE038
:101290002046E31704EB5373DB1021464FEAE47C4E
:1012A00004EB5C7C4FEAEC0CA4EBCC0CBCF1000F23
:1012B00002D04FF0010C01E04FF0000C63442246D5
:1012C00004EBD27C4FEA6C0C03FB0CF3DFB200257D
:1012D00024E0082C0DDD04EBD471491095FBF1F2EC
:1012E00001FB125129B93146721CD6B24046FFF7B4
:1012F00081FF0A9828B107FB0A501BF800000090F4
:1013000006E007FB0A501BF80000C043C0B2009083
:101310000121009800F06BF8681CC5B2BD42D8DB13
:1013200000BFABE7643D0008E03E0008D84100087C
:1013300064460008744C00082DE9F84306460F4641
:1013400015461C46DDF8208049E004EBD4714910B5
:10135000C1F18001B14202DA00263819C7B2C4F1E6
:101360004000B84204DA002006460746FFF732FE86
:10137000CDF800802A78234639463046FFF74EFFE5
:10138000082C02DC3019C6B205E0204604EBD0710F
:1013900006EB6101CEB26878A1281FD1A878E628B3
:1013A0001CD123467F2239463046CDF80080FFF716
:1013B00035FF204604EBD07106EB6101CEB2234627
:1013C000802239463046CDF80080FFF727FFAD1C5C
:1013D000204604EBD07106EB6101CEB26D1C28787B
:1013E0007E2802DC28782028AFDABDE8F88370B5C3
:1013F00004460D461DB1E0B200F006FB02E0E0B28B
:1014000000F0ECFA70BD704729B1064A1268024339
:10141000044B1A6004E0034A12688243014B1A60CD
:10142000704700003038024029B1064A1268024372
:10143000044B1A6004E0034A12688243014B1A60AD
:101440007047000040380240704700000CB5002093
:10145000019000903448006840F4803032490860C0
:1014600000BF3148006800F4003000900198401C33
:101470000190009818B90198B0F5A04FF1D12A4811
:10148000006800F4003010B10120009001E000205D
:1014900000900098012846D123484030006840F071
:1014A00080502149403108602048006840F44040A5
:1014B0001E4908601C48083000681B490831086054
:1014C0000846006840F4004008600846006840F4A0
:1014D000A05008601648091F0860081F006840F007
:1014E0008070091F086000BF0F48006800F000709E
:1014F0000028F9D040F205700E4908600A4808300B
:10150000006820F0030008490831086008460068B8
:1015100040F00200086000BF03480830006800F097
:101520000C000828F8D10CBD0038024000700040C3
:1015300008544007003C0240042808D14FF0E02145
:10154000096941F004014FF0E022116107E04FF01A
:10155000E021096921F004014FF0E0221161704798
:101560007047000010B51548006840F4700013493A
:1015700008601348006840F001001149086000202D
:101580000F49083108600E4800680E4908400C49B0
:1015900008600D48091D0860081F006820F48020BD
:1015A000091F0860002006490C310860FFF74EFF54
:1015B0004FF0006001498039086010BD88ED00E0FF
:1015C00000380240FFFFF6FE1030002410B5012164
:1015D000284800F0CDF8012846D12748008828B9CE
:1015E000352226A14FF46F40FFF7D6F92248008834
:1015F000401C2149088008460088B0F5FA7F0DDDBF
:10160000002008803C221DA14EF62070FFF7C4F98F
:101610002048007820F001001E4908701E4800880C
:10162000401C1D49088008460088B0F5FA6F07DDA8
:10163000002008801748007820F002001549087043
:1016400016480088401C1549088008460088B0F5F7
:101650007A7F07DD002008800E48007820F0040023
:101660000C49087000F080FE0121024800F065F886
:1016700010BD000000040040200000202E2E5C421F
:1016800053505C5372635C6273705F74696D657212
:101690002E630000000000201E0000202200002019
:1016A0007FB505460C4601210220FFF7BDFE0295DD
:1016B000ADF804400020ADF80600ADF80C0001A91B
:1016C0000D4800F073F8012211460B4800F061F854
:1016D0000121094800F034F81D208DF80000012098
:1016E0008DF8010003208DF8020001208DF8030021
:1016F0006846FFF733FC7FBD0004004010B50121B0
:101700000A4800F035F801280AD1094908698047DC
:101710000021064800F048F86421044800F042F82F
:101720000121024800F009F810BD00000008004047
:1017300084000020CA4302827047CA430282704775
:1017400021B1028842F00102028004E002884FF6D3
:10175000FE731A40028070470146486A704702468D
:101760000020138A0B400BB1012000E000207047DD
:1017700030B50246002000230024158A05EA010343
:10178000958905EA010413B10CB1012000E00020A5
:1017900030BD1AB183890B43838102E083898B4377
:1017A00083817047C162704741627047002202889E
:1017B000184B98420ED0184B98420BD0B0F1804F86
:1017C00008D0164B984205D0154B984202D0154BC5
:1017D000984204D14FF68F731A404B881A43124B2C
:1017E000984207D0114B984204D04FF6FF431A405D
:1017F0000B891A4302804B68C3620B880385054B33
:10180000984202D0044B984201D18B7A038601237F
:101810008382704700000140000401400004004042
:1018200000080040000C0040001000400014004080
:101830007FB504460D4601210420FFF7F5FDADF804
:1018400000500020ADF802000194ADF80800694690
:101850000D48FFF7ABFF012211460B48FFF799FF38
:1018600001210948FFF76CFF1E208DF80C000320B2
:101870008DF80D008DF80E0001208DF80F0003A8E3
:10188000FFF76CFB7FBD00000008004010B540F280
:1018900025511D4800F03EF810B31B4800F064F8D5
:1018A000C4B21A48008800F40040C8B9174800883C
:1018B00000F4804060B10A2C03D000201349088056
:1018C00020E01248008840F400401049088019E0E8
:1018D0000D2C06D10D48008840F480400B4908804B
:1018E00010E00A480088C0F30D0009490C5407486D
:1018F0000088401C0549088008460088C72801DD8B
:101900000020088010BD00000010014042000020AF
:10191000A405002070B50246002400230025002005
:1019200040F66A16B14200D100BFC1F3421501F082
:101930001F03012606FA03F3012D02D196893340D5
:1019400006E0022D02D1168A334001E0968A334028
:101950000C12012606FA04F41688344013B10CB1B7
:10196000012000E0002070BD01468888C0F3080017
:10197000704700BFFEE700002DE9F04105462C4608
:1019800080211548FFF762FA002620E0274607F07D
:101990008007802F04D179000F48FFF759FA04E03F
:1019A0004FF480710C48FFF751FA6006040E802155
:1019B0000948FFF74DFA012000F094FE8021064807
:1019C000FFF744FA012000F08DFE701CC6B2082E0D
:1019D000DCDBBDE8F08100000000024010B50446E9
:1019E000FFF710FB7820FFF7C7FFFFF73DFB002054
:1019F000FFF7C2FFFFF738FB2046FFF7BDFFFFF7F9
:101A000033FBFFF71BFB10BD10B50446FFF7FAFAD6
:101A10007820FFF7B1FFFFF727FB4020FFF7ACFF6F
:101A2000FFF722FB2046FFF7A7FFFFF71DFBFFF79D
:101A300005FB10BD0FB4054B10B503A9044A02986D
:101A400000F0EEF810BC5DF814FB00007D270008E4
:101A5000840100200FB4084B10B504A902AA039812
:101A600000F0DEF8044602A9002000F070FC2046D9
:101A700010BC5DF814FB00004F23000802E008C80A
:101A8000121F08C1002AFAD170477047002001E0F8
:101A900001C1121F002AFBD1704700002DE9FF5F32
:101AA00082B00021DDE90430020DDDF840B00343CF
:101AB00018D044F61050A2F2FF3242431514119888
:101AC00001281FD0A5EB0B00401C5FEA000A4FF075
:101AD00000064E4FDFF83891B046504615D5CAF192
:101AE000000413E0119801244AA3012801D16FEAF0
:101AF0000B010298119AC0E90031C0E9024206B018
:101B0000BDE8F09FCBF10000DFE704460021404A2A
:101B1000491842EB0450CDE9001012E0E00707D06D
:101B200032463B4640464946FEF773FD80468946AD
:101B300032463B4610461946FEF76BFD06460F46F9
:101B40006410002CEAD1DDE90401DDE90023BAF1DB
:101B5000000F06DAFEF75DFD42464B46FEF759FDE3
:101B600005E0FEF78BFB42464B46FEF787FB04463B
:101B70000E460022284BFEF7D7FD03D84FF0FF306A
:101B8000014607E00022254B20463146FEF79AFC2D
:101B9000FEF7B1FD102409E0002C0ADB0A22002325
:101BA000FEF702FC039B30321A55641E50EA010214
:101BB000F2D1641C039AC4F111031444119A012A4E
:101BC00003D0012208430DD10AE0084304D00020CD
:101BD0004FF0110B119072E7A3EB0B056D1E0DE09A
:101BE0005B4504DD4FF0000205F1010504E003DA76
:101BF0004FF00002A5F10105002AECD002981199DE
:101C0000C0E90231C0E9004579E700000000144056
:101C10000000F03F300000000000F0430000E03F13
:101C20002DE9FF4F95B09B468946064600250FE2F9
:101C3000252877D100242746F84A0121059400E0A1
:101C4000044316F8013F203B01FA03F01042F7D19C
:101C500030782A2811D06FF02F033078A0F13002AD
:101C6000092A16D8059A44F0020402EB820203EB1B
:101C700042021044761C0590EFE759F8042B0592B8
:101C8000002A03DA504244F40054059044F0020460
:101C9000761C30782E2816D116F8010F44F0040473
:101CA0002A280DD06FF02F023078A0F13003092BD5
:101CB00009D807EB870302EB4303C718761CF3E749
:101CC00059F8047B761C30786C280FD006DC4C2841
:101CD00017D068280DD06A2814D104E0742810D0D9
:101CE0007A280FD10DE044F400140AE044F4801483
:101CF00001E044F440147278824202D104F5801469
:101D0000761C761C307866280BD013DC582877D0E8
:101D100009DC002875D04528F6D04628F4D047289D
:101D20001AD19DE118E0632835D0642879D0652860
:101D300012D195E1702873D008DC6728F1D06928AA
:101D40006FD06E280DD06F2806D1B5E073282CD047
:101D5000752875D0782874D05A46179990476D1C0D
:101D600075E1C4F30250022809D003280DD0D9F838
:101D7000001004280DD00D6009F1040967E1D9F8BD
:101D80000010EA17C1E90052F6E7D9F800100D80FB
:101D9000F2E70D70F0E719F8041B8DF80010002031
:101DA0008DF80100EA46012003E059F804AB4FF03A
:101DB000FF3061074FF0000102D40DE008F101018E
:101DC0008846B9420FDA8045F8DB1AF80810002976
:101DD000F4D108E008F1010188468142FADB1AF8E3
:101DE00008100029F6D105985B46A0EB08072146AC
:101DF0003846179A00F094FA284400EB080507E0EB
:101E00004DE029E10DE01AF8010B5A461799904769
:101E1000B8F10108F7D25B4621463846179A13E11C
:101E200042E00A220092C4F302524FF0000A022A52
:101E300008D059F804CB032A4FEAEC710AD00DE020
:101E400029E02AE009F1070121F00702F2E802C1C6
:101E5000914609E00FFA8CFC4FEAEC71042A03D199
:101E60004FFA8CFC4FEAEC71002907DA0A46002190
:101E7000DCF1000C61EB02012D2202E0220504D509
:101E80002B228DF80420012203E0E20701D020225A
:101E9000F7E7904659E00A2102E010220DE01021F8
:101EA0004FF0000A00910BE010224FF0000A44F0BE
:101EB00004040827009203E008224FF0000A009271
:101EC000C4F30252022A05D059F804CB0021032A98
:101ED00008D009E009F1070121F00702F2E802C188
:101EE000914605E01FFA8CFC042A01D10CF0FF0C8E
:101EF0004FF00008220728D5702806D0009B83F0F9
:101F0000100353EA0A0305D00EE040228DF80420A6
:101F1000012208E05CEA010206D030228DF804209C
:101F20008DF8050002229046009B83F0080353EAD7
:101F30000A030AD15CEA010201D1620705D5302209
:101F40008DF804204FF001087F1E582804D034A0DB
:101F500003900EA802900DE036A0F9E753466046C4
:101F6000009AFEF721FA84460398825C0298401E8C
:101F7000029002705CEA0100F0D1029806A9081AEA
:101F800000F1200A600702D524F4803400E0012724
:101F9000574502DDA7EB0A0000E0002000EB0A0134
:101FA000009005984144401A0590E00306D45B4632
:101FB0002146179A059800F0B3F90544002706E07A
:101FC00001A85A46C05D179990476D1C7F1C474574
:101FD000F6DBE0030CD55B462146179A059800F026
:101FE0009FF9054404E030205A46179990476D1C2C
:101FF0000099481E00900029F5DC08E0029802993B
:102000005A460078491C0291179990476D1CBAF105
:102010000001AAF1010AF1DC65E1000009280100D4
:10202000303132333435363738396162636465664E
:102030000000000030313233343536373839414210
:10204000434445460000000000F058F90544761C62
:10205000307800287FF4ECAD19B02846BDE8F08F49
:10206000620700D4062709F1070222F0070CFCE8FA
:102070000223E14603F000485FEA080C02D00FF2A9
:10208000702C0DE05FEA045C02D50FF2682C07E0CB
:102090005FEAC47C02D00FF2602C01E0AFF2700C5A
:1020A0004FF0FF3823F00043CDF850C065280CD026
:1020B00006DC452809D046281DD047283DD13DE003
:1020C000662818D067287ED138E00021112F01DB67
:1020D000112000E0781CCDE9000106A90EA8FFF749
:1020E000DDFCDDE90F010E9A03910021009207F15A
:1020F000010A04914DE04FF000400097CDE9011036
:1021000006A90EA8FFF7CAFCDDE90F0203920E9B99
:1021100011990022DDF80CA00093049211B9791CEA
:1021200000EB010AB7EB0A0004D4C0F1FF3007F15D
:10213000010A0490AAEB0700019044E0012F00DAA5
:1021400001270021112F01DD112000E03846CDE9E3
:10215000000106A90EA8FFF7A1FCDDE90F010E9A08
:102160000391002104910092BA4621070CD40399EF
:10217000514500DA8A46BAF1010F05DD009AAAF14D
:102180000101515C302908D0B84202DA10F1040F85
:1021900006DA0121CDE9011015E0AAF10101E9E714
:1021A000002805DC049901440491AAEB000102E037
:1021B000411C514500DD8A460499401A401C01909B
:1021C0004FF000400290200704D40198504501DBF5
:1021D000CDF8048000208DF84F0002980DF14F07D4
:1021E000B0F1004F25D02B200E9002984FF002083E
:1021F00000280CDA404202902D200E9007E00A21C0
:102200000298FEF7BBF83031029007F8011DB8F1D3
:102210000001A8F10108F2DC02980028EFD1791E34
:102220000E980870307800F0200040F0450007F864
:10223000020D12A8C01B00F107081498007800B125
:10224000012000EB0A01019801EBE071059841447F
:10225000401A401E0590E00306D45B462146179ABB
:10226000059800F05DF805441498007818B15A46B6
:10227000179990476D1CE00324D55B462146179AB9
:10228000059800F04DF805441CE00498002807DB91
:10229000DDE90301884203DD0098405C179901E005
:1022A000179930205A469047049805F10105401CC3
:1022B00004900198401E019004D12E205A4617998F
:1022C00090476D1CBAF10001AAF1010ADDDC05E0BE
:1022D00017F8010B5A46179990476D1CB8F1000189
:1022E000A8F10108F4DC5B462146179A0598ABE695
:1022F0002D0000002B000000200000002DE9F0411F
:10230000044600251E461746880404D405E03946D5
:102310002020B0476D1C641EF9D52846BDE8F08129
:102320002DE9F041044600251E469046C80301D51C
:10233000302700E02027880404D505E041463846D0
:10234000B0476D1C641EF9D52846BDE8F0810A68C7
:10235000531C0B60107070470120024988800020D8
:10236000088170479A01002000B51448808818B38E
:102370001248C088401C1149C8800846C088098896
:10238000884204DD00200D49C88000F01BF80B488E
:1023900040884FF6FF7188420ED008480089401CE3
:1023A00006490881084600894988884204DD0020E2
:1023B000024988800249086000BD00009A0100209F
:1023C000940240420448006808B9012000E000205F
:1023D000014908607047000094024042014A1080A1
:1023E000518070479A0100201CB501210846FFF773
:1023F0000BF82020009001208DF8040000208DF8BB
:1024000006008DF8050001208DF807006946044894
:10241000FEF7D4FC20210248FEF71AFD1CBD000087
:102420000000024010B5A82000F022F900F02CF8BE
:1024300001210F20FEF7F8FBFEF78AFC42F2CF01E4
:102440000920FFF72DF901F06DFCFEF71DFEFFF7E7
:10245000CBFF40F2DC513220FFF7C0FF00F072F8F2
:1024600010BD00000648007806490860044800785E
:1024700008B9012000E00020014908707047000001
:102480001D000020800241421CB501210420FEF7FE
:10249000BBFF012000908DF8040000208DF806009D
:1024A0008DF8050001208DF8070069460848FEF701
:1024B00085FC01210846FEF7A7FF402000906946F1
:1024C0000448FEF77BFC01210148FEF7C1FC1CBD5E
:1024D000000802400000024010B5044621120848DE
:1024E00000F0BCFA0121064800F004FBE1B2044808
:1024F00000F0B4FA0121024800F0FCFA10BD00001F
:102500002400002010B50446074800F0C7FA04F084
:10251000010040F0B001044800F0A0FA0121024897
:1025200000F0E8FA10BD0000240000200448006814
:1025300020F440700249086008460068086070474F
:10254000000002401CB501210846FEF75DFF18207F
:10255000009001208DF8040000208DF80600032073
:102560008DF8050001208DF8070069460448FEF744
:1025700025FC18210248FEF76BFC00F02BF81CBD6F
:10258000000002400548006820F4407003490860DC
:102590000846006840F48070086070470000024000
:1025A00070B506460D4600240EE0094800F02FFAEB
:1025B0003055681EA04201DD012000E000200146E8
:1025C000034800F005FA641CAC42EEDB70BD00006D
:1025D0002400002010B50020FFF794FF42F2030012
:1025E000FFF77AFF014800F072FA10BD24000020C6
:1025F00010B50020FFF786FF42F20800FFF76CFFDE
:10260000084800F064FA642000F050F80120FFF759
:1026100079FF06210448FFF7C3FF024800F057FA8C
:1026200010BD0000240000203800002030B5024614
:102630004FF6FF7018E012F8015B80EA05200823CE
:102640000FE000F400443CB14FF6FF7404EA400090
:1026500041F22104604003E04FF6FF7404EA4000B9
:102660005B1E002BEDD1491E0029E4D130BD0000D6
:1026700010B504466FF00400FEF75EFFE11704EBAF
:102680005171C1F3C701074A11701046007800EB81
:102690004001C1EBC0104FF6FF7101EAC0000249D2
:1026A000088010BD3E0000204000002070B50446A8
:1026B0004FF4077094FBF0F0C6B24FF4077094FB30
:1026C000F0F100FB114085B205E04FF4077000F017
:1026D0002FF8701EC6B2002EF7D115B1284600F0B3
:1026E00027F870BD0146114A12784A434FF0E023A3
:1026F0005A6100229A611A46126942F001021A6177
:1027000000BF4FF0E022106900F001021AB100F49E
:102710008032002AF5D04FF0E022126922F0010247
:102720004FF0E0231A6100229A6170473E000020BA
:102730000146114A12884A434FF0E0235A610022B1
:102740009A611A46126942F001021A6100BF4FF005
:10275000E022106900F001021AB100F48032002A70
:10276000F5D04FF0E022126922F001024FF0E02391
:102770001A6100229A6170474000002070B505463A
:102780000C460548844203D1284600F0F9F870BD94
:102790004FF0FF30FBE700008401002086B0FFF718
:1027A00041FEFFF7D9FD002055490860A6E05548D5
:1027B000007800F0010038B95248007840F001007C
:1027C00050490870FFF74EFE4E48007800F00200B6
:1027D00000287DD14B48007840F00200494908703C
:1027E0004748006808B9012000E00020444908601B
:1027F000FFF7B2FD00214448FEF7A2FFFFF7F8FE05
:1028000042480079414BDB7800EB03223F48407897
:102810003E4B1B7800EB03213DA0FFF70BF93B4833
:1028200000793A49C97800EB01223DA14048FFF701
:1028300011F9002010233E4A04210090FEF77CFD90
:10284000324840783149097800EB012239A13848F3
:10285000FFF700F900201023354A06210090FEF70B
:102860006BFD02A8FEF70CF8002837D19DED040B94
:102870008DED000B9DED021BB0EE410AF0EE610AFA
:1028800053EC102B2FA0FFF7D5F89DED021BB0EEF7
:10289000410AF0EE610A53EC102B2FA12448FFF7F8
:1028A000D9F801201023224A002100900846FEF7A3
:1028B00043FD9DED041BB0EE410AF0EE610A53ECBE
:1028C000102B29A11A48FFF7C5F80020102300E0BB
:1028D00009E0174A02210090FEF72EFD01210A4867
:1028E000FEF72EFF00BF0748007800F0040028B96B
:1028F0000448007840F004000249087057E70000DF
:1029000098024042000000200004004038000020EF
:1029100054564F433A25642C434F323A25640A00FB
:10292000434F323A25303564207070620000000059
:102930008801002054564F433A2530356466207094
:102940007062000048554D3A256C662C54454D5038
:102950003A256C660A00000048554D3A252E316C28
:10296000662025250000000054454D503A252E31A3
:102970006C6620A1E6000000014608687047000070
:1029800010B504460F480068082802D34FF0FF3006
:1029900010BD0C4802680068401C0A4B18600A48C9
:1029A000845418460068082801D00A2C08D105482C
:1029B000054902680548FEF712F800200149086041
:1029C0002046E5E7780100207C01002000FE02009F
:1029D00070B504460D462069804715B10020616836
:1029E00008600320FFF77EFE0120216808600220B6
:1029F000FFF778FE0020216808600120FFF772FED3
:102A00000120616808600320FFF76CFE70BD70B59F
:102A100004460025E068804700261BE0012021686D
:102A200008600220FFF75EFEA06800782843C5B268
:102A3000072E01DA012000E0002005FA00F0C5B2FF
:102A40000320FFF74FFE0020216808600520FFF7F4
:102A500049FE761C082EE1DB284670BD70B50446A1
:102A60000E4620698047072515E046FA05F000F07C
:102A70000100616808600220FFF734FE0120216830
:102A800008600520FFF72EFE002021680860032063
:102A9000FFF728FE6D1E002DE7DA70BD10B5044665
:102AA000206980470120616808602168086005206E
:102AB000FFF718FE0020616808600520FFF712FE8E
:102AC0000020216808600320FFF70CFE10BD10B540
:102AD0000446206980470020616808600120FFF7F4
:102AE00001FE012021680860FFF7FCFD01206168FC
:102AF000086010BD70B504460D463226E068804778
:102B00000120216808606DB108E00A20FFF7EAFDA6
:102B1000301EA6F1010601DA012070BDA068006830
:102B20000028F2D10520FFF7DDFD002021680860B4
:102B30000520FFF7D7FD0020EFE7000010B50024C7
:102B4000FF2001F0F3F807E0641C0A20FFF7CAFD3C
:102B50000A2C01DBE0B210BD094800680028F3D15F
:102B6000002407E0641C0A20FFF7BCFD0A2C01DBEF
:102B7000E0B2F0E7024800680128F3D10020EAE75C
:102B8000080240422DE9F0410646002400270025B6
:102B900008E0641C0A20FFF7A5FD0A2C02DBE0B266
:102BA000BDE8F081154800680028F2D10024002714
:102BB0001EE007E0641C0A20FFF794FD0A2C01DBED
:102BC000E0B2EDE70D4800680128F3D1002403E0EE
:102BD000641C0A20FFF786FD084800680128F7D02A
:102BE0006806050E052C01DB45F0010500247F1C5D
:102BF000082FDEDB35700020D2E7000008024042DB
:102C000030B595B0054613AB12AA09A9284600F0C5
:102C100039FA044614B1204615B030BD0020149096
:102C200026E0224909689DF8502001EBC20113AB50
:102C300011AA486801A900F025FA04460CB1204603
:102C4000EAE709A901A800F0BBFC60B99DF84400BF
:102C50009DF84810884201DD0220DDE79DF8500014
:102C6000124988750AE09DF85000401CC0B21490CB
:102C70000E48007D9DF850108842D2DC00BF0B4802
:102C8000007D9DF85010884201D10420C4E714A9AA
:102C9000284600F0D7FA04460CB12046BCE79DF860
:102CA0005000024948750020B6E70000840000206B
:102CB0002DE9F0419AB09C48847D007DA04202DC61
:102CC0001AB0BDE8F0819849096801EBC40106AB70
:102CD00007AA486808A900F0D5F908A993A0FEF74B
:102CE000A9FE002644E09048008B0121B140084035
:102CF000D8B122218FA0FEF79DFE304600F028FBC0
:102D000089492431471839468BA0FEF793FE2221CA
:102D100088A0FEF78FFE304600F01AFB824924316E
:102D2000084410A941F8260018E0304600F010FBD6
:102D30007D492431085810A941F826007A48C07D01
:102D400030B910A850F826107CA0FEF773FE05E0FD
:102D500010A850F826107AA0FEF76CFE9DF81C0013
:102D6000401EB04202D078A0FEF764FE701CC6B2CE
:102D70009DF81C008642B6DB74A0FEF75BFE00F0F7
:102D800039FB6948407D0B280DD2DFE800F0060DC5
:102D9000151E27323F4E5F7287006349096851F85C
:102DA00034008047054690E05F4A126852F83410BC
:102DB00010988847054688E05B4B1B6853F8342021
:102DC000DDE91001904705467FE0574F3F6857F80F
:102DD000343010A807C89847054676E0DFF848C1A8
:102DE000DCF800C05CF8347010A80FC8B84705467E
:102DF0006BE01498DFF830C10090DCF800C05CF89C
:102E0000347010A80FC8B84705465EE0DDE914012C
:102E1000DFF814C1CDE90001DCF800C05CF83470C3
:102E200010A80FC8B84705464FE0DDE91412169800
:102E3000DFF8F4C0CDE900120290DCF800C05CF8C5
:102E4000347010A80FC8B84705463EE0DDE91423EA
:102E5000DDE91610DFF8D0C0CDE90023CDE902107E
:102E6000DCF800C05CF8347010A80FC8B8470546FD
:102E70002BE0DDE91523DDE91710CDE90123CDE9CC
:102E800003101498DFF8A0C00090DCF800C05CF8D4
:102E9000347010A80FC8B847054616E0DDE91623C0
:102EA000DDE91810CDE90223CDE90410DDE91401B4
:102EB000DFF874C0CDE90001DCF800C05CF83470C4
:102EC00010A80FC8B847054600BF00BF00F050FA71
:102ED0009DF8180001280CD11348C07D20B929465F
:102EE0001BA0FEF7A7FD07E029461BA0FEF7A2FDE9
:102EF00002E018A0FEF79EFD0B4890F8EC0088B1A8
:102F00000948D0F8F0000A21B0FBF1F201FB1207EA
:102F10000548D0F8F000B0FBF1F83A46414611A060
:102F2000FEF788FD00BFCBE6840000200D0A257364
:102F3000280000002563000025730000256C750043
:102F400030582558000000002C0000002900000027
:102F50003D256C753B0D0A003D305825583B0D0A48
:102F60000000000046756E6374696F6E2052756EC6
:102F70002054696D653A25642E2531646D730D0A00
:102F800000000000F0B50346154600200022002690
:102F9000002455E01F782C2F01D104B901221F789D
:102FA000292F01D01F780FB904B94AE0002E34D17F
:102FB0001F78302F02DB1F78392F11DD1F78612F2A
:102FC00002DB1F78662F0BDD1F78412F02DB1F7895
:102FD000462F05DD1F78582F02D01F78782F0CD18F
:102FE00002B12EE01F78612F03DB1F78203F0F70A6
:102FF00001E01F780F70491C1FE01F78222F04D1B9
:1030000002B11EE00126012417E01F78202F14D002
:103010001F782C2F11D0FF2613E01F78222F00D10C
:10302000002402B10DE044B11F785C2F02D15B1C7B
:10303000471CF8B21F780F70491C471CF8B25B1C84
:10304000A8E700BF00270F702E70F0BD10B5044632
:10305000002010700BE020780870641C491C107868
:10306000401C10701078984201DB012010BD2078C0
:10307000202802D020780028EDD10020087000BF61
:10308000F4E700002DE9FF4F85B080468946002710
:10309000002004900390012002904FF0000B0025C7
:1030A00044461DE02078202816D005F07F00052832
:1030B00012DA0DB945F0800505F07F00042803D130
:1030C00020782A2800D00EE0207805F07F010DF846
:1030D0000100681CC5B202E0852D00D103E0641C2C
:1030E00020780028DED100BF8DB1002005F07F01DF
:1030F0000DF8010051A1684600F062FA18B90021EC
:103100000898017002E001210898017000254FF035
:10311000000A444614E0641C0AF1010000F0FF0AB2
:103120002078202802D020782A2809D1204600F0D3
:10313000D7F90646282E03D02A2E01D0CDF810A0AC
:103140002078282802D020780028E4D1444604982A
:1031500010B10498401C04444FF0000A002654E0CB
:10316000207810B94FF0010A50E02078282803D1C8
:1031700016B9781CC7B213E02078292808D13EB9C7
:1031800017B1781EC7B201E04FF0010A47B93DE020
:103190002078222804D10EB9012000E00020064644
:1031A00047B9207820282FD0207889F8000009F12D
:1031B000010929E020782C2804D101200290681C04
:1031C000C5B214E02078202811D0207828280ED00D
:1031D0004DB9BBF1050F06DA20780DF80B000BF1A5
:1031E000010000F0FF0B0298401CC0B20290012FBA
:1031F0000AD10298022807D10298401CC0B202905E
:103200000398401CC0B20390641CA9E700BF039858
:10321000012809D100200DF80B0008A1684600F034
:10322000CFF908B90020039007990398087000208F
:1032300089F80000504609B0BDE8F08F766F6964E8
:10324000000000002DE9F043B5B005460F4600240C
:10325000002604E000213D488155701CC6B20A2EAC
:10326000F8DB06E06D1C287818B9012035B0BDE800
:10327000F08328782828F5D16D1C61E034AA6946CE
:103280002846FFF77FFE064635449DF8D00020B162
:10329000012827D0FF284CD149E09DF8000000B359
:1032A00033A9684600F027F906460EB10220DDE793
:1032B000204600F04DF825490A31339A0A50A1F111
:1032C0002400008B0121A140884320491A3908833A
:1032D00004211E480155601CC4B20A2C01DD0320E4
:1032E000C4E726E0684600F087F9401C00F0FF08BC
:1032F000204600F02DF815490A3100EB0109494636
:10330000684600F06EF911481A38018B0120A04080
:10331000014388B20D491A3908830C4800F804802B
:10332000601CC4B20A2C01DD03209FE701E00220EB
:103330009CE700BF2878292801D0287800B900E050
:103340009CE700BF3C70002090E700009E0000203A
:1033500002460020002105E0044B5B5C0344D8B228
:103360004B1CD9B29142F7DB704700009E00002051
:1033700010B501210D48FEF7F2F9012808D10C48DB
:10338000D0F8F0004FF6FF7108440949C1F8F00089
:103390000648FEF7E1F90649D1F8F010084404495F
:1033A000C1F8F0000846D0F8F00010BD0008004059
:1033B0008400002010B5044604EBC40000EB0410A8
:1033C0000122C2EB800081B24FF47A70FEF730FA2E
:1033D00001200149C87510BD8400002010B50246C7
:1033E000012000E050430B1EA1F10104E1B2F9D12C
:1033F00010BD000010B501210848FEF79BF94FF6FB
:10340000FF710648FEF7CEF900210448FEF7CCF91B
:1034100000200349C1F8F00010BD00000008004082
:103420008400002070B51D48008800F4004000288A
:1034300033D01A4805780020194948551948816841
:103440001748884704461CB91649C868804721E0D8
:10345000134800F0DDF80546012D00D02C46CCB114
:10346000012C06D0022C08D0032C0AD0042C10D139
:103470000BE00DA0FEF7DEFA0BE00EA0FEF7DAFA85
:1034800007E00FA0FEF7D6FA03E010A0FEF7D2FA8D
:1034900000BF00BF00200149088070BD420000202D
:1034A000A405002084000020BAAFCAFDB4EDCEF31D
:1034B000210D0A00B2CECAFDB4EDCEF3210D0A00F3
:1034C000B2CECAFDCCABB6E0210D0A00CEB4D5D247
:1034D000B5BDC6A5C5E4B5C4BAAFCAFD210D0A0085
:1034E0000146491C00E0491C0878202801D1002928
:1034F000F9D1087870472DE9F04307460E460025BC
:103500004FF00A083C46002030601FE02078392840
:1035100002DC207830280ADA2078462802DC20787D
:10352000412804DA2078582809D1012D07D12078C4
:10353000412801DB4FF01008681CC5B205E0207877
:1035400000B904E00120BDE8F083641CDEE700BFA1
:103550003C46B8F1100F0FD1032D01DA0220F2E73B
:103560002078302806D16078582803D1A41CA81EE2
:10357000C5B204E00320E6E70DB90420E3E71BE051
:103580000DB1681EC5B22078392806DC20783028B5
:1035900003DB2078A0F1300902E02078A0F13709A0
:1035A00029464046FFF71AFF316809FB00103060DA
:1035B000641C207800B900E0E2E700BF0020C2E709
:1035C00002460AE010780B78984201D0012070473B
:1035D000107800B902E0521C491CF3E700BF00203C
:1035E000F5E706E002780A70027802B902E0401CB2
:1035F000491CF7E700BF70470146002005E00A7844
:1036000002B903E0421CD0B2491CF8E700BF704782
:1036100010B58CB004461E230BAA03A92046FFF761
:1036200015FD0090009810B101200CB010BD9DF860
:103630002C00044400200B900EE040489DF82C2004
:1036400050F8221003A8FFF7BBFF00B908E09DF86F
:103650002C00401CC0B20B909DF82C000728ECD326
:1036600000BF9DF82C00072863D2DFE800F00405B6
:103670003C5E6564630000BF31A0FEF7DBF931A05A
:10368000FEF7D8F93FA0FEF7D5F94EA0FEF7D2F924
:103690005CA0FEF7CFF96BA0FEF7CCF979A0FEF79E
:1036A000C9F986A0FEF7C6F98BA0FEF7C3F990A072
:1036B000FEF7C0F994A0FEF7BDF999A0FEF7BAF99C
:1036C0009EA0FEF7B7F9A4A0FEF7B4F9B0A0FEF7EC
:1036D000B1F9BDA0FEF7AEF9C8A0FEF7ABF9D4A0D2
:1036E000FEF7A8F99AE216A0FEF7A4F9E0A0FEF70B
:1036F000A1F900200B900EE0ED4800689DF82C2009
:1037000000EBC2004168EBA0FEF794F99DF82C0095
:10371000401CC0B20B90E648007D9DF82C108842FA
:10372000EADC07A0FEF786F978E205A0FEF782F949
:10373000C4E171E245E219E2ECE10000480000203A
:103740000D0A00002D2D2D2D2D2D2D2D2D2D2D2D46
:103750002D2D2D2D2D2D2D2D2D2D2D2D55534D4117
:1037600052542056332E312D2D2D2D2D2D2D2D2D16
:103770002D2D2D2D2D2D2D2D2D2D2D2D2D2D2D2086
:103780000D0A00002020202055534D415254CAC735
:10379000D3C9414C49454E54454BBFAAB7A2B5C405
:1037A000D2BBB8F6C1E9C7C9B5C4B4AEBFDAB5F784
:1037B000CAD4BBA5BDBBD7E9BCFE2CCDA8B9FD20A2
:1037C0000D0A0000CBFC2CC4E3BFC9D2D4CDA8B9EC
:1037D000FDB4AEBFDAD6FACAD6B5F7D3C3B3CCD0F0
:1037E000F2C0EFC3E6B5C4C8CEBACEBAAFCAFD2C9C
:1037F000B2A2D6B4D0D02ED2F2B4CB2CC4E3BFC97F
:103800000D0A0000D2D4CBE6D2E2B8FCB8C4BAAFFD
:10381000CAFDB5C4CAE4C8EBB2CECAFD28D6A7B368
:10382000D6CAFDD7D62831302F3136BDF8D6C629B5
:10383000A1A2D7D6B7FBB4AEA1A2BAAFCAFDC8EB5E
:103840000D0A0000BFDAB5D8D6B7B5C8D7F7CEAAEB
:10385000B2CECAFD292CB5A5B8F6BAAFCAFDD7EECF
:10386000B6E0D6A7B3D63130B8F6CAE4C8EBB2CECC
:10387000CAFD2CB2A2D6A7B3D6BAAFCAFDB7B5203F
:103880000D0A0000BBD8D6B5CFD4CABE2ED0C2D444
:10389000F6B2CECAFDCFD4CABEBDF8D6C6C9E8D6E8
:1038A000C3B9A6C4DC2CD0C2D4F6BDF8D6C6D7AAFC
:1038B000BBBBB9A6C4DC2E0D0A000000BCBCCAF517
:1038C000D6A7B3D63A7777772E6F70656E65647634
:1038D0002E636F6D0D0A000055534D415254D3D0E5
:1038E00037B8F6CFB5CDB3C3FCC1EE3A0D0A000030
:1038F0003F3A202020202020BBF1C8A1B0EFD6FA0B
:10390000D0C5CFA20D0A000068656C703A20202057
:10391000BBF1C8A1B0EFD6FAD0C5CFA20D0A000006
:103920006C6973743A202020BFC9D3C3B5C4BAAF41
:10393000CAFDC1D0B1ED0D0A0A00000069643A2049
:1039400020202020BFC9D3C3BAAFCAFDB5C44944A3
:10395000C1D0B1ED0D0A0A006865783A2020202018
:10396000B2CECAFD3136BDF8D6C6CFD4CABE2CBA47
:10397000F3B8FABFD5B8F12BCAFDD7D6BCB4D6B4CC
:10398000D0D0BDF8D6C6D7AABBBB0D0A0A0000002E
:103990006465633A20202020B2CECAFD3130BDF8E4
:1039A000D6C6CFD4CABE2CBAF3B8FABFD5B8F12B5D
:1039B000CAFDD7D6BCB4D6B4D0D0BDF8D6C6D7AA27
:1039C000BBBB0D0A0A00000072756E74696D653A22
:1039D000312CBFAAC6F4BAAFCAFDD4CBD0D0BCC676
:1039E000CAB13B302CB9D8B1D5BAAFCAFDD4CBD00F
:1039F000D0BCC6CAB13B0D0A0A000000C7EBB0B488
:103A0000D5D5B3CCD0F2B1E0D0B4B8F1CABDCAE4D8
:103A1000C8EBBAAFCAFDC3FBBCB0B2CECAFDB2A2FE
:103A2000D2D4BBD8B3B5BCFCBDE1CAF82E0D0A0098
:103A30002D2D2D2D2D2D2D2D2D2D2D2D2D2D2D2DB6
:103A40002D2D2D2D2D2D2D2D2D2D414C49454E54F7
:103A5000454B2D2D2D2D2D2D2D2D2D2D2D2D2D2D60
:103A60002D2D2D2D2D2D2D2D2D2D2D200D0A000030
:103A70002D2D2D2D2D2D2D2D2D2D2D2D2D2D2D2D76
:103A80002D2D2D2D2D2D2D2D2DBAAFCAFDC7E5B510
:103A9000A52D2D2D2D2D2D2D2D2D2D2D2D2D2D2DDE
:103AA0002D2D2D2D2D2D2D2D2D2D2D2D200D0A00C3
:103AB0008400002025730D0A0000000059A0FDF7C6
:103AC000B9FF00200B901AE0664909689DF82C2088
:103AD00001EBC20101AB02AA486803A9FFF7D2FAC1
:103AE000604800689DF82C1050F8312003A95EA0B2
:103AF000FDF7A0FF9DF82C00401CC0B20B90594868
:103B0000007D9DF82C108842DEDCAFF2CC30FDF752
:103B100091FF83E0AFF2D830FDF78CFF0BAA03A929
:103B20002046FFF72FFA9DF82C00C8B9694603A874
:103B3000FFF7E1FC0B909DF82C0020B94FA00099F5
:103B4000FDF778FF0EE09DF82C00042801D002203C
:103B50006BE54DA0FDF76EFF01204249C87501E0FD
:103B6000022062E547A0FDF765FF57E045A0FDF79D
:103B700061FF0BAA03A92046FFF704FA9DF82C0069
:103B8000C8B9694603A8FFF7B6FC0B909DF82C0056
:103B900020B942A00099FDF74DFF0EE09DF82C00E2
:103BA000042801D0022040E53FA0FDF743FF00209C
:103BB0002C49C87501E0022037E532A0FDF73AFF35
:103BC0002CE030A0FDF736FF0BAA03A92046FFF733
:103BD000D9F99DF82C00C8B9694603A8FFF78BFCFA
:103BE0000B909DF82C0078B91E49009881F8EC00E4
:103BF000084690F8EC0018B130A0FDF71BFF07E075
:103C000035A0FDF717FF03E002200EE502200CE5CA
:103C10001CA0FDF70FFF01E0012006E500BF00201A
:103C200003E500002D2D2D2D2D2D2D2D2D2D2D2D90
:103C30002D2D2D2D2D2D2D2D2D2D2D2D2DBAAFCA08
:103C4000FD204944202D2D2D2D2D2D2D2D2D2D2DBB
:103C50002D2D2D2D2D2D2D2D2D2D2D2D2D2D2D2D94
:103C6000200D0A00840000202573206964206973F8
:103C70003A0D0A3058253038580D0A004845583A50
:103C8000305825580D0A00003136BDF8D6C6B2CEE0
:103C9000CAFDCFD4CABE210D0A0000004445433AF4
:103CA000256C750D0A0000003130BDF8D6C6B2CEC5
:103CB000CAFDCFD4CABE210D0A00000052756E2085
:103CC00054696D652043616C63756C6174696F6ED6
:103CD000204F4E0D0A00000052756E2054696D652C
:103CE0002043616C63756C6174696F6E204F46464A
:103CF0000D0A000010B5002000F018F80020074958
:103D0000086040F22620FEF7EDFC01200449C1F8CE
:103D100088021420FEF7E6FC10BD00008802404235
:103D20000000404210B5FDF7F7F810BD48B10B494F
:103D3000096821F03001094A1160114609681160D3
:103D40000AE00649096821F03001044A1160114671
:103D5000096841F010011160704700000000024046
:103D6000016070470000000000005E0000040602D1
:103D7000243C243C004CFE001E7A5E78705E3E4877
:103D80000006000000007C82423C000018103C1835
:103D900010107C1000C00000101010100040000037
:103DA00080701C023844380000447C406C544C0045
:103DB00044546C0030687C604C4C7C00784C7C0037
:103DC00000047C006C546C005C543C000000480013
:103DD0000000C800001824421818181800422418BF
:103DE000000C540C3C7A767C40383840447C7C0093
:103DF00038444400447C3800007C7C00407C7C00DB
:103E000038646420007C7C0000447C448084FC0492
:103E1000007C4400407C44007C607C00407C7C044E
:103E200038443800407C5C003864F800007C3C403A
:103E30004C547C0004447C44007C7C000C30300CEE
:103E40001C247C0C6C106C000448704864544C00BA
:103E50000000FE00000638C000FE00000001000166
:103E6000808080800000010068687840007E7800D3
:103E700070484800784A7E0000787800487E4A0002
:103E8000F8A8B8C8427E780000487A400088FA0056
:103E9000007E380000427E40780878084878780034
:103EA0007048780000F8F80078C8F80048784800B2
:103EB00000787800087C48000078780018202018E6
:103EC000186878084830480088D8380800787800A2
:103ED0000010FE820000FF0082FE100001010202BD
:103EE00000000000000000000000004E4400000040
:103EF000000402000202000000203E28287C20006E
:103F000000246A4A745424000C52321C2854502055
:103F100020545A6A4470404000040200000000002F
:103F200000000018244280000080423C0000000095
:103F30000008183C14180800000010101810100099
:103F40000040C00000000000080808080808080039
:103F50000040400000000000004020100804020063
:103F6000003C444242443C00000000447E0000000B
:103F700000446262524A4C0000644242525C240097
:103F800000102824647E0000006C4C4C4C4C300027
:103F9000003C544A4A4C3000000404641C040000F5
:103FA000007C4A4A52522C00005C525252523C0051
:103FB0000000004848000000000000C84800000061
:103FC000000018282444420000181818181800008F
:103FD000004244242818000000040262520A0C0027
:103FE000003C546A667C6418006018141C30400061
:103FF000007C5454544C7C00003C444242424200F9
:10400000007C444444443C00007C5454545C4400D0
:10401000007C141414140404103C42424242640014
:10402000007C101010107C000000447C7C440000D8
:1040300000808084847C0400007C100814244000EC
:10404000007C7C4040404000007C1860100C7C00EC
:10405000007C040810207C00003C424242423C109C
:10406000007C141414140C00003C626262C2BC0098
:10407000007C1414142C4C00004C4A4A5252240068
:104080000404047C44040400003C404040403C00E4
:104090000004186030080400001C60101C601C0044
:1040A000004024181824400000040C70500C040038
:1040B000004464544C444000000000FE82828000B2
:1040C000000204083040800000808282FE00000070
:1040D00000000101010100008080808080808080DC
:1040E000000101010100000000606858587840405C
:1040F000007E50484848300000304848484800009A
:104100000030484848487E400030686868681000C1
:104110000008487C4C0C04000090E8E8E8D0C80097
:10412000007E0808080870000000087840000000C1
:104130000080808888FA0000007C20103848480001
:104140000000007E40000000087808087008780031
:1041500000780808080870000030484848483000D7
:1041600008F8484848483000003048484848F800B7
:1041700000487850080808000040585868686000F7
:104180000008087C484840000838404040487840D3
:1041900000081860201808000818602838601808FF
:1041A0000008483830480800008898A060180800C7
:1041B0000048486858484000000000001866800029
:1041C00000000000FF0000000080661800000000F2
:1041D00000010101020202000000000000000000D6
:1041E0000000000000007C00000000000200000051
:1041F00000040304030000000000000090FC90FC99
:1042000090000003000300001824FE44880001020F
:10421000070201003844F8D02CC00003000102015D
:10422000C038E418E020010202010201040300008A
:1042300000000000000000000000F806010000007F
:1042400000030400000106F8000000040300000061
:104250009060F8609000000001000000002020F84D
:104260002020000000000000000000000000040307
:10427000000000002020202020200000000000007E
:104280000000000000000002000000000000C0303C
:104290000C02040300000000F8040404F80001020A
:1042A000020201000008FC000000000203020000FE
:1042B0001884442418000302020202000804242483
:1042C000D800010202020100C0A098FC800000009A
:1042D000020302007C242424C40001020202010023
:1042E000F0482424C8000102020201000004C43482
:1042F0000C00000003000000D8242424D800010290
:104300000202010038444424F800010202010000C6
:10431000000010000000000002000000000020006B
:10432000000000000600000000609008040000008B
:10433000000102005050505050500000000000009A
:104340000004089060000002010000001804C4246A
:104350001800000002000000F008E4F48478000176
:104360000202020100E09CF0800002030000030250
:1043700004FC2424D800020302020100F80404040F
:104380000C0001020202010004FC0404F800020314
:104390000202010004FC24740C0002030202030068
:1043A00004FC24740C00020302000000F008044422
:1043B000CC4000010202010004FC2020FC040203A6
:1043C000000003020404FC040400020203020200D1
:1043D000000404FC04040C080807000004FC24503A
:1043E0008C0402030200030204FC04000000020328
:1043F00002020203FC3CC03CFC0403000300030275
:1044000004FC30C4FC04020302000300F8040404AA
:10441000F80001020202010004FC24241800020337
:1044200002000000F8848404F8000102020705007D
:1044300004FC2464980002030200030218242444AC
:104440008C000302020201000C04FC040C000002B8
:104450000302000004FC0000FC0400010202010051
:10446000047C80E01C040000030000003CC07CC011
:104470003C00000300030000049C609C0400020355
:1044800000030200043CC03C0400000203020000E0
:104490000C84641C04000203020203000000FF01FC
:1044A0000100000007040400000638C000000000FE
:1044B00000010600000101FF0000000404070000E5
:1044C00000020102000000000000000000000000E7
:1044D00000000808080808080001020000000000A9
:1044E000000000000040A0A0C00000010202030282
:1044F00002FE2020C00000030202010000C02020B4
:10450000600000010202010000C02022FE00000144
:104510000202030200C0A0A0C000000102020200CB
:104520000020FC2222040002030202000040A0A09E
:10453000602000050A0A0A0402FE2020C0000203CF
:10454000020003020020E600000000020302000057
:10455000000020E6000008080807000002FE806056
:1045600020000203000102000202FE00000002021D
:1045700003020200E020E020C0000300030003006B
:1045800020E02020C00002030200030200C020201F
:10459000C00000010202010020E02020C000080F3E
:1045A0000A02010000C02020E0000001020A0F08FA
:1045B00020E0402020000203020000000060A0A0D4
:1045C00020000002020203000020F820200000006A
:1045D0000302020020E00020E000000102020302CA
:1045E00020E000E020000000030000006080E08088
:1045F00060000003000300002060806020000203D0
:104600000003020020E00000E0200808050300008D
:104610000020A0602000000203020200000020FF32
:104620000100000000070400000000FF000000007F
:10463000000F00000001DF20000000040700000060
:10464000020101020100000000000000020502F862
:1046500004020000000001020202040E80000202B7
:104660000201000000000000000000000000000047
:1046700000000000000000F800000000000000330F
:104680000000000000100C02100C020000000000EE
:10469000000000000040C07840C0780000043F04E3
:1046A000043F040000708888FC08300000182020B7
:1046B000FF211E00F008F0806018000000310C039C
:1046C0001E211E0000F00888700000001E21232C0F
:1046D0001927211000120E00000000000000000049
:1046E00000000000000000E01804020000000007C5
:1046F0001820400000020418E000000000402018CC
:1047000007000000404080F0804040000202010F9E
:104710000102020000000000E000000000010101B1
:104720000F01010100000000000000000090700077
:104730000000000000000000000000000001010176
:104740000101010000000000000000000030300006
:104750000000000000000000C038040000601807DE
:104760000000000000E010080810E000000F10201A
:1047700020100F0000001010F800000000002020A2
:104780003F202000007008080808F00000302824AE
:10479000222130000030080808887000001820210D
:1047A00021221C000000804030F800000006052493
:1047B000243F242400F88888880808000019202055
:1047C00020110E0000E0108888900000000F1120DA
:1047D00020201F0000180808886818000000003E0C
:1047E000010000000070880808887000001C222169
:1047F00021221C0000F008080810E000000112222D
:1048000022110F00000000C0C000000000000030B6
:10481000300000000000008000000000000000E008
:104820000000000000008040201008000001020489
:1048300008102000004040404040400000020202BA
:104840000202020000081020408000000020100832
:104850000402010000704808088870000000003061
:1048600037000000C030C828E810E00007182728EB
:104870002F2817000000C038E0000000203C230271
:104880000227382008F8888888700000203F202000
:1048900020110E00C0300808080838000718202032
:1048A0002010080008F808080810E000203F202029
:1048B00020100F0008F88888E8081000203F20200A
:1048C0002320180008F88888E8081000203F2000FE
:1048D00003000000C0300808083800000718202036
:1048E000221E020008F808000008F808203F2101F5
:1048F00001213F20000808F8080800000020203FA0
:104900002020000000000808F8080800C08080800F
:104910007F00000008F888C028180800203F200108
:104920002638200008F8080000000000203F202062
:104930002020300008F8F800F8F80800203F013E79
:10494000013F200008F830C00008F808203F200090
:1049500007183F00E01008080810E0000F102020A2
:1049600020100F0008F808080808F000203F210177
:1049700001010000E01008080810E0000F102828CE
:1049800030504F0008F8888888887000203F200049
:10499000030C3020007088080808380000382021F7
:1049A00021221C00180808F8080818000000203F01
:1049B0002000000008F808000008F808001F202068
:1049C00020201F000878880000C838080000073839
:1049D0000E01000008F800F800F8080000033E018E
:1049E0003E030000081868808068180820302C03F7
:1049F000032C30200838C800C83808000000203FC9
:104A00002000000010080808C838080020382621B7
:104A100020201800000000FE020202000000007FBB
:104A200040404000000438C00000000000000001C9
:104A30000638C00000020202FE00000000404040B4
:104A40007F000000000004020204000000000000DB
:104A50000000000000000000000000008080808056
:104A6000808080800002020400000000000000003E
:104A70000000000000008080800000000019242455
:104A8000123F200010F0008080000000003F112045
:104A900020110E000000008080800000000E112018
:104AA00020201100000080808090F000001F202056
:104AB00020103F200000808080800000001F242400
:104AC00024241700008080E0909020000020203FE8
:104AD000202000000000808080808000006B949483
:104AE0009493600010F0008080800000203F21003F
:104AF00000203F2000809898000000000020203F08
:104B000020200000000000809898000000C08080F5
:104B1000807F000010F0000080808000203F24068D
:104B200029302000001010F8000000000020203F75
:104B3000202000008080808080808000203F200036
:104B40003F20003F8080008080800000203F2100C7
:104B500000203F200000808080800000001F202077
:104B600020201F00808000808000000080FF9120B6
:104B700020110E000000008080008000000E112037
:104B80002091FF80808080008080800020203F2155
:104B900020000100000080808080800000332424F9
:104BA00024241900008080E0808000000000001FA5
:104BB000202010008080000000808000001F202046
:104BC00020103F20808080008080800000030C3017
:104BD0000C0300008080008080008080010E300C7B
:104BE0000738060100808080008080000020310EA0
:104BF0002E312000808080000080808000818678B7
:104C00001806010000808080808080000021302C08
:104C1000222130000000000000FC02020000000021
:104C2000013E404000000000FF00000000000000C6
:104C3000FF0000000202FC000000000040403E01B6
:104C40000000000000020102020402000000000057
:104C500000000000060909E6F80C04020000000745
:104C60001F30204002020202041E0000404040406B
:104C70002010000000000000000000000000000004
:104C80000000000000000000000000000000000024
:104C900000000000000000000000000000F0F00034
:104CA000000000000000000000770F00000000007E
:104CB00000000000001C1C000000000000008060DC
:104CC000301C8C60301C0C00000000000000000054
:104CD00000000000000000000000000000000000D4
:104CE00000000000F000000000F00000008383FFDF
:104CF00083838383FB87830000011F01010101017E
:104D00001F010100000080C06020F820E0C000000A
:104D1000000003070C18FF71E18100000000070F7D
:104D200012107F100F070000C0301030C00000C00C
:104D30003000000007181018CF38C6311030C000FE
:104D40000000180700000718101807000000E0F026
:104D500010F0E00000000000C0E0173FF8C70308B3
:104D6000F8080800070F181010130F0E1910100C78
:104D700000008C4C38000000000000000000000023
:104D80000000000000000000000000000000000023
:104D90000000000000000000000080601008040017
:104DA0000000000000FE0100000000000000000004
:104DB0000000030C10204000000408106080000078
:104DC00000000000000000000001FE0000000000E4
:104DD000004020100C030000000000000000000054
:104DE0000000C08000000000006666243810FF1834
:104DF0003C24666600000000000003000000000084
:104E000000000000000080000000000000101010F2
:104E10001010FF1010101010000000000000030020
:104E20000000000000000000000000000000000082
:104E300000000000000000000000000000008C4C9A
:104E4000380000000000000000000000000000002A
:104E500000000000001010101010101010101000B2
:104E60000000000000000000000000000000000042
:104E70000000000000000000000000000000000032
:104E80000000000000001C1C1C00000000000000CE
:104E90000000000000000000E0380C0000000000EE
:104EA00080701C03000000000060380E010000004C
:104EB00000000000000080C060202060C080000072
:104EC00000FEFF010000000001FFFE000001070ED0
:104ED000181010180E0701000000404040C0E0000C
:104EE000000000000000000000FFFF0000000000C4
:104EF00000001010101F1F10101000000080402034
:104F000020202060C08000000003030000C060304B
:104F10001F07000000181C1211101010101E0000B6
:104F200000C0C020202060C08000000000010100FF
:104F30001010182FE7800000000E0E10101010182F
:104F40000F07000000000000000080E0E00000000B
:104F500000C0A098848380FFFF8080800000000054
:104F60000010101F1F1010000000E0202020202043
:104F70002020000000003F1008080818F0E00000A2
:104F800000070B101010101C0F030000000080C061
:104F900040202020E0C0000000FCFF21100808088D
:104FA00018F0E0000001070C18101010080F0300A3
:104FB0000000C0602020202020E0600000000100F0
:104FC0000000E0180700000000000000001F1F00A4
:104FD000000000000080C0602020202060C0800011
:104FE0000083CF6C1810303068CF830000070F08A3
:104FF00010101010180F07000000C0C02020202043
:10500000C0800000001F3F604040402010FFFE00B5
:1050100000000C1C101010080F030000000000001E
:10502000000000000000000000000000001C1C1C2C
:105030000000000000000000001C1C1C000000001C
:105040000000000000000000000000000000000060
:10505000000C0C00000000000000000000D8380028
:105060000000000000000000000000804020100050
:105070000000102844820100000000000000000031
:105080000000010204081000000000000000000001
:105090000000000000444444444444444444440068
:1050A00000000000000000000000000000001020D0
:1050B00040800000000000000000000000000182AD
:1050C0004428100000001008040201000000000045
:1050D00000008040402020202060C08000000706A3
:1050E0000000E01018080F0700000000001C1C1C46
:1050F000000000000000C0E020109090A060800040
:1051000000FEFF00F8FF03FC07807F000000070E91
:1051100018111111090C0200000000008060E0006D
:1051200000000000000080784740415FF0800000F0
:10513000101C131000000000111F18100020E0E0E8
:1051400020202060C0C000000000FFFF10101018D9
:105150002FE7800000101F1F10101010180F0700FD
:10516000000080C04020202060E0800000FCFF01A3
:1051700000000000000003000001070E18101010CE
:10518000080C03002020E0E020202040C080000028
:105190000000FFFF0000000001FFFE0010101F1FB5
:1051A000101010080E07010020E0E0202020202031
:1051B0006060800000FFFF10101010FC0000010074
:1051C000101F1F10101010101018060020E0E02013
:1051D000202020206060800000FFFF10101010FCD5
:1051E00000000100101F1F10100000000000000050
:1051F000000080C0602020204080000000FCFF01F3
:1052000000004040C0C340400001070E18101010BD
:105210000F0F000020E0E0200000000020E0E02070
:1052200000FFFF101010101010FFFF00101F1F10C4
:1052300000000000101F1F100000202020E0E020D0
:10524000202000000000000000FFFF000000000020
:1052500000001010101F1F10101000000000002090
:105260002020E0E020202000000000000000FFFFE0
:10527000000000000060E08080C07F3F0000000070
:1052800020E0E0200000A0E06020000000FFFF30F0
:105290000C3AE18000000000101F1F1000000013F6
:1052A0001E18100020E0E020200000000000000098
:1052B00000FFFF000000000000000000101F1F1092
:1052C000101010101018060020E0E000000000C0D0
:1052D000E0E0200000FF0FFFE0807C03FFFF000004
:1052E000101F10000F0700101F1F10000020E0E02B
:1052F0008000002020E020200000FF01071E78C071
:1053000000FF000010101F10100000030F1F00000E
:10531000000080C060202060C080000000FEFF010F
:105320000000000000FFFE000001070E181010181A
:105330000C07010020E0E0202020202040C0800059
:1053400000FFFF2020202030101F0F00101F1F1013
:105350001000000000000000000080C060202060FD
:10536000C080000000FEFF010000000000FFFE0002
:105370000001070E1911173C6C67210020E0E020A6
:105380002020202060C0800000FFFF10101070D08F
:10539000080F0700101F1F1000000001071E181043
:1053A0000080C0602020202040E0000000070F1C8B
:1053B00018383070E0E1800000070C081010101061
:1053C000180F07008060202020E0E020202060806F
:1053D0000100000000FFFF000000000100000010BD
:1053E000101F1F10100000000020E0E0200000004F
:1053F00020E020000000FFFF0000000000FF000090
:105400000000070F18101010080700002060E020AF
:1054100000000000A06020000000077EE00080780F
:105420000700000000000000071E0300000000004D
:1054300020E020002060E0200020E0200003FFC0EA
:10544000C03C3FF0807C03000000001F0300001FF1
:1054500007000000002060E020000020E020200085
:1054600000000001877CE88601000000001018168B
:10547000010000131E1810002060E0200000000052
:1054800020A060200000010F3CF8E0180601000099
:1054900000000010101F1F10100000000080E060CE
:1054A00020202020A0E020000001000080601806DD
:1054B0000300000000101C17111010101018060037
:1054C0000000000000FC04040404000000000000D0
:1054D00000FF00000000000000000000007F4040CE
:1054E00040400000000030C000000000000000004C
:1054F000000000000718E08000000000000000002D
:10550000000000030C708000000004040404FC0090
:1055100000000000000000000000FF00000000008C
:105520000000404040407F000000000000000008F4
:105530000402020408000000000000000000000057
:10554000000000000000000000000000000000005B
:10555000000000000000000000000000000000004B
:10556000000000000000000080808080808080803B
:105570008080808000000004040808000000000013
:10558000000000000000000000000000000000001B
:10559000000000000000000000000000000000000B
:1055A000000000000000989884444444FCF8000087
:1055B000000F1F19101010080F1F10180020E0F026
:1055C00000000000000000000000FFFF18080404B5
:1055D0000CF8F00000001F0F08101010180F030047
:1055E00000000000000000000000000000E0F818CB
:1055F0000404043C3800000000030F0C10101010CD
:10560000080600000000000000002020E0F000007C
:1056100000E0F81C04040408FFFF000000030F185A
:10562000101010081F0F080000000000000000000C
:10563000000000000000E0F8888484848CF8E0001A
:105640000000030F0C1010101008040000000000F0
:1056500080C0602020E0C00000040404FFFF0404B8
:1056600004000000000010101F1F101010000000A8
:10567000000000000000000000000000000070F8C2
:105680008C040CFCF40C0C0000707ECF85858DCD55
:10569000787800000020E0F000000000000000002A
:1056A0000000FFFF08040404FCF8000000101F1FA6
:1056B000100000101F1F10000000000000606000BC
:1056C000000000000000040404FCFE0000000000D4
:1056D00000001010101F1F1010100000000000002C
:1056E000000060606000000000000000040404FC92
:1056F000FE0000000000C0C08080C07F3F000000AE
:105700000020E0F000000000000000000000FFFFAB
:105710008040E01C0404000000101F1F1000001354
:105720001E1810000000202020E0F0000000000003
:105730000000000000FFFF0000000000000010104B
:10574000101F1F10101000000000000000000000DB
:105750000000000004FCFC0804FCF80804FCFC0049
:10576000101F1F10101F1F10101F1F10000000001F
:1057700000000000000000000004FCFC0804040419
:10578000FCF8000000101F1F100000101F1F100069
:1057900000000000000000000000000000E0F01821
:1057A0000C04040C18F0E00000030F0C1010101093
:1057B0000C0F0300000000000000000000000000CB
:1057C0000004FCFC080404040CF8F0000080FFFF57
:1057D000889010101C0F0300000000000000000063
:1057E0000000000000E0F81C04040408F8FC0000BD
:1057F00000030F1810109088FFFF800000000000C9
:105800000000000000000000040404FCFC10080478
:10581000041C18001010101F1F10101000000000B2
:1058200000000000000000000000000000003878C8
:10583000CCC484840C3C000000001E181010111908
:105840001F0F00000000000000C00000000000006A
:1058500000040404FFFF0404040000000000000032
:105860000F1F1010100C00000000000000000000CE
:10587000000000000004FCFE00000004FCFE00002C
:1058800000000F1F181010081F0F08000000000074
:10589000000000000000000000040C7CC400008038
:1058A000740C040000000000031F0C030000000043
:1058B000000000000000000000000000041CF48054
:1058C00004ECFC8400E41C040000011F0F00000F26
:1058D0000F000000000000000000000000000000B9
:1058E0000000040C3CE4C0241C0404000010101C44
:1058F000120101131C18100000000000000000003D
:10590000000000000004043CC40000C43C04040087
:105910000000C080817F0E01000000000000000038
:10592000000000000000000000003C0404C4741CDF
:105930000C0000000000181E13111010180E0000BB
:1059400000000000000000F8040400000000000057
:10595000001028C700000000000000000000003F09
:1059600040400000000000000000FF0000000000B8
:10597000000000000000FF00000000000000000028
:105980000000FF000000000000000404F800000018
:105990000000000000000000C72810000000000008
:1059A000000040403F00000000000000000C020228
:1059B0000204081810100C00000000000000000095
:1059C00000000000000000000000000000000000D7
:1059D000000000708888700080C060300000000007
:1059E0000000007EFF00000000000000000000003A
:1059F00003070C0810101010102020C0E000000059
:105A0000000000000000000003000000181010104B
:105A1000080804020000000001000101400000002D
:105A2000C0060020C00A0020400B0020000000003B
:105A30003F000000646563006964000072756E7465
:105A4000696D650068656C70000000006C697374B6
:105A50000000000068657800766F696420777269DD
:105A600074655F61646472287533322061646472A6
:105A70002C7533322076616C29000000753332209A
:105A8000726561645F616464722875333220616499
:105A900064722900766F69642064656C61795F6D5A
:105AA0007328753136206E6D73290000766F696436
:105AB0002064656C61795F757328753332206E756B
:105AC00073290000E45A000800000020880100004B
:105AD000DE070008505B000888010020E00D000090
