:020000040800F2
:10000000A80F00201102000841180008BD090008CF
:100010003D180008470B00083725000800000000C5
:100020000000000000000000000000006D1E00083D
:10003000310C000800000000EB1D0008851F0008BF
:100040002B0200082B0200082B0200082B020008DC
:100050002B0200082B0200082B0200082B020008CC
:100060002B0200082B0200082B0200082B020008BC
:100070002B0200082B0200082B0200082B020008AC
:100080002B0200082B0200082B0200082B0200089C
:100090002B0200082B0200082B0200082B0200088C
:1000A0002B0200082B0200082B0200082B0200087C
:1000B0002B0200088D200008E52100082B02000813
:1000C0002B0200082B0200082B0200082B0200085C
:1000D0002B020008512400082B0200082B02000804
:1000E0002B0200082B0200082B0200082B0200083C
:1000F0002B0200082B0200082B0200082B0200082C
:100100002B0200082B0200082B0200082B0200081B
:100110002B0200082B0200082B0200082B0200080B
:100120002B0200082B0200082B0200082B020008FB
:100130002B0200082B0200082B0200082B020008EB
:100140002B0200082B0200082B0200082B020008DB
:100150002B0200082B0200082B0200082B020008CB
:100160002B0200082B0200082B0200082B020008BB
:100170002B0200082B0200082B0200082B020008AB
:100180002B0200082B020008DFF80CD000F0D8FB8F
:100190000048004705360008A80F00200246D2E8B4
:1001A0004F0F411CC2E8431F03B1F8E770470246F6
:1001B00052E8000F411C42E8001303B1F8E7704712
:1001C000024652E8000F42E8001303B1F9E7704716
:1001D000024652E8000F830103D3BFF32F8F0020A4
:1001E000704700F00040084342E8000303B1F0E725
:1001F0007047024652E8000F800103D2BFF32F8FF1
:100200000020704742E8001303B1F3E70120704774
:100210000648804706480047FEE7FEE7FEE7FEE7A0
:10022000FEE7FEE7FEE7FEE7FEE7FEE7891F0008C0
:100230008901000840EA01039B0703D009E008C9CF
:10024000121F08C0042AFAD203E011F8013B00F89B
:10025000013B521EF9D27047D2B201E000F8012BE7
:10026000491EFBD270470022F6E710B513460A4636
:1002700004461946FFF7F0FF204610BD2DE9FE4F5A
:10028000804681EA0300C00F0C46009021F0004137
:1002900023F00045B8EB0200A94105D240462146B3
:1002A00090461C460B46024623F00040104347D0C0
:1002B000270DC7F30A00C3F30A510290401A0190B8
:1002C00040286BDAC3F3130040F4801B0098924679
:1002D00020B10023D2EB030A63EB0B0B01985946C4
:1002E000C0F14002504600F04EFA06460D46504618
:1002F0005946019A00F066FA10EB080061410024AB
:1003000087EA115284EAE7731A4340D0009A62B335
:10031000019A012A4FEA075215DC001B61EB02012A
:100320004FF0004202EA0752CDE90042001C41F5BD
:10033000801132462B4600F09DFA03B0BDE8F08FE5
:1003400040462146F9E7001B61EB0201001C41F524
:10035000801300185B412018A2F5001747EB03013A
:1003600040EAD570B6196D4111E06D084FEA3606C6
:1003700045EAC0754FEA0752001B61EB0201001C01
:1003800041F5801149084FEA3000001951413246C9
:100390002B4603B0BDE8F04F00F05DBA0098012293
:1003A00040000023D0EB020263EBE073009821468B
:1003B0004FEAE074B8EB000061EB0401E9E783F079
:1003C00000435BE781F0004158E72DE9FE4F81EAE9
:1003D000030404F0004421F0004100944FF0000BAE
:1003E00023F0004350EA01045ED052EA03045BD0DC
:1003F000C3F30A54C1F30A552C44A4F2F334019414
:10040000A0FB0254C1F3130141F48011C3F31303A1
:1004100043F4801301FB024400FB034E840A970A55
:1004200044EA815447EA8357A4FB076802958D0A82
:1004300005FB07854FEA932C04FB0C542705029D0E
:100440004FEA065847EA1637B5EB08056EEB070C7E
:10045000870E920E47EA811742EA8312A7FB020138
:10046000B6EB0B0164EB00042B0D43EA0C335E1872
:1004700044EB1C50DA465146E7FB0201C5F3130476
:100480004FEA0B3343EA14534FEA0432019C43EA28
:100490000603A4F10C040294009CCDE900B400F022
:1004A000E9F903B0BDE8F08F00200146F9E72DE936
:1004B000F04D81EA030404F0004B21F0004514469E
:1004C0004FF0000A23F0004150EA050220D054EA20
:1004D00001021DD0C5F30A570246C5F31303C1F349
:1004E0001300C1F30A5640F4801543F48013A7EBC0
:1004F0000608101BD64608F2FD3873EB050002D340
:1005000008F1010801E092185B41B8F1000F03DA2D
:1005100000200146BDE8F08D00204FF48011064612
:1005200084460EE0171B73EB050705D3121B63EB24
:10053000050306434CEA010C49084FEA30009218C3
:100540005B4150EA0107EDD152EA030012D082EA82
:10055000040083EA0501084305D0101BAB4106D215
:100560000122002306E000224FF0004302E06FF07A
:10057000010253101AEB06004CEB085110EB0A0075
:1005800041EB0B01BDE8F04D00F065B90EB5C10FB0
:1005900080EAE0700844CA07002140F233438DE846
:1005A0000E000A460B4600F065F903B000BD0EB51B
:1005B00040F2334102910021CDE900110A460B4679
:1005C00000F058F903B000BD70B5C1F30A5201F054
:1005D00000450024C1F3130140F2FF3341F48011C0
:1005E0009A4201DA002070BD40F233439A42A2F2EF
:1005F000334203DC524200F0D5F800E090402C4337
:10060000F1D0404270BDC1F30A5210B5C1F31301DD
:1006100040F2FF3341F480119A4201DA002010BD0C
:1006200040F233439A42A2F2334203DC524200F0DA
:10063000B9F810BD904010BD00F0004230F000400D
:100640000AD0C10D01F56071C0F3160042EA0151F4
:10065000C208400711437047002001467047000060
:1006600030B5041E71F1000404DB4FF00044404239
:1006700064EB0101141E73F1000405DB1C464FF00E
:100680000043524263EB04038B4208BF824230BDF9
:1006900030B5041E71F1000404DB4FF00044404209
:1006A00064EB0101141E73F1000405DB1C464FF0DE
:1006B0000043524263EB0403994208BF904230BDAD
:1006C00001F0004330B421F0004150EA010206D0AD
:1006D0000A0DA2F56072C1F31301002A02DC30BCDE
:1006E00000207047440F44EAC104C100E01830BC48
:1006F00000EBC25000F078B830B50B460146002040
:100700002022012409E021FA02F59D4205D303FAD3
:1007100002F5491B04FA02F52844151EA2F1010254
:10072000F1DC30BD2DE9F05F0546002092469B4686
:1007300088460646814640241BE0284641464746F7
:10074000224600F02FF853465A46C01A914110D362
:1007500011461846224600F016F82D1A67EB0108DC
:100760004F4622460120002100F00DF817EB00094A
:100770004E41201EA4F10104DFDC484631462A46E2
:100780004346BDE8F09F202A04DB203A00FA02F13C
:10079000002070479140C2F1200320FA03F319436F
:1007A00090407047202A04DB203A21FA02F0002111
:1007B000704721FA02F3D040C2F120029140084371
:1007C00019467047202A06DBCB17203A41FA02F07F
:1007D00043EAE07306E041FA02F3D040C2F120029E
:1007E00091400843194670470029A8BF7047401C34
:1007F000490008BF20F00100704710B4B0FA80FC37
:1008000000FA0CF050EA010404BF10BC704749B173
:10081000CCF1200421FA04F411FA0CF118BF0121E3
:1008200021430843A3EB0C01CB1D4FEA00614FEAC3
:10083000102042BF002010BC704700EBC350104492
:100840000029A4BF10BC7047401C490008BF20F01D
:10085000010010BC704710B5141E73F1000408DAD3
:10086000401C41F1000192185B411A4301D120F074
:10087000010010BD2DE9F04D92469B4611B1B1FA31
:1008800081F202E0B0FA80F220329046FFF77BFF5F
:1008900004460F4640EA0A0041EA0B0153465A4615
:1008A000084313D0114653EA010019D0C8F14002A1
:1008B0005046FFF777FF05460E46504659464246DA
:1008C000FFF761FF084305D0012004E020463946C8
:1008D000BDE8F08D0020054346EAE0762C4337431F
:1008E0000A986305E40AA0EB08000022FD0A44EA26
:1008F00047540A3002D500200146E9E701051019E6
:100900006941DDE9084500196941BDE8F04DA2E7FC
:10091000C1F30A52C1F3130140F2FF3341F48011D5
:100920009A4202DA00200146704740F233439A426D
:10093000A2F2334202DC5242FFF734BFFFF723BF7B
:10094000064C074D06E0E06840F0010394E807001C
:1009500098471034AC42F6D3FFF71AFCD87300085E
:10096000F873000870B58C1810F8015B15F00703D8
:1009700001D110F8013B2A1106D110F8012B03E038
:1009800010F8016B01F8016B5B1EF9D12B0705D440
:100990000023521E0DD401F8013BFAE710F8013B89
:1009A000CB1A921C03E013F8015B01F8015B521EA5
:1009B000F9D5A142D8D3002070BD00001EF0040F6D
:1009C0000CBFEFF30880EFF3098000F0BFBE21B148
:1009D000826842F00102826003E0826822F0010234
:1009E000826070470021084A1168084A1140D0E926
:1009F00000231A4383681A43C3681A431143044A05
:100A0000C2F804137047000004230140E030FCFFEB
:100A1000002001400146C86C80B2704702460020A9
:100A200013680B400BB1012000E00020704700006C
:100A300030B50246002000235068104C20400D794C
:100A40000C6844EA05242043506090680C4C204018
:100A5000D1E903542C438D682C434D7944EA450475
:100A600020439060D06A20F470000C7D641EE4B2D4
:100A7000234340EA0350D06230BD0000FFFEFFFC7C
:100A8000FDF7FFC0F0B504460D4600200021092DFA
:100A900011DDE068A5F10A0606EB4607072606FA0F
:100AA00007F18843A5F10A0606EB460603FA06F1AC
:100AB0000843E0600CE0206905EB4507072606FACD
:100AC00007F1884305EB450603FA06F10843206168
:100AD000072A0FDA606B561E06EB86071F2606FAFA
:100AE00007F18843561E06EB860605FA06F1084311
:100AF000606322E00D2A0FDA206BD61F06EB860713
:100B00001F2606FA07F18843D61F06EB860605FA6C
:100B100006F10843206310E0E06AA2F10D0606EB3F
:100B200086071F2606FA07F18843A2F10D0606EB99
:100B3000860605FA06F10843E062F0BD816841F0DF
:100B400080418160704700BFFEE710B5044604F0A5
:100B50001BF903F03DF82046641C03F05DF82046C5
:100B6000641C03F059F82046641C03F055F8204635
:100B7000641C03F051F8204603F04EF810BD00004D
:100B800070B52DED028B0446002501262548FFF7A0
:100B9000DCFF2448007823494978084421498978B2
:100BA00008442049C9780844C5B21E480079A842C3
:100BB00035D11C4949781B4A127801EB0220FFF716
:100BC000E5FC41EC180B9FED180B53EC102BFFF7D5
:100BD0006EFCC4E900011348807800F0800030B159
:100BE0001048807820F080000E498870B61E0D49AC
:100BF000C9780C4A927801EB022101FB06F0FFF75D
:100C0000C5FC41EC180B9FED080B53EC102BFFF7C4
:100C10004EFCC4E902010020BDEC028B70BDFF2038
:100C2000FAE7000018000020000000000000244047
:100C3000704700000146074A12780AB9002008E010
:100C4000054AC1F3C623D25CC1F30223DA4002F0A5
:100C500001007047800B0020000B002070B500BF22
:100C60000C48866900F00CFA054600BF2946094881
:100C70001830FFF7A5FA044600BFB442F0D1A542F0
:100C800006D200BF03481030FFF791FA00BF00BF43
:100C9000284670BD800B00202DE9F04104460D462A
:100CA00016462046FFF7C6FF10B90120BDE8F081C7
:100CB000FFF7D4FF0746A4B200BFEFF3058010B1E1
:100CC0004FF4002000E00020044344F0407033461D
:100CD0002A46394600F08EF880464046E6E72DE980
:100CE000FC47044688461546B8F1000F01D0802D18
:100CF00002D90020BDE8FC872046FFF79BFF08B91A
:100D00000120F7E7FFF7AAFF8246A4B200BFEFF386
:100D1000058010B14FF4002000E000200443464657
:100D200045B900231A465146204600F063F80746AD
:100D30003846DFE7082D16D80020009001902A469B
:100D400031466846FFF776FA4FF4E02000EA0540A6
:100D5000044344F040705146DDE9002300F04AF8B6
:100D600007463846C6E700F0D1FC4FF4E02101EA1F
:100D7000004930680090706801900836083D44EAE8
:100D8000090444F080705146DDE9002300F032F898
:100D900007460FB90020ADE74FF6017049EA00049D
:100DA00010E030680090706801900836083D5146A8
:100DB0002046DDE9002300F01DF80746641C0FB94A
:100DC000002097E7082DECD80020009001902A46DB
:100DD00031466846FFF72EFA24F47F4444EA05249E
:100DE00044F000705146DDE9002300F003F80746A7
:100DF00038467FE72DE9FF4F81B0884691469A46F5
:100E00004FF0070B51E000BF2E48FFF7D0F9064620
:100E100006F03F002C4901EB0014B0094FF47001BB
:100E200001EA00510091DDE9001008434FF08051C4
:100E300001EAD80108434FF0005101EA9901084343
:100E40004FF0804101EA5A01084340F040652946CD
:100E500004F10C00FFF7BCF9054605F0806010B303
:100E600085F0806585F0004505F0004728F00040DA
:100E70003843206029F00040384360602AF0004089
:100E80003843A060294604F10C00FFF7B2F948B1DD
:100E900000BF0C48001DFFF78AF900BF012005B014
:100EA000BDE8F08F04E0ABF1010BBBF1000FAAD15C
:100EB00000BF00BF03480830FFF779F900BF0020EA
:100EC000EDE70000840B002000070020F0B5064687
:100ED0000C461546FF2C01D2FF2D01D30020F0BD9A
:100EE000002200231AE0012098403040A0B12146A2
:100EF00010E002EBD1000B4F385C01F0070C01272A
:100F000007FA0CF7384302EBD107DFF818C00CF8EA
:100F10000700491CA942ECD920325B1C042BE2D308
:100F20000120DCE7000B00202DE9F05F82468946B6
:100F300000204149087080214048FFF794F91821AA
:100F40003F4802F075FA80463B48006A3D498842B6
:100F500008D00846384908620846A0F802800120F7
:100F6000C8610FE034484088404506D03248A0F8B8
:100F7000028001203049C86104E02F48C069401C4C
:100F80002D49C8612C48C06901280BD100202A498D
:100F9000487048608860C8604FF480612A48FFF755
:100FA00062F90FE000270BE0274800EB0715E8681F
:100FB00000F0806018B1E86820F04060E8607F1CB5
:100FC000402FF1D31C48C06901280FD100F064F80C
:100FD00004461CB100F05AF8064600E00026164808
:100FE0004661002014498861086102E000F054F86D
:100FF0000446ECB1FE2200215046FFF767FFEF22C6
:1010000011460F20FFF762FFFE2211460420FFF772
:101010005DFFFFF723FE8346074800235946C26958
:101020000A48FFF7E7FEB9F1000F01D000F010F811
:101030002046BDE8F09F0000800B0020000B002040
:101040002C7300086B27A5E10007002000FF0003B8
:1010500010B50948007808B1012010BD01200649EB
:101060000870FFF7FBFD044600231A46214603489B
:10107000FFF7C0FE0120F0E7800B002001FF000316
:101080000148406870470000001000E00148006817
:1010900070470000040000200648006840F080709F
:1010A000044908600448006840F0010002490860F3
:1010B00001207047FCED00E0001000E0F0B50A46AA
:1010C00000210023002400BF3DE0012505FA01F3C3
:1010D000156805EA03049C4234D105684F000326D5
:1010E000BE40B543056015794E00B54006683543EE
:1010F00005601579012D02D01579022D16D185686C
:101100004F000326BE40B543856055794E00B5407B
:10111000866835438560456801268E40B543456045
:10112000456896798E40B6B235434560C5684F0034
:101130000326BE40B543C560D5794E00B540C668AC
:101140003543C560491C1029BFD3F0BDF0B500235D
:1011500000244D07ED0E02FA05F3CE1000F1200534
:1011600055F826504E07F70E0F26BE40B543CF1058
:1011700000F1200646F82750CE1000F1200555F862
:10118000265045EA0304CE1000F1200545F826401C
:10119000F0BD418370470183704700002DE9F041A5
:1011A0002DED108B84B0B0EE409AF0EE609AB0EE68
:1011B000418AF0EE618AFF25FF26FF24FF279FED7D
:1011C000FE0B53EC102B51EC190BFFF761FA7DD895
:1011D0009FEDFB0B53EC102B51EC190BFFF740FA72
:1011E000F5D89FEDF50B53EC102B51EC180BFFF7D6
:1011F0004FFAECD89FEDF20B53EC102B51EC180B7F
:10120000FFF72EFAE3D851EC180BFFF7DDF90521B3
:1012100090FBF1F84046FFF7B9F941EC1C0B9FED4C
:10122000E60B53EC102B51EC180BFFF740F941EC97
:101230001D0B53EC1C2BFFF7C2F841EC1B0BB0EE5F
:101240004B0AF0EE6B0A01F0FBF9B0EE40AAF0EEAB
:1012500060AA9FEDDD0B53EC102B51EC1A0BFFF73E
:10126000FFF90ED29FEDD40B53EC102B51EC180B61
:10127000FFF71DF941EC1A0BFFF7C5F9401EC4B288
:101280000FE09FEDCD0B53EC102B51EC180BFFF73B
:101290000EF941EC1A0BFFF7B6F9401EC4B2601C00
:1012A000C7B251EC190BFFF78FF9052190FBF1F84C
:1012B0004046FFF76BF941EC1C0B9FEDBF0B53EC65
:1012C000102B51EC190BFFF7F2F800E016E241EC9D
:1012D0001D0B53EC1C2BFFF772F841EC1B0BB0EE0F
:1012E0004B0AF0EE6B0A01F0ABF9B0EE40AAF0EE5B
:1012F00060AA9FEDB50B53EC102B51EC1A0BFFF7C6
:10130000AFF90ED29FEDAC0B53EC102B51EC190B37
:10131000FFF7CDF841EC1A0BFFF775F9401EC5B287
:101320000FE09FEDA50B53EC102B51EC190BFFF7C1
:10133000BEF841EC1A0BFFF766F9401EC5B2681CF7
:10134000C6B2FF2F0FD1FF2E0DD105EB8500A049AE
:1013500001EB001000EB840090ED000A04B0BDEC3E
:10136000108BBDE8F081FF2E5BD105EB8500984A1C
:1013700002EB001000EB840090ED000A10EE101A52
:101380000846FFF759F941EC1B0B9FED8B0B53EC13
:10139000102B51EC180BFFF78AF841EC1F0BFFF7ED
:1013A00013F900EB80084046FFF7F0F841EC1E0B04
:1013B00053EC182BFFF706F841EC1D0B05EB8500ED
:1013C000834901EB001000EB870090ED000A05EB6C
:1013D000850001EB001000EB8400D0ED000A30EE38
:1013E000600AF1EE040A80EE201A11EE108A4046DF
:1013F000FFF722F953EC1D2BCDE900019DED000B09
:1014000051EC100BFEF7E1FF41EC1C0B53EC1B2BD6
:10141000FEF734FF41EC1A0BFFF752F900EE100A09
:101420009CE7FF2F5BD105EB8500694A02EB0010BA
:1014300000EB840090ED000A10EE101A0846FFF74A
:10144000FBF841EC1B0B9FED5C0B53EC102B51ECAC
:10145000190BFFF72CF8CDE900019DED000B51ECC5
:10146000100BFFF7B1F800EB80084046FFF78EF84D
:1014700041EC1F0B53EC192BFEF7A4FF41EC1D0BA5
:1014800006EB8600524901EB001000EB840090ED62
:10149000000A05EB850001EB001000EB8400D0EDA5
:1014A000000A30EE600AF1EE040A80EE201A11EE16
:1014B000108A4046FFF7C0F841EC1E0B53EC1D2B81
:1014C000FEF783FF41EC1C0B53EC1B2BFEF7D6FE03
:1014D00041EC1A0BFFF7F4F800EE100A3EE700208B
:1014E0000290039005EB8500394A02EB001000EBF7
:1014F000840090ED000A10EE101A0846FFF79CF8E1
:1015000041EC1B0B9FED2C0B53EC102B51EC180BEB
:10151000FEF7CDFFCDE900019DED000B51EC100B66
:10152000FFF752F800EB80084046FFF72FF841EC38
:101530001F0B53EC182BFEF745FF41EC1D0B05EB81
:101540008500234901EB001000EB870090ED000AB5
:1015500005EB850001EB001000EB8400D0ED000AE4
:1015600030EE600AF1EE040A80EE201A11EE108AC5
:101570004046FFF761F841EC1E0B53EC1D2BFEF7C4
:1015800024FF41EC1C0B53EC1B2BFEF777FE41ECC8
:101590001A0BFFF795F8029006EB86000C4A02EB57
:1015A000001000EB840090ED000A10EE101A0846BF
:1015B000FFF742F80EE000000000000000001440B9
:1015C0000000000000005940000000000000803EC4
:1015D000EC6C000841EC1A0B1FED090B53EC102BBF
:1015E00051EC180BFEF763FF41EC1F0BFEF7ECFF0D
:1015F00000EB80084046FEF7C9FF41EC1E0B53ECA0
:10160000182BFEF7DFFE41EC1C0B06EB86003D4974
:1016100001EB001000EB870090ED000A06EB86005E
:1016200001EB001000EB8400D0ED000A30EE600A00
:10163000F1EE040A80EE201A11EE108A4046FEF701
:10164000FBFF41EC1D0B53EC1C2BFEF7BEFE41ECE7
:101650001B0B53EC1A2BFEF711FECDE900019DED9B
:10166000000B51EC100BFFF72BF803909DED020AD5
:1016700010EE101A0846FEF7DFFF41EC1A0B1FEDC3
:10168000320B53EC102B51EC190BFEF710FF41EC11
:101690001F0BFEF799FF00EB80084046FEF776FF30
:1016A00041EC1E0B53EC192BFEF78CFE41EC1C0B8E
:1016B0009DED030ADDED020A30EE600AF1EE040A48
:1016C00080EE201A11EE108A4046FEF7B5FF41EC7D
:1016D0001D0B53EC1C2BFEF778FE41EC1B0B53EC5F
:1016E0001A2BFEF7CBFDCDE900019DED000B51EC6F
:1016F000100BFEF7E5FF00EE100A2FE69FED020A41
:101700002CE60000EC6C00080000000010B5024858
:10171000FEF744FD10BD0000810B002010B504460B
:101720000723012221460848FFF7ACF90648FFF7D6
:1017300005FA00BF02210448FFF770F90028F9D02C
:101740000148FFF767F910BD0020014029490968E9
:1017500001F0004149B12749096841F00041254A9B
:1017600011608169891C81617047224908390968C3
:10177000214A11621F49091F097882F824101D4966
:10178000C91E097891621B490C310968D162194957
:10179000891E098811861749096851631549091D71
:1017A00009689163134910310968D1630021134A14
:1017B000116000BF114909680029FBD00E4A016879
:1017C00011604168516081689160C168D1600169B0
:1017D00011614169516181699161C169D1610021E2
:1017E000064A116000BF054909680029FBD000BF07
:1017F000BAE700002CED00E0940600205000002025
:101800001CB50121084600F0F1FA042000900120E7
:101810008DF8040000208DF806008DF807000320E5
:101820008DF8050069460448FFF748FC042102488A
:10183000FFF7B1FC1CBD00000000024000BFFEE746
:101840007047000070B5002100230F22C4781CB33C
:10185000174C246804F4E064C4F5E064C4F3072181
:10186000C1F10404E3B20A4144789C40E1B28478B7
:10187000144021430C07210E0E4C05786155047865
:1018800004F01F050124AC4005786D11AD0005F191
:10189000E025C5F8004109E0047804F01F050124A3
:1018A000AC40054D0678761145F8264070BD000025
:1018B0000CED00E000E400E080E100E070B5002401
:1018C0000CE0002506E00020074901EBC5010855A2
:1018D000681CC5B2802DF6DB601CC4B2082CF0DB9E
:1018E00000F008F970BD0000CA0100202DE9F041A8
:1018F00005460E46174614480078A84220D03446C4
:101900001CE004F1B000002100F015FA00210846A7
:1019100000F011FA0021102000F00DFA4FF000083D
:1019200007E00121002000F006FA08F1010000F0B4
:10193000FF08B8F1800FF4DB601CC4B2BC42E0DDEC
:1019400001480570BDE8F0811E00002010B580211F
:101950000B48FFF720FC4FF480710948FFF71BFC90
:10196000012001F0F3FD4FF480710548FFF711FCF1
:10197000012001F0EBFD80210148FFF70AFC10BDBA
:101980000000024010B580210848FFF704FC4FF426
:1019900080710648FFF7FDFB012001F0D7FD4FF4F1
:1019A00080710248FFF7F7FB10BD00000000024005
:1019B00010B580210548FFF7EEFB012001F0C6FDC0
:1019C00080210248FFF7E5FB10BD00000000024047
:1019D0001CB50121084600F009FA4FF4C0700090D0
:1019E00001208DF804008DF8060003208DF8050015
:1019F00001208DF8070069463D48FFF75FFB4FF473
:101A0000C0713B48FFF7C7FB4FF47A7001F082FDCD
:101A10000021AE2000F08FF90021084600F08BF97C
:101A20000021102000F087F90021402000F083F908
:101A30000021B02000F07FF90021812000F07BF927
:101A40000021FF2000F077F90021A12000F073F9B8
:101A50000021A62000F06FF90021A82000F06BF90A
:101A600000213F2000F067F90021C82000F063F951
:101A70000021D32000F05FF90021084600F05BF957
:101A80000021D52000F057F90021802000F053F903
:101A90000021D82000F04FF90021052000F04BF97B
:101AA0000021D92000F047F90021F12000F043F98E
:101AB0000021DA2000F03FF90021122000F03BF96C
:101AC0000021DB2000F037F90021302000F033F94D
:101AD00000218D2000F02FF90021142000F02BF9B7
:101AE0000021AF2000F027F9FFF7E8FE1CBD000041
:101AF0000000024070B500241BE004F1B00000219A
:101B000000F019F90021084600F015F90021102015
:101B100000F011F9002508E0074901EBC501085D57
:101B2000012100F008F9681CC5B2802DF4DB601CAF
:101B3000C4B2082CE1DB70BDCA01002070B50446B8
:101B40000D4605F1B000002100F0F5F8102141EA42
:101B50001410002100F0EFF804F00F00002100F055
:101B6000EAF870BD2DE9F84F80460E4691461C46B6
:101B70004FF0000A00250020009000278346A9F1BD
:101B8000200000F0FF0AB8F17F0F02DDA846B01C6C
:101B9000C6B2042C02D1DFF8D4B015E0082C02D173
:101BA000DFF8CCB010E00C2C02D1DFF8C8B00BE0AD
:101BB000102C02D1DFF8C0B006E0182C02D1DFF8FB
:101BC000BCB001E0BDE8F88F082C05DC314640468A
:101BD000FFF7B4FF27461EE02046E31704EB5373DC
:101BE000DB1021464FEAE47C04EB5C7C4FEAEC0C12
:101BF000A4EBCC0CBCF1000F02D04FF0010C01E0C3
:101C00004FF0000C6344224604EBD27C4FEA6C0C8C
:101C100003FB0CF3DFB2002524E0082C0DDD04EB00
:101C2000D471491095FBF1F201FB125129B93146EB
:101C3000721CD6B24046FFF781FF0A9828B107FB15
:101C40000A501BF80000009006E007FB0A501BF842
:101C50000000C043C0B200900121009800F06BF872
:101C6000681CC5B2BD42D8DB00BFABE738500008E6
:101C7000B4510008AC54000838590008485F000807
:101C80002DE9F84306460F4615461C46DDF8208030
:101C900049E004EBD4714910C1F18001B14202DA8C
:101CA00000263819C7B2C4F14000B84204DA002057
:101CB00006460746FFF702FECDF800802A78234645
:101CC00039463046FFF74EFF082C02DC3019C6B209
:101CD00005E0204604EBD07106EB6101CEB26878D6
:101CE000A1281FD1A878E6281CD123467F22394697
:101CF0003046CDF80080FFF735FF204604EBD07169
:101D000006EB6101CEB22346802239463046CDF83B
:101D10000080FFF727FFAD1C204604EBD07106EBD7
:101D20006101CEB26D1C28787E2802DC287820283C
:101D3000AFDABDE8F88370B504460D461DB1E0B2D8
:101D400000F044FC02E0E0B200F02AFC70BD0000AC
:101D50002DE9F04107460E46154631463846FFF755
:101D6000EDFE002408E0104901EB4511085D01215A
:101D7000FFF7E1FF601CC4B2102CF4DB701CC1B291
:101D80003846FFF7DBFE00240AE0074901EB451265
:101D900004F11001505C0121FFF7CDFF601CC4B2BB
:101DA000102CF2DBBDE8F081F84D00082DE9F04180
:101DB00004460D4616461F4610E07F2C04DDA4F1B4
:101DC0008000C4B2A81CC5B23246711CCEB22946EE
:101DD0002046FFF7BDFF04F11000C4B2381EA7F182
:101DE0000101CFB2E9D1BDE8F081704729B1064ABF
:101DF00012680243044B1A6004E0034A12688243EB
:101E0000014B1A60704700003038024029B1064A81
:101E100012680243044B1A6004E0034A12688243CA
:101E2000014B1A60704700004038024029B1064A51
:101E300012680243044B1A6004E0034A12688243AA
:101E4000014B1A60704700004438024029B1064A2D
:101E500012680243044B1A6004E0034A126882438A
:101E6000014B1A60704700002438024070470000A0
:101E70000CB50020019000903448006840F4803098
:101E80003249086000BF3148006800F4003000901B
:101E90000198401C0190009818B90198B0F5A04F26
:101EA000F1D12A48006800F4003010B10120009000
:101EB00001E0002000900098012846D123484030DE
:101EC000006840F080502149403108602048006897
:101ED00040F440401E4908601C48083000681B4917
:101EE000083108600846006840F400400860084671
:101EF000006840F4A05008601648091F0860081FD9
:101F0000006840F08070091F086000BF0F4800683B
:101F100000F000700028F9D040F205700E4908600A
:101F20000A480830006820F00300084908310860BA
:101F30000846006840F00200086000BF034808300F
:101F4000006800F00C000828F8D10CBD00380240F1
:101F50000070004008544007003C0240042808D1AB
:101F60004FF0E021096941F004014FF0E0221161D6
:101F700007E04FF0E021096921F004014FF0E02271
:101F8000116170477047000010B51548006840F4B3
:101F90007000134908601348006840F001001149BF
:101FA000086000200F49083108600E4800680E499B
:101FB00008400C4908600D48091D0860081F0068AA
:101FC00020F48020091F0860002006490C310860B9
:101FD000FFF74EFF4FF0006001498039086010BDE7
:101FE00088ED00E000380240FFFFF6FE10300024CC
:101FF00030B58BB004460D4601210846FFF706FFB9
:1020000001210846FFF7F2FE012211461E48FFF7A4
:102010009DF8022009908DF8280003208DF82900F2
:1020200000208DF82A0001208DF82B0009A9164800
:10203000FFF744F8A8B2ADF818000020ADF81A0078
:102040000794ADF8200006A94FF0804000F090F909
:102050006020ADF804000120ADF806000020ADF8C6
:10206000100001A94FF0804000F01CF90821C806BB
:1020700000F06AF90121880700F0D0F801218807F3
:1020800000F0DEF80BB030BD0000024010B50121B9
:10209000314800F0EDF8012858D13048008828B9BF
:1020A00038222FA14FF46F40FEF7F6FD2B48008831
:1020B000401C2A49088008460088B0F5FA7F0DDDEB
:1020C000002008803F2226A14EF62070FEF7E4FD96
:1020D0002948007820F00100274908702748008827
:1020E000401C2649088008460088B0F5FA6F07DDD5
:1020F000002008802048007820F002001E49087067
:102100001F480088401C1E49088008460088B0F51A
:10211000FA7F07DD002008801748007820F00400CF
:102120001549087017480088401C16490880084661
:102130000088B0F57A7F07DD002008800E4800781F
:1021400020F008000C49087000F004FF012102484B
:1021500000F073F810BD00000004004022000020D1
:102160002E2E5C4253505C5372635C6273705F74DA
:10217000696D65722E6300000000002020000020C1
:1021800024000020260000207FB505460C460121D2
:102190000220FFF73BFE0295ADF804400020ADF8A9
:1021A0000600ADF80C0001A90D4800F0E1F801228D
:1021B00011460B4800F06DF80121094800F040F885
:1021C0001D208DF8000001208DF8010003208DF8FE
:1021D000020001208DF803006846FFF733FB7FBD46
:1021E0000004004010B501210A4800F041F8012820
:1021F0000AD10949086980470021064800F0B5F86E
:102200006421044800F0ADF80121024800F015F8FF
:1022100010BD0000000800409000002021B102889D
:1022200042F08002028004E002884FF67F731A4079
:1022300002807047CA4302827047CA4302827047D5
:1022400021B1028842F00102028004E002884FF6C8
:10225000FE731A40028070470146486A7047024682
:102260000020138A0B400BB1012000E000207047D2
:1022700030B50246002000230024158A05EA010338
:10228000958905EA010413B10CB1012000E000209A
:1022900030BD1AB183890B43838102E083898B436C
:1022A0008381704770B5002400220023058C4FF60F
:1022B000EF7635400584028C8388048B48F6FF75E1
:1022C0002C404FF6FF452C400D884FF6FF7606EA6E
:1022D00005252C434FF6DF752A408D8906EA051542
:1022E0002A434D8806EA05152A43154DA84202D017
:1022F000144DA8421DD14FF67F752A40CD894FF667
:10230000FF7606EA05152A434FF6BF752A408D88E9
:1023100006EA05152A434FF6FF352B404FF2FF75AD
:102320002B400D8A06EA85052B434D8A06EA850572
:102330002B43838004838D688563028470BD000015
:1023400000000140000401400A460021018B4FF2C9
:10235000FF7319404FF6FF7303EA02231943018309
:102360007047C162704781637047416270470000E7
:1023700000220288184B98420ED0184B98420BD07E
:10238000B0F1804F08D0164B984205D0154B9842BB
:1023900002D0154B984204D14FF68F731A404B88E8
:1023A0001A43124B984207D0114B984204D04FF673
:1023B000FF431A400B891A4302804B68C3620B88A3
:1023C0000385054B984202D0044B984201D18B7A89
:1023D000038601238382704700000140000401400E
:1023E0000004004000080040000C004000100040C5
:1023F000001400407FB504460D4601210420FFF77C
:1024000005FDADF800500020ADF802000194ADF8D4
:10241000080069460D48FFF7ABFF012211460B4843
:10242000FFF737FF01210948FFF70AFF1E208DF84B
:102430000C0003208DF80D008DF80E0001208DF8A2
:102440000F0003A8FFF7FEF97FBD00000008004061
:1024500010B540F225511D4800F03EF810B31B485E
:1024600000F064F8C4B21A48008800F40040C8B90B
:102470001748008800F4804060B10A2C03D0002087
:102480001349088020E01248008840F400401049B9
:10249000088019E00D2C06D10D48008840F48040DA
:1024A0000B49088010E00A480088C0F30D00094974
:1024B0000C5407480088401C0549088008460088DD
:1024C000C72801DD0020088010BD00000010014079
:1024D0004E000020CA05002070B5024600240023EB
:1024E0000025002040F66A16B14200D100BFC1F3BA
:1024F000421501F01F03012606FA03F3012D02D154
:102500009689334006E0022D02D1168A334001E05D
:10251000968A33400C12012606FA04F416883440D9
:1025200013B10CB1012000E0002070BD0146888885
:10253000C0F30800704700BFFEE700002DE9F0413E
:1025400005462C4680211548FEF723FE002620E094
:10255000274607F08007802F04D179000F48FEF747
:102560001AFE04E04FF480710C48FEF712FE60067C
:10257000040E80210948FEF70EFE012000F0E6FF60
:1025800080210648FEF705FE012000F0DFFF701CE9
:10259000C6B2082EDCDBBDE8F0810000000002407E
:1025A00010B50446FFF7D2F97820FFF7C7FFFFF711
:1025B000FFF90020FFF7C2FFFFF7FAF92046FFF707
:1025C000BDFFFFF7F5F9FFF7DDF910BD10B50446C3
:1025D000FFF7BCF97820FFF7B1FFFFF7E9F94020DA
:1025E000FFF7ACFFFFF7E4F92046FFF7A7FFFFF77F
:1025F000DFF9FFF7C7F910BD0FB4054B10B503A9FC
:10260000044A029800F0F8F810BC5DF814FB0000D2
:10261000E5350008900100200FB4084B10B504A95F
:1026200002AA039800F0E8F8044602A9002000F08E
:102630007AFC204610BC5DF814FB0000272F000830
:102640002DED020B019820F0004001909DED000B54
:1026500002B0704702E008C8121F08C1002AFAD170
:1026600070477047002001E001C1121F002AFBD112
:10267000704700002DE9FF5F82B00021DDE90430E2
:10268000020DDDF840B0034318D044F61050A2F21A
:10269000FF3242431514119801281FD0A5EB0B00FF
:1026A000401C5FEA000A4FF000064E4FDFF83891F9
:1026B000B046504615D5CAF1000413E01198012424
:1026C0004AA3012801D16FEA0B010298119AC0E9CF
:1026D0000031C0E9024206B0BDE8F09FCBF1000036
:1026E000DFE704460021404A491842EB0450CDE997
:1026F000001012E0E00707D032463B46404649460C
:10270000FDF763FE8046894632463B461046194631
:10271000FDF75BFE06460F466410002CEAD1DDE9AA
:102720000401DDE90023BAF1000F06DAFDF74DFEE2
:1027300042464B46FDF749FE05E0FDF7B8FE42462E
:102740004B46FDF7B4FE04460E460022284BFDF72B
:102750009FFF03D84FF0FF30014607E00022254BD2
:1027600020463146FDF78AFDFEF7D2F8102409E035
:10277000002C0ADB0A220023FDF7D4FF039B303232
:102780001A55641E50EA0102F2D1641C039AC4F186
:1027900011031444119A012A03D0012208430DD1D8
:1027A0000AE0084304D000204FF0110B119072E7AB
:1027B000A3EB0B056D1E0DE05B4504DD4FF0000241
:1027C00005F1010504E003DA4FF00002A5F101056F
:1027D000002AECD002981199C0E90231C0E9004505
:1027E00079E70000000014400000F03F30000000D6
:1027F0000000F0430000E03F2DE9FF4F95B09B46FD
:102800008946064600250FE2252877D10024274671
:10281000F84A0121059400E0044316F8013F203BEB
:1028200001FA03F01042F7D130782A2811D06FF066
:102830002F033078A0F13002092A16D8059A44F007
:10284000020402EB820203EB42021044761C059064
:10285000EFE759F8042B0592002A03DA504244F4BA
:102860000054059044F00204761C30782E2816D1CE
:1028700016F8010F44F004042A280DD06FF02F023F
:102880003078A0F13003092B09D807EB870302EB5E
:102890004303C718761CF3E759F8047B761C30789D
:1028A0006C280FD006DC4C2817D068280DD06A2879
:1028B00014D104E0742810D07A280FD10DE044F42C
:1028C00000140AE044F4801401E044F440147278E7
:1028D000824202D104F58014761C761C307866287A
:1028E0000BD013DC582877D009DC002875D0452898
:1028F000F6D04628F4D047281AD19DE118E0632885
:1029000035D0642879D0652812D195E1702873D02C
:1029100008DC6728F1D069286FD06E280DD06F28A9
:1029200006D1B5E073282CD0752875D0782874D0DE
:102930005A46179990476D1C75E1C4F3025002285E
:1029400009D003280DD0D9F8001004280DD00D604F
:1029500009F1040967E1D9F80010EA17C1E900524A
:10296000F6E7D9F800100D80F2E70D70F0E719F8DE
:10297000041B8DF8001000208DF80100EA460120AC
:1029800003E059F804AB4FF0FF3061074FF000014E
:1029900002D40DE008F101018846B9420FDA804502
:1029A000F8DB1AF808100029F4D108E008F1010159
:1029B00088468142FADB1AF808100029F6D10598FA
:1029C0005B46A0EB080721463846179A00F094FAB8
:1029D000284400EB080507E04DE029E10DE01AF876
:1029E000010B5A4617999047B8F10108F7D25B4698
:1029F00021463846179A13E142E00A220092C4F3B6
:102A000002524FF0000A022A08D059F804CB032AD8
:102A10004FEAEC710AD00DE029E02AE009F1070144
:102A200021F00702F2E802C1914609E00FFA8CFC9E
:102A30004FEAEC71042A03D14FFA8CFC4FEAEC7197
:102A4000002907DA0A460021DCF1000C61EB0201E3
:102A50002D2202E0220504D52B228DF8042001222C
:102A600003E0E20701D02022F7E7904659E00A216F
:102A700002E010220DE010214FF0000A00910BE05F
:102A800010224FF0000A44F004040827009203E0EB
:102A900008224FF0000A0092C4F30252022A05D025
:102AA00059F804CB0021032A08D009E009F10701F5
:102AB00021F00702F2E802C1914605E01FFA8CFC02
:102AC000042A01D10CF0FF0C4FF00008220728D592
:102AD000702806D0009B83F0100353EA0A0305D048
:102AE0000EE040228DF80420012208E05CEA010299
:102AF00006D030228DF804208DF805000222904681
:102B0000009B83F0080353EA0A030AD15CEA01023E
:102B100001D1620705D530228DF804204FF001085D
:102B20007F1E582804D034A003900EA802900DE018
:102B300036A0F9E753466046009AFDF7F3FD844658
:102B40000398825C0298401E029002705CEA0100C9
:102B5000F0D1029806A9081A00F1200A600702D5F0
:102B600024F4803400E00127574502DDA7EB0A007A
:102B700000E0002000EB0A01009005984144401A53
:102B80000590E00306D45B462146179A059800F0AD
:102B9000B3F90544002706E001A85A46C05D17991D
:102BA00090476D1C7F1C4745F6DBE0030CD55B4668
:102BB0002146179A059800F09FF9054404E030205B
:102BC0005A46179990476D1C0099481E009000299D
:102BD000F5DC08E0029802995A460078491C0291F7
:102BE000179990476D1CBAF10001AAF1010AF1DCB6
:102BF00065E10000092801003031323334353637C1
:102C00003839616263646566000000003031323338
:102C100034353637383941424344454600000000D8
:102C200000F058F90544761C307800287FF4ECADAC
:102C300019B02846BDE8F08F620700D4062709F1D5
:102C4000070222F0070CFCE80223E14603F00048EB
:102C50005FEA080C02D00FF2702C0DE05FEA045C12
:102C600002D50FF2682C07E05FEAC47C02D00FF2B5
:102C7000602C01E0AFF2700C4FF0FF3823F00043FE
:102C8000CDF850C065280CD006DC452809D0462870
:102C90001DD047283DD13DE0662818D067287ED159
:102CA00038E00021112F01DB112000E0781CCDE974
:102CB000000106A90EA8FFF7DDFCDDE90F010E9A61
:102CC00003910021009207F1010A04914DE04FF0B9
:102CD00000400097CDE9011006A90EA8FFF7CAFC35
:102CE000DDE90F0203920E9B11990022DDF80CA082
:102CF0000093049211B9791C00EB010AB7EB0A00AA
:102D000004D4C0F1FF3007F1010A0490AAEB0700D8
:102D1000019044E0012F00DA01270021112F01DD8D
:102D2000112000E03846CDE9000106A90EA8FFF702
:102D3000A1FCDDE90F010E9A03910021049100929C
:102D4000BA4621070CD40399514500DA8A46BAF1F4
:102D5000010F05DD009AAAF10101515C302908D06C
:102D6000B84202DA10F1040F06DA0121CDE90110B0
:102D700015E0AAF10101E9E7002805DC0499014406
:102D80000491AAEB000102E0411C514500DD8A4696
:102D90000499401A401C01904FF000400290200717
:102DA00004D40198504501DBCDF8048000208DF853
:102DB0004F0002980DF14F07B0F1004F25D02B20A6
:102DC0000E9002984FF0020800280CDA4042029060
:102DD0002D200E9007E00A210298FDF78DFC30317E
:102DE000029007F8011DB8F10001A8F10108F2DC1A
:102DF00002980028EFD1791E0E980870307800F004
:102E0000200040F0450007F8020D12A8C01B00F199
:102E100007081498007800B1012000EB0A0101981E
:102E200001EBE07105984144401A401E0590E00313
:102E300006D45B462146179A059800F05DF80544D4
:102E40001498007818B15A46179990476D1CE00302
:102E500024D55B462146179A059800F04DF80544A5
:102E60001CE00498002807DBDDE90301884203DD4C
:102E70000098405C179901E0179930205A46904716
:102E8000049805F10105401C04900198401E019032
:102E900004D12E205A46179990476D1CBAF10001B3
:102EA000AAF1010ADDDC05E017F8010B5A46179973
:102EB00090476D1CB8F10001A8F10108F4DC5B46F5
:102EC0002146179A0598ABE62D0000002B00000064
:102ED000200000002DE9F041044600251E4617465B
:102EE000880404D405E039462020B0476D1C641ED8
:102EF000F9D52846BDE8F0812DE9F04104460025CA
:102F00001E469046C80301D5302700E020278804DC
:102F100004D505E041463846B0476D1C641EF9D51E
:102F20002846BDE8F0810A68531C0B60107070479A
:102F3000002002498880024908607047C0010020D3
:102F40009402404201200249888000200881704795
:102F5000C001002000B51448808818B31248C0880A
:102F6000401C1149C8800846C0880988884204DD91
:102F700000200D49C88000F01BF80B4840884FF630
:102F8000FF7188420ED008480089401C064908811C
:102F9000084600894988884204DD0020024988806B
:102FA0000249086000BD0000C001002094024042B8
:102FB0000448006808B9012000E0002001490860C9
:102FC0007047000094024042014A108051807047CF
:102FD000C00100201CB501210846FEF707FF202094
:102FE000009001208DF8040000208DF806008DF877
:102FF000050001208DF8070069460448FEF75EF8D9
:1030000020210248FEF7C7F81CBD00000000024066
:1030100010B5A82000F060FA00F038F801210F2068
:10302000FDF782FFFEF714F842F2CF010920FFF707
:10303000ABF801F0C1FEFEF7CBFCFFF7CBFF40F28F
:10304000DC513220FFF7C0FF00F040F900F046F8F5
:1030500040F2473140F2E730FEF7CAFF2021480630
:10306000FFF781F910BD00000648007806490860A6
:103070000448007808B9012000E0002001490870E8
:10308000704700001D000020800241421CB5012154
:103090000420FEF7ABFE012000908DF80400002014
:1030A0008DF806008DF8050001208DF807006946AF
:1030B0000848FEF703F801210846FEF797FE402076
:1030C000009069460448FDF7F9FF01210148FEF729
:1030D00062F81CBD000802400000024000B58DB03F
:1030E00001210846FEF782FE01210802FEF79EFE3E
:1030F00001200B9003208DF8300000208DF8330064
:103100000BA91548FDF7DAFF01210802FEF79EFE24
:1031100000214FF48070FEF799FE002007900A907E
:1031200009904FF48030089007A8FDF75BFC002061
:1031300001908DF808008DF809000390059001209A
:103140008DF8180001A90548FDF772FC012103481C
:10315000FDF73DFC0DB000BD000002400020014025
:1031600010B504462112084800F0C2FC01210648AF
:1031700000F00AFDE1B2044800F0BAFC0121024867
:1031800000F002FD10BD00002800002010B504462C
:10319000074800F0CDFC04F0010040F0B001044805
:1031A00000F0A6FC0121024800F0EEFC10BD00007A
:1031B0002800002010B52DED088BB0EE409AF0EEFF
:1031C000609AB0EE41AAF0EE61AA9FED2D0AB0EE32
:1031D000408AB0EE4A1AF0EE6A1AB0EE490AF0EEF2
:1031E000690AFDF7DBFFB0EE408A18EE100AFDF722
:1031F00023FA41EC1B0B53EC1B2B22A0FFF7FCF92D
:10320000B5EEC08AF1EE10FA02D1BDEC088B10BD0C
:103210009FED230AB4EEC08AF1EE10FA03DD9FEDB4
:10322000200AB0EE408ABDEEC80A10EE100A1D4911
:103230000870BDEEC80AB8EEC00A38EE400ADFEDED
:103240001A0A20EE200ABCEEC00A10EE100A4870DE
:10325000164A0221134800F00CF912498870002028
:10326000FFF794FF42F26100FFF77AFF03210D4858
:1032700000F0CAF80E4800F074FC00BFC5E700007B
:10328000000000004765744162736F6C7574656877
:10329000756D69646974793A25302E33660A0000C9
:1032A00000007F4347000020000080433C000020D6
:1032B000280000200448006820F44070024908609B
:1032C0000846006808607047000002401CB50121F4
:1032D0000846FEF78BFD1820009001208DF80400B1
:1032E00000208DF8060003208DF8050001208DF8E0
:1032F000070069460448FDF7E1FE18210248FDF782
:103300004AFF00F02BF81CBD000002400548006891
:1033100020F44070034908600846006840F480705B
:10332000086070470000024070B506460D46002454
:103330000EE0094800F0B5FB3055681EA04201DDE3
:10334000012000E000200146034800F08BFB641CD4
:10335000AC42EEDB70BD00002800002010B500205C
:10336000FFF714FF42F20300FFF7FAFE014800F0F6
:10337000F8FB10BD2800002010B500211E48FEF704
:103380005FFF0020FFF702FF42F20800FFF7E8FEB0
:103390001A4800F0E6FB01211748FEF751FF6420B0
:1033A00000F0B8F800211448FEF74AFF0120FFF7AB
:1033B000EDFE06211248FFF7B7FF104800F0D1FBE1
:1033C00001210D48FEF73CFF0E4A02210C4800F097
:1033D00050F80B498978884209D10A4A02210848E5
:1033E000C01C00F046F806494979884203D00448D9
:1033F00000210160818010BD0004004028000020F1
:10340000410000203C00002070B505460E46002417
:1034100008E0295D054800F06BFB0121034800F03E
:10342000B3FB641CB442F4DB70BD00002800002034
:1034300030B502464FF6FF7018E012F8015B80EAE3
:10344000052008230FE000F400443CB14FF6FF7460
:1034500004EA400041F22104604003E04FF6FF74AB
:1034600004EA40005B1E002BEDD1491E0029E4D187
:1034700030BD2DE9F04706460F46144665781DE03D
:1034800016F8018BE078012803D1404600F0AFFA2E
:10349000804685EA08054FF000090BE005F0800042
:1034A00020B1207880EA4500C5B201E06806050E2B
:1034B00009F10109B9F1080FF0DB7F1E002FDFDCF5
:1034C0002079012803D1284600F091FA0546A0781A
:1034D00045402846BDE8F08710B504466FF004006B
:1034E000FEF73CFDE11704EB5171C1F3C701074A38
:1034F00011701046007800EB4001C1EBC0104FF690
:10350000FF7101EAC0000249088010BD4A00002096
:103510004C00002070B504464FF4077094FBF0F0A7
:10352000C6B24FF4077094FBF0F100FB114085B276
:1035300005E04FF4077000F02FF8701EC6B2002EA1
:10354000F7D115B1284600F027F870BD0146114AA1
:1035500012784A434FF0E0235A6100229A611A46DA
:10356000126942F001021A6100BF4FF0E0221069B7
:1035700000F001021AB100F48032002AF5D04FF0B9
:10358000E022126922F001024FF0E0231A610022CA
:103590009A6170474A0000200146114A12884A4346
:1035A0004FF0E0235A6100229A611A46126942F0F4
:1035B00001021A6100BF4FF0E022106900F0010221
:1035C0001AB100F48032002AF5D04FF0E0221269DF
:1035D00022F001024FF0E0231A6100229A61704745
:1035E0004C00002070B505460C460548844203D1C6
:1035F000284600F00FFA70BD4FF0FF30FBE70000E7
:10360000900100202DED048B82B000249FEDBA0BB9
:10361000B0EE408AF0EE608AFFF7FAFC0C2300223D
:1036200011461046FEF7C2FB06230C221946002065
:10363000FEF7BCFBFFF786FC0120B14908604FF4A0
:103640007A70FFF767FF4FF47A70FFF763FF4FF46C
:103650007A70FFF75FFF4FF47A70FFF75BFFFFF7B9
:1036600067FC0020A749C1F8980243E1A64800780A
:1036700000F0010038B9A448007840F00100A249E8
:103680000870FFF7F1FCA048007800F0020080BB52
:103690009D48007840F002009B49087000219B483B
:1036A000FEF7CEFD9A48FDF76BFAF0B9984890ED19
:1036B000020B8DED000B90ED001BB0EE410AF0EE19
:1036C000610A53EC102B93A0FEF796FF904890ED03
:1036D000002BB0EE421AF0EE621A90ED022BB0EE23
:1036E000420AF0EE620AFFF765FD01218748FEF706
:1036F000A7FD8548007800F0040000287ED18248AC
:10370000007840F004008049087000217F48FEF7EF
:1037100097FD2046641C042849DA07220021012075
:10372000FEF7E4F87A4890ED001BB0EE410AF0EEA7
:10373000610A53EC102B7DA18148FEF76DFF01203B
:1037400010237F4A002100900846FEF799FA70483E
:1037500090ED021BB0EE410AF0EE610A53EC102B23
:1037600078A17748FEF758FF01201023744A022100
:1037700000900020FEF784FA53EC182B75A17048D6
:10378000FEF74AFF012010236D4A0421009000201B
:10379000FEF776FA962274A16948FEF73DFF0020F5
:1037A0001023674A06210090FEF76AFA44E00722D8
:1037B00000210220FEF79AF86F4840786E49097898
:1037C00000EB01226DA15E48FEF726FF01201023C9
:1037D0005B4A002100900846FEF752FA4FF4FA6265
:1037E0006AA15748FEF718FF00201023544A02210F
:1037F0000090FEF745FA6048007900E049E05E4934
:10380000C97800EB012265A14D48FEF705FF0120B4
:1038100010234B4A042100900020FEF731FA4FF4A8
:10382000DD7262A14648FEF7F7FE00201023444AED
:1038300006210090FEF724FA01213448FEF700FD2E
:10384000082C00D100244C4840784B49097800EB03
:103850000120B0F5FA6F11DC474800794649C97874
:1038600000EB0120B0F5DD7F08DC53EC182B9FED59
:10387000530B51EC100BFCF7F3FE05D2FFF762FB84
:1038800001201F49086004E0FFF752FB00201C499B
:1038900008601D48007800F0080058BB1A480078FE
:1038A00040F0080018490870FFF766FD324840787C
:1038B000314B1B7800EB03222F4800792E4BDB782D
:1038C00000EB03213FA0FEF797FE0020FDF726FF47
:1038D0000546FCF76CFE41EC190B9FED3E0B53ECDB
:1038E000102BFCF772FD41EC180B53EC182B3BA08E
:1038F000FEF782FEBAE600000000000000000000B3
:1039000098024042000040420000002000040040B5
:10391000B001002048554D3A25302E316C662C54AC
:10392000454D503A25302E316C660A0048554D3AC7
:1039300025342E316620252520202020000000007F
:103940009801002054454D503A25342E316620A16F
:10395000E6000000504D322E353A25342E31667582
:10396000672F6D33000000006D61783A2564207583
:10397000672F6D330000000041000020434F323AB2
:10398000253035642070706200000000434F325FC4
:103990006D61783A256420707062000054564F4380
:1039A0003A253035642070706200000054564F4351
:1039B0005F6D61783A25642070706200000000003D
:1039C00000C0624054564F433A25642C434F323A6C
:1039D00025640A0000C63368E89FC43F4144433A67
:1039E000252E31660A00000001460868704710B5B0
:1039F0000246002000210AE042FA01F303F001032D
:103A0000C1F10704A3400343D8B24B1CD9B2082923
:103A1000F2DB10BD10B504460F480068082802D339
:103A20004FF0FF3010BD0C4802680068401C0A4B84
:103A300018600A48845418460068082801D00A2CE7
:103A400008D10548054902680548FDF748F90020F6
:103A5000014908602046E5E7840100208801002034
:103A600000FE020070B504460D462069804715B17E
:103A70000020616808600320FFF768FD01202168CD
:103A800008600220FFF762FD002021680860012025
:103A9000FFF75CFD0120616808600320FFF756FD19
:103AA00070BD70B504460025E068804700261BE025
:103AB0000120216808600220FFF748FDA068007817
:103AC0002843C5B2072E01DA012000E0002005FAE4
:103AD00000F0C5B20320FFF739FD0020216808601F
:103AE0000520FFF733FD761C082EE1DB284670BD6C
:103AF00070B504460E4620698047072515E046FA52
:103B000005F000F00100616808600220FFF71EFD6B
:103B10000120216808600520FFF718FD00202168BA
:103B200008600320FFF712FD6D1E002DE7DA70BD5F
:103B300010B504462069804701206168086021684B
:103B400008600520FFF702FD00206168086005207D
:103B5000FFF7FCFC0020216808600320FFF7F6FC5B
:103B600010BD10B5044620698047002061680860D8
:103B70000120FFF7EBFC012021680860FFF7E6FC5D
:103B800001206168086010BD70B504460D463226FC
:103B9000E06880470120216808606DB108E00A20D4
:103BA000FFF7D4FC301EA6F1010601DA012070BD3A
:103BB000A06800680028F2D10520FFF7C7FC0020AC
:103BC000216808600520FFF7C1FC0020EFE7000036
:103BD00010B50024FF2001F0F3F807E0641C0A2070
:103BE000FFF7B4FC0A2C01DBE0B210BD0948006805
:103BF0000028F3D1002407E0641C0A20FFF7A6FC8C
:103C00000A2C01DBE0B2F0E7024800680128F3D19A
:103C10000020EAE7080240422DE9F0410646002470
:103C20000027002508E0641C0A20FFF78FFC0A2CFF
:103C300002DBE0B2BDE8F081154800680028F2D14F
:103C4000002400271EE007E0641C0A20FFF77EFC2A
:103C50000A2C01DBE0B2EDE70D4800680128F3D142
:103C6000002403E0641C0A20FFF770FC0848006889
:103C70000128F7D06806050E052C01DB45F001058B
:103C800000247F1C082FDEDB35700020D2E7000007
:103C90000802404230B595B0054613AB12AA09A9F7
:103CA000284600F039FA044614B1204615B030BD5C
:103CB0000020149026E0224909689DF8502001EB6D
:103CC000C20113AB11AA486801A900F025FA044605
:103CD0000CB12046EAE709A901A800F0BBFC60B9D5
:103CE0009DF844009DF84810884201DD0220DDE780
:103CF0009DF85000124988750AE09DF85000401C5C
:103D0000C0B214900E48007D9DF850108842D2DC5D
:103D100000BF0B48007D9DF85010884201D104205F
:103D2000C4E714A9284600F0D7FA04460CB120468F
:103D3000BCE79DF85000024948750020B6E7000036
:103D4000900000202DE9F0419AB09C48847D007DD0
:103D5000A04202DC1AB0BDE8F0819849096801EB85
:103D6000C40106AB07AA486808A900F0D5F908A95C
:103D700093A0FEF741FC002644E09048008B01210F
:103D8000B1400840D8B122218FA0FEF735FC304663
:103D900000F028FB89492431471839468BA0FEF7EB
:103DA0002BFC222188A0FEF727FC304600F01AFBEE
:103DB00082492431084410A941F8260018E0304611
:103DC00000F010FB7D492431085810A941F8260065
:103DD0007A48C07D30B910A850F826107CA0FEF7B4
:103DE0000BFC05E010A850F826107AA0FEF704FCA2
:103DF0009DF81C00401EB04202D078A0FEF7FCFBEC
:103E0000701CC6B29DF81C008642B6DB74A0FEF79B
:103E1000F3FB00F039FB6948407D0B280DD2DFE849
:103E200000F0060D151E27323F4E5F728700634972
:103E3000096851F834008047054690E05F4A1268EF
:103E400052F8341010988847054688E05B4B1B6891
:103E500053F83420DDE91001904705467FE0574FC5
:103E60003F6857F8343010A807C89847054676E0F1
:103E7000DFF848C1DCF800C05CF8347010A80FC847
:103E8000B84705466BE01498DFF830C10090DCF8C5
:103E900000C05CF8347010A80FC8B84705465EE053
:103EA000DDE91401DFF814C1CDE90001DCF800C040
:103EB0005CF8347010A80FC8B84705464FE0DDE93C
:103EC00014121698DFF8F4C0CDE900120290DCF865
:103ED00000C05CF8347010A80FC8B84705463EE033
:103EE000DDE91423DDE91610DFF8D0C0CDE90023A9
:103EF000CDE90210DCF800C05CF8347010A80FC8DF
:103F0000B84705462BE0DDE91523DDE91710CDE9BB
:103F10000123CDE903101498DFF8A0C00090DCF86D
:103F200000C05CF8347010A80FC8B847054616E00A
:103F3000DDE91623DDE91810CDE90223CDE90410EF
:103F4000DDE91401DFF874C0CDE90001DCF800C040
:103F50005CF8347010A80FC8B847054600BF00BF12
:103F600000F050FA9DF8180001280CD11348C07DCC
:103F700020B929461BA0FEF73FFB07E029461BA0FE
:103F8000FEF73AFB02E018A0FEF736FB0B4890F86C
:103F9000EC0088B10948D0F8F0000A21B0FBF1F23A
:103FA00001FB12070548D0F8F000B0FBF1F83A46E3
:103FB000414611A0FEF720FB00BFCBE69000002099
:103FC0000D0A2573280000002563000025730000FA
:103FD000256C750030582558000000002C000000AA
:103FE000290000003D256C753B0D0A003D30582529
:103FF000583B0D0A0000000046756E6374696F6ED1
:104000002052756E2054696D653A25642E25316401
:104010006D730D0A00000000F0B503461546002040
:1040200000220026002455E01F782C2F01D104B96E
:1040300001221F78292F01D01F780FB904B94AE057
:10404000002E34D11F78302F02DB1F78392F11DD7D
:104050001F78612F02DB1F78662F0BDD1F78412F41
:1040600002DB1F78462F05DD1F78582F02D01F78FE
:10407000782F0CD102B12EE01F78612F03DB1F785F
:10408000203F0F7001E01F780F70491C1FE01F7860
:10409000222F04D102B11EE00126012417E01F786F
:1040A000202F14D01F782C2F11D0FF2613E01F785B
:1040B000222F00D1002402B10DE044B11F785C2F03
:1040C00002D15B1C471CF8B21F780F70491C471CBB
:1040D000F8B25B1CA8E700BF00270F702E70F0BD80
:1040E00010B50446002010700BE020780870641CA6
:1040F000491C1078401C10701078984201DB012098
:1041000010BD2078202802D020780028EDD1002092
:10411000087000BFF4E700002DE9FF4F85B080462E
:1041200089460027002004900390012002904FF060
:10413000000B002544461DE02078202816D005F00D
:104140007F00052812DA0DB945F0800505F07F00E3
:10415000042803D120782A2800D00EE0207805F02A
:104160007F010DF80100681CC5B202E0852D00D169
:1041700003E0641C20780028DED100BF8DB1002050
:1041800005F07F010DF8010051A1684600F062FAC8
:1041900018B900210898017002E001210898017007
:1041A00000254FF0000A444614E0641C0AF10100A7
:1041B00000F0FF0A2078202802D020782A2809D190
:1041C000204600F0D7F90646282E03D02A2E01D02B
:1041D000CDF810A02078282802D020780028E4D13B
:1041E0004446049810B10498401C04444FF0000A5F
:1041F000002654E0207810B94FF0010A50E02078F2
:10420000282803D116B9781CC7B213E020782928D2
:1042100008D13EB917B1781EC7B201E04FF0010ACC
:1042200047B93DE02078222804D10EB9012000E0F2
:104230000020064647B9207820282FD0207889F81A
:10424000000009F1010929E020782C2804D101207F
:104250000290681CC5B214E02078202811D0207884
:1042600028280ED04DB9BBF1050F06DA20780DF8DD
:104270000B000BF1010000F0FF0B0298401CC0B2D4
:104280000290012F0AD10298022807D10298401CFF
:10429000C0B202900398401CC0B20390641CA9E70E
:1042A00000BF0398012809D100200DF80B0008A1D8
:1042B000684600F0CFF908B90020039007990398E9
:1042C0000870002089F80000504609B0BDE8F08F62
:1042D000766F6964000000002DE9F043B5B0054633
:1042E0000F460024002604E000213D488155701C43
:1042F000C6B20A2EF8DB06E06D1C287818B901203A
:1043000035B0BDE8F08328782828F5D16D1C61E030
:1043100034AA69462846FFF77FFE064635449DF8D5
:10432000D00020B1012827D0FF284CD149E09DF8CA
:10433000000000B333A9684600F027F906460EB125
:104340000220DDE7204600F04DF825490A31339A76
:104350000A50A1F12400008B0121A140884320498B
:104360001A39088304211E480155601CC4B20A2C66
:1043700001DD0320C4E726E0684600F087F9401C11
:1043800000F0FF08204600F02DF815490A3100EB37
:1043900001094946684600F06EF911481A38018B48
:1043A0000120A040014388B20D491A3908830C4806
:1043B00000F80480601CC4B20A2C01DD03209FE7D2
:1043C00001E002209CE700BF2878292801D0287846
:1043D00000B900E09CE700BF3C70002090E70000BF
:1043E000AA00002002460020002105E0044B5B5C8F
:1043F0000344D8B24B1CD9B29142F7DB704700009E
:10440000AA00002010B501210D48FDF728FF012862
:1044100008D10C48D0F8F0004FF6FF710844094964
:10442000C1F8F0000648FDF717FF0649D1F8F01073
:1044300008440449C1F8F0000846D0F8F00010BD67
:10444000000800409000002010B5044604EBC400B2
:1044500000EB04100122C2EB800081B24FF47A70AD
:10446000FDF7C8FF01200149C87510BD900000206C
:1044700010B50246012000E050430B1EA1F10104DB
:10448000E1B2F9D110BD000010B501210848FDF7D7
:10449000D1FE4FF6FF710648FDF763FF0021044887
:1044A000FDF763FF00200349C1F8F00010BD0000D4
:1044B000000800409000002070B51D48008800F4FE
:1044C0000040002833D01A48057800201949485583
:1044D000194881681748884704461CB91649C868B6
:1044E000804721E0134800F0DDF80546012D00D09B
:1044F0002C46CCB1012C06D0022C08D0032C0AD0BB
:10450000042C10D10BE00DA0FEF776F80BE00EA006
:10451000FEF772F807E00FA0FEF76EF803E010A0B8
:10452000FEF76AF800BF00BF00200149088070BD97
:104530004E000020CA05002090000020BAAFCAFD3E
:10454000B4EDCEF3210D0A00B2CECAFDB4EDCEF328
:10455000210D0A00B2CECAFDCCABB6E0210D0A0097
:10456000CEB4D5D2B5BDC6A5C5E4B5C4BAAFCAFDF3
:10457000210D0A000146491C00E0491C087820284A
:1045800001D10029F9D1087870472DE9F043074699
:104590000E4600254FF00A083C46002030601FE020
:1045A0002078392802DC207830280ADA207846285A
:1045B00002DC2078412804DA2078582809D1012D1E
:1045C00007D12078412801DB4FF01008681CC5B2E4
:1045D00005E0207800B904E00120BDE8F083641C08
:1045E000DEE700BF3C46B8F1100F0FD1032D01DA12
:1045F0000220F2E72078302806D16078582803D1CD
:10460000A41CA81EC5B204E00320E6E70DB90420EF
:10461000E3E71BE00DB1681EC5B22078392806DC3F
:104620002078302803DB2078A0F1300902E02078E0
:10463000A0F1370929464046FFF71AFF316809FB08
:1046400000103060641C207800B900E0E2E700BF91
:104650000020C2E702460AE010780B78984201D0A9
:1046600001207047107800B902E0521C491CF3E7A2
:1046700000BF0020F5E706E002780A70027802B970
:1046800002E0401C491CF7E700BF704701460020CC
:1046900005E00A7802B903E0421CD0B2491CF8E7F1
:1046A00000BF704710B58CB004461E230BAA03A9A7
:1046B0002046FFF715FD0090009810B101200CB0C6
:1046C00010BD9DF82C00044400200B900EE04048E3
:1046D0009DF82C2050F8221003A8FFF7BBFF00B96B
:1046E00008E09DF82C00401CC0B20B909DF82C00F7
:1046F0000728ECD300BF9DF82C00072863D2DFE821
:1047000000F004053C5E6564630000BF31A0FDF766
:1047100073FF31A0FDF770FF3FA0FDF76DFF4EA0C6
:10472000FDF76AFF5CA0FDF767FF6BA0FDF764FF74
:1047300079A0FDF761FF86A0FDF75EFF8BA0FDF776
:104740005BFF90A0FDF758FF94A0FDF755FF99A0DF
:10475000FDF752FF9EA0FDF74FFFA4A0FDF74CFF11
:10476000B0A0FDF749FFBDA0FDF746FFC8A0FDF7CB
:1047700043FFD4A0FDF740FF9AE216A0FDF73CFFEF
:10478000E0A0FDF739FF00200B900EE0ED48006837
:104790009DF82C2000EBC2004168EBA0FDF72CFF38
:1047A0009DF82C00401CC0B20B90E648007D9DF89F
:1047B0002C108842EADC07A0FDF71EFF78E205A076
:1047C000FDF71AFFC4E171E245E219E2ECE10000F5
:1047D000540000200D0A00002D2D2D2D2D2D2D2DE6
:1047E0002D2D2D2D2D2D2D2D2D2D2D2D2D2D2D2DF9
:1047F00055534D4152542056332E312D2D2D2D2DF4
:104800002D2D2D2D2D2D2D2D2D2D2D2D2D2D2D2DD8
:104810002D2D2D200D0A00002020202055534D4124
:104820005254CAC7D3C9414C49454E54454BBFAAFF
:10483000B7A2B5C4D2BBB8F6C1E9C7C9B5C4B4AE56
:10484000BFDAB5F7CAD4BBA5BDBBD7E9BCFE2CCD3A
:10485000A8B9FD200D0A0000CBFC2CC4E3BFC9D2CF
:10486000D4CDA8B9FDB4AEBFDAD6FACAD6B5F7D35F
:10487000C3B3CCD0F2C0EFC3E6B5C4C8CEBACEBA8B
:10488000AFCAFD2CB2A2D6B4D0D02ED2F2B4CB2C6B
:10489000C4E3BFC90D0A0000D2D4CBE6D2E2B8FC13
:1048A000B8C4BAAFCAFDB5C4CAE4C8EBB2CECAFD3B
:1048B00028D6A7B3D6CAFDD7D62831302F3136BD7A
:1048C000F8D6C629A1A2D7D6B7FBB4AEA1A2BAAF7B
:1048D000CAFDC8EB0D0A0000BFDAB5D8D6B7B5C817
:1048E000D7F7CEAAB2CECAFD292CB5A5B8F6BAAF75
:1048F000CAFDD7EEB6E0D6A7B3D63130B8F6CAE4D3
:10490000C8EBB2CECAFD2CB2A2D6A7B3D6BAAFCAF4
:10491000FDB7B5200D0A0000BBD8D6B5CFD4CABEAE
:104920002ED0C2D4F6B2CECAFDCFD4CABEBDF8D600
:10493000C6C9E8D6C3B9A6C4DC2CD0C2D4F6BDF82B
:10494000D6C6D7AABBBBB9A6C4DC2E0D0A00000090
:10495000BCBCCAF5D6A7B3D63A7777772E6F706509
:104960006E6564762E636F6D0D0A000055534D41E0
:104970005254D3D037B8F6CFB5CDB3C3FCC1EE3A5D
:104980000D0A00003F3A202020202020BBF1C8A1C2
:10499000B0EFD6FAD0C5CFA20D0A000068656C70E2
:1049A0003A202020BBF1C8A1B0EFD6FAD0C5CFA2E3
:1049B0000D0A00006C6973743A202020BFC9D3C36C
:1049C000B5C4BAAFCAFDC1D0B1ED0D0A0A000000EE
:1049D00069643A2020202020BFC9D3C3BAAFCAFDE2
:1049E000B5C44944C1D0B1ED0D0A0A006865783AF2
:1049F00020202020B2CECAFD3136BDF8D6C6CFD495
:104A0000CABE2CBAF3B8FABFD5B8F12BCAFDD7D6B7
:104A1000BCB4D6B4D0D0BDF8D6C6D7AABBBB0D0A9D
:104A20000A0000006465633A20202020B2CECAFD4F
:104A30003130BDF8D6C6CFD4CABE2CBAF3B8FABF4F
:104A4000D5B8F12BCAFDD7D6BCB4D6B4D0D0BDF8FA
:104A5000D6C6D7AABBBB0D0A0A00000072756E74D9
:104A6000696D653A312CBFAAC6F4BAAFCAFDD4CB82
:104A7000D0D0BCC6CAB13B302CB9D8B1D5BAAFCAB8
:104A8000FDD4CBD0D0BCC6CAB13B0D0A0A00000091
:104A9000C7EBB0B4D5D5B3CCD0F2B1E0D0B4B8F157
:104AA000CABDCAE4C8EBBAAFCAFDC3FBBCB0B2CE44
:104AB000CAFDB2A2D2D4BBD8B3B5BCFCBDE1CAF822
:104AC0002E0D0A002D2D2D2D2D2D2D2D2D2D2D2D85
:104AD0002D2D2D2D2D2D2D2D2D2D2D2D2D2D414CD3
:104AE00049454E54454B2D2D2D2D2D2D2D2D2D2D44
:104AF0002D2D2D2D2D2D2D2D2D2D2D2D2D2D2D20F3
:104B00000D0A00002D2D2D2D2D2D2D2D2D2D2D2D72
:104B10002D2D2D2D2D2D2D2D2D2D2D2D2DBAAFCA19
:104B2000FDC7E5B5A52D2D2D2D2D2D2D2D2D2D2D93
:104B30002D2D2D2D2D2D2D2D2D2D2D2D2D2D2D2DA5
:104B4000200D0A009000002025730D0A00000000CF
:104B500059A0FDF751FD00200B901AE06649096845
:104B60009DF82C2001EBC20101AB02AA486803A901
:104B7000FFF7D2FA604800689DF82C1050F83120F9
:104B800003A95EA0FDF738FD9DF82C00401CC0B2C3
:104B90000B905948007D9DF82C108842DEDCAFF266
:104BA000CC30FDF729FD83E0AFF2D830FDF724FDCE
:104BB0000BAA03A92046FFF72FFA9DF82C00C8B9CD
:104BC000694603A8FFF7E1FC0B909DF82C0020B983
:104BD0004FA00099FDF710FD0EE09DF82C00042871
:104BE00001D002206BE54DA0FDF706FD01204249F2
:104BF000C87501E0022062E547A0FDF7FDFC57E023
:104C000045A0FDF7F9FC0BAA03A92046FFF704FA1B
:104C10009DF82C00C8B9694603A8FFF7B6FC0B90B5
:104C20009DF82C0020B942A00099FDF7E5FC0EE0AC
:104C30009DF82C00042801D0022040E53FA0FDF79C
:104C4000DBFC00202C49C87501E0022037E532A0CA
:104C5000FDF7D2FC2CE030A0FDF7CEFC0BAA03A997
:104C60002046FFF7D9F99DF82C00C8B9694603A87A
:104C7000FFF78BFC0B909DF82C0078B91E4900982B
:104C800081F8EC00084690F8EC0018B130A0FDF770
:104C9000B3FC07E035A0FDF7AFFC03E002200EE512
:104CA00002200CE51CA0FDF7A7FC01E0012006E5B1
:104CB00000BF002003E500002D2D2D2D2D2D2D2DC5
:104CC0002D2D2D2D2D2D2D2D2D2D2D2D2D2D2D2D14
:104CD0002DBAAFCAFD204944202D2D2D2D2D2D2D6F
:104CE0002D2D2D2D2D2D2D2D2D2D2D2D2D2D2D2DF4
:104CF0002D2D2D2D200D0A009000002025732069F8
:104D0000642069733A0D0A3058253038580D0A006E
:104D10004845583A305825580D0A00003136BDF83C
:104D2000D6C6B2CECAFDCFD4CABE210D0A0000003D
:104D30004445433A256C750D0A0000003130BDF83A
:104D4000D6C6B2CECAFDCFD4CABE210D0A0000001D
:104D500052756E2054696D652043616C63756C619A
:104D600074696F6E204F4E0D0A00000052756E2060
:104D700054696D652043616C63756C6174696F6E15
:104D8000204F46460D0A000010B5002000F018F82C
:104D900000200749086040F22620FEF7D7FB0120DB
:104DA0000449C1F888021420FEF7D0FB10BD0000B2
:104DB000880240420000404210B5FCF721FD10BDC2
:104DC00048B10B49096821F03001094A11601146C8
:104DD000096811600AE00649096821F03001044AB7
:104DE00011601146096841F0100111607047000020
:104DF000000002400160704700FE02A2929E929263
:104E0000F292929292820000007F405050484442B9
:104E1000414244485040400000FE225A86100C2473
:104E20002425262424140C0000FF040807804131A7
:104E30000F01013F41417100100C2424A464252678
:104E40002424A42424140C00404048494949497FA3
:104E50004949494B4840400000F808080808887F45
:104E60008808080808F8000000FF00080402010094
:104E70000001024C807F0000100C4424140405063D
:104E80000404142444140C00004040414141417F7B
:104E9000414141414040000020104C47545454547B
:104EA000545454D40404000000000000000000002A
:104EB0000000000F3040F00000007E0000FF0040C6
:104EC000300F04146404000040407E42427E42429F
:104ED000427E42427E4040001060028C00FE02F2A0
:104EE00002FE00F800FF000004047E018047300F3E
:104EF00010270047807F0000000022322AA6A2620D
:104F00002111098101000000004222130B42827E20
:104F100002020A12234600002030AC63300088C829
:104F2000A8998E88A8C88800226722121280403073
:104F30000F00003F40407100404042CC0040A09E26
:104F40008282829EA02020000000003F9088404383
:104F50002C10284641808000404042CC0040404018
:104F600040FF4040404040000000007F2010000013
:104F700000FF000000000000008060F80740300FD4
:104F8000F888888888080800010000FF00000000F9
:104F9000FF08080808080000202024242424BF64F7
:104FA000243428242220200010080402FF49494903
:104FB000494949FF00000000000000C0C000000097
:104FC0000000000000000000000000303000000081
:104FD000000000000000000000020202020202FEC7
:104FE0000202020202020000000000000040807F76
:104FF0000000000000000000807000FF081040600A
:10500000504C43405060C000000000FF000000FE14
:105010004242424242FE0000008060F84740444461
:10502000447F444444444000010000FF4040444465
:10503000447F4444444440000000000000005E00FF
:1050400000040602243C243C004CFE001E7A5E78DC
:10505000705E3E480006000000007C82423C00007A
:1050600018103C1810107C1000C000001010101018
:105070000040000080701C023844380000447C402E
:105080006C544C0044546C0030687C604C4C7C0088
:10509000784C7C0000047C006C546C005C543C0038
:1050A000000048000000C800001824421818181812
:1050B00000422418000C540C3C7A767C403838406E
:1050C000447C7C0038444400447C3800007C7C00F4
:1050D000407C7C0038646420007C7C0000447C447C
:1050E0008084FC04007C4400407C44007C607C00A4
:1050F000407C7C0438443800407C5C003864F80014
:10510000007C3C404C547C0004447C44007C7C008B
:105110000C30300C1C247C0C6C106C000448704863
:1051200064544C000000FE00000638C000FE000081
:1051300000010001808080800000010068687840E4
:10514000007E780070484800784A7E000078780039
:10515000487E4A00F8A8B8C8427E780000487A40E5
:105160000088FA00007E380000427E407808780807
:10517000487878007048780000F8F80078C8F8009F
:105180004878480000787800087C4800007878006B
:1051900018202018186878084830480088D838083F
:1051A000007878000010FE820000FF0082FE1000F0
:1051B0000101020200000000000000000000004E9B
:1051C00044000000000402000202000000203E280B
:1051D000287C200000246A4A745424000C52321C9B
:1051E0002854502020545A6A447040400004020061
:1051F0000000000000000018244280000080423CB3
:10520000000000000008183C1418080000001010EE
:10521000181010000040C000000000000808080836
:105220000808080000404000000000000040201076
:1052300008040200003C444242443C000000004498
:105240007E00000000446262524A4C000064424208
:10525000525C240000102824647E0000006C4C4C3A
:105260004C4C3000003C544A4A4C3000000404646A
:105270001C040000007C4A4A52522C00005C52522E
:1052800052523C000000004848000000000000C8E6
:105290004800000000001828244442000018181894
:1052A000181800000042442428180000000402627C
:1052B000520A0C00003C546A667C641800601814A2
:1052C0001C304000007C5454544C7C00003C444250
:1052D00042424200007C444444443C00007C54541C
:1052E000545C4400007C141414140404103C424226
:1052F00042426400007C101010107C000000447CCE
:105300007C44000000808084847C0400007C1008C1
:1053100014244000007C7C4040404000007C186029
:10532000100C7C00007C040810207C00003C4242F1
:1053300042423C10007C141414140C00003C6262C5
:1053400062C2BC00007C1414142C4C00004C4A4A6D
:10535000525224000404047C44040400003C4040F5
:1053600040403C000004186030080400001C60103D
:105370001C601C00004024181824400000040C701D
:10538000500C0400004464544C444000000000FEF3
:105390008282800000020408304080000080828207
:1053A000FE000000000001010101000080808080FB
:1053B00080808080000101010100000000606858C9
:1053C00058784040007E50484848300000304848F7
:1053D000484800000030484848487E40003068682F
:1053E000686810000008487C4C0C04000090E8E855
:1053F000E8D0C800007E080808087000000008789F
:10540000400000000080808888FA0000007C2010A6
:10541000384848000000007E400000000878080876
:1054200070087800007808080808700000304848C4
:105430004848300008F8484848483000003048489C
:105440004848F800004878500808080000405858BC
:10545000686860000008087C484840000838404000
:105460004048784000081860201808000818602894
:10547000386018080008483830480800008898A0AC
:1054800060180800004848685848400000000000C4
:105490001866800000000000FF0000000080661811
:1054A00000000000000101010202020000000000F3
:1054B000000000000000000000007C000000000070
:1054C00002000000000403040300000000000000CC
:1054D00090FC90FC90000003000300001824FE44A0
:1054E00088000102070201003844F8D02CC00003F4
:1054F00000010201C038E418E020010202010201AB
:105500000403000000000000000000000000F80696
:105510000100000000030400000106F80000000480
:10552000030000009060F86090000000010000009F
:10553000002020F8202000000000000000000000F3
:105540000000040300000000202020202020000094
:105550000000000000000000000000020000000049
:105560000000C0300C02040300000000F804040432
:10557000F8000102020201000008FC000000000225
:1055800003020000188444241800030202020200EF
:1055900008042424D800010202020100C0A098FCE3
:1055A00080000000020302007C242424C4000102C5
:1055B00002020100F0482424C80001020202010096
:1055C0000004C4340C00000003000000D82424248C
:1055D000D80001020202010038444424F80001020C
:1055E00002010000000010000000000002000000A6
:1055F000000020000000000006000000006090088D
:1056000004000000000102005050505050500000B3
:10561000000000000004089060000002010000008B
:105620001804C4241800000002000000F008E4F48C
:10563000847800010202020100E09CF08000020375
:105640000000030204FC2424D8000203020201002B
:10565000F80404040C0001020202010004FC04042A
:10566000F80002030202010004FC24740C0002038F
:105670000202030004FC24740C0002030200000078
:10568000F0080444CC4000010202010004FC202088
:10569000FC040203000003020404FC0404000202F0
:1056A00003020200000404FC04040C0808070000C4
:1056B00004FC24508C0402030200030204FC0400D6
:1056C0000000020302020203FC3CC03CFC04030095
:1056D0000300030204FC30C4FC04020302000300C4
:1056E000F8040404F80001020202010004FC24246E
:1056F0001800020302000000F8848404F80001028C
:105700000207050004FC246498000203020003025F
:10571000182424448C000302020201000C04FC043F
:105720000C0000020302000004FC0000FC04000165
:1057300002020100047C80E01C0400000300000061
:105740003CC07CC03C00000300030000049C609C43
:105750000400020300030200043CC03C04000002F9
:10576000030200000C84641C040002030202030014
:105770000000FF010100000007040400000638C01B
:105780000000000000010600000101FF000000040D
:1057900004070000000201020000000000000000F9
:1057A00000000000000008080808080800010200C6
:1057B00000000000000000000040A0A0C0000001A8
:1057C0000202030202FE2020C000000302020100C8
:1057D00000C02020600000010202010000C0202261
:1057E000FE0000010202030200C0A0A0C0000001F0
:1057F000020202000020FC22220400020302020036
:105800000040A0A0602000050A0A0A0402FE202031
:10581000C0000203020003020020E60000000002B4
:1058200003020000000020E600000808080700004E
:1058300002FE806020000203000102000202FE005E
:105840000000020203020200E020E020C00003008A
:105850000300030020E02020C00002030200030236
:1058600000C02020C00000010202010020E0202032
:10587000C000080F0A02010000C02020E000000163
:10588000020A0F0820E0402020000203020000006E
:105890000060A0A020000002020203000020F82007
:1058A000200000000302020020E00020E0000001D0
:1058B0000202030220E000E02000000003000000DC
:1058C0006080E080600000030003000020608060D2
:1058D000200002030003020020E00000E02008088E
:1058E000050300000020A060200000020302020067
:1058F000000020FF0100000000070400000000FF7E
:1059000000000000000F00000001DF200000000484
:105910000700000002010102010000000000000079
:10592000020502F804020000000001020202040E57
:1059300080000202020100000000000000000000E0
:105940000000000000000000000000F8000000005F
:10595000000000330000000000100C02100C0200D8
:1059600000000000000000000040C07840C0780047
:1059700000043F04043F040000708888FC083000E5
:1059800000182020FF211E00F008F08060180000A1
:1059900000310C031E211E0000F00888700000007A
:1059A0001E21232C1927211000120E0000000000D8
:1059B0000000000000000000000000E018040200E9
:1059C000000000071820400000020418E00000005A
:1059D0000040201807000000404080F08040400058
:1059E0000202010F0102020000000000E0000000BE
:1059F000000101010F010101000000000000000092
:105A00000090700000000000000000000000000096
:105A10000001010101010100000000000000000080
:105A2000003030000000000000000000C03804001A
:105A3000006018070000000000E010080810E000F7
:105A4000000F102020100F0000001010F8000000C0
:105A5000000020203F202000007008080808F00007
:105A60000030282422213000003008080888700007
:105A70000018202121221C000000804030F8000086
:105A800000060524243F242400F88888880808009C
:105A90000019202020110E0000E0108888900000DE
:105AA000000F112020201F00001808088868180027
:105AB0000000003E010000000070880808887000A7
:105AC000001C222121221C0000F008080810E00020
:105AD0000001122222110F00000000C0C0000000CF
