:100F200054454D503A2530352E3166202000485525
:100F30004D493A2530352E316620202525202020A8
:100F400000593A253034644D3A25303264443A250C
:100F5000303264202000483A253032644D3A253042
:100F60003264533A2530326420573A2564002020F9
:100F70002057656C636F6D652075736520200020B8
:100F800020546865726D6F6D657465722020200055
:100F90002020636C6173733A206231362020200078
:100FA0002020206E616D653A204C4C2020202020AE
:100FB0000048554D493A5858585858202000544533
:0D0FC0004D503A5858585858202025200010
:0F14C000010800040900000000040D00000000F6
:0316380012163B4C
:0D163B00007F027E67E4FDDDFEDEFCDFFACD
:01164800227F
:100B3600755B00755C00755D0012130A12161112C2
:100B460016491215CA1216BC1213FAE51C147003C4
:100B5600020C3D0470F512169B9000001206391225
:100B660016A4900004120639900004E0FCA3E0FDF0
:100B7600A3E0FEA3E0FFAB10AA0FA90EA80D120278
:100B86000C604C7561FF75620F756320900004E080
:100B9600FCA3E0FDA3E0FEA3E0F5678E668D658C01
:100BA600647B017A0079081207237B017A007908B1
:100BB6007F801215907F8C12166A900004E0FCA3C9
:100BC600E0FDA3E0FEA3E0F5108E0F8D0E8C0D90D8
:100BD6000000E0FCA3E0FDA3E0FEA3E0FFAB0CAA4F
:100BE6000BA90AA80912020C7003020B517561FFCA
:100BF60075620F75632E900000E0FCA3E0FDA3E094
:100C0600FEA3E0F5678E668D658C647B017A0079BC
:100C1600081207237B017A0079087FC0121590908D
:100C26000000E0FCA3E0FDA3E0FEA3E0F50C8E0BC4
:100C36008D0A8C09020B511216B58B5B8A5C895D95
:100C460090000D12056865087003020B51E4F5105B
:100C5600F50FF50EF50DF50CF50BF50AF5099000F7
:100C66000D120568F5087561FF75620F7563419091
:100C7600000112056875F064A4FDACF0C004C0055F
:100C860012054FFF7E007C037DE81205C9D0E02FD8
:100C9600FDD0E03EFC90000212056875F00AA42D16
:100CA600FFE5F03CFE9000031205687C002FF56519
:100CB600EC3EF56490000412056875F00AA4FFAED8
:100CC600F09000051205682FF567EC3EF56690007A
:100CD6000612056875F00AA4FFAEF090000712052B
:100CE600682FF569EC3EF5687B017A0079081207F2
:100CF600237B017A0079087F801215907561FF7554
:100D0600620F756356AB5BAA5CA95D90000812057D
:100D16006875F00AA4FFAEF09000091205687C0021
:100D26002FF565EC3EF56490000A12056875F00A29
:100D3600A4FFAEF090000B1205682FF567EC3EF5A8
:100D46006690000C12056875F00AA4FFAEF09000DC
:100D56000D1205682FF569EC3EF56890000E120538
:100D660068756A00F56B7B017A0079081207237BA8
:0D0D7600017A0079087FC0121590020B5120
:10130A001215727BFF7A0F796E7F801215907BFF20
:10131A007A0F797F7FC01215901216387BFF7A0FE9
:10132A0079907F801215907BFF7A0F79A07FC01287
:10133A00159012163812163B12163B7BFF7A0F795C
:10134A00B17F801215907F8C12166A7BFF7A0F7913
:06135A00BE7FC0021590E9
:10165A0037343153383532303936333D2E524C43D4
:0314CF00011DFFFD
:081692007F097EF4DEFEDFFC9F
:01169A00222D
:10118C007D0179017CFF43900F1DEDC394047480A5
:10119C0094805048E9540FF45290121692E590C482
:1011AC00540FF4540F24FE601024FE601024FC60D5
:1011BC00102407700EE4FC800A7C0180067C0280FF
:1011CC00027C03E9540F4290E925E0F9ECF4600944
:1011DC00ED25E025E02CFC80030D80AEE51D6C6058
:1011EC0024ECF46020EC5403FFED25E025E0245AB8
:1011FC00F582E43416F583E5822FF582E43583F528
:07120C0083E493F51DAF041C
:0112130022B8
:0316C500AF1D2234
:0416C100751DFF2272
:1015FD00E4FEEEC39F500C007D027CC7DCFEDDFCDB
:03160D000E80EF5D
:0116100022B7
:10155300C2A18E8012156CD2A212156CC2A2EEC467
:0915630054F0F58012156CD2A2BF
:05156C00007F14DFFE0A
:011571002257
:0C167A00AE07C2A2C2A0121553C2A222E9
:0C168600AE07C2A2D2A0121553C2A222CD
:101572007F3212167A7F2812167A7F0C12167A7F21
:0E1582000612167A7F0112167A7F8002167A00
:10159000AD0712054F6016AF0512167A0D12054FF2
:0E15A000FF121686740129F9E43AFA80E5225A
:10166A00AD0712167A0D7FDF1216867F43021686A1
:080003008F7A1216ADAF7A22CC
:10164900439850438920758BFD758DFDD28ED2AF9D
:01165900226E
:0816AD008F993099FDC29922CA
:1016250012054FFF600C1216AD740129F9E43AFA60
:0316350080EE2222
:02152D008D1E11
:10152F00E4FDFCC3ED951E7480F86C985015120500
:10153F004FFF1216AD740129F9E43AFA0DBD0001FF
:03154F000C80E02D
:011552002276
:0A14D200021A0032011C000119008B
:101611005389F0438901E4F58A758C4CC28DD28CD3
:0416210043A8822236
:03000B0002129C42
:10129C00C0E0C0F0C083C082C0D075D000C000C018
:0D12AC0001C002C003C004C005C006C00799
:1012B900758A00758C4CAF190519EF640A700AF527
:1012C900197F01120FCD12106DE51B151B70021548
:1012D9001AE51B451A700FF51A751B32051CE51C1A
:0612E90064027002F51C16
:1012EF00D007D006D005D004D003D002D001D00053
:0B12FF00D0D0D082D083D0F0D0E032FD
:0E14DC004800282020022621554003011F0051
:0516BC00C290C2912262
:03136000A3E0FD0A
:10136300D2905307FEE4FEEEC39408748094805039
:1013730015EF30E004D2928002C292D291C291EF73
:10138300C313FF0E80E1E4FEEEC3940874809480DF
:101393005015ED30E004D2928002C292D291C291F4
:0913A300EDC313FD0E80E1C290C0
:0113AC00221E
:1013AD00D290430701E4FDEDC394087480948050FE
:1013BD0015EF30E004D2928002C292D291C291EF29
:1013CD00C313FF0D80E1E4FDEDC394087480948098
:1013DD005016EEC313FE309205430680800353066C
:0C13ED007FD291C2910D80E0C290AF064B
:0113F90022D1
:1013FA00E4FD7F8E1213637D807F80121363900059
:10140A0029E0FD7F8C1213637F881213607F861296
:10141A001360A3E0FD7F84121363A3E0FD7F8212B1
:10142A001363A3E0FD7F80121363A3E0FD7F8A129A
:09143A0013637D807F8E021363B1
:101483007F8C1213AD900029EFF07F881213ADA368
:10149300EFF07F861213ADA3EFF07F841213ADA399
:1014A300EFF07F821213ADA3EFF07F801213ADEF45
:0D14B300547FA3F07F8A1213ADA3EFF02247
:10106D00E4FC121483900028E0FFC4540F90001983
:10107D00F0EF540FA3F0900029E0FFC4540F90003F
:10108D001BF0EF540FA3F090002AE0FFC4540F9013
:10109D00001DF0EF540FA3F090002BE0FFC4540F90
:1010AD0090001FF0EF540FA3F090002CE0FFC454FC
:1010BD000F900021F0EF540FA3F090002DE0FFC42E
:1010CD00540F900023F0EF540FA3F090002EE0FF8B
:1010DD00C4540F900025F0EF540FA3F090002FE0B3
:1010ED00900027F0900026E0FF651F60030C8F1F16
:0210FD00AF043E
:0110FF0022CE
:0716B5007B017A0079192284
:1015AE00CEC2B6C83A2530352E3166A1E62CCAAA6F
:0C15BE00B6C82530352E316625250A0000
:0C14EA00041500000000041100000000C8
:1015E400D294C29300D29300C29400C2930000002C
:0915F400D29300D29400C29322AC
:1015CA00D294C293E4FFEFC39409748094805007C5
:0A15DA00D293C2930F80EF0215E4D4
:1014F700E4FE7D80EDD39400748094804017ED5F07
:101507006004D2948002C294D293000000C293ED8B
:10151700C313FD80DFD294D293A294E4330000007A
:05152700C293D294FF05
:01152C00229C
:10144300E4FED2947D80EDD39400748094804013A5
:10145300D293309403ED4206000000C293EDC31310
:10146300FD80E3EF64017004C2948002D294000013
:0F14730000D293000000C293000000D294AF0695
:011482002247
:061214008B2D8A2E892FAC
:10121A00E4F534F5351215E4E53314600704701863
:10122A007F0380027F051214F7EF3395E0FEEF2566
:10123A0035F535EE3534F534900000AF82AE83E4EF
:10124A00FCFD7BFF7AFFF9F8D31205E940063094DA
:10125A0003A380E73094080535E535700205347F2D
:10126A0001121443AB2DAA2EA92FEF1205957F0167
:10127A00121443AB2DAA2EA92F900001EF1205A735
:10128A00E4FF121443AB30AA31A932EF120595AF2D
:01129A00351E
:01129B002230
:060D83008B2D8A2E892F42
:100D8900E4F536F5357534807533C0753A547539DF
:100D9900E375382575373D753EA2753DE7753C3BD2
:100DA900753BB675420A7541D7754023753F3C7549
:100DB90046AC7545C57544A77543381205FF8F4A7A
:100DC9008E498D488C47AB30AA31A9321205FF8F65
:100DD9004E8E4D8D4C8C4B7F0A7ED77D237C3CAB50
:100DE9004EAA4DA94CA84B120106E4FBFA792078CA
:100DF900C21200158F5A8E598D588C57AF4AAE4979
:100E0900AD48AC47AB3EAA3DA93CA83B120106AB95
:100E19004AAA49A948A847120106C004C005C00644
:100E2900C007AF4AAE49AD48AC47AB3AAA39A93871
:100E3900A837120106D003D002D001D00012001544
:100E4900AB36AA35A934A8331200158F528E518DAD
:100E5900508C4FAF4AAE49AD48AC47AB46AA45A9FD
:100E690044A843120106AB42AA41A940A83F120077
:100E790015C004C005C006C007E4FFFE7DC87CC1DB
:100E8900AB5AAA59A958A857120015D003D002D0B5
:100E990001D000120106AB52AA51A950A84F120065
:100EA90015E4FBFA794078C01200158F568E558DDE
:100EB900548C53E4FFFE7DC87C42AB56AA55A95415
:100EC900A85312020C600D400BE4F556F555755404
:100ED900C87553427FCD7ECC7DCC7C3DAB56AA559F
:100EE900A954A85312020C500C7556CD7555CC75E2
:100EF90054CC75533DAF5AAE59AD58AC57AB30AA27
:100F090031A93212061FAF56AE55AD54AC53AB2DB5
:070F1900AA2EA92F02061FFA
:020FCD008F2370
:100FCF00E4F52CF53075310075322C753301FB7A51
:100FDF0000792412121475300075310075322CE42B
:100FEF00F533FB7A007928121214AC24AD25E412E4
:100FFF00028A8F278E268D258C24AC28AD29E412EA
:10100F00028A8F2B8E2A8D298C287530007531001E
:10101F007532287B007A007924120D83AF2BAE2A0C
:10102F00AD29AC288F148E138D128C11AF27AE26DD
:10103F00AD25AC248F188E178D168C15E523601DEA
:10104F007BFF7A1579AE85146485136385126285EB
:0D105F0011618F688E678D668C6512072900
:01106C002261
:09169B00AF18AE17AD16AC152214
:0916A400AF14AE13AD12AC11221B
:03000000021100EA
:0C110000787FE4F6D8FD75817A02114773
:10000E000202F8E86480F8E933E83360110460F026
:10001E00ED33EC337009E8FCE9FDEAFEEBFF220458
:10002E0060DED3EB9FEA9EE99DE8C2E78CF0C2F753
:10003E0095F0400CE8CCF8E9CDF9EACEFAEBCFFB1F
:10004E001202C385D0F05804700320D5B3E80470B3
:10005E00075002B2D502030292D5EC0460F7E4CC4D
:10006E00C0E0C398F8603B94186008400DD0E0FBE8
:10007E000202DAE4FBFAC9FC8028E830E406E4C99F
:10008E00FBE4CAFCE830E305E4C9CACBFCE854073C
:10009E006010F8C3E913F9EA13FAEB13FBEC13FC47
:1000AE00D8F130F52FC3E49CFCEF9BFFEE9AFEEDEA
:1000BE0099FDD0E0FBEF4E4D4C701222DB03020295
:1000CE00FFEC2CFCEF33FFEE33FEED33FDED30E7AE
:1000DE00EB0202DAEF2BFFEE3AFEED39FDD0E0FB3C
:1000EE0050130BBB0003020302ED13FDEE13FEEFE4
:0800FE0013FFEC13FC0202DA0F
:10010600EC4D6011E8497017ED33EC3304600DE4F3
:10011600FCFFFEFD22E933E8330470F80202F81210
:1001260002C358046009E4CC248150062850090211
:1001360003022840030202FFC0E0EB4A7044B98084
:1001460006D0E0FB0202EEEF4E701CBD8008EBFF0E
:10015600EAFEE9FD80EBE98DF0A4FEE5F00201EF91
:10016600E9CDF9EAFEEBFFEF89F0A4FCE5F0CE89D4
:10017600F0A42EFFE435F0CD89F0A42DFEE435F091
:100186008067EF4E7005BD80D780C3EF8BF0A4ACBF
:10019600F0EE8BF0A42CFCE435F0F8EF8AF0A42CFA
:1001A600E5F038FCE433CB8DF0A42CFCE5F03BF80D
:1001B600EE8AF0A42CFCE5F038F8E433CF89F0A4FD
:1001C6002CFCE5F038CF3400CE89F0A42FFFE5F003
:1001D6003EFEE433C98DF0A42EFEE5F039CD8AF05B
:1001E600A42FFFE5F03EFEE43DFD33D0E0FB5007D3
:1001F6000BBB000F020302EC2CFCEF33FFEE33FEC9
:06020600ED33FD0202DAF7
:10020C0074F8CC6480CCC86480C8F58204604FC399
:10021C00EB9FF5F0EA9E42F0E99D42F0E89C45F038
:10022C00603C501DE5825FFFE582D313CB5BCBF4C2
:10023C002B5582FB50280ABA002409B900200880EB
:10024C001DE5825BFBE582D313CF5FCFF4C3132F85
:10025C005582FF50090EBE00050DBD00010CC3EB0D
:10026C009FF5F0EA9E42F0E99D42F0E89C45F06073
:09027C0007CC4820E701B3EC2295
:1002850075F020800E75F010800575F0087D007EF4
:10029500007F003392D530D5031205DBEC334010D7
:1002A500EF33FFEE33FEED33FDEC33FCD5F0ED22FD
:0E02B500E5F0247EA2D513CC92E7CDCEFF2239
:1006C700E5752461F8E6057522785E3010027861D9
:1006D700E475F00112064502054F2009EB7F2ED283
:1006E700098018EF540F2490D43440D4FF300D0BF9
:1006F700EF24BFB41A0050032461FFE576600215AA
:10070700760579E5797002057830100D785EE47525
:10071700F001120645EF0205950200037403D2109B
:100727008003E4C210F5758B5E8A5F8960E4F57615
:10073700F578F579E57660077F2012070280F57571
:1007470077FFC20AC209C20BC20CC20EC20FC21186
:100757001206D0FF700D3010057F00120713AF7916
:10076700AE7822B4255FC2D5C20D1206D0FF24D0C1
:10077700B40A00501A75F00A787630D50508B6FF26
:100787000106C6A426F620D5047002D20C80D9240F
:10079700CFB41A00EF5004C2E5D20D020A00D20A04
:1007A70080C6D20980C0D20B80BCD2D580BAD20E07
:1007B70080B47F20120702200B077401B576004032
:1007C700F11206C7FF12070202073BD211D20F80B0
:1007D700951206C7FB1206C7FA1206C7F94A4B70ED
:1007E7000679F77A0A7BFF200B2EE576602A7E00D2
:1007F7008E8275830012056860060EEE657770F0CD
:10080700C2D5EBC0E0EAC0E0E9C0E0EE120A60D072
:10081700E0F9D0E0FAD0E0FB12054FFF60AAEBC089
:10082700E0EAC0E0E9C0E0120702D0E02401F9D015
:10083700E03400FAD0E0FBE5770460DCD577D980B7
:1008470087D20B80A2120A4360F7E5777001041282
:10085700030DA977600DE577600914F577120AEAA9
:10086700EF60F3EA30E702F404C3995077EAF4251E
:10087700770430E701E404F577800D120A4360C17D
:10088700EA0577257712030DEA7874F630E701E475
:10089700257704D57704200E0114120A60E4C0E01E
:1008A700120AEA7874E6601320E70714F61206EADC
:1008B700802204F6D0E014C0E07F001206EAE57754
:1008C70060071206E11577800B300E031206E1D0A0
:1008D700E002073BD0E00480C5120A4360A0E57739
:1008E7000412030D7874EAF6E577200E026001041E
:0508F7002404120A6058
:1008FC0074FF04C0E0120AEA1206EAE577200E0241
:10090C0060031206E1D0E0B577E87F451206F47873
:10091C0074E67F2B30E7047F2DF404C0E01207024D
:10092C00D0E075F00A84C0F01206EBD0E01206EBB2
:10093C0002073B791080027908C20FC2118008D2DD
:10094C00D5790A8004790AC2D5E577047002F57767
:10095C00E4FAFDFEFF1206C7FC7B08200A13120600
:10096C00C7FD7B1030090A1206C7FE1206C7FF7BB3
:10097C0020EC3382D592D55013C3E43009069FFF87
:10098C00E49EFEE4200A039DFDE49CFCE4CBF8C24B
:10099C000AEC700CCFCECDCCE824F8F870F38017AD
:1009AC00C3EF33FFEE33FEED33FDEC33FCEB33FBE7
:1009BC00994002FB0FD8E9EB300A05F8D0E0C448A7
:1009CC00B20AC0E00AEC4D4E4F78207B0070C2EAB0
:1009DC00B5770040BCC0E0120A62D0F0D0E0200A2B
:1009EC0004C4C0E0C4B20AC0F01206EBD0F0D5F0DB
:1009FC00EB02073B12065507D853093F5807A94C81
:100A0C0007A54209434F094B44094B4907BE43090B
:100A1C00515508824608E045084C470B175007AD66
:100A2C002D07B12E07D42B07B52307D2200B002A94
:100A3C00076D48000007CCE577B4FF037577061205
:100A4C0006C7FC1206C7FD1206C7FE1206C7FF78C2
:100A5C006D02033C790AA2D5200C14300E09B91092
:100A6C00020404B9080104A2D5200F02500104208D
:100A7C000B68920BB576005034C0E07F20300C1917
:100A8C007F30A20B720F720E500F120AB9C20BC23A
:100A9C000FC20EC2117F30800F300E03E9C0E0127E
:100AAC000702300E03D0E0F9D0E0B576CC300E174B
:100ABC007F30B9100C1207027F58300D077F7880F9
:100ACC0003B90803120702300B057F2D0207027FC2
:100ADC00202011F87F2B200FF322920B80CF7F0068
:100AEC00B407005005246DF8E6FF22286E756C6C77
:100AFC002900D20A1206C7300AF8C20A787630D515
:100B0C000108F602076D2D504349581206C72403FD
:100B1C00B405004001E4900B12931206F3743A12E0
:0A0B2C0006F3D20C75760402093FAF
:1002C300E9D2E7C933E833F892D5EDD2E7CD33EC81
:0702D30033FC5002B2D522FA
:1002DA00EC30E7100FBF000C0EBE00080DBD000485
:1002EA000BEB6014A2D5EB13FCED92E7FD2274FF31
:1002FA00FCFDFEFF22E480F8A2D574FF13FC7D808A
:03030A00E480EF9D
:10030D00F920E72824F950037907E4F42402FB18B7
:10031D00DBFDE624FB5014E9600DE4F618E604F667
:0F032D00B40A08E4F6D9F57401F60A22C2D52203
:10033C00ED33EC3392D5FA602AB4FF33EDC2E77B90
:10034C00FF60067A037961E4227A03796A20D50486
:10035C007A037965224E614E002B494E46002D4999
:10036C004E4600E47A08F608DAFC7B00740722E8B3
:10037C00C0E0ECC0E0EDC0E0EEC0E0EFC0E0EA753C
:10038C00F010A4CAABF075F04DA42BFBE435F0FCD7
:10039C00EA2410FAEB34C5FBEC34D9FCEDC2E7FFD0
:1003AC0075F056A4F42411C5F0F434C58FF0A42ACA
:1003BC00E5F03BE43CF620E71412050FD0E0FFD04B
:1003CC00E0FED0E0FDD0E0FC1204428014F40412F4
:1003DC00050FD0E0FFD0E0FED0E0FDD0E0FC120134
:1003EC0006D0E0F8E6FAEDD2E7CD33EC332482FB0D
:1003FC00E4C3CF33CFCE33CECD33CD33DBF37B075A
:10040C0075F00A846004F6081B0AE5F0F6088FF014
:10041C00740AA4FFACF08EF0740AA42CFEACF0505D
:10042C00010C8DF0740AA42CFDE435F0F608DBDE2B
:03043C0074072220
:10043F00020302EC5D046005E8590470030202F840
:10044F001202C3580460F6EC4860F2EC7004FDFE33
:10045F00FF22C860DB2481C85009C3986002500690
:10046F000202FF9850CAF582E9294B4A7005AB8208
:10047F000202EE75F0007C1A7880C3EF9BEE9AEDC6
:10048F0099400DC3EF9BFFEE9AFEED99FDE842F008
:10049F00DC23ACF0D0E0FFD0E0FED0E0FDAB82205B
:1004AF00E7101BEB60BAEC2CFCEF33FFEE33FEEDE5
:1004BF0033FD0202DAE803F830E705C0F075F0000B
:1004CF00EF2FFFEE33FEED33FD40B830E7C280AAC9
:1004DF003F8000004120000042C80000447A000025
:1004EF00461C400047C35000497424004B189680A7
:1004FF004CBEBC205A0E1BCA6753C21C749DC5AE9E
:10050F00FB60065407601C232312053DEB54386033
:10051F0009120529120538120106ECF8EDF9EEFA69
:10052F00EFCB22EB12053880F1543803241C9004D2
:10053F00DFFE93FC0EEE93FD0EEE930ECE93FF2295
:10110C00020B36E493A3F8E493A34003F68001F2B8
:10111C0008DFF48029E493A3F85407240CC8C333E4
:10112C00C4540F4420C8834004F456800146F6DFB3
:10113C00E4800B01020408102040809014C0E47E6F
:10114C00019360BCA3FF543F30E509541FFEE493A8
:10115C00A360010ECF54C025E060A840B8E493A36F
:10116C00FAE493A3F8E493A3C8C582C8CAC583CA9A
:10117C00F0A3C8C582C8CAC583CADFE9DEE780BE52
:0114F60000F5
:10054F00BB010689828A83E0225002E722BBFE02AA
:09055F00E32289828A83E49322DD
:10056800BB010CE58229F582E5833AF583E0225048
:1005780006E92582F8E622BBFE06E92582F8E22292
:0D058800E58229F582E5833AF583E49322AC
:10059500BB010689828A83F0225002F722BBFE0145
:0205A500F3223F
:1005A700F8BB010DE58229F582E5833AF583E8F08A
:1005B700225006E92582C8F622BBFE05E92582C836
:0205C700F2221E
:1005C900EF8DF0A4A8F0CF8CF0A428CE8DF0A42E46
:0205D900FE2200
:0E05DB00C3E49FFFE49EFEE49DFDE49CFC2231
:1005E900EB9FF5F0EA9E42F0E99D42F0EC6480C889
:0605F90064809845F02229
:1005FF00BB010789828A830206875005E9F8020644
:10060F007BBBFE05E9F802069389828A8302069F67
:10061F00BB010789828A830206395005E9F8020671
:0A062F00AFBBFE05E9F80206BB228E
:0C063900ECF0A3EDF0A3EEF0A3EFF02234
:10064500FAE6FB0808E6F925F0F618E6CA3AF622B6
:10065500D083D082F8E4937012740193700DA3A334
:1006650093F8740193F5828883E473740293686048
:06067500EFA3A3A380DF48
:0C067B00E6FC08E6FD08E6FE08E6FF22AB
:0C068700E0FCA3E0FDA3E0FEA3E0FF22E6
:0C069300E2FC08E2FD08E2FE08E2FF22A3
:10069F00E493FC740193FD740293FE740393FF22A1
:0C06AF00ECF608EDF608EEF608EFF62277
:0C06BB00ECF208EDF208EEF208EFF2227B
:00000001FF
