:100FF40054454D503A2530352E3166202000485551
:101004004D493A2530352E316620202525202020D3
:1010140000593A253034644D3A25303264443A2537
:10102400303264202000483A253032644D3A25306D
:101034003264533A2530326420573A256400202024
:101044002057656C636F6D652075736520200020E3
:1010540020546865726D6F6D657465722020200080
:101064002020636C6173733A2062313620202000A3
:101074002020206E616D653A204C4C2020202020D9
:101084000048554D493A585858585820200054455E
:0D1094004D503A585858585820202520003B
:0F143400010800040900000000040D0000000082
:03151E0012152182
:0D152100007F027E67E4FDDDFEDEFCDFFAE8
:01152E00229A
:100B3600E4F522F523F524F52512124812150A12BA
:100B4600152F1214D712159E121338E51175F00AD7
:100B560084E5F070087F01120F441210A1C3E5115D
:100B66009432748094804005E4F5110522E5225400
:100B760001147003020C610470D11215509000002C
:100B860012063912155F900004120639900004E02F
:100B9600FCA3E0FDA3E0FEA3E0FFAB10AA0FA90EA5
:100BA600A80D12020C604C7533FF75340F7535F4C1
:100BB600900004E0FCA3E0FDA3E0FEA3E0F5398E7F
:100BC600388D378C367B017A0079081207237B0132
:100BD6007A0079087F8012149D7F8C121540900050
:100BE60004E0FCA3E0FDA3E0FEA3E0F5108E0F8D6C
:100BF6000E8C0D900000E0FCA3E0FDA3E0FEA3E058
:100C0600FFAB0CAA0BA90AA80912020C7003020B6F
:100C1600517533FF753410753502900000E0FCA362
:100C2600E0FDA3E0FEA3E0F5398E388D378C367BE8
:100C3600017A0079081207237B017A0079087FC0C0
:100C460012149D900000E0FCA3E0FDA3E0FEA3E0EB
:100C5600F50C8E0B8D0A8C09020B511215978B23FE
:100C66008A24892590000D12056865087003020B19
:100C760051E4F510F50FF50EF50DF50CF50BF50A2B
:100C8600F50990000D120568F5087533FF753410E7
:100C960075351590000112056875F064A4FDACF079
:100CA600C004C00512054FFF7E007C037DE81205D7
:100CB600C9D0E02FFDD0E03EFC9000021205687519
:100CC600F00AA42DFFE5F03CFE9000031205687CB7
:100CD600002FF537EC3EF53690000412056875F0E6
:100CE6000AA4FFAEF09000051205682FF539EC3E18
:100CF600F53890000612056875F00AA4FFAEF0906C
:100D060000071205682FF53BEC3EF53A7B017A00A9
:100D160079081207237B017A0079087F8012149DD7
:100D26007533FF75341075352AAB23AA24A925908F
:100D3600000812056875F00AA4FFAEF090000912CB
:100D460005687C002FF537EC3EF53690000A120553
:100D56006875F00AA4FFAEF090000B1205682FF537
:100D660039EC3EF53890000C12056875F00AA4FFC0
:100D7600AEF090000D1205682FF53BEC3EF53A906B
:100D8600000E120568753C00F53D7B017A00790876
:100D96001207237B017A0079087FC012149D020B8B
:010DA60051FB
:1012480012147F7BFF7A1079427F8012149D7BFFF6
:101258007A1079537FC012149D12151E7BFF7A10E5
:1012680079647F8012149D7BFF7A1079747FC01295
:10127800149D12151E1215211215217BFF7A107963
:10128800857F8012149D7F8C1215407BFF7A107920
:06129800927FC002149DCC
:10146000C2A18E80121479D2A2121479C2A2EEC443
:0914700054F0F580121479D2A2A7
:05147900007F14DFFEFE
:01147E00224B
:0C156E00AE07C2A2C2A0121460C2A222EA
:0C157A00AE07C2A2D2A0121460C2A222CE
:10147F007F3212156E7F2812156E7F0C12156E7F3C
:0E148F000612156E7F0112156E7F8002156E1B
:10149D00AD0712054F6016AF0512156E0D12054FF3
:0E14AD00FF12157A740129F9E43AFA80E5225B
:10154000AD0712156E0D7FDF12157A7F4302157AF3
:080003008F4C12158FAF4C2247
:10152F00439850438920758BFD758DFDD28ED2AFB8
:01153F002289
:08158F008F993099FDC29922E9
:10150A005389F0438901E4F58A758C4CC28DD28CDB
:04151A0043A882223E
:03000B0002158655
:09158600758A00758C4C051132C8
:0E1443004800282020022621554003011200F7
:05159E00C290C2912281
:03129E00A3E0FDCD
:1012A100D2905307FEE4FEEEC394087480948050FC
:1012B10015EF30E004D2928002C292D291C291EF36
:1012C100C313FF0E80E1E4FEEEC3940874809480A2
:1012D1005015ED30E004D2928002C292D291C291B7
:0912E100EDC313FD0E80E1C29083
:0112EA0022E1
:1012EB00D290430701E4FDEDC394087480948050C1
:1012FB0015EF30E004D2928002C292D291C291EFEC
:10130B00C313FF0D80E1E4FDEDC39408748094805A
:10131B005016EEC313FE309205430680800353062E
:0C132B007FD291C2910D80E0C290AF060D
:011337002293
:10133800E4FD7F8E1212A17D807F801212A19000A1
:1013480029E0FD7F8C1212A17F8812129E7F8612DF
:10135800129EA3E0FD7F841212A1A3E0FD7F8212FA
:1013680012A1A3E0FD7F801212A1A3E0FD7F8A12E3
:0913780012A17D807F8E0212A1FA
:1013C1007F8C1212EB900029EFF07F881212EBA3B1
:1013D100EFF07F861212EBA3EFF07F841212EBA3E2
:1013E100EFF07F821212EBA3EFF07F801212EBEF8E
:0D13F100547FA3F07F8A1212EBA3EFF022CD
:1010A100E4FC1213C1900028E0FFC4540F90001912
:1010B100F0EF540FA3F0900029E0FFC4540F90000B
:1010C1001BF0EF540FA3F090002AE0FFC4540F90DF
:1010D100001DF0EF540FA3F090002BE0FFC4540F5C
:1010E10090001FF0EF540FA3F090002CE0FFC454C8
:1010F1000F900021F0EF540FA3F090002DE0FFC4FA
:10110100540F900023F0EF540FA3F090002EE0FF56
:10111100C4540F900025F0EF540FA3F090002FE07E
:10112100900027F0900026E0FF651260030C8F12FB
:02113100AF0409
:011133002299
:071597007B017A00791922A3
:1014BB00CEC2B6C83A2530352E3166A1E62CCAAA63
:0C14CB00B6C82530352E316625250A00F4
:0E1451004400340000000044003000000000A1
:1014F100D294C29300D29300C29400C29300000020
:09150100D29300D29400C293229F
:1014D700D294C293E4FFEFC39409748094805007B9
:0A14E700D293C2930F80EF0214F1BC
:1013FE00E4FE7D80EDD39400748094804017ED5F01
:10140E006004D2948002C294D293000000C293ED85
:10141E00C313FD80DFD294D293A294E43300000074
:05142E00C293D294FFFF
:011433002296
:10138100E4FED2947D80EDD3940074809480401368
:10139100D293309403ED4206000000C293EDC313D3
:1013A100FD80E3EF64017004C2948002D2940000D6
:0F13B10000D293000000C293000000D294AF0658
:0113C000220A
:0611C0008B308A318932F8
:1011C600E4F537F5381214F1E536146007047018A3
:1011D6007F0380027F051213FEEF3395E0FEEF25B5
:1011E60038F538EE3537F537900000AF82AE83E438
:1011F600FCFD7BFF7AFFF9F8D31205E9400630942F
:1012060003A380E73094080538E538700205377F78
:1012160001121381AB30AA31A932EF1205957F0175
:10122600121381AB30AA31A932900001EF1205A743
:10123600E4FF121381AB33AA34A935EF120595AF3B
:01124600386F
:011247002284
:060DA7008B308A31893215
:100DAD00E4F539F5387537807536C0753D54753CA9
:100DBD00E3753B25753A3D7541A27540E7753F3B9F
:100DCD00753EB675450A7544D775432375423C7516
:100DDD0049AC7548C57547A77546381205FF8F4D47
:100DED008E4C8D4B8C4AAB33AA34A9351205FF8F2F
:100DFD00518E508D4F8C4E7F0A7ED77D237C3CAB20
:100E0D0051AA50A94FA84E120106E4FBFA79207899
:100E1D00C21200158F5D8E5C8D5B8C5AAF4DAE4C42
:100E2D00AD4BAC4AAB41AA40A93FA83E120106AB5F
:100E3D004DAA4CA94BA84A120106C004C005C00614
:100E4D00C007AF4DAE4CAD4BAC4AAB3DAA3CA93B38
:100E5D00A83A120106D003D002D001D0001200151D
:100E6D00AB39AA38A937A8361200158F558E548D77
:100E7D00538C52AF4DAE4CAD4BAC4AAB49AA48A9C1
:100E8D0047A846120106AB45AA44A943A842120041
:100E9D0015C004C005C006C007E4FFFE7DC87CC1B7
:100EAD00AB5DAA5CA95BA85A120015D003D002D085
:100EBD0001D000120106AB55AA54A953A852120035
:100ECD0015E4FBFA794078C01200158F598E588DB4
:100EDD00578C56E4FFFE7DC87C42AB59AA58A957E2
:100EED00A85612020C600D400BE4F559F5587557D4
:100EFD00C87556427FCD7ECC7DCC7C3DAB59AA5872
:100F0D00A957A85612020C500C7559CD7558CC75B1
:100F1D0057CC75563DAF5DAE5CAD5BAC5AAB33AAED
:100F2D0034A93512061FAF59AE58AD57AC56AB307C
:070F3D00AA31A93202061FD0
:020F44008F26F6
:100F4600E4F52FF53375340075352F753601FB7AC8
:100F56000079271211C075330075340075352FE4FA
:100F6600F536FB7A00792B1211C0AC27AD28E412B6
:100F7600028A8F2A8E298D288C27AC2BAD2CE41261
:100F8600028A8F2E8E2D8D2C8C2B75330075340096
:100F960075352B7B007A007927120DA7AF2EAE2D63
:100FA600AD2CAC2B900030120639AF2AAE29AD28F5
:100FB600AC27900034120639E52660317BFF7A149F
:100FC60079BB900030E0FCA3E0FDA3E0FEA3E0F5D2
:100FD600368E358D348C33A3E0FCA3E0FDA3E0FE12
:0D0FE600A3E0F53A8E398D388C37120729BB
:010FF30022DB
:0F155000900034E0FCA3E0FDA3E0FEA3E0FF2247
:0F155F00900030E0FCA3E0FDA3E0FEA3E0FF223C
:03000000021134B6
:0C113400787FE4F6D8FD75815D02117B28
:10000E000202F8E86480F8E933E83360110460F026
:10001E00ED33EC337009E8FCE9FDEAFEEBFF220458
:10002E0060DED3EB9FEA9EE99DE8C2E78CF0C2F753
:10003E0095F0400CE8CCF8E9CDF9EACEFAEBCFFB1F
:10004E001202C385D0F05804700320D5B3E80470B3
:10005E00075002B2D502030292D5EC0460F7E4CC4D
:10006E00C0E0C398F8603B94186008400DD0E0FBE8
:10007E000202DAE4FBFAC9FC8028E830E406E4C99F
:10008E00FBE4CAFCE830E305E4C9CACBFCE854073C
:10009E006010F8C3E913F9EA13FAEB13FBEC13FC47
:1000AE00D8F130F52FC3E49CFCEF9BFFEE9AFEEDEA
:1000BE0099FDD0E0FBEF4E4D4C701222DB03020295
:1000CE00FFEC2CFCEF33FFEE33FEED33FDED30E7AE
:1000DE00EB0202DAEF2BFFEE3AFEED39FDD0E0FB3C
:1000EE0050130BBB0003020302ED13FDEE13FEEFE4
:0800FE0013FFEC13FC0202DA0F
:10010600EC4D6011E8497017ED33EC3304600DE4F3
:10011600FCFFFEFD22E933E8330470F80202F81210
:1001260002C358046009E4CC248150062850090211
:1001360003022840030202FFC0E0EB4A7044B98084
:1001460006D0E0FB0202EEEF4E701CBD8008EBFF0E
:10015600EAFEE9FD80EBE98DF0A4FEE5F00201EF91
:10016600E9CDF9EAFEEBFFEF89F0A4FCE5F0CE89D4
:10017600F0A42EFFE435F0CD89F0A42DFEE435F091
:100186008067EF4E7005BD80D780C3EF8BF0A4ACBF
:10019600F0EE8BF0A42CFCE435F0F8EF8AF0A42CFA
:1001A600E5F038FCE433CB8DF0A42CFCE5F03BF80D
:1001B600EE8AF0A42CFCE5F038F8E433CF89F0A4FD
:1001C6002CFCE5F038CF3400CE89F0A42FFFE5F003
:1001D6003EFEE433C98DF0A42EFEE5F039CD8AF05B
:1001E600A42FFFE5F03EFEE43DFD33D0E0FB5007D3
:1001F6000BBB000F020302EC2CFCEF33FFEE33FEC9
:06020600ED33FD0202DAF7
:10020C0074F8CC6480CCC86480C8F58204604FC399
:10021C00EB9FF5F0EA9E42F0E99D42F0E89C45F038
:10022C00603C501DE5825FFFE582D313CB5BCBF4C2
:10023C002B5582FB50280ABA002409B900200880EB
:10024C001DE5825BFBE582D313CF5FCFF4C3132F85
:10025C005582FF50090EBE00050DBD00010CC3EB0D
:10026C009FF5F0EA9E42F0E99D42F0E89C45F06073
:09027C0007CC4820E701B3EC2295
:1002850075F020800E75F010800575F0087D007EF4
:10029500007F003392D530D5031205DBEC334010D7
:1002A500EF33FFEE33FEED33FDEC33FCD5F0ED22FD
:0E02B500E5F0247EA2D513CC92E7CDCEFF2239
:1006C700E5472433F8E605472278303007027833C8
:1006D700E475F00112064502054F2000EB7F2ED28C
:1006E700008018EF540F2490D43440D4FF30040B0B
:1006F700EF24BFB41A0050032461FFE548600215D8
:1007070048054BE54B7002054A30070D7830E47514
:10071700F001120645EF0205950200037403D207A4
:100727008003E4C207F5478B308A318932E4F54804
:10073700F54AF54BE54860077F2012070280F575FB
:1007470049FFC201C200C202C203C205C206C208F3
:100757001206D0FF700D3007057F00120713AF4B4D
:10076700AE4A22B4255FC2D5C2041206D0FF24D0F8
:10077700B40A00501A75F00A784830D50508B6FF54
:100787000106C6A426F620D5047002D20380D92418
:10079700CFB41A00EF5004C2E5D204020A00D20116
:1007A70080C6D20080C0D20280BCD2D580BAD20522
:1007B70080B47F201207022002077401B548004069
:1007C700F11206C7FF12070202073BD208D20680C2
:1007D700951206C7FB1206C7FA1206C7F94A4B70ED
:1007E7000679F77A0A7BFF20022EE548602A7E0009
:1007F7008E8275830012056860060EEE654970F0FB
:10080700C2D5EBC0E0EAC0E0E9C0E0EE120A60D072
:10081700E0F9D0E0FAD0E0FB12054FFF60AAEBC089
:10082700E0EAC0E0E9C0E0120702D0E02401F9D015
:10083700E03400FAD0E0FBE5490460DCD549D98013
:1008470087D20280A2120A4360F7E54970010412B9
:10085700030DA949600DE549600914F549120AEA33
:10086700EF60F3EA30E702F404C3995077EAF4251E
:10087700490430E701E404F549800D120A4360C1D9
:10088700EA0549254912030DEA7846F630E701E4FF
:10089700254904D5490420050114120A60E4C0E083
:1008A700120AEA7846E6601320E70714F61206EA0A
:1008B700802204F6D0E014C0E07F001206EAE54982
:1008C70060071206E11549800B3005031206E1D0D7
:1008D700E002073BD0E00480C5120A4360A0E54967
:1008E7000412030D7846EAF6E54920050260010483
:0508F7002404120A6058
:1008FC0074FF04C0E0120AEA1206EAE54920050278
:10090C0060031206E1D0E0B549E87F451206F478A1
:10091C0046E67F2B30E7047F2DF404C0E01207027B
:10092C00D0E075F00A84C0F01206EBD0E01206EBB2
:10093C0002073B791080027908C206C2088008D2EF
:10094C00D5790A8004790AC2D5E549047002F549C3
:10095C00E4FAFDFEFF1206C7FC7B08200113120609
:10096C00C7FD7B1030000A1206C7FE1206C7FF7BBC
:10097C0020EC3382D592D55013C3E43000069FFF90
:10098C00E49EFEE42001039DFDE49CFCE4CBF8C254
:10099C0001EC700CCFCECDCCE824F8F870F38017B6
:1009AC00C3EF33FFEE33FEED33FDEC33FCEB33FBE7
:1009BC00994002FB0FD8E9EB300105F8D0E0C448B0
:1009CC00B201C0E00AEC4D4E4F78207B0070C2EAB9
:1009DC00B5490040BCC0E0120A62D0F0D0E0200162
:1009EC0004C4C0E0C4B201C0F01206EBD0F0D5F0E4
:1009FC00EB02073B12065507D853093F5807A94C81
:100A0C0007A54209434F094B44094B4907BE43090B
:100A1C00515508824608E045084C470B175007AD66
:100A2C002D07B12E07D42B07B52307D2200B002A94
:100A3C00076D48000007CCE549B4FF037549061261
:100A4C0006C7FC1206C7FD1206C7FE1206C7FF78C2
:100A5C003F02033C790AA2D5200314300509B910D2
:100A6C00020404B9080104A2D52006025001042096
:100A7C0002689202B548005034C0E07F2030031960
:100A8C007F30A20272067205500F120AB9C202C25E
:100A9C0006C205C2087F30800F300503E9C0E012A2
:100AAC000702300503D0E0F9D0E0B548CC3005178B
:100ABC007F30B9100C1207027F583004077F788002
:100ACC0003B908031207023002057F2D0207027FCB
:100ADC00202008F87F2B2006F322920280CF7F0083
:100AEC00B407005005243FF8E6FF22286E756C6CA5
:100AFC002900D2011206C73001F8C201784830D55E
:100B0C000108F602076D2D504349581206C72403FD
:100B1C00B405004001E4900B12931206F3743A12E0
:0A0B2C0006F3D20375480402093FE6
:1002C300E9D2E7C933E833F892D5EDD2E7CD33EC81
:0702D30033FC5002B2D522FA
:1002DA00EC30E7100FBF000C0EBE00080DBD000485
:1002EA000BEB6014A2D5EB13FCED92E7FD2274FF31
:1002FA00FCFDFEFF22E480F8A2D574FF13FC7D808A
:03030A00E480EF9D
:10030D00F920E72824F950037907E4F42402FB18B7
:10031D00DBFDE624FB5014E9600DE4F618E604F667
:0F032D00B40A08E4F6D9F57401F60A22C2D52203
:10033C00ED33EC3392D5FA602AB4FF33EDC2E77B90
:10034C00FF60067A037961E4227A03796A20D50486
:10035C007A037965224E614E002B494E46002D4999
:10036C004E4600E47A08F608DAFC7B00740722E8B3
:10037C00C0E0ECC0E0EDC0E0EEC0E0EFC0E0EA753C
:10038C00F010A4CAABF075F04DA42BFBE435F0FCD7
:10039C00EA2410FAEB34C5FBEC34D9FCEDC2E7FFD0
:1003AC0075F056A4F42411C5F0F434C58FF0A42ACA
:1003BC00E5F03BE43CF620E71412050FD0E0FFD04B
:1003CC00E0FED0E0FDD0E0FC1204428014F40412F4
:1003DC00050FD0E0FFD0E0FED0E0FDD0E0FC120134
:1003EC0006D0E0F8E6FAEDD2E7CD33EC332482FB0D
:1003FC00E4C3CF33CFCE33CECD33CD33DBF37B075A
:10040C0075F00A846004F6081B0AE5F0F6088FF014
:10041C00740AA4FFACF08EF0740AA42CFEACF0505D
:10042C00010C8DF0740AA42CFDE435F0F608DBDE2B
:03043C0074072220
:10043F00020302EC5D046005E8590470030202F840
:10044F001202C3580460F6EC4860F2EC7004FDFE33
:10045F00FF22C860DB2481C85009C3986002500690
:10046F000202FF9850CAF582E9294B4A7005AB8208
:10047F000202EE75F0007C1A7880C3EF9BEE9AEDC6
:10048F0099400DC3EF9BFFEE9AFEED99FDE842F008
:10049F00DC23ACF0D0E0FFD0E0FED0E0FDAB82205B
:1004AF00E7101BEB60BAEC2CFCEF33FFEE33FEEDE5
:1004BF0033FD0202DAE803F830E705C0F075F0000B
:1004CF00EF2FFFEE33FEED33FD40B830E7C280AAC9
:1004DF003F8000004120000042C80000447A000025
:1004EF00461C400047C35000497424004B189680A7
:1004FF004CBEBC205A0E1BCA6753C21C749DC5AE9E
:10050F00FB60065407601C232312053DEB54386033
:10051F0009120529120538120106ECF8EDF9EEFA69
:10052F00EFCB22EB12053880F1543803241C9004D2
:10053F00DFFE93FC0EEE93FD0EEE930ECE93FF2295
:10114000020B36E493A3F8E493A34003F68001F284
:1011500008DFF48029E493A3F85407240CC8C333B0
:10116000C4540F4420C8834004F456800146F6DF7F
:10117000E4800B0102040810204080901434E47EC7
:10118000019360BCA3FF543F30E509541FFEE49374
:10119000A360010ECF54C025E060A840B8E493A33B
:1011A000FAE493A3F8E493A3C8C582C8CAC583CA66
:1011B000F0A3C8C582C8CAC583CADFE9DEE780BE1E
:01145F00008C
:10054F00BB010689828A83E0225002E722BBFE02AA
:09055F00E32289828A83E49322DD
:10056800BB010CE58229F582E5833AF583E0225048
:1005780006E92582F8E622BBFE06E92582F8E22292
:0D058800E58229F582E5833AF583E49322AC
:10059500BB010689828A83F0225002F722BBFE0145
:0205A500F3223F
:1005A700F8BB010DE58229F582E5833AF583E8F08A
:1005B700225006E92582C8F622BBFE05E92582C836
:0205C700F2221E
:1005C900EF8DF0A4A8F0CF8CF0A428CE8DF0A42E46
:0205D900FE2200
:0E05DB00C3E49FFFE49EFEE49DFDE49CFC2231
:1005E900EB9FF5F0EA9E42F0E99D42F0EC6480C889
:0605F90064809845F02229
:1005FF00BB010789828A830206875005E9F8020644
:10060F007BBBFE05E9F802069389828A8302069F67
:10061F00BB010789828A830206395005E9F8020671
:0A062F00AFBBFE05E9F80206BB228E
:0C063900ECF0A3EDF0A3EEF0A3EFF02234
:10064500FAE6FB0808E6F925F0F618E6CA3AF622B6
:10065500D083D082F8E4937012740193700DA3A334
:1006650093F8740193F5828883E473740293686048
:06067500EFA3A3A380DF48
:0C067B00E6FC08E6FD08E6FE08E6FF22AB
:0C068700E0FCA3E0FDA3E0FEA3E0FF22E6
:0C069300E2FC08E2FD08E2FE08E2FF22A3
:10069F00E493FC740193FD740293FE740393FF22A1
:0C06AF00ECF608EDF608EEF608EFF62277
:0C06BB00ECF208EDF208EEF208EFF2227B
:00000001FF
